:020000040800F2
:1000000000000220356D0008E3540008E5540008A4
:10001000E7540008E9540008EB5400080000000011
:10002000000000000000000000000000B11B0008FC
:10003000ED54000800000000511C0008F90C0008F5
:10004000856D0008856D0008856D0008856D0008C8
:10005000856D0008856D0008856D0008856D0008B8
:10006000856D0008856D0008856D0008856D0008A8
:10007000856D0008856D0008856D0008856D000898
:10008000F1540008856D0008856D0008856D000835
:10009000856D0008856D0008856D0008856D000878
:1000A000856D0008856D0008856D0008856D000868
:1000B000856D000801550008856D0008856D0008F4
:1000C000856D0008856D0008856D0008856D000848
:1000D000856D000811550008856D0008856D0008C4
:1000E000856D0008856D0008856D0008856D000828
:1000F00021550008856D0008856D0008856D000894
:10010000856D0008856D0008856D0008856D000807
:10011000856D0008856D0008856D00083155000863
:10012000415500085155000861550008856D0008CB
:10013000856D0008856D0008856D0008856D0008D7
:10014000856D0008856D0008856D0008856D0008C7
:10015000856D00087155000881550008915500080B
:10016000856D0008856D0008856D0008856D0008A7
:10017000856D0008856D0008856D00080000000091
:08018000856D0008856D000883
:1001900001F0FF01102A2BDB10F0070F08D010F838
:1001A000013B013A8B422DD010F0070F42B3F6D13C
:1001B000F0B441EA012141EA014122F007047FF055
:1001C00000070023F0E80256083C85EA010586EAAC
:1001D000010685FA47F5A3FA87F586FA47F6A5FAE8
:1001E00087F68EB9EED1F0BC01F0FF0102F00702F4
:1001F00032B110F8013B013A83EA010313B1F8D19F
:100200000020704701387047002D06BF354603387F
:10021000073815F0010F07D1013015F4807F02BFB8
:10022000013015F4C03F0130F0BC0138704700BF09
:10023000034613F8012B002AFBD1181A0138704726
:1002400081F0004102E000BF83F0004330B54FEA87
:1002500041044FEA430594EA050F08BF90EA020FF4
:100260001FBF54EA000C55EA020C7FEA645C7FEA87
:10027000655C00F0E2804FEA5454D4EB5555B8BFAA
:100280006D420CDD2C4480EA020281EA030382EA1B
:10029000000083EA010180EA020281EA0303362DAD
:1002A00088BF30BD11F0004F4FEA01314FF4801C80
:1002B0004CEA113102D0404261EB410113F0004F92
:1002C0004FEA03334CEA133302D0524263EB430349
:1002D00094EA050F00F0A780A4F10104D5F1200EE7
:1002E0000DDB02FA0EFC22FA05F2801841F1000142
:1002F00003FA0EF2801843FA05F359410EE0A5F116
:1003000020050EF1200E012A03FA0EFC28BF4CF046
:10031000020C43FA05F3C01851EBE37101F00045FC
:1003200007D54FF0000EDCF1000C7EEB00006EEB09
:100330000101B1F5801F1BD3B1F5001F0CD3490893
:100340005FEA30004FEA3C0C04F101044FEA4452EA
:1003500012F5800F80F09A80BCF1004F08BF5FEA71
:10036000500C50F1000041EB045141EA050130BD51
:100370005FEA4C0C404141EB0101013C28BFB1F563
:10038000801FE9D291F0000F04BF01460020B1FAAE
:1003900081F308BF2033A3F10B03B3F120020CDA81
:1003A0000C3208DD02F1140CC2F10C0201FA0CF05F
:1003B00021FA02F10CE002F11402D8BFC2F1200CC4
:1003C00001FA02F120FA0CFCDCBF41EA0C0190407A
:1003D000E41AA2BF01EB0451294330BD6FEA0404C3
:1003E0001F3C1CDA0C340EDC04F11404C4F12002AE
:1003F00020FA04F001FA02F340EA030021FA04F3C0
:1004000045EA030130BDC4F10C04C4F1200220FA16
:1004100002F001FA04F340EA0300294630BD21FA54
:1004200004F0294630BD94F0000F83F4801306BF1A
:1004300081F480110134013D4EE77FEA645C18BF0E
:100440007FEA655C29D094EA050F08BF90EA020FA5
:1004500005D054EA000C04BF1946104630BD91EA9D
:10046000030F1EBF0021002030BD5FEA545C05D1A0
:100470004000494128BF41F0004130BD14F58004DF
:100480003CBF01F5801130BD01F0004545F0FE4153
:1004900041F470014FF0000030BD7FEA645C1ABF88
:1004A000194610467FEA655C1CBF0B46024650EABF
:1004B000013406BF52EA033591EA030F41F40021EB
:1004C00030BD00BF90F0000F04BF0021704730B571
:1004D0004FF4806404F132044FF000054FF0000146
:1004E00050E700BF90F0000F04BF0021704730B507
:1004F0004FF4806404F1320410F0004548BF4042DC
:100500004FF000013EE700BF42004FEAE2014FEA30
:1005100031014FEA02701FBF12F07F4393F07F4F0B
:1005200081F06051704732F07F4208BF704793F00E
:100530007F4F04BF41F40021704730B54FF4607421
:1005400001F0004521F000411CE700BF50EA010224
:1005500008BF704730B54FF000050AE050EA0102CD
:1005600008BF704730B511F0004502D5404261EB3D
:1005700041014FF4806404F132045FEA915C3FF47E
:10058000D8AE4FF003025FEADC0C18BF03325FEA1B
:10059000DC0C18BF033202EBDC02C2F1200300FACC
:1005A00003FC20FA02F001FA03FE40EA0E0021FAF1
:1005B00002F11444BDE600BF70B54FF0FF0C4CF4DF
:1005C000E06C1CEA11541DBF1CEA135594EA0C0F91
:1005D00095EA0C0F00F0DEF82C4481EA030621EACC
:1005E0004C5123EA4C5350EA013518BF52EA033507
:1005F00041F4801143F4801338D0A0FB02CE4FF0B9
:100600000005E1FB02E506F00042E0FB03E54FF0E8
:100610000006E1FB03569CF0000F18BF4EF0010EE0
:10062000A4F1FF04B6F5007F64F5407404D25FEADC
:100630004E0E6D4146EB060642EAC62141EA55518F
:100640004FEAC52040EA5E504FEACE2EB4F1FD0CD1
:1006500088BFBCF5E06F1ED8BEF1004F08BF5FEA4F
:10066000500E50F1000041EB045170BD06F0004601
:1006700046EA010140EA020081EA0301B4EB5C04AE
:10068000C2BFD4EB0C0541EA045170BD41F48011A6
:100690004FF0000E013C00F3AB8014F1360FDEBFCB
:1006A000002001F0004170BDC4F10004203C35DAA7
:1006B0000C341BDC04F11404C4F1200500FA05F32A
:1006C00020FA04F001FA05F240EA020001F00042CB
:1006D00021F0004110EBD37021FA04F642EB060141
:1006E0005EEA430E08BF20EAD37070BDC4F10C046B
:1006F000C4F1200500FA04F320FA05F001FA04F22F
:1007000040EA020001F0004110EBD37041F100011A
:100710005EEA430E08BF20EAD37070BDC4F1200525
:1007200000FA05F24EEA020E20FA04F301FA05F28D
:1007300043EA020321FA04F001F0004121FA04F235
:1007400020EA020000EBD3705EEA430E08BF20EA05
:10075000D37070BD94F0000F0FD101F0004640003F
:1007600041EB010111F4801F08BF013CF7D041EAC1
:10077000060195F0000F18BF704703F000465200C5
:1007800043EB030313F4801F08BF013DF7D043EA96
:100790000603704794EA0C0F0CEA135518BF95EA4C
:1007A0000C0F0CD050EA410618BF52EA4306D1D1D3
:1007B00081EA030101F000414FF0000070BD50EAF2
:1007C000410606BF1046194652EA430619D094EA7C
:1007D0000C0F02D150EA013613D195EA0C0F05D166
:1007E00052EA03361CBF104619460AD181EA0301BA
:1007F00001F0004141F0FE4141F470014FF0000072
:1008000070BD41F0FE4141F4780170BD70B54FF00C
:10081000FF0C4CF4E06C1CEA11541DBF1CEA13558C
:1008200094EA0C0F95EA0C0F00F0A7F8A4EB05046E
:1008300081EA030E52EA03354FEA013100F0888065
:100840004FEA03334FF0805545EA131343EA12632E
:100850004FEA022245EA111545EA10654FEA0026E3
:100860000EF000419D4208BF964244F1FD0404F59C
:10087000407402D25B084FEA3202B61A65EB0305F8
:100880005B084FEA32024FF480104FF4002CB6EBB5
:10089000020E75EB030E22BFB61A754640EA0C0035
:1008A0005B084FEA3202B6EB020E75EB030E22BF75
:1008B000B61A754640EA5C005B084FEA3202B6EBB6
:1008C000020E75EB030E22BFB61A754640EA9C0075
:1008D0005B084FEA3202B6EB020E75EB030E22BF45
:1008E000B61A754640EADC0055EA060E18D04FEA03
:1008F000051545EA16754FEA06164FEAC30343EAA3
:1009000052734FEAC2025FEA1C1CC0D111F4801F6F
:100910000BD141EA00014FF000004FF0004CB6E768
:1009200011F4801F04BF01430020B4F1FD0C88BF07
:10093000BCF5E06F3FF6AFAEB5EB030C04BFB6EB12
:10094000020C5FEA500C50F1000041EB045170BD05
:100950000EF0004E4EEA113114EB5C04C2BFD4EB32
:100960000C0541EA045170BD41F480114FF0000EB6
:10097000013C90E645EA060E8DE60CEA135594EA32
:100980000C0F08BF95EA0C0F3FF43BAF94EA0C0F35
:100990000AD150EA01347FF434AF95EA0C0F7FF4AA
:1009A00025AF104619462CE795EA0C0F06D152EAFE
:1009B00003353FF4FDAE1046194622E750EA4106E2
:1009C00018BF52EA43067FF4C5AE50EA41047FF4F3
:1009D0000DAF52EA43057FF4EBAE12E74FF0FF3C58
:1009E00006E000BF4FF0010C02E000BF4FF0010C29
:1009F0004DF804CD4FEA410C7FEA6C5C4FEA430CA2
:100A000018BF7FEA6C5C1BD001B050EA410C0CBFF0
:100A100052EA430C91EA030F02BF90EA020F002052
:100A2000704710F1000F91EA030F58BF994208BFB9
:100A300090422CBFD8176FEAE37040F00100704776
:100A40004FEA410C7FEA6C5C02D150EA013C07D1CD
:100A50004FEA430C7FEA6C5CD6D152EA033CD3D018
:100A60005DF8040B704700BF8446104662468C4612
:100A70001946634600E000BF01B5FFF7B7FF002845
:100A800048BF10F1000F01BD4DF808EDFFF7F4FF6E
:100A90000CBF012000205DF808FB00BF4DF808EDF9
:100AA000FFF7EAFF34BF012000205DF808FB00BF1C
:100AB0004DF808EDFFF7E0FF94BF012000205DF83E
:100AC00008FB00BF4DF808EDFFF7CEFF94BF0120F3
:100AD00000205DF808FB00BF4DF808EDFFF7C4FFEC
:100AE00034BF012000205DF808FB00BF4FEA410C35
:100AF0007FEA6C5C02D150EA013C0AD14FEA430C18
:100B00007FEA6C5C02D152EA033C02D14FF0000054
:100B100070474FF0010070474FEA410212F5001292
:100B200015D211D56FF47873B3EB625212D94FEA34
:100B3000C12343F0004343EA505311F0004F23FA1E
:100B400002F018BF404270474FF00000704750EA73
:100B5000013005D111F0004008BF6FF00040704730
:100B60004FF00000704700BF53B94AB9002908BFD1
:100B700000281CBF4FF0FF314FF0FF3000F00CB8E1
:100B8000ADF1080C6DE904CE08F006FEDDF804E0D6
:100B9000DDE9022304B07047704700BF10B5054C73
:100BA000237833B9044B13B10448AFF30080012319
:100BB000237010BDDC01002000000000909A0008A6
:100BC00008B5034B1BB103490348AFF3008008BDD0
:100BD00000000000E0010020909A000800B585B0F8
:100BE000002300930193029303931648164A026070
:100BF0004FF480324260836003610122027680F804
:100C000020304FF08051C1624FF0C0618162C360FB
:100C1000C26180F83020426101F02EFE60B90123EC
:100C200000930193072302936946064801F050FEA2
:100C300028B905B05DF804FB00F0DAFEEFE700F03C
:100C4000D7FEF6E7580200200020014030B589B0F9
:100C5000002303930493059306930793026803F11B
:100C6000804303F590339A4201D009B030BD044669
:100C70000025019503F58C335A6C42F480725A6456
:100C80005A6C02F480720192019A02951A6B42F03A
:100C900001021A631B6B03F001030293029B022300
:100CA00003930323049303A9104802F09DF910480D
:100CB000104B036045608560C5604FF4806303613D
:100CC0004FF4006343614FF4005383614FF480732A
:100CD000C3610562456201F0D7FF18B9044BA363F5
:100CE0009C63C2E700F084FEF8E700BF000002400A
:100CF000F80100201064024008B54FF0E0231B69A2
:100D000005F040F9012800D108BD00F0D3FFFBE752
:100D1000EFF305832BB9064B186828B901221A6036
:100D200070476FF0050070474FF0FF30704700BF0D
:100D300058090020EFF3058373B90A4B1B68012B98
:100D40000DD110B50024084BDC77064B02221A6047
:100D500004F074FE204610BD6FF0050070474FF0A0
:100D6000FF3070475809002000ED00E0F0B587B073
:100D700000240594EFF3058404BBF8B1002A34D0B5
:100D8000156893692BB11E46013B372B02D9002011
:100D900015E01826536813F0010F3FD1546984B150
:100DA0004FEA940C93682BB1D7685B2F02D917696F
:100DB00007B184B943B14FF0FF330BB3059807B0C7
:100DC000F0BD4FF0800CEDE7D368A3B91369ABB168
:100DD0004FF0FF33F1E70293019700960B4662460E
:100DE000294604F0BDFD0590E8E7154600231826C6
:100DF0004FF0800CE1E74FF0FF33DEE70023DCE744
:100E000005AB019300960B461FFA8CF2294604F0BD
:100E1000E2FD0128D2D000230593CFE70020CEE7E2
:100E200008B5EFF3058333B908B9002008BD04F015
:100E300067FF0020FAE76FF00500F7E710B582B012
:100E40001C46EFF30583C3B118B329B33CBB0023A1
:100E5000019301AA01F013FA012823D1019850B19E
:100E60004FF0E0234FF08052C3F8042DBFF34F8FB3
:100E7000BFF36F8F002002B010BDB0B1C1B100232D
:100E8000224601F038F9012815D0B4B16FF0010005
:100E9000F1E76FF00300EEE76FF00300EBE76FF0B0
:100EA0000300E8E76FF00200E5E76FF00300E2E718
:100EB0006FF00300DFE70020DDE76FF00200DAE704
:100EC000034B0360034B0B6080231360704700BF2C
:100ED000FC080020FC060020034B0360034B0B6062
:100EE0004FF4807313607047A0060020A00200201A
:100EF00000B583B00023009301930C480C4B0360B2
:100F000001F018FE58B9242300930022019269468B
:100F1000064801F021FE28B903B05DF804FB00F09B
:100F200067FDF0E700F064FDF6E700BFBC090020B4
:100F30000074004030B589B00023039304930593F7
:100F4000069307930268224B9A4201D009B030BD44
:100F500004460025019503F5E2331A6C42F0005275
:100F60001A641A6C02F000520192019A02951A6BEF
:100F700042F001021A631B6B03F001030293029B10
:100F8000102303930323049303A9124802F02CF8BF
:100F90001148124B03604FF060634360402383604D
:100FA000C5604FF4806303614FF4006343614FF405
:100FB00000538361C5610562456201F065FE18B9A1
:100FC000054BA3609C63C1E700F012FDF8E700BF8A
:100FD00000740040000002405C090020886002406C
:100FE00010B582B000240094224B1A6B42F48002A8
:100FF0001A631A6B02F480020092009A01941A6B31
:1010000042F400121A631B6B03F400130193019B5B
:1010100022460521102001F079FD102001F086FD07
:1010200022460521382001F071FD382001F07EFDB7
:1010300022460521392001F069FD392001F076FDB5
:10104000224605213A2001F061FD3A2001F06EFDB3
:1010500022460521452001F059FD452001F066FD9D
:1010600022460521462001F051FD462001F05EFD9B
:1010700002B010BD0038024000B583B08DF8070003
:10108000002005F027FE05F0C7FD012200210DF12B
:10109000070005F001FE05F0BFFD9DF807100348AD
:1010A00006F08AFB03B05DF804FB00BFA89A0008B5
:1010B00010B582B000248DF8074005F041FD0146CF
:1010C000084806F079FB012221460DF1070005F0E2
:1010D0006FFD9DF80710044806F06EFB9DF80700B1
:1010E00002B010BDC49A0008DC9A000808B5444C50
:1010F0004449204605F034FB204605F08DFB0621CF
:10110000414800F0EBFA0721404800F007FC0020BE
:1011100000F0D4FB05F03AFDFFF7CAFF3C4B187016
:1011200000F0CCFB3B4806F0AFFB3B4806F0ACFBC5
:101130004DE03A4D2A7801239340354C20785840B1
:10114000C0B2207000F0BAFB2B780133344981FB28
:10115000032119448910C1EBC101591A2970C9B280
:10116000227801312F4806F027FB032000F06EFBA8
:10117000002838D0294B1B78002B3AD0013BDBB23A
:10118000264D2B70012202FA03F3214C207858409F
:10119000C0B2207000F092FB2978227801312248F9
:1011A00006F00AFB022000F051FB20BB052000F0F6
:1011B0004DFB48B1FFF77CFF154C207000F07EFB23
:1011C00021781A4806F0F8FA0A20FFF729FE00F005
:1011D0009DFA002000F03AFB0028AAD100F052FB53
:1011E0000028C2D0A5E7032000F04CFB0028D9D08E
:1011F000C0E70623C4E7064B1878FFF73DFFD5E7A5
:10120000D809002020990020349C0008FC9B00088D
:10121000D5090020FC9A0008149B0008D40900207E
:10122000932449924C9B0008709B0008949B0008F3
:1012300008B5044A00210448FFF798FD034B1860E5
:1012400008BD00BFD89B0008ED100008D0090020A1
:101250002DE9F04F8DB007AD002407940894099450
:101260000A940B9401945A4B1A6B42F010021A63C1
:101270001A6B02F010020192019A02941A6B42F06A
:1012800004021A631A6B02F004020292029A039497
:101290001A6B42F080021A631A6B02F0800203920A
:1012A000039A04941A6B42F001021A631A6B02F05B
:1012B00001020492049A05941A6B42F002021A6326
:1012C0001A6B02F002020592059A06941A6B42F01C
:1012D00008021A631B6B03F008030693069BDFF8F2
:1012E000F8B022460121584601F07BFFDFF8ECA060
:1012F00022461021504601F074FF364F01224FF470
:10130000FE41384601F06DFF224648F201013846A1
:1013100001F067FFDFF8C89022464FF424414846A9
:1013200001F05FFFDFF8BC8022464021404601F01B
:1013300058FF1E230793089401260996294638462C
:1013400001F052FE60230793089402230993294673
:10135000384601F049FE0796089609940A942946F2
:10136000584601F041FE10230793089609940A9409
:101370002946504601F038FE4FF601730793089650
:1013800009940A942946384601F02EFE4FF424436E
:101390000793089609940A942946484601F024FECA
:1013A0004FF4007307934FF4881308930994294668
:1013B000404601F019FE40230793089609940A94C9
:1013C0002946404601F010FE0DB0BDE8F08F00BF89
:1013D00000380240001002400000024000080240B5
:1013E00000040240000C0240124A12F0070F1ED007
:1013F000D11D21F00701C1F5004313440A460E48F0
:101400000260002141601344083B23F007030B48AE
:10141000036059601960991A51601360084B196094
:10142000084B1960084B4FF000421A6070474FF4A8
:101430000043E4E7100C0020080C0020040C0020FE
:10144000FC0B0020000C0020F00B0020164B1A466D
:101450001B688342FBD3516802EB010C844509D021
:10146000416800EB010C634509D00360904219D03C
:10147000106070474068014451601046F0E710B4B6
:101480000A4C2468A3420BD05B681944416013687E
:101490001B680360904200D010605DF8044B7047F9
:1014A0000460F7E7704700BF080C0020040C002020
:1014B00038B5044604F00EFB384B1B68B3B1384B0B
:1014C0001B681C4250D1002C50D004F1080214F0CB
:1014D000070F02D022F007020832002A55D0314B04
:1014E0001B68934253D330490C6804E0FFF77CFF3C
:1014F000E5E721461C466368934202D22368002B2D
:10150000F7D1264B1B68A34243D00D6808352368EA
:101510000B6063689B1A102B10D9A01810F0070FEE
:1015200008D04FF0500383F31188BFF36F8FBFF3E0
:101530004F8FFEE743606260FFF788FF62681949DA
:101540000B689B1A0B60194909688B4201D2174935
:101550000B60134B1B681343636000232360144A22
:1015600013680133136002E0002500E0002504F059
:101570004BFB15F0070F0ED04FF0500383F311888B
:10158000BFF36F8FBFF34F8FFEE70025EFE7002516
:10159000EDE70025EBE7284638BD00BF040C00202E
:1015A000F00B0020000C0020080C0020FC0B002099
:1015B000F80B0020002834D038B50446A0F1080507
:1015C00050F8043C174A1268134208D14FF05003F8
:1015D00083F31188BFF36F8FBFF34F8FFEE750F88F
:1015E000081C41B14FF0500383F31188BFF36F8F94
:1015F000BFF34F8FFEE723EA020340F8043C04F0F8
:1016000069FA54F8041C084A13680B44136028460E
:10161000FFF71CFF054A13680133136004F0F4FA66
:1016200038BD7047F00B0020000C0020F40B0020A8
:1016300008B50B480B4B03600B4B436000238360E2
:10164000C3604FF48042026143618361C3610362FE
:1016500001F0CEFD00B908BD00F0CAF9FBE700BFFC
:10166000108C002000540040801A060030B589B06C
:101670000023039304930593069307930268144B86
:101680009A4201D009B030BD00250195114C236B61
:1016900043F002032363236B03F002030193019BD6
:1016A000C023039312230493032306930423079375
:1016B00003A9094801F098FC0295236C43F4001338
:1016C0002364236C03F400130293029BDAE700BF48
:1016D00000540040003802400004024010B50629C2
:1016E00000D90621064B1970CC0022460146054858
:1016F00006F027FA22460021034806F0A3F910BDA0
:10170000648C0020988C0020688C002070B5002428
:101710001BE0012814BF0020012029E0484B13F8EA
:101720003530FF2B03D00133454A02F83530444BA6
:1017300003EBC5035B78012B31D0414B03EBC503B1
:101740009B78012B66D00134E4B23E4B1B78A34258
:1017500075D925463C4B03EBC406B18853F83400D9
:1017600001F038FDB379002BD3D1B0FA80F04009F5
:10177000334B03EBC5035B788342CFD0304A12F87A
:1017800035300133DBB202F83530012BCFD91346A7
:1017900002EBC5025070002203F83520C7E7284B42
:1017A00003EBC5039B7863B9254B03EBC50301220B
:1017B0009A7000229A809A71DA7942F00102DA7105
:1017C000C1E71F4A02EBC50293880A339BB293809C
:1017D00092795AB9B3F5487F08D3194A02EBC5028A
:1017E00001219171D17941F00401D171144A02EBC8
:1017F000C5029279002AA6D0B3F5617FA3D3104B1E
:1018000003EBC503DA7942F00802DA714FF448724B
:101810009A8098E70A4B03EBC50300229A709B79E4
:1018200033B9074B03EBC503DA7942F00202DA71F0
:10183000034B03EBC50300229A809A7183E770BDC6
:10184000688C0020648C0020988C002003460B4A92
:10185000127882420FD90A4A02EBC002D27912F002
:10186000020000D17047064901EBC30322F00202D7
:10187000DA71012070470020F4E700BF648C00207B
:10188000688C002003460B4A127882420FD90A4A1C
:1018900002EBC002D27912F0080000D1704706496D
:1018A00001EBC30322F00802DA7101207047002027
:1018B000F4E700BF648C0020688C002038B5054632
:1018C000134B1870002410E0124B03EBC4039A79F9
:1018D000B2FA82F252090F4B03EBCC01898853F81C
:1018E0003C0001F07EFC0134E4B20B4B1B78A342B8
:1018F0000DD9A44645FA04F313F0010FE4D0054BCB
:1019000003EBC4039A79003A18BF0122E3E738BD1C
:10191000C88C0020CC8C0020C98C002008B5072979
:1019200000D90721064B1970CA000146054806F088
:1019300008F90020044B1870FFF7C0FF08BD00BF76
:10194000C98C0020CC8C0020C88C002000F108033A
:1019500043604FF0FF328260C36003610023036085
:10196000704700230361704743684B609A688A6040
:10197000516099600861036801330360704730B4B7
:101980000D68B5F1FF3F11D000F108031C465B68FC
:101990001A68AA42FAD963684B6099608C606160EA
:1019A000086103680133036030BC70470469F2E7E3
:1019B0000369416882688A60416851605A6882425E
:1019C00006D0002202611A68013A1A60186870474E
:1019D00082685A60F5E7000008B50268034B9A4236
:1019E00000D008BD00F09CFEFBE700BF00140040E3
:1019F00072B6FEE710B594B008AC30220021204644
:101A000006F020F8002303930493059306930793AD
:101A10000193214A116C41F080511164126C02F063
:101A200080520192019A02931C4B1A6842F4804240
:101A30001A601B6803F480430293029B05230893FA
:101A40004FF48033099301230A9302230E934FF43A
:101A500080020F9204221092A8221192129307235F
:101A60001393204601F0C4FC90B90F230393022383
:101A70000493002305934FF4A05306934FF480532F
:101A80000793052103A801F01DFF18B914B010BD7C
:101A9000FFF7AEFFFFF7ACFF0038024000700040D8
:101AA00008B500F023FEFFF7A5FFFFF7D1FBFFF716
:101AB00097FAFFF793F8FFF71BFAFFF7B9FD00F06D
:101AC00033FD00F0BBFD04F0B5FA04F099FB04F01F
:101AD000CFFE04F0B3FE04F0E5FA074C07492046B8
:101AE00004F03EFE204604F097FEFFF711F9FFF7E1
:101AF0009FFBFFF71FF9FEE7048D002020990020CF
:101B000082B0002301930D4B1B68B3F1FF3F08D057
:101B10004FF0500383F31188BFF36F8FBFF34F8FE4
:101B2000FEE74FF0500383F31188BFF36F8FBFF3CD
:101B30004F8F019B002BFCD002B0704700000020AB
:101B400008480068006880F308884FF0000080F3C0
:101B5000148862B661B6BFF34F8FBFF36F8F00DF9B
:101B600000BF000008ED00E0DFF80C00016841F460
:101B7000700101607047000088ED00E04FF0807355
:101B800040F8043C21F0010140F8081C054B40F8E6
:101B90000C3C40F8202C6FF0020340F8243C443801
:101BA000704700BF011B000800000000000000009B
:101BB000074B19680868B0E8F04F80F30988BFF355
:101BC0006F8F4FF0000080F311887047AFF30080F3
:101BD000289500204FF0500383F31188BFF36F8FD7
:101BE000BFF34F8F0B4A136801331360012B00D0F2
:101BF00070474FF0E023D3F8043D13F0FF0FF7D008
:101C00004FF0500383F31188BFF36F8FBFF34F8FF3
:101C1000FEE700BF00000020094B1B6843B94FF0EE
:101C2000500383F31188BFF36F8FBFF34F8FFEE72D
:101C3000013B034A13600BB983F31188704700BF5F
:101C40000000002000000000000000000000000074
:101C5000EFF30980BFF36F8F154B1A681EF0100F5A
:101C600008BF20ED108A20E9F04F10602DE909002F
:101C70004FF0500080F31188BFF34F8FBFF36F8F89
:101C800004F064F84FF0000080F3118809BC196873
:101C90000868B0E8F04F1EF0100F08BFB0EC108AD3
:101CA00080F30988BFF36F8F704700BFAFF30080E8
:101CB0002895002008B54FF0500383F31188BFF337
:101CC0006F8FBFF34F8F03F013FF28B14FF0E02366
:101CD0004FF08052C3F8042D002383F3118808BD10
:101CE0004FF0E022002313619361054B1B68054907
:101CF000A1FB03139B09013B536107231361704749
:101D00000C000020D34D62104FF0E023D3F8002DDB
:101D10003D4B9A421CD04FF0E023D3F8002D3B4BB3
:101D20009A421ED030B583B0394B1A78D2B20192A4
:101D3000FF221A701B78DBB28DF803309DF8033058
:101D400003F05003334A1370334B07221A601BE031
:101D50004FF0500383F31188BFF36F8FBFF34F8FA2
:101D6000FEE74FF0500383F31188BFF36F8FBFF38B
:101D70004F8FFEE7284A1368013B13609DF803303C
:101D80005B00DBB28DF803309DF8033013F0800F59
:101D9000F0D1214B1B68032B08D04FF0500383F385
:101DA0001188BFF36F8FBFF34F8FFEE71B021A4AF4
:101DB000136003F4E0631360019BDBB2144A1370F9
:101DC0004FF0E024D4F8203D43F47003C4F8203DE4
:101DD000D4F8203D43F07043C4F8203DFFF780FF66
:101DE00000250E4B1D60FFF7BFFED4F8343F43F0D3
:101DF0004043C4F8343FFFF7A3FE03F0A7FFFFF70B
:101E00007FFE284603B030BD71C20F4170C20F4142
:101E100000E400E0208F00201C8F00200000002044
:101E2000EFF305830F2B0ED9114A9A5C114B1B78E7
:101E30009A4208D24FF0500383F31188BFF36F8F9B
:101E4000BFF34F8FFEE74FF0E023D3F80C3D03F4D0
:101E5000E063094A1268934208D94FF0500383F3B4
:101E60001188BFF36F8FBFF34F8FFEE7704700BF3E
:101E7000F0E300E0208F00201C8F002010B5044606
:101E8000FFF7A8FEA26BE36B9A4204D00024FFF791
:101E9000C3FE204610BD0124F9E710B50446FFF744
:101EA00099FEA36B23B90124FFF7B6FE204610BDAF
:101EB0000024F9E770B504461546866B026C5AB9E2
:101EC00003681BB100200136A66370BD806804F072
:101ED00069F80023A360F6E76DB9406805F031FEAC
:101EE0006368226C13446360A268934219D3236829
:101EF00063602846E7E7C06805F023FEE368226CCC
:101F000051429B1AE3602268934202D2A3680B44B9
:101F1000E360022D01D00020D5E726B1013E00206C
:101F2000D1E72846CFE70020CDE70346026C6AB12F
:101F300010B50846D9681144D9609C68A14201D304
:101F40001968D960D96805F0FCFD10BD704738B537
:101F50000546FFF73FFE95F8454064B201E0013CBD
:101F600064B2002C0ADD6B6A43B105F1240003F072
:101F70006DFF0028F3D003F0FFFFF0E7FF2385F8A3
:101F80004530FFF749FEFFF725FE95F8444064B25F
:101F900001E0013C64B2002C0ADD2B6943B105F17C
:101FA000100003F053FF0028F3D003F0E5FFF0E743
:101FB000FF2385F84430FFF72FFE38BD38B5E0B178
:101FC0000D460446FFF706FE2368E26B216C01FB19
:101FD0000230A0600020A0636360013A02FB01337D
:101FE000E360FF2384F8443084F84530FDB9236969
:101FF00063B9FFF711FE012038BD4FF0500383F3A2
:102000001188BFF36F8FBFF34F8FFEE704F110000D
:1020100003F01CFF0028ECD04FF0E0234FF080527B
:10202000C3F8042DBFF34F8FBFF36F8FE1E704F1C7
:102030001000FFF78BFC04F12400FFF787FCD8E7C2
:1020400038B51D46049C0B4649B92460E0632364FF
:1020500001212046FFF7B2FF84F84C5038BD2260C2
:10206000F4E740B94FF0500383F31188BFF36F8F4B
:10207000BFF34F8FFEE710B584B01C46844653B1C2
:1020800092B189B94FF0500383F31188BFF36F8F7A
:10209000BFF34F8FFEE74FF0500383F31188BFF378
:1020A0006F8FBFF34F8FFEE76AB150230393039BFB
:1020B000502B13D04FF0500383F31188BFF36F8F71
:1020C000BFF34F8FFEE70029EFD04FF0500383F3AB
:1020D0001188BFF36F8FBFF34F8FFEE7039B012380
:1020E00084F8463000949DF818306046FFF7A8FF4A
:1020F000204604B010BDF0B585B0019288B10F46FE
:102100001D460446B1B1022D20D1E36B012B1DD039
:102110004FF0500383F31188BFF36F8FBFF34F8FDE
:10212000FEE74FF0500383F31188BFF36F8FBFF3C7
:102130004F8FFEE7036C002BE5D04FF0500383F385
:102140001188BFF36F8FBFF34F8FFEE703F01AFFC5
:10215000064658B9019B002B48D04FF0500383F33B
:102160001188BFF36F8FBFF34F8FFEE700263DE06E
:102170002A4639462046FFF79DFE636A7BB948B17F
:102180004FF0E0234FF08052C3F8042DBFF34F8F80
:10219000BFF36F8FFFF740FD012005B0F0BD04F1E4
:1021A000240003F053FE0028F4D04FF0E0234FF05A
:1021B0008052C3F8042DBFF34F8FBFF36F8FE9E751
:1021C000FFF72AFD0020E8E702A803F085FE0126BC
:1021D00019E0002384F8443021E0002384F84530DE
:1021E00023E02046FFF7B3FE03F00EFDFFF7F2FCFD
:1021F000A26BE36B9A42BBD3022DB9D0019B002B9B
:10220000DED0002EE0D0FFF707FD03F063FCFFF700
:10221000E1FC94F8442052B2B2F1FF3FD9D094F8D7
:10222000452052B2B2F1FF3FD7D0FFF7F5FC01A92C
:1022300002A803F05DFED8B92046FFF71FFE002874
:10224000CFD0019904F1100003F0CCFD2046FFF738
:102250007EFE03F0D9FC0028C8D14FF0E0234FF0F8
:102260008052C3F8042DBFF34F8FBFF36F8FBDE7CC
:102270002046FFF76CFE03F0C7FC00208DE72DE938
:10228000F84390B10F4616461C460546B1B1022CE4
:1022900020D1EB6B012B1DD04FF0500383F311883D
:1022A000BFF36F8FBFF34F8FFEE74FF0500383F301
:1022B0001188BFF36F8FBFF34F8FFEE7036C002BC6
:1022C000E5D04FF0500383F31188BFF36F8FBFF356
:1022D0004F8FFEE7FFF7A4FDEFF311884FF0500397
:1022E00083F31188BFF36F8FBFF34F8FAA6BEB6B34
:1022F0009A4206D3022C04D0002088F31188BDE84E
:10230000F88395F845904FFA89F9AB6B2246394628
:102310002846FFF7CFFDB9F1FF3F06D009F10103D1
:102320005BB285F845300120E7E76B6A0BB9012005
:10233000E3E705F1240003F089FD18B126B101207F
:102340003060DAE70120D8E70120D6E7F0B585B0A4
:10235000019290B10F460446C1B103F013FE064648
:1023600000BB019B002B5ED04FF0500383F311881C
:10237000BFF36F8FBFF34F8FFEE74FF0500383F330
:102380001188BFF36F8FBFF34F8FFEE7036C002BF5
:10239000E3D04FF0500383F31188BFF36F8FBFF387
:1023A0004F8FFEE700263EE039462046FFF7BDFD91
:1023B000013DA563236923B9FFF72EFC012005B079
:1023C000F0BD04F1100003F041FD0028F4D04FF0FF
:1023D000E0234FF08052C3F8042DBFF34F8FBFF3BB
:1023E0006F8FE9E7FFF718FC0020E8E702A803F089
:1023F00073FD012621E0002384F8443029E0002306
:1024000084F845302BE02046FFF7A1FD03F0FCFBEC
:1024100009E02046FFF79BFD03F0F6FB2046FFF79F
:102420003CFD00283FD1FFF7D5FBA56B002DBBD1AC
:10243000019B002BD6D0002ED8D0FFF7EDFB03F088
:1024400049FBFFF7C7FB94F844305BB2B3F1FF3FA1
:10245000D1D094F845305BB2B3F1FF3FCFD0FFF756
:10246000DBFB01A902A803F043FD0028D1D12046DF
:10247000FFF713FD0028C6D0019904F1240003F0F2
:10248000B1FC2046FFF763FD03F0BEFB0028CAD174
:102490004FF0E0234FF08052C3F8042DBFF34F8F6D
:1024A000BFF36F8FBFE7002089E700000023072BF1
:1024B0000CD8074A52F833200AB10133F7E7044A2F
:1024C00042F8331002EBC30250607047704700BF00
:1024D000248F002070B504460D461646FFF77AFBA0
:1024E00094F844305BB2B3F1FF3F0DD094F845301F
:1024F0005BB2B3F1FF3F0BD0FFF78EFBA36B5BB179
:102500002046FFF724FD70BD002384F84430EDE73A
:10251000002384F84530EFE73246294604F12400D1
:1025200003F078FCECE7000010B590B000240B94A9
:102530000C940D940E940F940A9428222146684618
:1025400005F080FA29482A4B036044607F238360AA
:10255000FF23C36004614461846101F0A3FB002890
:1025600037D100238DF82C308DF82D308DF82E309A
:102570000E930F9301220BA91C4801F0EDFB58BBF1
:1025800001228DF828208DF829208DF82A2000239B
:102590008DF82B300AA9154801F03EFCF8B900234C
:1025A0008DF800308DF801308DF8023001930393DF
:1025B000049305930693079301228DF820204FF48E
:1025C000807309936946094801F074FC50B910B052
:1025D00010BDFFF70DFAC4E7FFF70AFAD0E7FFF7DF
:1025E00007FADCE7FFF704FAF1E700BF648F002089
:1025F0000028004000B585B00023009301930293AA
:10260000039302680B4B9A4202D005B05DF804FBBD
:10261000022300934FF480730393684601F046FA57
:1026200020B9054B0122C3F83C2EEEE7FFF7E0F995
:10263000F7E700BF002800400000474208B50D48FA
:102640000D4B03604FF48273436000238360C360CB
:10265000036143614FF400728261C36103624362AC
:1026600083620A23C36201F085FD00B908BDFFF74C
:10267000BFF9FBE7848F00200030014000B589B02E
:102680000023039304930593069307930268154B65
:102690009A4202D009B05DF804FB0021019103F5D4
:1026A00084335A6C42F480525A645A6C02F4805259
:1026B0000192019A02911A6B42F001021A631B6B9C
:1026C00003F001030293029BE0230393022304938C
:1026D000032306930523079303A9034800F084FC12
:1026E000D8E700BF003001400000024008B50B4BA6
:1026F0001A6842F400721A601A6842F480621A6022
:102700001A6842F480721A60032000F0EDF90F207D
:1027100002F0B0FA00F04AFE002008BD003C024082
:10272000034A1168034B1B780B441360704700BFCA
:10273000DC8F002004000020014B1868704700BFA8
:10274000DC8F00204A4B5A6822F440325A605A68A3
:1027500041680A435A600268536823F480735360E7
:1027600002685368016943EA0123536002685368B1
:1027700023F0407353600268536881680B435360D1
:102780000268936823F40063936002689368C168E9
:102790000B439360826A374B9A4257D00268936822
:1027A00023F07063936002689368816A0B439360BF
:1027B0000268936823F04053936002689368C16A8B
:1027C0000B4393600268936823F0020393600268EE
:1027D0009368017E43EA4103936090F82030002B18
:1027E0003FD00268536843F4006353600268536843
:1027F00023F46043536001684B68426A013A43EA3C
:1028000042334B600268D36A23F47003D3620168D9
:10281000CB6AC269013A43EA0253CB620268936809
:1028200023F4007393600268936890F8301043EAD1
:10283000412393600268936823F480639360026885
:102840009368416943EA8123936070470268936803
:1028500023F0706393600268936823F040539360A1
:10286000B0E70268536823F400635360CAE700BF0F
:10287000002301400100000F38B310B50446036C7B
:1028800043B1236C13F0100F0BD00120002384F808
:102890003C3010BDFEF7DAF90023636484F83C3065
:1028A000EFE7236C23F4885323F0020343F0020381
:1028B00023642046FFF746FF00206064236C23F06A
:1028C000030343F001032364E0E7012070470000A5
:1028D00030B482B00022019290F83C20012A00F02E
:1028E000B6800346012280F83C200A68092A40D9B4
:1028F0000468E06892B202EB42021E3A4FF0070C05
:102900000CFA02F220EA0202E2601C68E0680A881F
:1029100002EB42021E3A8D6805FA02F20243E260BF
:102920004A68062A3CD81C68606B02EB8202053AB2
:102930004FF01F0C0CFA02F220EA020262631C68DC
:10294000606B4A6802EB8202053AB1F800C00CFAEB
:1029500002F20243626318683E4A904250D01868FF
:102960003C4A904255D0002083F83C0002B030BC75
:1029700070470468206992B202EB42024FF0070CE4
:102980000CFA02F220EA020222611C6820690A881D
:1029900002EB42028D6805FA02F202432261BFE7B0
:1029A0000C2A16D81D68286B02EB8202233A1F24DA
:1029B00004FA02F220EA02022A631D68286B4A68C0
:1029C00002EB8202233A0C8804FA02F202432A63E1
:1029D000C1E71D68E86A02EB8202413A1F2404FA4B
:1029E00002F220EA0202EA621D68E86A4A6802EB23
:1029F0008202413A0C8804FA02F20243EA62AAE730
:102A00000A68122AABD11448426842F4800242603C
:102A1000A5E70A68103A012AA5D80F48426842F48F
:102A2000000242600A68102A9DD10C4A12680C49C3
:102A3000A1FB0212920C02EB82025200019202E010
:102A4000019A013A0192019A002AF9D18BE70220FA
:102A50008CE700BF00200140002301400C00002053
:102A600083DE1B43002807DB00F01F02400901231F
:102A70009340024A42F82030704700BF00E100E076
:102A8000002808DB0901C9B200F1604000F561408F
:102A900080F80013704700F00F000901C9B2014B24
:102AA0001954704714ED00E000B500F00700C0F1C4
:102AB000070CBCF1040F28BF4FF0040C031D062BBC
:102AC0000FD9C31E4FF0FF3E0EFA0CF021EA0001B1
:102AD00099400EFA03FE22EA0E0241EA02005DF876
:102AE00004FB0023EEE70000074AD36823F4E06309
:102AF0001B041B0C000200F4E060034343F0BF63BF
:102B000043F40033D360704700ED00E010B5044695
:102B1000054BD868C0F30220FFF7C6FF01462046E8
:102B2000FFF7AEFF10BD00BF00ED00E008B5FFF7F6
:102B300099FF08BD70B110B50446037933B1022383
:102B40002371002020610123237110BD4371FEF722
:102B5000F1F9F4E70120704748B3844649B343795B
:102B6000012B28D010B54FF0010E80F805E00223AC
:102B700003710468206802F0100240F6FE7393406F
:102B800020EA03000B6849680B439340034323602A
:102B9000DCF800000368C02101FA02F223EA020314
:102BA00003608CF804E000208CF8050010BD0120C3
:102BB00070470120704702207047000010B403687E
:102BC000D9B210390A4AA2FB01421209094CA25C8F
:102BD000C2655F2907D96FF3090304338365806DEC
:102BE0005DF8044B70476FF309038365F7E700BF97
:102BF000ABAAAAAA649C0008836A826992B9012BD5
:102C00000AD0022B02D00BB100207047C36A13F028
:102C1000807F28D100207047C36AB3F1C07F24D0E1
:102C200000207047B2F5005F09D0022B25D9032B95
:102C300025D1C36A13F0807F23D100207047032B76
:102C400003D8DFE803F01404140A00207047C36AB5
:102C500013F0807F0DD100207047C36AB3F1C07FAD
:102C600009D00020704701207047012070470120E3
:102C700070470120704701207047012070470020F5
:102C8000704701207047000070B50446FFF754FDFF
:102C9000002C5BD00546022384F83530002384F8ED
:102CA00034302268136823F00103136023681A6824
:102CB00012F0010F0AD0FFF73FFD431B052BF5D99A
:102CC00020236365032084F8350070BD1A6820490D
:102CD00011406268A0680243E06802432069024331
:102CE00060690243A0690243E0690243206A02432B
:102CF0000A43616A04291ED01A602668756925F0A6
:102D00000705636A1D43042B07D1A36A1D43E36AC9
:102D10001BB12046FFF770FF90B975612046FFF7A1
:102D20004DFFE26D3F2393408360002060650123E7
:102D300084F83530C9E7E16A206B01430A43DBE7D9
:102D400040236365012084F83500BEE70120BCE71D
:102D50003F8010F070B50446866DFFF7EDFC94F8E7
:102D60003530022B06D080236365002384F834308D
:102D7000012070BD05462268136823F01603136016
:102D80002268536923F080035361236CE3B1226806
:102D9000136823F0080313602268136823F001030B
:102DA000136023681B6813F0010F11D0FFF7C4FCF8
:102DB000431B052BF5D920236365032084F83500D8
:102DC000002384F83430D4E7A36C002BDFD1E3E791
:102DD000E26D3F239340B360012384F83530002037
:102DE00084F83400C5E790F83530022B03D08023F7
:102DF000436501207047052380F835300268136869
:102E000023F001031360002070470000F0B583B089
:102E1000044600230193724B1D68724BA3FB0535DA
:102E2000AD0A876D3E68C26D08239340334210D0CF
:102E300003681A6812F0040F0BD01A6822F004021B
:102E40001A60C26D08239340BB60436D43F00103D9
:102E50004365E26D01239340334209D022685269F1
:102E600012F0800F04D0BB60636D43F00203636512
:102E7000E26D04239340334209D02268126812F0B5
:102E8000020F04D0BB60636D43F004036365E26D21
:102E900010239340334224D02268126812F0080FA6
:102EA0001FD0BB6023681A6812F4802F0DD01B68F6
:102EB00013F4002F04D1236C9BB12046984710E0F7
:102EC000A36C73B1204698470BE01A6812F4807F18
:102ED00003D11A6822F008021A60236C0BB1204655
:102EE0009847E26D20239340334254D02268126801
:102EF00012F0100F4FD0BB6094F83530052B0ED078
:102F000023681A6812F4802F33D01B6813F4002F43
:102F10002AD1636C002B3ED0204698473BE02268C4
:102F2000136823F0160313602268536923F08003AB
:102F30005361236CA3B12268136823F00803136064
:102F4000E26D3F239340BB60012384F835300023BA
:102F500084F83430236D002B3FD0204698473CE066
:102F6000A36C002BE7D1EBE7E36BA3B120469847B6
:102F700011E01A6812F4807F09D11A6822F0100259
:102F80001A60012384F83530002384F83430E36B71
:102F90000BB120469847636DFBB1636D13F0010FD1
:102FA00017D0052384F835302268136823F0010315
:102FB0001360019B01330193AB4204D823681B6863
:102FC00013F0010FF5D1012384F83530002384F884
:102FD0003430E36C0BB12046984703B0F0BD00BF1E
:102FE0000C000020B5814E1B00230F2B00F2E9805E
:102FF00070B582B065E085684FEA430E032404FA99
:103000000EF425EA0405CC6804FA0EF42C4384601F
:10301000446824EA02044A68C2F300129A40224338
:1030200042605CE0DC08083450F8242003F0070517
:10303000AD004FF00F0E0EFA05FE22EA0E0E0A69E1
:10304000AA4042EA0E0240F824205CE0072200E099
:10305000002202FA0EF22A4302345A4D45F8242087
:10306000594A94686FEA0C0224EA0C054E6816F47B
:10307000801F01D04CEA0405534CA560E46802EAC5
:1030800004054E6816F4001F01D04CEA04054E4CAE
:10309000E560646802EA04054E6816F4003F01D05A
:1030A0004CEA0405484C6560246822404D6815F4DC
:1030B000803F01D04CEA0402434C226001330F2BC5
:1030C0007DD801229A400C6804EA020C32EA04041A
:1030D000F4D14C6804F00304013C012C8BD94A68FC
:1030E00002F00302032A09D0C4685D000322AA404B
:1030F00024EA02048A68AA402243C2604A6802F0B5
:103100000302022A8ED004684FEA430E032202FA19
:103110000EF224EA02044A6802F0030202FA0EF2F6
:10312000224302604A6812F4403FC7D00022019255
:10313000264A546C44F480445464526C02F4804235
:103140000192019A9C08A51C1E4A52F8255003F0D2
:10315000030E4FEA8E0E0F2202FA0EF225EA020546
:103160001B4A90423FF474AF02F5806290421AD03D
:1031700002F58062904218D002F58062904216D02B
:1031800002F58062904214D002F58062904212D023
:1031900002F58062904210D002F5806290423FF4C6
:1031A00055AF082255E7012253E7022251E70322D7
:1031B0004FE704224DE705224BE7062249E702B01C
:1031C00070BD704700380140003C014000380240AB
:1031D000000002400369194201D00120704700201D
:1031E00070470AB18161704709048161704700002E
:1031F000002800F0CC8070B5044690F83D30002BDC
:1032000077D0242384F83D302268136823F001032B
:1032100013602268136843F4004313602268136844
:1032200023F40043136000F003FC62685A4B9A4297
:1032300064D85A4B98428CBF00230123002B40F0E6
:10324000A8805749A1FB00318B0C25686A6822F0E1
:103250003F0242EA91426A6021680A6A22F03F0214
:1032600066684D4DAE424FD8013313430B6221685F
:10327000CA6922F44F4222F0FF026568464B9D4224
:103280004CD8431E6D00B3FBF5F3013340F6FC70E0
:10329000034278D0C3F30B031A43CA6121680B6859
:1032A00023F0C003E269206A024313430B602168E4
:1032B0008B6823F4034323F0FF032269E068024391
:1032C00013438B602168CB6823F0FF036269A06918
:1032D00002431343CB602268136843F00103136079
:1032E00000202064202384F83D30206384F83E00D1
:1032F00070BD80F83C30FEF7B9F982E7294B98425F
:103300008CBF0023012399E74FF4967505FB03F367
:10331000254DA5FB03539B090133A6E7A668BEB95B
:10332000431E05EB450CB3FBFCF30133C3F30B0366
:10333000B3FA83F35B0943BBC6B9431E05EB4505EE
:10334000B3FBF5F30133C3F30B0343F40043A3E7EB
:10335000431E05EB850C0CEB8C0CB3FBFCF301332B
:10336000C3F30B03B3FA83F35B09E4E7431E05EBF6
:10337000850505EB8505B3FBF5F30133C3F30B03BB
:1033800043F4404388E7042386E7012384E70120D0
:1033900070470120ACE700BFA08601007F841E00BB
:1033A00083DE1B43FF083D00D34D621000B583B0A0
:1033B000002200920D4B596C41F480415964596CC4
:1033C00001F48041009100990192196C41F0805103
:1033D00019641B6C03F080530193019B0F216FF064
:1033E0000100FFF793FB03B05DF804FB00380240D7
:1033F000002800F0E08170B582B00446036813F045
:10340000010F3BD09F4B9B6803F00C03042B2CD087
:103410009C4B9B6803F00C03082B21D06368B3F529
:10342000803F4FD0B3F5A02F52D0964B1A6822F4AC
:1034300080321A601A6822F480221A606368002BB6
:1034400050D0FFF779F905468E4B1B6813F4003F07
:1034500014D1FFF771F9401B6428F5D90320B1E1BD
:10346000884B5B6813F4800FD8D0864B1B6813F42D
:10347000003F03D06368002B00F09F81236813F0A6
:10348000020F54D07F4B9B6813F00C0F3ED07D4B46
:103490009B6803F00C03082B33D0E368002B68D043
:1034A000794B01221A60FFF747F90546754B1B68F7
:1034B00013F0020F54D1FFF73FF9401B0228F5D952
:1034C00003207FE16F4A136843F480331360B5E74C
:1034D0006C4B1A6842F480221A601A6842F48032F7
:1034E0001A60ABE7FFF728F90546664B1B6813F433
:1034F000003FC3D0FFF720F9401B6428F5D9032013
:1035000060E1604B5B6813F4800FC6D15D4B1B68B4
:1035100013F0020F03D0E368012B40F05081594AA9
:10352000136823F0F803216943EAC1031360236899
:1035300013F0080F42D063696BB3534B0122C3F8F9
:10354000802EFFF7F9F805464E4B5B6F13F0020F24
:1035500034D1FFF7F1F8401B0228F5D9032031E1FF
:10356000484A136823F0F803216943EAC103136052
:10357000DDE7454B00221A60FFF7DEF80546414BB8
:103580001B6813F0020FD2D0FFF7D6F8401B0228B9
:10359000F5D9032016E13C4B0022C3F8802EFFF73B
:1035A000CBF80546374B5B6F13F0020F06D0FFF7E1
:1035B000C3F8401B0228F5D9032003E1236813F068
:1035C000040F77D02F4B1B6C13F0805F33D1002397
:1035D00001932C4B1A6C42F080521A641B6C03F05E
:1035E00080530193019B0125284B1B6813F4807FB6
:1035F00023D0A368012B34D0052B38D0214B1A6F70
:1036000022F001021A671A6F22F004021A67A368F7
:10361000002B3DD0FFF790F806461A4B1B6F13F0B6
:10362000020F46D1FFF788F8801B41F28833984299
:10363000F3D90320C6E00025D6E7144A136843F403
:1036400080731360FFF778F80646104B1B6813F47D
:10365000807FCED1FFF770F8801B0228F5D90320B8
:10366000B0E0084A136F43F001031367CFE7054B3F
:103670001A6F42F004021A671A6F42F001021A67C9
:10368000C5E700BF0038024000004742007000401C
:10369000FFF752F80646524B1B6F13F0020F08D08B
:1036A000FFF74AF8801B41F288339842F3D9032090
:1036B00088E0EDB9A369002B00F08380484A926846
:1036C00002F00C02082A51D0022B17D0454B0022E1
:1036D0001A66FFF731F80446414B1B6813F0007F70
:1036E00042D0FFF729F8001B0228F5D9032069E032
:1036F0003B4A136C23F080531364DBE7394B002201
:103700001A66FFF719F80546354B1B6813F0007F62
:1037100006D0FFF711F8401B0228F5D9032051E02D
:10372000E369226A1343626A43EA8213A26A520877
:10373000013A43EA0243E26A43EA0263284A5360D9
:10374000284B01221A66FEF7F7FF0446244B1B683C
:1037500013F0007F06D1FEF7EFFF001B0228F5D91A
:1037600003202FE000202DE000202BE0012B2BD0A8
:103770001B4B5B6803F48001E269914226D103F0A0
:103780003F02216A8A4223D1616A47F6C0721A4019
:10379000B2EB811F1ED103F44031A26A5208013AF4
:1037A000B1EB024F18D103F07063E26AB3EB026F22
:1037B00014D1002006E001207047012002E0012022
:1037C00000E0002002B070BD0120FBE70120F9E716
:1037D0000120F7E70120F5E70120F3E70120F1E7F9
:1037E000003802400000474208B5334B9B6803F0A5
:1037F0000C03042B5BD0082B5BD12F4B5A6802F0D3
:103800003F025B6813F4800F2CD02B4B5868C0F339
:1038100088104FEA401CBCEB000C6EEB0E0E4FEA1A
:103820008E1343EA9C634FEA8C11B1EB0C0163EBFE
:103830000E03DB0043EA5173C90011EB000C43F1A6
:103840000003590200234FEA4C2041EADC51FDF706
:103850008BF9194B5B68C3F3014301335B00B0FB89
:10386000F3F008BD144B5868C0F388104FEA401CB1
:10387000BCEB000C6EEB0E0E4FEA8E1343EA9C631A
:103880004FEA8C11B1EB0C0163EB0E03DB0043EA52
:103890005173C90011EB000C43F10003990200239E
:1038A0004FEA8C2041EA9C51FDF75EF9D1E70348CD
:1038B000D7E70348D5E700BF0038024000127A007E
:1038C0000024F400002800F09B8070B50D460446EB
:1038D0004F4B1B6803F007038B4208D2CBB24C4A14
:1038E0001370136803F007038B4240F08B8023684A
:1038F00013F0020F17D013F0040F04D0454A936859
:1039000043F4E0539360236813F0080F04D0414A56
:10391000936843F4604393603E4A936823F0F00356
:10392000A1680B439360236813F0010F32D06368E2
:10393000012B21D09A1E012A25D9364A126812F08D
:10394000020F61D033498A6822F0030213438B606F
:10395000FEF7F2FE06462F4B9B6803F00C036268ED
:10396000B3EB820F16D0FEF7E7FE801B41F28833DF
:103970009842F0D9032042E0264A126812F4003F30
:10398000E0D101203BE0234A126812F0007FD9D138
:10399000012034E01E4B1B6803F00703AB4207D93C
:1039A000EAB21B4B1A701B6803F00703AB422DD120
:1039B000236813F0040F06D0164A936823F4E053EB
:1039C000E1680B439360236813F0080F07D0114A96
:1039D000936823F46043216943EAC1039360FFF7CE
:1039E00003FF0C4B9B68C3F303130B4AD35CD84013
:1039F0000A4B18600A4B186801F03CF9002070BDB2
:103A0000012070470120FAE70120F8E70120F6E7DE
:103A1000003C024000380240749C00080C0000206A
:103A200008000020014B1868704700BF0C00002000
:103A300008B5FFF7F7FF044B9B68C3F38223034AE3
:103A4000D35CD84008BD00BF003802406C9C000821
:103A500008B5FFF7E7FF044B9B68C3F34233034A03
:103A6000D35CD84008BD00BF003802406C9C000801
:103A70000F2303600B4B9A6802F0030242609A68BE
:103A800002F0F00282609A6802F4E052C2609B6821
:103A9000DB0803F4E0530361034B1B6803F00703E7
:103AA0000B60704700380240003C024030B583B0E4
:103AB0000446036813F0050F06D1236813F0020FC4
:103AC0002ED1002003B030BD4A4B00229A66FEF78B
:103AD00033FE0546484B1B6813F0006F06D0FEF717
:103AE0002BFE431B022BF5D90320EBE76268A3688A
:103AF0001B0743EA8213404AC2F884303D4B01223F
:103B00009A66FEF719FE05463B4B1B6813F0006FE3
:103B1000D3D1FEF711FE431B022BF5D90320D1E7C9
:103B200000230193344B1A6C42F080521A641B6CD0
:103B300003F080530193019B304A136843F4807370
:103B40001360FEF7F9FD05462C4B1B6813F4807FCC
:103B500006D1FEF7F1FD431B022BF5D90320B1E797
:103B6000254B1B6F13F4407314D0E26802F44072CB
:103B70009A420FD0204B1A6F22F440721D49012047
:103B8000C1F8400E0020C1F8400E1A671B6F13F0F9
:103B9000010F13D1E36803F44072B2F5407F1ED0E9
:103BA000154A936823F4F813936013490B6FE26886
:103BB000C2F30B0213430B67002083E7FEF7BCFD43
:103BC00005460D4B1B6F13F0020FE3D1FEF7B4FD5A
:103BD000401B41F288339842F3D9032072E706492B
:103BE0008A6822F4F81223F0704323F440731343DD
:103BF0008B60DAE700004742003802400070004066
:103C000038B5044603680A4ADA60FEF795FD0546B2
:103C10002368DB6813F0200F07D1FEF78DFD401BF2
:103C2000B0F57A7FF4D9032000E0002038BD00BF52
:103C30005F7F010070B50368DA6812F0400F02D0B0
:103C40000025284670BD0446DA6842F08002DA603A
:103C5000FEF772FD064600252368DB6813F0400F6F
:103C6000EFD1002DEDD1FEF767FD831BB3F57A7F11
:103C7000F2D9042363770125EEE70268D36823F0C5
:103C80008003D36003689B6813F0200F01D00020ED
:103C9000704710B50446FFF7B3FF10B104236377F4
:103CA000012010BD00284AD010B50446437F53B10F
:103CB000022363772368DA6812F0100F07D0002020
:103CC0000123637710BD0377FEF794FCF0E7CA2267
:103CD0005A62236853225A622046FFF7ABFF28B18D
:103CE0002368FF225A620028ECD1E9E72268936832
:103CF00023F4E00323F04003936021688A6863683B
:103D0000206903436069034313438B602368E268BF
:103D10001A6122681369A16843EA014313612046CE
:103D2000FFF7ABFF0028DBD12268136C23F480235C
:103D300013642268136CA1690B431364D0E701205C
:103D40007047002302E001330A38C0B20928FAD8CC
:103D50001B01DBB218437047037F012B5AD070B5AB
:103D600004460E46012303770223437732BB0368E0
:103D70009B6813F0400F01D10023CB703078FFF720
:103D8000E0FF05047078FFF7DCFF45EA0025B07816
:103D9000FFF7D7FF0543F37845EA83552368CA2226
:103DA0005A62236853225A622046FFF743FFB8B194
:103DB0002368FF225A620023237770BD03689B6843
:103DC00013F0400F01D10023CB70337875782D02AA
:103DD00045EA0345B3781D43F37845EA8355DDE7AB
:103DE000236805F07F3525F0FE451D602268936845
:103DF00023F48023936021688B68F2683069024362
:103E000013438B602046FFF738FF0028D0D10123F1
:103E10006377CDE702207047037F012B48D070B550
:103E200004460E460123037702234377CAB1CB78B9
:103E30004D782D0245EA03458B781D430B7845EA02
:103E400043352368CA225A62236853225A622046A5
:103E5000FFF7F0FEF0B12368FF225A6200232377B8
:103E600070BD4B7813F0100F03D003F0EF030A334B
:103E70004B70F078FFF765FF05047078FFF761FF7E
:103E800045EA0025B078FFF75CFF0543337845EA43
:103E90004335D6E7236825F07F4525F0C0055D60F2
:103EA0002046FFF7EAFE0028D5D101236377D2E749
:103EB00002207047F8B5037F012B00F0B58004465F
:103EC0000E460123037702234377002A53D1036868
:103ED0009B6813F0400F01D10023CB703078FFF7BF
:103EE00030FF05047078FFF72CFF45EA0025B07815
:103EF000FFF727FF0543F37845EA835596F820003E
:103F0000FFF71FFF45EA0065F3691D4373691D4311
:103F10007768B3691F432368CA225A622368532211
:103F20005A62736AB3F5807F3FD02268936823F4A6
:103F3000007393602268936823F4005393602268AF
:103F4000D368DBB263F42073D360FEF7F5FB06465B
:103F50002368DA6812F0020F56D1FEF7EDFB801BE2
:103F6000B0F57A7FF4D92368FF225A620320607784
:103F70000023237757E003689B6813F0400F01D1BB
:103F80000023CB70337875782D0245EA0345B3786A
:103F90001D43F37845EA835596F8203045EA0365DA
:103FA000F3691D4373691D43B2E72268936823F4E4
:103FB000807393602268936823F48053936022682F
:103FC000D368DBB263F4C073D360FEF7B5FB06467B
:103FD0002368DA6812F0010F0DD1FEF7ADFB801BEC
:103FE000B0F57A7FF4D92368FF225A620320607704
:103FF0000023237717E0DD6123685F6422689368FC
:1040000043F48073936007E01D6223689F64226815
:10401000936843F4007393602368FF225A6201237C
:10402000637700202077F8BD0220FCE72DE9F047F8
:1040300082B00546884617461E46FEF77DFB0A9B62
:104040001B1A03EB0609FEF777FB8246284B1B6819
:10405000C3F3CB3309FB03F301932B689C6838EA65
:1040600004040CBF01230023BB423DD0B6F1FF3F47
:10407000F3D0FEF761FBA0EB0A00484503D2019B99
:1040800073BB9946E9E72A68536823F0E00353605D
:104090006B68B3F5827F0BD0AB6AB3F5005F14D0C9
:1040A000012385F85130002385F8503003201CE0AF
:1040B000AB68B3F5004F02D0B3F5806FECD12A683E
:1040C000136823F040031360E6E72A68136823F4BB
:1040D000005313602A68136843F400531360DFE74A
:1040E000019B013B0193B8E7002002B0BDE8F087D7
:1040F0000C00002070B584B004460D4616460092B0
:104100000B4601220221FFF791FFD0B9174B1B6824
:10411000174AA2FB03235B0D4FF47A7202FB03F3F1
:1041200003936368B3F5827F11D0039B3BB1039B7C
:10413000013B039323689B6813F0800FF5D104B013
:1041400070BD636D43F0200363650320F7E70096BD
:104150002B46002280212046FFF768FF0028EED082
:10416000636D43F0200363650320E8E70C00002043
:10417000819F5E1600285AD010B50446436A33B9B1
:104180004368B3F5827F05D00023C36102E00023BA
:10419000036143610023A36294F85130002B40D0A7
:1041A000022384F851302268136823F0400313601F
:1041B000636803F48273A26802F404421343E26862
:1041C00002F400621343226902F00202134362699F
:1041D00002F001021343A26902F400721343E26980
:1041E00002F038021343226A02F080021343A26AEB
:1041F00002F40052216813430B60638B03F0040345
:10420000626A02F01002216813434B602268D3698E
:1042100023F40063D36100206065012384F85130EA
:1042200010BD84F850302046FEF728FAB8E7012088
:1042300070472DE9F04383B00446884691461F46F7
:104240000A9DFEF779FA064694F851306268012B10
:104250000BD0D9B2B2F5827F40F00481A368002B65
:1042600040F00481042940F00381B8F1000F00F010
:104270000181B9F1000F00F0FF80002F00F0FE80F7
:1042800094F85030012B00F0FB80012384F850306B
:1042900094F85130042B02D0052384F851300023C8
:1042A0006365C4F83890E787A787C4F83080E7864D
:1042B000A7862364636423681A6812F0400F03D151
:1042C0001A6842F040021A60E368B3F5006F11D03B
:1042D00063680BB1012F0BD1226B236812781A731C
:1042E000236B01332363E38E9BB2013B9BB2E386D6
:1042F000012771E063680BB1012F0BD1226B23689A
:104300001288DA60236B02332363E38E9BB2013B96
:104310009BB2E38601271BE023689A6812F0010F25
:104320000ED0E28F92B25AB1DA68A36B1A80A36BF7
:104330000233A363E38F9BB2013B9BB2E387012768
:10434000FEF7FAF9801BA84202D3B5F1FF3F1ED158
:10435000E38E9BB21BB9E38F9BB2002B62D0236824
:104360009A6812F0020FD7D0E28E92B2002AD3D010
:10437000002FD1D0226B1288DA60236B02332363C3
:10438000E38E9BB2013B9BB2E3860027C4E7012387
:1043900084F85130002384F85030032063E0236810
:1043A0009A6812F0010F0ED0E28F92B25AB1DA6819
:1043B000A36B1A70A36B0133A363E38F9BB2013B22
:1043C0009BB2E3870127FEF7B7F9831BAB4202D309
:1043D000B5F1FF3F1ED1EDB1E38E9BB213B9E38F70
:1043E0009BB2FBB123689A6812F0020FD7D0E28E1D
:1043F00092B2002AD3D0002FD1D0226B12781A7338
:10440000236B01332363E38E9BB2013B9BB2E386B4
:104410000027C4E7012384F85130002384F850308A
:10442000032020E0324629462046FFF763FE90B97C
:10443000A36833B901932368DA6801929B680193FA
:10444000019B012384F85130002384F85030636DC0
:104450004BB1012007E020236365002384F850302E
:10446000012000E0022003B0BDE8F0830220FAE75B
:104470000220F8E70120F6E70120F4E70120F2E747
:104480000220F0E730B4036A026A22F001020262FD
:104490004268846924F0730C0C6844EA0C0423F02D
:1044A000020C8B6843EA0C03114DA84203D005F5BA
:1044B0008065A84205D123F00803CD682B4323F083
:1044C00004030B4DA84203D005F58065A84207D12F
:1044D00022F440724D6945EA020C8A6942EA0C02F4
:1044E000426084614A684263036230BC704700BF27
:1044F0000000014030B4036A026A22F48072026252
:104500004268C46924F0730C0C6844EA0C0523F477
:1045100000738C6843EA0423114CA04203D004F5D5
:104520008064A04206D123F40063CC6843EA0423EC
:1045300023F480630A4CA04203D004F58064A042B7
:1045400007D122F440524C6942EA04128C6942EAD3
:1045500004124260C5614A68C263036230BC70479E
:104560000000014030B4036A026A22F48052026201
:104570004468C26922F4E6420D6842EA052223F447
:1045800000538D6843EA0533094DA84203D005F571
:104590008065A84204D124F480444D6944EA85141E
:1045A0004460C2614A680264036230BC704700BF65
:1045B0000000014010B4036A046A24F0010404629C
:1045C000846924F0F00C4CEA021223F00A030B4336
:1045D000826103625DF8044B704710B4036A046A99
:1045E00024F010040462846924F4704C4CEA023212
:1045F00023F0A00343EA0113826103625DF8044BD8
:104600007047836823F070030B4343F00703836014
:104610007047000090F83D30012B37D1022380F81D
:104620003D300268D36843F00103D3600368194A40
:10463000934220D0B3F1804F1DD0A2F57C4293422B
:1046400019D002F58062934215D002F58062934240
:1046500011D002F5784293420DD002F57052934288
:1046600009D0A2F59432934205D01A6842F00102B3
:104670001A60002070479A6802F00702062A07D0E5
:104680001A6842F001021A6000207047012070474A
:104690000020704700000140704770477047704726
:1046A000704770B504460368DE681D6915F0020F97
:1046B00010D016F0020F0DD06FF002021A61012324
:1046C000037703689B6913F0030F5ED0FFF7E6FFE3
:1046D0000023237715F0040F12D016F0040F0FD02B
:1046E00023686FF004021A610223237723689B6911
:1046F00013F4407F4FD02046FFF7D0FF00232377ED
:1047000015F0080F12D016F0080F0FD023686FF0C5
:1047100008021A61042323772368DB6913F0030F6F
:1047200040D02046FFF7BAFF0023237715F0100F83
:1047300012D016F0100F0FD023686FF010021A611C
:10474000082323772368DB6913F4407F31D02046A8
:10475000FFF7A4FF0023237715F0010F02D016F016
:10476000010F2DD115F0800F02D016F0800F2FD140
:1047700015F0400F02D016F0400F31D115F0200F88
:1047800002D016F0200F33D170BDFFF786FF204610
:10479000FFF785FF9CE72046FFF77FFF2046FFF7E6
:1047A0007EFFABE72046FFF778FF2046FFF777FF55
:1047B000BAE72046FFF771FF2046FFF770FFC9E711
:1047C00023686FF001021A612046FDF705F9C9E779
:1047D00023686FF080021A61204600F04AFAC7E7AA
:1047E00023686FF040021A612046FFF759FFC5E7C2
:1047F00023686FF020021A61204600F039FAC3E7FF
:104800000368324A904212D0B0F1804F0FD0A2F527
:104810007C4290420BD002F58062904207D002F5B4
:104820008062904203D002F57842904203D123F097
:1048300070034A681343254A90422AD0B0F1804F52
:1048400027D0A2F57C42904223D002F580629042AC
:104850001FD002F5806290421BD002F57842904250
:1048600017D002F57052904213D002F58062904248
:104870000FD002F5806290420BD0A2F598329042A0
:1048800007D002F58062904203D002F58062904228
:1048900003D123F44073CA68134323F080034A69A9
:1048A00013438A68C2620A688262084A904203D04F
:1048B00002F58062904201D10A690263026842F007
:1048C000040202600122426103607047000001405F
:1048D00040B310B5044690F83D30F3B1022384F89C
:1048E0003D30214651F8040BFFF78AFF012384F87D
:1048F000463084F83E3084F83F3084F8403084F805
:10490000413084F8423084F8433084F8443084F8ED
:10491000453084F83D30002010BD80F83C3001F077
:10492000F9FBDBE70120704740B310B5044690F86F
:104930003D30F3B1022384F83D30214651F8040B99
:10494000FFF75EFF012384F8463084F83E3084F898
:104950003F3084F8403084F8413084F8423084F8A5
:10496000433084F8443084F8453084F83D300020EA
:1049700010BD80F83C30FFF78FFEDBE70120704769
:1049800030B4036A026A22F010020262446882694B
:1049900022F4E6420D6842EA052223F020038D68E6
:1049A00043EA0513114DA84203D005F58065A842DE
:1049B00006D123F08003CD6843EA051323F04003BA
:1049C0000A4DA84203D005F58065A84207D124F41A
:1049D00040644D6944EA85048D6944EA8504446075
:1049E00082614A688263036230BC70470000014004
:1049F00038B590F83C30012B66D004460D460123B3
:104A000080F83C300C2A5AD8DFE802F0075959598F
:104A10001B5959593059595944000068FFF732FD64
:104A20002268936943F0080393612268936923F035
:104A3000040393612268936929690B439361002001
:104A40003EE00068FFF79CFF2268936943F400632F
:104A500093612268936923F4806393612268936968
:104A6000296943EA01239361002029E00068FFF7E8
:104A700041FD2268D36943F00803D3612268D369FA
:104A800023F00403D3612268D36929690B43D361FE
:104A9000002015E00068FFF765FD2268D36943F444
:104AA0000063D3612268D36923F48063D3612268F1
:104AB000D369296943EA0123D361002000E0012082
:104AC000002384F83C3038BD0220FCE710B4846831
:104AD00024F47F4C42EA03220A4342EA0C02826039
:104AE0005DF8044B704790F83C30012B78D010B53E
:104AF0000446012380F83C30022380F83D300268F0
:104B0000936823F47F4323F0770393600B68602B53
:104B10004CD023D8402B54D011D8202B03D00AD806
:104B20000BB1102B05D119462068FFF76AFD002054
:104B300028E0012026E0302BF5D0012022E0502B88
:104B40000AD1CA6849680068FFF734FD502120681F
:104B5000FFF757FD002015E0012013E0B3F5805F5B
:104B60003AD0B3F5005F14D0702B37D1CB684A68C8
:104B700089680068FFF7AAFF2268936843F077030B
:104B800093600020012384F83D30002384F83C30FA
:104B900010BDCB684A6889680068FFF797FF2268F4
:104BA000936843F4804393600020EBE7CA68496848
:104BB0000068FFF712FD60212068FFF722FD00204A
:104BC000E0E7CA6849680068FFF7F4FC4021206804
:104BD000FFF717FD0020D5E70020D3E70120D1E73C
:104BE0000220704790F83C20012A3DD010B40346C3
:104BF000012280F83C20022280F83D2002685068A3
:104C0000946820F0700C086840EA0C0050601A6844
:104C1000164882421AD0B2F1804F17D0A0F57C40DE
:104C2000824213D000F5806082420FD000F5806090
:104C300082420BD000F57840824207D000F57050D8
:104C4000824203D0A0F59430824204D124F0800443
:104C5000496821439160012283F83D20002083F8B8
:104C60003C005DF8044B7047022070470000014093
:104C70007047704730B589B0044600230193214B3B
:104C80001A6C42F020021A641B6C03F0200301939B
:104C9000019B02A903A8FEF7EBFE069BCBB9FEF72A
:104CA000C7FE0346184AA2FB03239B0C013B17488F
:104CB000174A026040F2E732C2604360002303619A
:104CC00083608361FFF704FE054630B1284609B0D2
:104CD00030BDFEF7ADFE4300E4E70C48FFF79AFC59
:104CE00005460028F2D13720FDF720FF0F2C01D90F
:104CF0000125EBE7002221463720FDF707FF054B92
:104D00001C60E3E70038024083DE1B43E08F002095
:104D10000014004008000020026802F10C0353E870
:104D2000003F23F490730C3242E800310029F3D1A4
:104D3000026802F1140353E8003F23F00103143228
:104D400042E800310029F3D1036B012B05D0202369
:104D500080F84230002303637047026802F10C03BD
:104D600053E8003F23F010030C3242E800310029E1
:104D7000F3D1ECE790F84130212B01D002207047AD
:104D80008368B3F5805F17D0036A5A1C02621A78F1
:104D900003685A60C38C9BB2013B9BB2C3844BB97E
:104DA0000268D36823F08003D3600268D36843F0BD
:104DB0004003D360002070470369002BE4D1036AED
:104DC0001B880268C3F308035360036A023303625B
:104DD000E0E7000010B504460268136923F440536D
:104DE000C1680B431361836802691A4343691A431C
:104DF000C3691A430168CB6823F4164323F00C03FC
:104E00001343CB600268536923F4407381690B43F9
:104E100053610368314A934206D002F5806293429F
:104E200002D0FEF705FE01E0FEF712FEE369B3F5DE
:104E3000004F29D00021031849411B1841F10001FE
:104E4000C90041EA5371DB00181863684FEA830216
:104E50004FEA937341F10001FBF786FE204AA2FB63
:104E600000314909642303FB11031B013233A2FB08
:104E700003235B0903F0F00202EB011203F00F03BE
:104E8000216813448B6010BD0023021843EB03011B
:104E9000121841F10001C90041EA5271D200101804
:104EA00041F10001626892185B41FBF75DFE0C4A1C
:104EB000A2FB00314909642303FB1103DB003233F9
:104EC000A2FB03235B095A0002F4F87202EB011201
:104ED00003F00703216813448B60D4E700100140FE
:104EE0001F85EB512DE9F04383B005460E4617466A
:104EF0009946DDF828802B681C6836EA04040CBF4C
:104F000001240024BC4228D1B8F1FF3FF3D0FDF7C3
:104F100013FCA0EB0900404523D8B8F1000F22D0C4
:104F20002B68DA6812F0040FE5D0802EE3D0402E13
:104F3000E1D01A6812F0080FDDD0002401941A683D
:104F400001925B680193019B2846FFF7E5FE082369
:104F50006B6485F84040012000E0002003B0BDE80C
:104F6000F0830320FAE70320F8E760B310B50446A6
:104F700090F8413013B3242384F841302268D36879
:104F800023F40053D3602046FFF724FF22681369FF
:104F900023F4904313612268536923F02A03536179
:104FA0002268D36843F40053D36000206064202358
:104FB00084F8413084F84230606310BD80F840309E
:104FC00001F070FCD7E7012070472DE9F04182B075
:104FD0001E4690F84130202B56D104460D4690468F
:104FE000002955D00AB901204FE000234364212352
:104FF00080F84130FDF7A0FB0746A4F82480A4F810
:105000002680A368B3F5805F02D04FF0000814E05B
:1050100023692BB34FF000080FE0202384F84130C0
:10502000032032E038F8023B2268C3F308035360E0
:10503000E28C92B2013A92B2E284E38C9BB293B1D9
:1050400000963B46002280212046FFF74BFF0028B8
:10505000E3D1002DE6D015F8012B23685A60E7E76D
:10506000A8460025E9E700963B460022402120465D
:10507000FFF738FF18B9202384F8413005E02023DA
:1050800084F84130032000E0022002B0BDE8F08146
:105090000120FAE7704708B50168CA6822F04002AB
:1050A000CA60202280F84120FFF7F4FF002008BDED
:1050B0007047704708B5806B0023C385FFF7F9FF81
:1050C00008BD90F84230222B69D18368B3F5805F28
:1050D0004FD0826AB3F5805F04D0002B56D10369AC
:1050E000002B53D103685B681370836A01338362BA
:1050F000C38D9BB2013B9BB2C385002B51D100B540
:1051000083B00268D36823F02003D3600268D368B9
:1051100023F48073D3600268536923F00103536161
:10512000202380F8423000234363036B012B33D1EB
:1051300000230363026802F10C0353E8003F23F0ED
:1051400010030C3242E800310029F3D103681A68D9
:1051500012F0100F06D0002201921A6801925B68CB
:105160000193019B818D01F05EFB002003B05DF88F
:1051700004FB0269002AACD1826A03685B68C3F34E
:1051800008031380836A02338362B1E703685B68B4
:1051900003F07F031370A8E7FFF78AFFE5E702201B
:1051A000704700207047000010B582B004460268C6
:1051B0001368D068516913F00F0F09D113F0200F55
:1051C0000CD010F0200F09D02046FFF77AFF16E030
:1051D00011F0010115D110F4907F12D1216B01293A
:1051E00079D013F0800F03D010F0800F40F02181B0
:1051F00013F0400F03D010F0400F40F01E8102B0BA
:1052000010BD13F0010F06D010F4807F03D0626C44
:1052100042F00102626413F0040F04D019B1626C11
:1052200042F00202626413F0020F04D019B1626C02
:1052300042F00402626413F0080F07D010F0200F50
:1052400000D119B1626C42F008026264626C002AFB
:10525000D5D013F0200F02D010F0200F29D12368F1
:105260005B6903F04003626C12F0080F00D163B376
:105270002046FFF751FD23685B6913F0400F20D0F3
:10528000226802F1140353E8003F23F04003143274
:1052900042E800310029F3D1E36B73B1694A1A6522
:1052A000E06BFDF7A0FD0028A9D0E06B036D9847E7
:1052B000A5E72046FFF705FFD1E72046FFF7F9FEF7
:1052C0009DE72046FFF7F5FE99E72046FFF7F1FE40
:1052D0000023636493E713F0100F82D010F0100FD7
:1052E0003FF47FAF00230193136801935368019348
:1052F000019B536913F0400F5FD0E26B13685B684A
:105300009BB2002B4AD0A18D994247D9E385D3693E
:10531000B3F5807F37D0226802F10C0353E8003FD9
:1053200023F480730C3242E800310029F3D1226863
:1053300002F1140353E8003F23F00103143242E862
:1053400000310029F3D1226802F1140353E8003F31
:1053500023F04003143242E800310029F3D1202326
:1053600084F8423000232363226802F10C0353E8DF
:10537000003F23F010030C3242E800310029F3D142
:10538000E06BFDF7E7FC02236363A18DE38D9BB225
:10539000C91A89B2204601F046FA30E7A18D994238
:1053A0007FF42DAFD369B3F5807F7FF428AF02235C
:1053B0006363204601F037FA21E7A18DE38D9BB2AC
:1053C000C91A89B2E38D9BB2002B3FF418AF0029B4
:1053D0003FF415AF226802F10C0353E8003F23F4B9
:1053E00090730C3242E800300028F3D1226802F1B9
:1053F000140353E8003F23F00103143242E8003065
:105400000028F3D1202384F842300023236322684C
:1054100002F10C0353E8003F23F010030C3242E882
:1054200000300028F3D102236363204601F0FBF92A
:10543000E5E62046FFF79EFCE1E62046FFF72BFE5F
:10544000DDE600BFB550000881628285C285002379
:105450004364222380F84230036923B10268D36891
:1054600043F48073D3600268536943F001035361CE
:105470000268D36843F02003D3600020704790F89F
:105480004230202B29D110B582B0044639B312B96D
:10549000012002B010BD0123036300234363FFF723
:1054A000D3FF0028F5D1236B012B01D00120F0E7B9
:1054B0000023019323681A6801925B680193019BA2
:1054C000226802F10C0353E8003F43F010030C3252
:1054D00042E800310029F3D1DBE7022070470120C8
:1054E000D7E7FEE7FEE7FEE7FEE7FEE770470000CE
:1054F00008B50248FDF78AFC08BD00BF5C09002022
:1055000008B50248FFF7CDF808BD00BF749500202C
:1055100008B50248FFF748FE08BD00BF20990020EB
:1055200008B50248FFF7BDF808BD00BF2C95002064
:1055300008B50248FFF7B5F808BD00BFE08F0020AE
:1055400008B50248FDF762FC08BD00BFF801002065
:1055500008B50248FDF75AFC08BD00BFB897002007
:1055600008B50248FDF752FC08BD00BF789800203E
:1055700008B50248FDF74AFC08BD00BF5897002057
:1055800008B50248FDF742FC08BD00BF189800208E
:1055900008B50248FFF708FE08BD00BFD8980020F4
:1055A0000120704708B502F09FFA162303604FF000
:1055B000FF3008BD08B54FF0FF31FFF7F3FFFEE7FE
:1055C00070B50C461646002506E0AFF30080214674
:1055D00001F8010B01350C46B542F6DB304670BDD3
:1055E0004FF0FF3070474FF400534B60002070477E
:1055F000012070470020704710B503460C4A0D4942
:105600000D48006840B10C4800680344521A9342A8
:1056100006D8094A136010BD0748084C0460F2E739
:1056200002F062FA0C2303604FF0FF30F3E700BF93
:10563000000002200004000028900020B89A0020FA
:10564000034AD2F8883043F47003C2F888307047B8
:1056500000ED00E0084B1B681B6823B9074B4FF0B7
:10566000FF321A607047044B1B68DB68DB685A68BE
:10567000024B1A60704700BF9C90002034900020BD
:105680002DE9F04780460D4617469946089EDDF8FD
:1056900024A00A9C9200A521206B02F0D3F9236B71
:1056A00007F18042013A03EB820727F00707A5B311
:1056B0004FF0000CBCF10F0F09D815F80C3004EBBB
:1056C0000C0282F8343013B10CF1010CF2E7002324
:1056D00084F84330372E00D93726E662E664002589
:1056E0002565201DFCF73DF904F11800FCF739F998
:1056F0002461C6F13806A6616462656584F8585075
:105700004A4641463846FCF739FA2060BAF1000FA4
:1057100001D0CAF80040BDE8F087002384F8343097
:10572000D8E7000038B5002407E004EB84029300BA
:105730000E481844FCF70AF90134372CF5D90C4D02
:105740002846FCF703F90B4C2046FCF7FFF80A4803
:10575000FCF7FCF80948FCF7F9F80948FCF7F6F8FB
:10576000084B1D60084B1C6038BD00BFC89000206E
:10577000B4900020A0900020849000207090002021
:10578000589000209C9000209890002010B504466E
:10579000FCF720FA224A136801331360214B1B687F
:1057A0005BB1214B1B686BB91E4B1B68DA6AE36A5D
:1057B0009A4207D81B4B1C6004E01A4B1C6013680C
:1057C000012B29D0194A1368013313606364E06A1E
:1057D000174B1B68984201D9154B186000EB8000ED
:1057E000211D144B03EB8000FCF7BEF8FCF714FA04
:1057F0000D4B1B687BB10B4B1B68DA6AE36A9A425C
:1058000009D24FF0E0234FF08052C3F8042DBFF3CC
:105810004F8FBFF36F8F10BDFFF784FFD2E700BF3C
:1058200054900020289500204890002038900020B7
:105830004C900020C890002010B5044690F85930D4
:1058400063B1012B11D0022B0ED04FF0500383F324
:105850001188BFF36F8FBFF34F8FFEE7006BFBF72D
:10586000A9FE2046FBF7A6FE10BDFBF7A3FEFBE753
:105870000F4B1B68D3B110B5FCF7ACF90D4BDB68CF
:10588000DC68201DFCF794F80B4A1368013B136099
:10589000074A1368013B1360FCF7BEF92046FFF787
:1058A000CBFF034B1B68002BE6D110BD704700BF38
:1058B0006C900020709000205490002008B5FFF7F5
:1058C000D7FF074B1B68012BF9D94FF0E0234FF0AE
:1058D0008052C3F8042DBFF34F8FBFF36F8FEEE7F5
:1058E000C890002070B504460D46174B1E68174B34
:1058F00018680430FCF75CF8B4F1FF3F0DD0344475
:10590000124B1B685C60A64210D9114B18680F4BF4
:1059100019680431FCF733F870BD002DEFD00B4B44
:10592000196804310B48FCF71FF8F5E70A4B1868B3
:10593000064B19680431FCF722F8084B1B68A34298
:10594000EAD9064B1C60E7E750900020289500201C
:1059500098900020589000209C90002034900020C7
:1059600030B587B00B9C7CB10C9DB5B15C2504951E
:10597000049D5C2D1AD04FF0500383F31188BFF3C0
:105980006F8FBFF34F8FFEE74FF0500383F3118803
:10599000BFF36F8FBFF34F8FFEE74FF0500383F3DA
:1059A0001188BFF36F8FBFF34F8FFEE7049D0C9DEF
:1059B0002C63022485F8594000240394029505AC19
:1059C00001940A9C0094FFF75BFE0C98FFF7DEFE43
:1059D000059807B030BD2DE9F04385B007468846ED
:1059E00014461E469000FBF763FD08B381465C2019
:1059F000FBF75EFD0546A8B1C0F83090002380F8A3
:105A00005930039302900D9B01930C9B00933346F6
:105A1000224641463846FFF733FE2846FFF7B6FEDA
:105A2000012007E04846FBF7C5FD4FF0FF3001E0DD
:105A30004FF0FF3005B0BDE8F083000010B588B02E
:105A400000240594069407AA06A905A8FBF738FACE
:105A5000059B0293069B019300942346079A1749DE
:105A60001748FFF77DFF174B1860C0B100F08EFCA0
:105A7000012815D14FF0500383F31188BFF36F8FC6
:105A8000BFF34F8F104B4FF0FF321A600F4B0122C4
:105A90001A600F4B00221A60FCF736F903E0002071
:105AA000B0F1FF3F01D008B010BD4FF0500383F3B9
:105AB0001188BFF36F8FBFF34F8FFEE7C09B0008C5
:105AC000BD580008309000203490002048900020FD
:105AD00050900020024A136801331360704700BFE2
