:020000040800F2
:1000000000000220F5610008734C0008754C0008E0
:10001000774C0008794C00087B4C00080000000079
:100020000000000000000000000000007114000843
:100030007D4C000800000000111500082103000895
:1000400045620008456200084562000845620008F4
:1000500045620008456200084562000845620008E4
:1000600045620008456200084562000845620008D4
:1000700045620008456200084562000845620008C4
:10008000814C00084562000845620008456200088E
:1000900045620008456200084562000845620008A4
:1000A0004562000845620008456200084562000894
:1000B00045620008914C000845620008456200084E
:1000C0004562000845620008456200084562000874
:1000D00045620008A94C0008456200084562000816
:1000E0004562000845620008456200084562000854
:1000F000B94C0008456200084562000845620008E6
:100100004562000845620008456200084562000833
:10011000456200084562000845620008C94C0008B5
:10012000D94C0008E94C0008F94C00084562000869
:100130004562000845620008456200084562000803
:1001400045620008456200084562000845620008F3
:1001500045620008094D0008194D0008294D0008A6
:1001600045620008456200084562000845620008D3
:100170004562000845620008456200080000000072
:08018000456200084562000819
:1001900053B94AB9002908BF00281CBF4FF0FF31EE
:1001A0004FF0FF3000F00CB8ADF1080C6DE904CE53
:1001B00006F0FEFCDDF804E0DDE9022304B0704740
:1001C000704700BF10B5054C237833B9044B13B109
:1001D0000448AFF300800123237010BD14010020F8
:1001E00000000000A86E000808B5034B1BB10349CE
:1001F0000348AFF3008008BD000000001801002094
:10020000A86E000800B585B0002300930193029307
:1002100003931648164A02604FF4803242608360AE
:1002200003610122027680F820304FF08051C162D4
:100230004FF0C0618162C360C26180F830204261CA
:1002400001F07AFF60B90123009301930723029321
:100250006946064801F09CFF28B905B05DF804FB2B
:1002600000F06AFEEFE700F067FEF6E7900100207D
:100270000020014030B589B0002303930493059317
:1002800006930793026803F1804303F590339A4283
:1002900001D009B030BD04460025019503F58C332B
:1002A0005A6C42F480725A645A6C02F48072019261
:1002B000019A02951A6B42F001021A631B6B03F05C
:1002C00001030293029B022303930323049303A9D4
:1002D000104802F0E9FA1048104B03604560856051
:1002E000C5604FF4806303614FF4006343614FF4D2
:1002F000005383614FF48073C3610562456202F06D
:1003000023F918B9044BA3639C63C2E700F014FE01
:10031000F8E700BF000002403001002010640240F6
:1003200008B54FF0E0231B6905F0E8F9012800D17A
:1003300008BD01F01FF9FBE7EFF305832BB9064B6E
:10034000186828B901221A6070476FF005007047DD
:100350004FF0FF30704700BF90080020EFF3058397
:1003600073B90A4B1B68012B0DD110B50024084B43
:10037000DC77064B02221A6004F01CFF204610BDF9
:100380006FF0050070474FF0FF3070479008002075
:1003900000ED00E0F0B587B000240594EFF305848C
:1003A00004BBF8B1002A34D0156893692BB11E46FE
:1003B000013B372B02D9002015E01826536813F0B3
:1003C000010F3FD1546984B14FEA940C93682BB16B
:1003D000D7685B2F02D9176907B184B943B14FF0D1
:1003E000FF330BB3059807B0F0BD4FF0800CEDE77D
:1003F000D368A3B91369ABB14FF0FF33F1E70293B0
:10040000019700960B466246294604F065FE05906A
:10041000E8E71546002318264FF0800CE1E74FF07F
:10042000FF33DEE70023DCE705AB019300960B46C4
:100430001FFA8CF2294604F08AFE0128D2D000234C
:100440000593CFE70020CEE708B5EFF3058333B976
:1004500008B9002008BD05F00FF80020FAE76FF09A
:100460000500F7E710B582B01C46EFF30583C3B172
:1004700018B329B33CBB0023019301AA01F05FFB31
:10048000012823D1019850B14FF0E0234FF0805262
:10049000C3F8042DBFF34F8FBFF36F8F002002B05E
:1004A00010BDB0B1C1B10023224601F084FA012889
:1004B00015D0B4B16FF00100F1E76FF00300EEE783
:1004C0006FF00300EBE76FF00300E8E76FF0020066
:1004D000E5E76FF00300E2E76FF00300DFE70020DD
:1004E000DDE76FF00200DAE7034B0360034B0B60BC
:1004F00080231360704700BF3408002034060020BA
:10050000034B0360034B0B604FF480731360704721
:10051000D8050020D801002000B583B00023009347
:1005200001930C480C4B036001F064FF58B924237D
:100530000093002201926946064801F06DFF28B938
:1005400003B05DF804FB00F0F7FCF0E700F0F4FC0A
:10055000F6E700BFF40800200074004030B589B011
:100560000023039304930593069307930268224B99
:100570009A4201D009B030BD04460025019503F52B
:10058000E2331A6C42F000521A641A6C02F0005204
:100590000192019A02951A6B42F001021A631B6BD9
:1005A00003F001030293029B10230393032304939C
:1005B00003A9124802F078F91148124B03604FF07A
:1005C0006063436040238360C5604FF480630361D0
:1005D0004FF4006343614FF400538361C5610562CA
:1005E000456201F0B1FF18B9054BA3609C63C1E7F8
:1005F00000F0A2FCF8E700BF0074004000000240D9
:10060000940800208860024010B582B00024009455
:10061000224B1A6B42F480021A631A6B02F48002B6
:100620000092009A01941A6B42F400121A631B6B39
:1006300003F400130193019B22460521102001F0D1
:10064000C5FE102001F0D2FE22460521382001F01F
:10065000BDFE382001F0CAFE22460521392001F0F6
:10066000B5FE392001F0C2FE224605213A2001F0F4
:10067000ADFE3A2001F0BAFE22460521452001F0E8
:10068000A5FE452001F0B2FE22460521462001F0DC
:100690009DFE462001F0AAFE02B010BD00380240C7
:1006A00008B54B4C4B49204605F016FC204605F09A
:1006B0006FFC0621484800F0FDFA0021474800F091
:1006C000B7FC322000F00AFD454805F0D7FE45484A
:1006D00005F0D4FE5A222A21434800F0C7FC052029
:1006E00000F0F6FC00F0CAFC04E000F0F1FD0A2086
:1006F000FFF7AAFE00F0FAFC0128F6D03B4805F00F
:10070000BDFE17E0C821052000F0F6FC384805F0D2
:10071000B5FE052000F086FB002853D0C821062036
:1007200000F0EAFC334805F0A9FE00F0D1FD0A20F4
:10073000FFF78AFE00F0D6FA002000F073FB10B934
:1007400000F08CFB30B1C821012000F0D5FC2A4814
:1007500005F094FE012000F065FB18B9012000F0BF
:100760007DFB30B1C821022000F0C6FC234805F013
:1007700085FE022000F056FB18B9022000F06EFB47
:1007800030B1C821032000F0B7FC1D4805F076FE0B
:10079000032000F047FB18B9032000F05FFB30B1E5
:1007A000C821042000F0A8FC164805F067FE0420CC
:1007B00000F038FB0028A5D1042000F04FFB0028F2
:1007C000A7D09FE7052000F049FB0028ADD0A5E7A2
:1007D0000C0900202C960020A86F000880920020B1
:1007E000C06E0008D86E000800000020006F0008EE
:1007F0004C6F0008586F00082C6F0008346F000819
:100800003C6F0008446F000808B5044A0021044802
:10081000FFF7C0FD034B186008BD00BF846F0008E0
:10082000A1060008080900202DE9F04F8DB007ADA2
:1008300000240794089409940A940B9401945A4B49
:100840001A6B42F010021A631A6B02F01002019246
:10085000019A02941A6B42F004021A631A6B02F0B6
:1008600004020292029A03941A6B42F080021A6305
:100870001A6B02F080020392039A04941A6B42F0FE
:1008800001021A631A6B02F001020492049A0594A1
:100890001A6B42F002021A631A6B02F0020205920E
:1008A000059A06941A6B42F008021A631B6B03F058
:1008B00008030693069BDFF8F8B02246012158464C
:1008C00002F0EFF8DFF8ECA022461021504602F0CB
:1008D000E8F8364F01224FF4FE41384602F0E1F8C5
:1008E000224648F20101384602F0DBF8DFF8C890F2
:1008F00022464FF42441484602F0D3F8DFF8BC808A
:1009000022464021404602F0CCF81E23079308946B
:10091000012609962946384601F0C6FF6023079351
:100920000894022309932946384601F0BDFF079633
:10093000089609940A942946584601F0B5FF1023F9
:100940000793089609940A942946504601F0ACFF93
:100950004FF601730793089609940A94294638467E
:1009600001F0A2FF4FF424430793089609940A94D8
:100970002946484601F098FF4FF4007307934FF45F
:100980008813089309942946404601F08DFF4023BF
:100990000793089609940A942946404601F084FF7B
:1009A0000DB0BDE8F08F00BF0038024000100240DB
:1009B000000002400008024000040240000C024017
:1009C000124A12F0070F1ED0D11D21F00701C1F508
:1009D000004313440A460E4802600021416013445C
:1009E000083B23F007030B48036059601960991A0C
:1009F00051601360084B1960084B1960084B4FF0A9
:100A000000421A6070474FF40043E4E7440B0020B3
:100A10003C0B0020380B0020300B0020340B002052
:100A2000240B0020164B1A461B688342FBD35168E7
:100A300002EB010C844509D0416800EB010C6345D1
:100A400009D00360904219D010607047406801449B
:100A500051601046F0E710B40A4C2468A3420BD052
:100A60005B681944416013681B680360904200D0C2
:100A700010605DF8044B70470460F7E7704700BFF3
:100A80003C0B0020380B002038B5044604F0DEFB98
:100A9000384B1B68B3B1384B1B681C4250D1002C3B
:100AA00050D004F1080214F0070F02D022F0070220
:100AB0000832002A55D0314B1B68934253D330493A
:100AC0000C6804E0FFF77CFFE5E721461C466368FD
:100AD000934202D22368002BF7D1264B1B68A34216
:100AE00043D00D68083523680B6063689B1A102B90
:100AF00010D9A01810F0070F08D04FF0500383F35F
:100B00001188BFF36F8FBFF34F8FFEE743606260C2
:100B1000FFF788FF626819490B689B1A0B60194937
:100B200009688B4201D217490B60134B1B681343B2
:100B3000636000232360144A13680133136002E0EA
:100B4000002500E0002504F01BFC15F0070F0ED077
:100B50004FF0500383F31188BFF36F8FBFF34F8FB4
:100B6000FEE70025EFE70025EDE70025EBE7284647
:100B700038BD00BF380B0020240B0020340B0020B0
:100B80003C0B0020300B00202C0B0020002834D020
:100B900038B50446A0F1080550F8043C174A12681D
:100BA000134208D14FF0500383F31188BFF36F8FC6
:100BB000BFF34F8FFEE750F8081C41B14FF05003D0
:100BC00083F31188BFF36F8FBFF34F8FFEE723EAE4
:100BD000020340F8043C04F039FB54F8041C084AB2
:100BE00013680B4413602846FFF71CFF054A13687F
:100BF0000133136004F0C4FB38BD7047240B0020A0
:100C0000340B0020280B002008B50B480B4B036069
:100C10000B4B436000238360C3604FF4804202614A
:100C200043618361C361036201F042FF00B908BD03
:100C300000F082F9FBE700BF448B00200054004025
:100C4000801A060030B589B00023039304930593FE
:100C5000069307930268144B9A4201D009B030BD45
:100C600000250195114C236B43F002032363236B92
:100C700003F002030193019BC02303931223049307
:100C8000032306930423079303A9094801F00CFEEC
:100C90000295236C43F400132364236C03F40013C4
:100CA0000293029BDAE700BF005400400038024084
:100CB0000004024010B5062900D90621064B197020
:100CC000CC0022460146054805F031FD22460021B0
:100CD000034805F0B1FC10BD988B0020CC8B0020A0
:100CE0009C8B002070B500241BE0012814BF00205D
:100CF000012029E0484B13F83530FF2B03D0013396
:100D0000454A02F83530444B03EBC5035B78012BB1
:100D100031D0414B03EBC5039B78012B66D00134E6
:100D2000E4B23E4B1B78A34275D925463C4B03EBFE
:100D3000C406B18853F8340001F0ACFEB379002B3F
:100D4000D3D1B0FA80F04009334B03EBC5035B7895
:100D50008342CFD0304A12F835300133DBB202F88B
:100D60003530012BCFD9134602EBC502507000225B
:100D700003F83520C7E7284B03EBC5039B7863B91D
:100D8000254B03EBC50301229A7000229A809A71C9
:100D9000DA7942F00102DA71C1E71F4A02EBC502BB
:100DA00093880A339BB2938092795AB9B3F5487FFE
:100DB00008D3194A02EBC50201219171D17941F0A2
:100DC0000401D171144A02EBC5029279002AA6D01F
:100DD000B3F5617FA3D3104B03EBC503DA7942F07F
:100DE0000802DA714FF448729A8098E70A4B03EBD5
:100DF000C50300229A709B7933B9074B03EBC503F7
:100E0000DA7942F00202DA71034B03EBC5030022E8
:100E10009A809A7183E770BD9C8B0020988B00208C
:100E2000CC8B002003460B4A127882420FD90A4A23
:100E300002EBC002D27912F0020000D170470649DD
:100E400001EBC30322F00202DA7101207047002097
:100E5000F4E700BF988B00209C8B002003460B4AD0
:100E6000127882420FD90A4A02EBC002D27912F0FC
:100E7000080000D17047064901EBC30322F00802C5
:100E8000DA71012070470020F4E700BF988B002042
:100E90009C8B002000F1080343604FF0FF3282601A
:100EA000C360036100230360704700230361704740
:100EB00043684B609A688A60516099600861036872
:100EC00001330360704730B40D68B5F1FF3F11D0B6
:100ED00000F108031C465B681A68AA42FAD96368E5
:100EE0004B6099608C606160086103680133036046
:100EF00030BC70470469F2E70369416882688A6020
:100F0000416851605A68824206D0002202611A6824
:100F1000013A1A601868704782685A60F5E7000065
:100F200008B50268034B9A4200D008BD01F058F89A
:100F3000FBE700BF0014004072B6FEE710B594B0A6
:100F400008AC30220021204605F076FB00230393F5
:100F500004930593069307930193214A116C41F082
:100F600080511164126C02F080520192019A029336
:100F70001C4B1A6842F480421A601B6803F48043D9
:100F80000293029B052308934FF4803309930123B6
:100F90000A9302230E934FF480020F9204221092C0
:100FA000A8221192129307231393204601F080FE8A
:100FB00090B90F23039302230493002305934FF466
:100FC000A05306934FF480530793052103A802F022
:100FD000D9F818B914B010BDFFF7AEFFFFF7ACFF9A
:100FE000003802400070004008B500F0DFFFFFF756
:100FF000A5FFFFF719FCFFF707FBFFF703F9FFF762
:101000008BFAFFF701FE00F0EFFE00F077FF04F02F
:10101000CDFB04F0B1FC04F0E7FF04F0CBFF04F0DB
:10102000FDFBFFF789F9FFF7EFFBFFF797F9FEE705
:101030000D4B1860596000221A72012159720A2161
:101040009972DA72DA601A745A745A8259619A6122
:10105000DA615A21198459845A621A850268D36860
:1010600043F00103D3607047FC8B0020024B5862B1
:1010700019855A841A847047FC8B00200B4B1B7C0B
:10108000022B0ED063B9094B5B694BB1074B5B6A0E
:1010900033B1064B00225A829A61DA6101221A7436
:1010A0007047024B01221A74704700BFFC8B00206E
:1010B00010B5064C6168206803F0EEF80023237237
:1010C000E3606382A361E361237410BDFC8B0020A5
:1010D000014B5861704700BFFC8B0020642800D989
:1010E0006420014B98727047FC8B0020014B187CE8
:1010F000704700BFFC8B002010B52DED028B82B035
:101100000191C3085B0007EE903AB8EEE78AF7EE6C
:10111000007AB4EEE78AF1EE10FA65D400F0070425
:10112000654B1C725968186803F0B6F8002C57D04C
:10113000614BDB7A2344DAB25BB2072B57DD073A07
:1011400053B238EE088A5D4A02EB830393ED007ACE
:1011500027EE087ADFED5A7AC7EE876AF7EE007A53
:1011600076EEE76A544A10680168FCEEE67A17EEFC
:10117000903A9BB2CB62C3605168002940D1937A08
:10118000504AA2FB03429C1A02EB540292096524C6
:1011900004FB1233DBB207EE903AF8EEE77A67EE23
:1011A000A67A9FED496AC7EE866A0368FCEEE66A96
:1011B000C3ED0D6AFCEEC87A17EE903A3E4A5372C0
:1011C000DDED017AF8EEE77A67EE877ADFED3F6AC8
:1011D00087EEA67ABCEEC77A82ED037A02F0A6FF0C
:1011E00002B0BDEC028B10BDB0EE678A96E7002B13
:1011F000A9DC073253B2F6EE007A28EE278AA2E77E
:1012000004291ED0082939D02B4B9B7A2D4AA2FBEA
:1012100003429C1A02EB54029209652404FB123328
:10122000DBB207EE903AF8EEE77A67EEA67A9FED2A
:10123000266AC7EE866A0368FCEEE66AC3ED106AAA
:10124000B8E71D4B9B7A1F4AA2FB03429C1A02EB94
:1012500054029209652404FB1233DBB207EE903A84
:10126000F8EEE77A67EEA67A9FED176AC7EE866A10
:101270000368FCEEE66AC3ED0E6A9BE70E4B9B7AB1
:10128000104AA2FB03429C1A02EB54029209652405
:1012900004FB1233DBB207EE903AF8EEE77A67EE22
:1012A000A67A9FED096AC7EE866A0368FCEEE66AD5
:1012B000C3ED0F6A7EE700BFFC8B0020D86F0008EB
:1012C0000024744957866F440000C84200007A44E5
:1012D0002B4B1B7C012B05D1294B5B6A13B1284B8F
:1012E0005B6903B9704770B500F086FE0546244B74
:1012F000DB6943B9224B5A694FF47A7101FB020250
:10130000DA6100225A821E4BDB69AB4232D91C4B98
:101310009B69AB422DD81A4B5A8A1B8D9A4205D332
:10132000174B5B7C4BB3164B00225A82144E726AE9
:10133000738A591C718252F82300124BA3FB0023BD
:101340005A09718CC3F34F1401FB04F4338CB4FBC2
:10135000F3F4642303FB1200A4B204EBC4010A4BB0
:1013600083FB0131C1F38F01C0B2FFF7C5FE2544F5
:10137000B56170BDFFF79CFEFBE7FFF799FEF8E74C
:10138000FC8B00201F85EB516766666608B50B4B2A
:101390001B681BB102681B689A4200D008BD074B4E
:1013A000DB6833B1054A127A1AB1013B034AD360B4
:1013B000F4E7024B596802F06FFFEFE7FC8B002067
:1013C00082B0002301930D4B1B68B3F1FF3F08D09F
:1013D0004FF0500383F31188BFF36F8FBFF34F8F2C
:1013E000FEE74FF0500383F31188BFF36F8FBFF315
:1013F0004F8F019B002BFCD002B07047A80000204B
:1014000008480068006880F308884FF0000080F307
:10141000148862B661B6BFF34F8FBFF36F8F00DFE2
:1014200000BF000008ED00E0DFF80C00016841F4A7
:10143000700101607047000088ED00E04FF080739C
:1014400040F8043C21F0010140F8081C054B40F82D
:101450000C3C40F8202C6FF0020340F8243C443848
:10146000704700BFC113000800000000000000002A
:10147000074B19680868B0E8F04F80F30988BFF39C
:101480006F8F4FF0000080F311887047AFF300803A
:10149000349200204FF0500383F31188BFF36F8F15
:1014A000BFF34F8F0B4A136801331360012B00D039
:1014B00070474FF0E023D3F8043D13F0FF0FF7D04F
:1014C0004FF0500383F31188BFF36F8FBFF34F8F3B
:1014D000FEE700BFA8000020094B1B6843B94FF08E
:1014E000500383F31188BFF36F8FBFF34F8FFEE775
:1014F000013B034A13600BB983F31188704700BFA7
:10150000A800002000000000000000000000000013
:10151000EFF30980BFF36F8F154B1A681EF0100FA1
:1015200008BF20ED108A20E9F04F10602DE9090076
:101530004FF0500080F31188BFF34F8FBFF36F8FD0
:1015400003F0C0FF4FF0000080F3118809BC196858
:101550000868B0E8F04F1EF0100F08BFB0EC108A1A
:1015600080F30988BFF36F8F704700BFAFF300802F
:101570003492002008B54FF0500383F31188BFF375
:101580006F8FBFF34F8F03F06FFE28B14FF0E02352
:101590004FF08052C3F8042D002383F3118808BD57
:1015A0004FF0E022002313619361054B1B6805494E
:1015B000A1FB03139B09013B536107231361704790
:1015C000B4000020D34D62104FF0E023D3F8002D7B
:1015D0003D4B9A421CD04FF0E023D3F8002D3B4BFB
:1015E0009A421ED030B583B0394B1A78D2B20192EC
:1015F000FF221A701B78DBB28DF803309DF80330A0
:1016000003F05003334A1370334B07221A601BE078
:101610004FF0500383F31188BFF36F8FBFF34F8FE9
:10162000FEE74FF0500383F31188BFF36F8FBFF3D2
:101630004F8FFEE7284A1368013B13609DF8033083
:101640005B00DBB28DF803309DF8033013F0800FA0
:10165000F0D1214B1B68032B08D04FF0500383F3CC
:101660001188BFF36F8FBFF34F8FFEE71B021A4A3B
:10167000136003F4E0631360019BDBB2144A137040
:101680004FF0E024D4F8203D43F47003C4F8203D2B
:10169000D4F8203D43F07043C4F8203DFFF780FFAD
:1016A00000250E4B1D60FFF7BFFED4F8343F43F01A
:1016B0004043C4F8343FFFF7A3FE03F003FFFFF7F6
:1016C0007FFE284603B030BD71C20F4170C20F418A
:1016D00000E400E02C8C0020288C0020A8000020D2
:1016E000EFF305830F2B0ED9114A9A5C114B1B782F
:1016F0009A4208D24FF0500383F31188BFF36F8FE3
:10170000BFF34F8FFEE74FF0E023D3F80C3D03F417
:10171000E063094A1268934208D94FF0500383F3FB
:101720001188BFF36F8FBFF34F8FFEE7704700BF85
:10173000F0E300E02C8C0020288C002010B504463B
:10174000FFF7A8FEA26BE36B9A4204D00024FFF7D8
:10175000C3FE204610BD0124F9E710B50446FFF78B
:1017600099FEA36B23B90124FFF7B6FE204610BDF6
:101770000024F9E770B504461546866B026C5AB929
:1017800003681BB100200136A66370BD806803F0BA
:10179000C5FF0023A360F6E76DB9406804F0C7FFFA
:1017A0006368226C13446360A268934219D3236870
:1017B00063602846E7E7C06804F0B9FFE368226C7D
:1017C00051429B1AE3602268934202D2A3680B4401
:1017D000E360022D01D00020D5E726B1013E0020B4
:1017E000D1E72846CFE70020CDE70346026C6AB177
:1017F00010B50846D9681144D9609C68A14201D34C
:101800001968D960D96804F092FF10BD704738B5E7
:101810000546FFF73FFE95F8454064B201E0013C04
:1018200064B2002C0ADD6B6A43B105F1240003F0B9
:10183000C9FE0028F3D003F05BFFF0E7FF2385F833
:101840004530FFF749FEFFF725FE95F8444064B2A6
:1018500001E0013C64B2002C0ADD2B6943B105F1C3
:10186000100003F0AFFE0028F3D003F041FFF0E7D3
:10187000FF2385F84430FFF72FFE38BD38B5E0B1BF
:101880000D460446FFF706FE2368E26B216C01FB60
:101890000230A0600020A0636360013A02FB0133C4
:1018A000E360FF2384F8443084F84530FDB92369B0
:1018B00063B9FFF711FE012038BD4FF0500383F3E9
:1018C0001188BFF36F8FBFF34F8FFEE704F1100055
:1018D00003F078FE0028ECD04FF0E0234FF0805268
:1018E000C3F8042DBFF34F8FBFF36F8FE1E704F10F
:1018F0001000FFF7CFFA04F12400FFF7CBFAD8E786
:1019000038B51D46049C0B4649B92460E063236446
:1019100001212046FFF7B2FF84F84C5038BD226009
:10192000F4E740B94FF0500383F31188BFF36F8F92
:10193000BFF34F8FFEE710B584B01C46844653B109
:1019400092B189B94FF0500383F31188BFF36F8FC1
:10195000BFF34F8FFEE74FF0500383F31188BFF3BF
:101960006F8FBFF34F8FFEE76AB150230393039B42
:10197000502B13D04FF0500383F31188BFF36F8FB8
:10198000BFF34F8FFEE70029EFD04FF0500383F3F2
:101990001188BFF36F8FBFF34F8FFEE7039B0123C7
:1019A00084F8463000949DF818306046FFF7A8FF91
:1019B000204604B010BDF0B585B0019288B10F4645
:1019C0001D460446B1B1022D20D1E36B012B1DD081
:1019D0004FF0500383F31188BFF36F8FBFF34F8F26
:1019E000FEE74FF0500383F31188BFF36F8FBFF30F
:1019F0004F8FFEE7036C002BE5D04FF0500383F3CD
:101A00001188BFF36F8FBFF34F8FFEE703F076FEB1
:101A1000064658B9019B002B48D04FF0500383F382
:101A20001188BFF36F8FBFF34F8FFEE700263DE0B5
:101A30002A4639462046FFF79DFE636A7BB948B1C6
:101A40004FF0E0234FF08052C3F8042DBFF34F8FC7
:101A5000BFF36F8FFFF740FD012005B0F0BD04F12B
:101A6000240003F0AFFD0028F4D04FF0E0234FF046
:101A70008052C3F8042DBFF34F8FBFF36F8FE9E798
:101A8000FFF72AFD0020E8E702A803F0E1FD0126A8
:101A900019E0002384F8443021E0002384F8453025
:101AA00023E02046FFF7B3FE03F06AFCFFF7F2FCE9
:101AB000A26BE36B9A42BBD3022DB9D0019B002BE2
:101AC000DED0002EE0D0FFF707FD03F0BFFBFFF7ED
:101AD000E1FC94F8442052B2B2F1FF3FD9D094F81F
:101AE000452052B2B2F1FF3FD7D0FFF7F5FC01A974
:101AF00002A803F0B9FDD8B92046FFF71FFE002861
:101B0000CFD0019904F1100003F028FD2046FFF723
:101B10007EFE03F035FC0028C8D14FF0E0234FF0E3
:101B20008052C3F8042DBFF34F8FBFF36F8FBDE713
:101B30002046FFF76CFE03F023FC00208DE72DE923
:101B4000F84390B10F4616461C460546B1B1022C2B
:101B500020D1EB6B012B1DD04FF0500383F3118884
:101B6000BFF36F8FBFF34F8FFEE74FF0500383F348
:101B70001188BFF36F8FBFF34F8FFEE7036C002B0D
:101B8000E5D04FF0500383F31188BFF36F8FBFF39D
:101B90004F8FFEE7FFF7A4FDEFF311884FF05003DE
:101BA00083F31188BFF36F8FBFF34F8FAA6BEB6B7B
:101BB0009A4206D3022C04D0002088F31188BDE895
:101BC000F88395F845904FFA89F9AB6B2246394670
:101BD0002846FFF7CFFDB9F1FF3F06D009F1010319
:101BE0005BB285F845300120E7E76B6A0BB901204D
:101BF000E3E705F1240003F0E5FC18B126B101206C
:101C00003060DAE70120D8E70120D6E7F0B585B0EB
:101C1000019290B10F460446C1B103F06FFD064634
:101C200000BB019B002B5ED04FF0500383F3118863
:101C3000BFF36F8FBFF34F8FFEE74FF0500383F377
:101C40001188BFF36F8FBFF34F8FFEE7036C002B3C
:101C5000E3D04FF0500383F31188BFF36F8FBFF3CE
:101C60004F8FFEE700263EE039462046FFF7BDFDD8
:101C7000013DA563236923B9FFF72EFC012005B0C0
:101C8000F0BD04F1100003F09DFC0028F4D04FF0EB
:101C9000E0234FF08052C3F8042DBFF34F8FBFF302
:101CA0006F8FE9E7FFF718FC0020E8E702A803F0D0
:101CB000CFFC012621E0002384F8443029E00023F2
:101CC00084F845302BE02046FFF7A1FD03F058FBD8
:101CD00009E02046FFF79BFD03F052FB2046FFF78B
:101CE0003CFD00283FD1FFF7D5FBA56B002DBBD1F4
:101CF000019B002BD6D0002ED8D0FFF7EDFB03F0D0
:101D0000A5FAFFF7C7FB94F844305BB2B3F1FF3F8D
:101D1000D1D094F845305BB2B3F1FF3FCFD0FFF79D
:101D2000DBFB01A902A803F09FFC0028D1D12046CB
:101D3000FFF713FD0028C6D0019904F1240003F039
:101D40000DFC2046FFF763FD03F01AFB0028CAD103
:101D50004FF0E0234FF08052C3F8042DBFF34F8FB4
:101D6000BFF36F8FBFE7002089E700000023072B38
:101D70000CD8074A52F833200AB10133F7E7044A76
:101D800042F8331002EBC30250607047704700BF47
:101D9000308C002070B504460D461646FFF77AFBDE
:101DA00094F844305BB2B3F1FF3F0DD094F8453066
:101DB0005BB2B3F1FF3F0BD0FFF78EFBA36B5BB1C0
:101DC0002046FFF724FD70BD002384F84430EDE782
:101DD000002384F84530EFE73246294604F1240019
:101DE00003F0D4FBECE7000010B590B000240B9496
:101DF0000C940D940E940F940A9428222146684660
:101E000004F01AFC29482A4B036044607F23836056
:101E1000FF23C36004614461846101F0A3FB0028D7
:101E200037D100238DF82C308DF82D308DF82E30E1
:101E30000E930F9301220BA91C4801F0EDFB58BB38
:101E400001228DF828208DF829208DF82A200023E2
:101E50008DF82B300AA9154801F03EFCF8B9002393
:101E60008DF800308DF801308DF802300193039326
:101E7000049305930693079301228DF820204FF4D5
:101E8000807309936946094801F074FC50B910B099
:101E900010BDFFF751F8C4E7FFF74EF8D0E7FFF7A2
:101EA0004BF8DCE7FFF748F8F1E700BF708C002043
:101EB0000028004000B585B00023009301930293F1
:101EC000039302680B4B9A4202D005B05DF804FB05
:101ED000022300934FF480730393684601F046FA9F
:101EE00020B9054B0122C3F83C2EEEE7FFF724F89A
:101EF000F7E700BF002800400000474208B50D4842
:101F00000D4B03604FF48273436000238360C36012
:101F1000036143614FF400728261C36103624362F3
:101F200083620A23C36201F0E1FC00B908BDFFF738
:101F300003F8FBE7908C00200030014000B589B029
:101F40000023039304930593069307930268154BAC
:101F50009A4202D009B05DF804FB0021019103F51B
:101F600084335A6C42F480525A645A6C02F48052A0
:101F70000192019A02911A6B42F001021A631B6BE3
:101F800003F001030293029BE023039302230493D3
:101F9000032306930523079303A9034800F084FC59
:101FA000D8E700BF003001400000024008B50B4BED
:101FB0001A6842F400721A601A6842F480621A6069
:101FC0001A6842F480721A60032000F0EDF90F20C5
:101FD00002F018FA00F04AFE002008BD003C024062
:101FE000034A1168034B1B780B441360704700BF12
:101FF000E88C0020AC000020014B1868704700BF3F
:10200000E88C00204A4B5A6822F440325A605A68E1
:1020100041680A435A600268536823F4807353602E
:1020200002685368016943EA0123536002685368F8
:1020300023F0407353600268536881680B43536018
:102040000268936823F40063936002689368C16830
:102050000B439360826A374B9A4257D00268936869
:1020600023F07063936002689368816A0B43936006
:102070000268936823F04053936002689368C16AD2
:102080000B4393600268936823F002039360026835
:102090009368017E43EA4103936090F82030002B5F
:1020A0003FD00268536843F400635360026853688A
:1020B00023F46043536001684B68426A013A43EA83
:1020C00042334B600268D36A23F47003D362016821
:1020D000CB6AC269013A43EA0253CB620268936851
:1020E00023F4007393600268936890F8301043EA19
:1020F000412393600268936823F4806393600268CD
:102100009368416943EA812393607047026893684A
:1021100023F0706393600268936823F040539360E8
:10212000B0E70268536823F400635360CAE700BF56
:10213000002301400100000F38B310B50446036CC2
:1021400043B1236C13F0100F0BD00120002384F84F
:102150003C3010BDFEF78EF80023636484F83C30F9
:10216000EFE7236C23F4885323F0020343F00203C8
:1021700023642046FFF746FF00206064236C23F0B1
:10218000030343F001032364E0E7012070470000EC
:1021900030B482B00022019290F83C20012A00F075
:1021A000B6800346012280F83C200A68092A40D9FB
:1021B0000468E06892B202EB42021E3A4FF0070C4C
:1021C0000CFA02F220EA0202E2601C68E0680A8867
:1021D00002EB42021E3A8D6805FA02F20243E26007
:1021E0004A68062A3CD81C68606B02EB8202053AFA
:1021F0004FF01F0C0CFA02F220EA020262631C6824
:10220000606B4A6802EB8202053AB1F800C00CFA32
:1022100002F20243626318683E4A904250D0186846
:102220003C4A904255D0002083F83C0002B030BCBC
:1022300070470468206992B202EB42024FF0070C2B
:102240000CFA02F220EA020222611C6820690A8864
:1022500002EB42028D6805FA02F202432261BFE7F7
:102260000C2A16D81D68286B02EB8202233A1F2421
:1022700004FA02F220EA02022A631D68286B4A6807
:1022800002EB8202233A0C8804FA02F202432A6328
:10229000C1E71D68E86A02EB8202413A1F2404FA92
:1022A00002F220EA0202EA621D68E86A4A6802EB6A
:1022B0008202413A0C8804FA02F20243EA62AAE777
:1022C0000A68122AABD11448426842F48002426084
:1022D000A5E70A68103A012AA5D80F48426842F4D7
:1022E000000242600A68102A9DD10C4A12680C490B
:1022F000A1FB0212920C02EB82025200019202E058
:10230000019A013A0192019A002AF9D18BE7022041
:102310008CE700BF0020014000230140B4000020F2
:1023200083DE1B43002807DB00F01F024009012366
:102330009340024A42F82030704700BF00E100E0BD
:10234000002808DB0901C9B200F1604000F56140D6
:1023500080F80013704700F00F000901C9B2014B6B
:102360001954704714ED00E000B500F00700C0F10B
:10237000070CBCF1040F28BF4FF0040C031D062B03
:102380000FD9C31E4FF0FF3E0EFA0CF021EA0001F8
:1023900099400EFA03FE22EA0E0241EA02005DF8BD
:1023A00004FB0023EEE70000074AD36823F4E06350
:1023B0001B041B0C000200F4E060034343F0BF6306
:1023C00043F40033D360704700ED00E010B50446DD
:1023D000054BD868C0F30220FFF7C6FF0146204630
:1023E000FFF7AEFF10BD00BF00ED00E008B5FFF73E
:1023F00099FF08BD70B110B50446037933B10223CB
:102400002371002020610123237110BD4371FEF769
:10241000A5F8F4E70120704748B3844649B34379EF
:10242000012B28D010B54FF0010E80F805E00223F3
:1024300003710468206802F0100240F6FE739340B6
:1024400020EA03000B6849680B4393400343236071
:10245000DCF800000368C02101FA02F223EA02035B
:1024600003608CF804E000208CF8050010BD01200A
:1024700070470120704702207047000010B40368C5
:10248000D9B210390A4AA2FB01421209094CA25CD6
:10249000C2655F2907D96FF3090304338365806D33
:1024A0005DF8044B70476FF309038365F7E700BFDE
:1024B000ABAAAAAAF86F0008836A826992B9012BB5
:1024C0000AD0022B02D00BB100207047C36A13F070
:1024D000807F28D100207047C36AB3F1C07F24D029
:1024E00000207047B2F5005F09D0022B25D9032BDD
:1024F00025D1C36A13F0807F23D100207047032BBE
:1025000003D8DFE803F01404140A00207047C36AFC
:1025100013F0807F0DD100207047C36AB3F1C07FF4
:1025200009D000207047012070470120704701202A
:10253000704701207047012070470120704700203C
:10254000704701207047000070B50446FFF754FD46
:10255000002C5BD00546022384F83530002384F834
:1025600034302268136823F00103136023681A686B
:1025700012F0010F0AD0FFF73FFD431B052BF5D9E1
:1025800020236365032084F8350070BD1A68204954
:1025900011406268A0680243E06802432069024378
:1025A00060690243A0690243E0690243206A024372
:1025B0000A43616A04291ED01A602668756925F0ED
:1025C0000705636A1D43042B07D1A36A1D43E36A11
:1025D0001BB12046FFF770FF90B975612046FFF7E9
:1025E0004DFFE26D3F23934083600020606501232F
:1025F00084F83530C9E7E16A206B01430A43DBE721
:1026000040236365012084F83500BEE70120BCE764
:102610003F8010F070B50446866DFFF7EDFC94F82E
:102620003530022B06D080236365002384F83430D4
:10263000012070BD05462268136823F0160313605D
:102640002268536923F080035361236CE3B122684D
:10265000136823F0080313602268136823F0010352
:10266000136023681B6813F0010F11D0FFF7C4FC3F
:10267000431B052BF5D920236365032084F835001F
:10268000002384F83430D4E7A36C002BDFD1E3E7D8
:10269000E26D3F239340B360012384F8353000207E
:1026A00084F83400C5E790F83530022B03D080233E
:1026B000436501207047052380F8353002681368B0
:1026C00023F001031360002070470000F0B583B0D1
:1026D000044600230193724B1D68724BA3FB053522
:1026E000AD0A876D3E68C26D08239340334210D017
:1026F00003681A6812F0040F0BD01A6822F0040263
:102700001A60C26D08239340BB60436D43F0010320
:102710004365E26D01239340334209D02268526938
:1027200012F0800F04D0BB60636D43F00203636559
:10273000E26D04239340334209D02268126812F0FC
:10274000020F04D0BB60636D43F004036365E26D68
:1027500010239340334224D02268126812F0080FED
:102760001FD0BB6023681A6812F4802F0DD01B683D
:1027700013F4002F04D1236C9BB12046984710E03E
:10278000A36C73B1204698470BE01A6812F4807F5F
:1027900003D11A6822F008021A60236C0BB120469C
:1027A0009847E26D20239340334254D02268126848
:1027B00012F0100F4FD0BB6094F83530052B0ED0BF
:1027C00023681A6812F4802F33D01B6813F4002F8B
:1027D0002AD1636C002B3ED0204698473BE022680C
:1027E000136823F0160313602268536923F08003F3
:1027F0005361236CA3B12268136823F008031360AC
:10280000E26D3F239340BB60012384F83530002301
:1028100084F83430236D002B3FD0204698473CE0AD
:10282000A36C002BE7D1EBE7E36BA3B120469847FD
:1028300011E01A6812F4807F09D11A6822F01002A0
:102840001A60012384F83530002384F83430E36BB8
:102850000BB120469847636DFBB1636D13F0010F18
:1028600017D0052384F835302268136823F001035C
:102870001360019B01330193AB4204D823681B68AA
:1028800013F0010FF5D1012384F83530002384F8CB
:102890003430E36C0BB12046984703B0F0BD00BF65
:1028A000B4000020B5814E1B00230F2B00F2E980FD
:1028B00070B582B065E085684FEA430E032404FAE0
:1028C0000EF425EA0405CC6804FA0EF42C43846067
:1028D000446824EA02044A68C2F300129A40224380
:1028E00042605CE0DC08083450F8242003F007055F
:1028F000AD004FF00F0E0EFA05FE22EA0E0E0A6929
:10290000AA4042EA0E0240F824205CE0072200E0E0
:10291000002202FA0EF22A4302345A4D45F82420CE
:10292000594A94686FEA0C0224EA0C054E6816F4C2
:10293000801F01D04CEA0405534CA560E46802EA0C
:1029400004054E6816F4001F01D04CEA04054E4CF5
:10295000E560646802EA04054E6816F4003F01D0A1
:102960004CEA0405484C6560246822404D6815F423
:10297000803F01D04CEA0402434C226001330F2B0C
:102980007DD801229A400C6804EA020C32EA040461
:10299000F4D14C6804F00304013C012C8BD94A6843
:1029A00002F00302032A09D0C4685D000322AA4092
:1029B00024EA02048A68AA402243C2604A6802F0FC
:1029C0000302022A8ED004684FEA430E032202FA61
:1029D0000EF224EA02044A6802F0030202FA0EF23E
:1029E000224302604A6812F4403FC7D0002201929D
:1029F000264A546C44F480445464526C02F480427D
:102A00000192019A9C08A51C1E4A52F8255003F019
:102A1000030E4FEA8E0E0F2202FA0EF225EA02058D
:102A20001B4A90423FF474AF02F5806290421AD084
:102A300002F58062904218D002F58062904216D072
:102A400002F58062904214D002F58062904212D06A
:102A500002F58062904210D002F5806290423FF40D
:102A600055AF082255E7012253E7022251E703221E
:102A70004FE704224DE705224BE7062249E702B063
:102A800070BD704700380140003C014000380240F2
:102A9000000002400369194201D001207047002064
:102AA00070470AB181617047090481617047000075
:102AB000002800F0CC8070B5044690F83D30002B23
:102AC00077D0242384F83D302268136823F0010373
:102AD00013602268136843F400431360226813688C
:102AE00023F40043136000F003FC62685A4B9A42DF
:102AF00064D85A4B98428CBF00230123002B40F02E
:102B0000A8805749A1FB00318B0C25686A6822F028
:102B10003F0242EA91426A6021680A6A22F03F025B
:102B200066684D4DAE424FD8013313430B622168A6
:102B3000CA6922F44F4222F0FF026568464B9D426B
:102B40004CD8431E6D00B3FBF5F3013340F6FC7027
:102B5000034278D0C3F30B031A43CA6121680B68A0
:102B600023F0C003E269206A024313430B6021682B
:102B70008B6823F4034323F0FF032269E0680243D8
:102B800013438B602168CB6823F0FF036269A0695F
:102B900002431343CB602268136843F001031360C0
:102BA00000202064202384F83D30206384F83E0018
:102BB00070BD80F83C30FEF745F882E7294B98421B
:102BC0008CBF0023012399E74FF4967505FB03F3AF
:102BD000254DA5FB03539B090133A6E7A668BEB9A3
:102BE000431E05EB450CB3FBFCF30133C3F30B03AE
:102BF000B3FA83F35B0943BBC6B9431E05EB450536
:102C0000B3FBF5F30133C3F30B0343F40043A3E732
:102C1000431E05EB850C0CEB8C0CB3FBFCF3013372
:102C2000C3F30B03B3FA83F35B09E4E7431E05EB3D
:102C3000850505EB8505B3FBF5F30133C3F30B0302
:102C400043F4404388E7042386E7012384E7012017
:102C500070470120ACE700BFA08601007F841E0002
:102C600083DE1B43FF083D00D34D621000B583B0E7
:102C7000002200920D4B596C41F480415964596C0B
:102C800001F48041009100990192196C41F080514A
:102C900019641B6C03F080530193019B0F216FF0AB
:102CA0000100FFF793FB03B05DF804FB003802401E
:102CB000002800F0E08170B582B00446036813F08C
:102CC000010F3BD09F4B9B6803F00C03042B2CD0CF
:102CD0009C4B9B6803F00C03082B21D06368B3F571
:102CE000803F4FD0B3F5A02F52D0964B1A6822F4F4
:102CF00080321A601A6822F480221A606368002BFE
:102D000050D0FFF779F905468E4B1B6813F4003F4E
:102D100014D1FFF771F9401B6428F5D90320B1E104
:102D2000884B5B6813F4800FD8D0864B1B6813F474
:102D3000003F03D06368002B00F09F81236813F0ED
:102D4000020F54D07F4B9B6813F00C0F3ED07D4B8D
:102D50009B6803F00C03082B33D0E368002B68D08A
:102D6000794B01221A60FFF747F90546754B1B683E
:102D700013F0020F54D1FFF73FF9401B0228F5D999
:102D800003207FE16F4A136843F480331360B5E793
:102D90006C4B1A6842F480221A601A6842F480323E
:102DA0001A60ABE7FFF728F90546664B1B6813F47A
:102DB000003FC3D0FFF720F9401B6428F5D903205A
:102DC00060E1604B5B6813F4800FC6D15D4B1B68FC
:102DD00013F0020F03D0E368012B40F05081594AF1
:102DE000136823F0F803216943EAC10313602368E1
:102DF00013F0080F42D063696BB3534B0122C3F841
:102E0000802EFFF7F9F805464E4B5B6F13F0020F6B
:102E100034D1FFF7F1F8401B0228F5D9032031E146
:102E2000484A136823F0F803216943EAC103136099
:102E3000DDE7454B00221A60FFF7DEF80546414BFF
:102E40001B6813F0020FD2D0FFF7D6F8401B022800
:102E5000F5D9032016E13C4B0022C3F8802EFFF782
:102E6000CBF80546374B5B6F13F0020F06D0FFF728
:102E7000C3F8401B0228F5D9032003E1236813F0AF
:102E8000040F77D02F4B1B6C13F0805F33D10023DE
:102E900001932C4B1A6C42F080521A641B6C03F0A5
:102EA00080530193019B0125284B1B6813F4807FFD
:102EB00023D0A368012B34D0052B38D0214B1A6FB7
:102EC00022F001021A671A6F22F004021A67A3683F
:102ED000002B3DD0FFF790F806461A4B1B6F13F0FE
:102EE000020F46D1FFF788F8801B41F288339842E1
:102EF000F3D90320C6E00025D6E7144A136843F44B
:102F000080731360FFF778F80646104B1B6813F4C4
:102F1000807FCED1FFF770F8801B0228F5D90320FF
:102F2000B0E0084A136F43F001031367CFE7054B86
:102F30001A6F42F004021A671A6F42F001021A6710
:102F4000C5E700BF00380240000047420070004063
:102F5000FFF752F80646524B1B6F13F0020F08D0D2
:102F6000FFF74AF8801B41F288339842F3D90320D7
:102F700088E0EDB9A369002B00F08380484A92688D
:102F800002F00C02082A51D0022B17D0454B002228
:102F90001A66FFF731F80446414B1B6813F0007FB7
:102FA00042D0FFF729F8001B0228F5D9032069E079
:102FB0003B4A136C23F080531364DBE7394B002248
:102FC0001A66FFF719F80546354B1B6813F0007FAA
:102FD00006D0FFF711F8401B0228F5D9032051E075
:102FE000E369226A1343626A43EA8213A26A5208BF
:102FF000013A43EA0243E26A43EA0263284A536021
:10300000284B01221A66FEF7F7FF0446244B1B6883
:1030100013F0007F06D1FEF7EFFF001B0228F5D961
:1030200003202FE000202DE000202BE0012B2BD0EF
:103030001B4B5B6803F48001E269914226D103F0E7
:103040003F02216A8A4223D1616A47F6C0721A4060
:10305000B2EB811F1ED103F44031A26A5208013A3B
:10306000B1EB024F18D103F07063E26AB3EB026F69
:1030700014D1002006E001207047012002E0012069
:1030800000E0002002B070BD0120FBE70120F9E75D
:103090000120F7E70120F5E70120F3E70120F1E740
:1030A000003802400000474208B5334B9B6803F0EC
:1030B0000C03042B5BD0082B5BD12F4B5A6802F01A
:1030C0003F025B6813F4800F2CD02B4B5868C0F381
:1030D00088104FEA401CBCEB000C6EEB0E0E4FEA62
:1030E0008E1343EA9C634FEA8C11B1EB0C0163EB46
:1030F0000E03DB0043EA5173C90011EB000C43F1EE
:103100000003590200234FEA4C2041EADC51FDF74D
:103110003FF8194B5B68C3F3014301335B00B0FB1D
:10312000F3F008BD144B5868C0F388104FEA401CF8
:10313000BCEB000C6EEB0E0E4FEA8E1343EA9C6361
:103140004FEA8C11B1EB0C0163EB0E03DB0043EA99
:103150005173C90011EB000C43F1000399020023E5
:103160004FEA8C2041EA9C51FDF712F8D1E7034861
:10317000D7E70348D5E700BF0038024000127A00C5
:103180000024F400002800F09B8070B50D46044632
:103190004F4B1B6803F007038B4208D2CBB24C4A5B
:1031A0001370136803F007038B4240F08B80236891
:1031B00013F0020F17D013F0040F04D0454A9368A0
:1031C00043F4E0539360236813F0080F04D0414A9E
:1031D000936843F4604393603E4A936823F0F0039E
:1031E000A1680B439360236813F0010F32D063682A
:1031F000012B21D09A1E012A25D9364A126812F0D5
:10320000020F61D033498A6822F0030213438B60B6
:10321000FEF7F2FE06462F4B9B6803F00C03626834
:10322000B3EB820F16D0FEF7E7FE801B41F2883326
:103230009842F0D9032042E0264A126812F4003F77
:10324000E0D101203BE0234A126812F0007FD9D17F
:10325000012034E01E4B1B6803F00703AB4207D983
:10326000EAB21B4B1A701B6803F00703AB422DD167
:10327000236813F0040F06D0164A936823F4E05332
:10328000E1680B439360236813F0080F07D0114ADD
:10329000936823F46043216943EAC1039360FFF715
:1032A00003FF0C4B9B68C3F303130B4AD35CD8405A
:1032B0000A4B18600A4B186801F0A4F8002070BD92
:1032C000012070470120FAE70120F8E70120F6E726
:1032D000003C02400038024008700008B4000020A2
:1032E000B0000020014B1868704700BFB4000020F8
:1032F00008B5FFF7F7FF044B9B68C3F38223034A2B
:10330000D35CD84008BD00BF003802400070000800
:1033100008B5FFF7E7FF044B9B68C3F34233034A4A
:10332000D35CD84008BD00BF0038024000700008E0
:103330000F2303600B4B9A6802F0030242609A6805
:1033400002F0F00282609A6802F4E052C2609B6868
:10335000DB0803F4E0530361034B1B6803F007032E
:103360000B60704700380240003C024030B583B02B
:103370000446036813F0050F06D1236813F0020F0B
:103380002ED1002003B030BD4A4B00229A66FEF7D2
:1033900033FE0546484B1B6813F0006F06D0FEF75E
:1033A0002BFE431B022BF5D90320EBE76268A368D1
:1033B0001B0743EA8213404AC2F884303D4B012286
:1033C0009A66FEF719FE05463B4B1B6813F0006F2B
:1033D000D3D1FEF711FE431B022BF5D90320D1E711
:1033E00000230193344B1A6C42F080521A641B6C18
:1033F00003F080530193019B304A136843F48073B8
:103400001360FEF7F9FD05462C4B1B6813F4807F13
:1034100006D1FEF7F1FD431B022BF5D90320B1E7DE
:10342000254B1B6F13F4407314D0E26802F4407212
:103430009A420FD0204B1A6F22F440721D4901208E
:10344000C1F8400E0020C1F8400E1A671B6F13F040
:10345000010F13D1E36803F44072B2F5407F1ED030
:10346000154A936823F4F813936013490B6FE268CD
:10347000C2F30B0213430B67002083E7FEF7BCFD8A
:1034800005460D4B1B6F13F0020FE3D1FEF7B4FDA1
:10349000401B41F288339842F3D9032072E7064972
:1034A0008A6822F4F81223F0704323F44073134324
:1034B0008B60DAE7000047420038024000700040AD
:1034C00038B5044603680A4ADA60FEF795FD0546FA
:1034D0002368DB6813F0200F07D1FEF78DFD401B3A
:1034E000B0F57A7FF4D9032000E0002038BD00BF9A
:1034F0005F7F010070B50368DA6812F0400F02D0F8
:103500000025284670BD0446DA6842F08002DA6081
:10351000FEF772FD064600252368DB6813F0400FB6
:10352000EFD1002DEDD1FEF767FD831BB3F57A7F58
:10353000F2D9042363770125EEE70268D36823F00C
:103540008003D36003689B6813F0200F01D0002034
:10355000704710B50446FFF7B3FF10B1042363773B
:10356000012010BD00284AD010B50446437F53B156
:10357000022363772368DA6812F0100F07D0002067
:103580000123637710BD0377FEF794FCF0E7CA22AE
:103590005A62236853225A622046FFF7ABFF28B1D4
:1035A0002368FF225A620028ECD1E9E72268936879
:1035B00023F4E00323F04003936021688A68636882
:1035C000206903436069034313438B602368E26807
:1035D0001A6122681369A16843EA01431361204616
:1035E000FFF7ABFF0028DBD12268136C23F48023A4
:1035F00013642268136CA1690B431364D0E70120A4
:103600007047002302E001330A38C0B20928FAD813
:103610001B01DBB218437047037F012B5AD070B5F2
:1036200004460E46012303770223437732BB036827
:103630009B6813F0400F01D10023CB703078FFF767
:10364000E0FF05047078FFF7DCFF45EA0025B0785D
:10365000FFF7D7FF0543F37845EA83552368CA226D
:103660005A62236853225A622046FFF743FFB8B1DB
:103670002368FF225A620023237770BD03689B688A
:1036800013F0400F01D10023CB70337875782D02F1
:1036900045EA0345B3781D43F37845EA8355DDE7F2
:1036A000236805F07F3525F0FE451D60226893688C
:1036B00023F48023936021688B68F26830690243A9
:1036C00013438B602046FFF738FF0028D0D1012339
:1036D0006377CDE702207047037F012B48D070B598
:1036E00004460E460123037702234377CAB1CB7801
:1036F0004D782D0245EA03458B781D430B7845EA4A
:1037000043352368CA225A62236853225A622046EC
:10371000FFF7F0FEF0B12368FF225A6200232377FF
:1037200070BD4B7813F0100F03D003F0EF030A3392
:103730004B70F078FFF765FF05047078FFF761FFC5
:1037400045EA0025B078FFF75CFF0543337845EA8A
:103750004335D6E7236825F07F4525F0C0055D6039
:103760002046FFF7EAFE0028D5D101236377D2E790
:1037700002207047F8B5037F012B00F0B5800446A6
:103780000E460123037702234377002A53D10368AF
:103790009B6813F0400F01D10023CB703078FFF706
:1037A00030FF05047078FFF72CFF45EA0025B0785C
:1037B000FFF727FF0543F37845EA835596F8200085
:1037C000FFF71FFF45EA0065F3691D4373691D4359
:1037D0007768B3691F432368CA225A622368532259
:1037E0005A62736AB3F5807F3FD02268936823F4EE
:1037F000007393602268936823F4005393602268F7
:10380000D368DBB263F42073D360FEF7F5FB0646A2
:103810002368DA6812F0020F56D1FEF7EDFB801B29
:10382000B0F57A7FF4D92368FF225A6203206077CB
:103830000023237757E003689B6813F0400F01D102
:103840000023CB70337875782D0245EA0345B378B1
:103850001D43F37845EA835596F8203045EA036521
:10386000F3691D4373691D43B2E72268936823F42B
:10387000807393602268936823F480539360226876
:10388000D368DBB263F4C073D360FEF7B5FB0646C2
:103890002368DA6812F0010F0DD1FEF7ADFB801B33
:1038A000B0F57A7FF4D92368FF225A62032060774B
:1038B0000023237717E0DD6123685F642268936843
:1038C00043F48073936007E01D6223689F6422685D
:1038D000936843F4007393602368FF225A620123C4
:1038E000637700202077F8BD0220FCE700285AD03B
:1038F00010B50446436A33B94368B3F5827F05D0F7
:103900000023C36102E00023036143610023A3623B
:1039100094F85130002B40D0022384F851302268B3
:10392000136823F040031360636803F48273A26892
:1039300002F404421343E26802F400621343226972
:1039400002F002021343626902F001021343A2690A
:1039500002F400721343E26902F038021343226A50
:1039600002F080021343A26A02F40052216813435A
:103970000B60638B03F00403626A02F0100221689B
:1039800013434B602268D36923F40063D3610020A2
:103990006065012384F8513010BD84F85030204612
:1039A000FEF7CCFAB8E701207047000030B4036A94
:1039B000026A22F0010202624268846924F0730CF8
:1039C0000C6844EA0C0423F0020C8B6843EA0C03F5
:1039D000114DA84203D005F58065A84205D123F01A
:1039E0000803CD682B4323F004030B4DA84203D0FA
:1039F00005F58065A84207D122F440724D6945EA79
:103A0000020C8A6942EA0C02426084614A6842639D
:103A1000036230BC704700BF0000014030B4036A4D
:103A2000026A22F4807202624268C46924F0730C54
:103A30000C6844EA0C0523F400738C6843EA042301
:103A4000114CA04203D004F58064A04206D123F4B7
:103A50000063CC6843EA042323F480630A4CA04249
:103A600003D004F58064A04207D122F440524C698F
:103A700042EA04128C6942EA04124260C5614A6853
:103A8000C263036230BC70470000014030B4036A77
:103A9000026A22F4805202624468C26922F4E64259
:103AA0000D6842EA052223F400538D6843EA05338A
:103AB000094DA84203D005F58065A84204D124F43D
:103AC00080444D6944EA85144460C2614A680264D6
:103AD000036230BC704700BF0000014010B4036AAD
:103AE000046A24F001040462846924F0F00C4CEAB6
:103AF000021223F00A030B43826103625DF8044B58
:103B0000704710B4036A046A24F0100404628469E4
:103B100024F4704C4CEA023223F0A00343EA011370
:103B2000826103625DF8044B7047836823F0700381
:103B30000B4343F0070383607047000090F83D306B
:103B4000012B37D1022380F83D300268D36843F05F
:103B50000103D3600368194A934220D0B3F1804F28
:103B60001DD0A2F57C42934219D002F580629342A7
:103B700015D002F58062934211D002F5784293424B
:103B80000DD002F57052934209D0A2F594329342BF
:103B900005D01A6842F001021A60002070479A6846
:103BA00002F00702062A07D01A6842F001021A60E2
:103BB000002070470120704700207047000001403E
:103BC0007047704770477047704770B50446036888
:103BD000DE681D6915F0020F10D016F0020F0DD02F
:103BE0006FF002021A610123037703689B6913F0E7
:103BF000030F5ED0FFF7E6FF0023237715F0040FD5
:103C000012D016F0040F0FD023686FF004021A616F
:103C10000223237723689B6913F4407F4FD020460B
:103C2000FFF7D0FF0023237715F0080F12D016F00E
:103C3000080F0FD023686FF008021A61042323775E
:103C40002368DB6913F0030F40D02046FFF7BAFF6B
:103C50000023237715F0100F12D016F0100F0FD09D
:103C600023686FF010021A61082323772368DB6949
:103C700013F4407F31D02046FFF7A4FF00232377C1
:103C800015F0010F02D016F0010F2DD115F0800FA5
:103C900002D016F0800F2FD115F0400F02D016F091
:103CA000400F31D115F0200F02D016F0200F33D184
:103CB00070BDFFF786FF2046FFF785FF9CE7204693
:103CC000FFF77FFF2046FFF77EFFABE72046FFF7B9
:103CD00078FF2046FFF777FFBAE72046FFF771FF2E
:103CE0002046FFF770FFC9E723686FF001021A61F1
:103CF0002046FDF715F9C9E723686FF080021A61C5
:103D0000204600F07EFBC7E723686FF040021A618F
:103D10002046FFF759FFC5E723686FF020021A61BC
:103D2000204600F06DFBC3E70368324A904212D090
:103D3000B0F1804F0FD0A2F57C4290420BD002F53B
:103D40008062904207D002F58062904203D002F573
:103D50007842904203D123F070034A681343254A06
:103D600090422AD0B0F1804F27D0A2F57C429042F9
:103D700023D002F5806290421FD002F5806290420B
:103D80001BD002F57842904217D002F57052904253
:103D900013D002F5806290420FD002F5806290420B
:103DA0000BD0A2F59832904207D002F58062904283
:103DB00003D002F58062904203D123F44073CA68B5
:103DC000134323F080034A6913438A68C2620A6876
:103DD0008262084A904203D002F58062904201D18B
:103DE0000A690263026842F0040202600122426131
:103DF000036070470000014040B310B5044690F8DE
:103E00003D30F3B1022384F83D30214651F8040BD4
:103E1000FFF78AFF012384F8463084F83E3084F8A7
:103E20003F3084F8403084F8413084F8423084F8E0
:103E3000433084F8443084F8453084F83D30002025
:103E400010BD80F83C3001F021FDDBE70120704718
:103E500040B310B5044690F83D30F3B1022384F826
:103E60003D30214651F8040BFFF75EFF012384F833
:103E7000463084F83E3084F83F3084F8403084F88F
:103E8000413084F8423084F8433084F8443084F878
:103E9000453084F83D30002010BD80F83C30FFF7FD
:103EA0008FFEDBE70120704730B4036A026A22F01C
:103EB000100202624468826922F4E6420D6842EA16
:103EC000052223F020038D6843EA0513114DA84213
:103ED00003D005F58065A84206D123F08003CD68A4
:103EE00043EA051323F040030A4DA84203D005F529
:103EF0008065A84207D124F440644D6944EA8504F2
:103F00008D6944EA8504446082614A688263036281
:103F100030BC70470000014038B590F83C30012BB0
:103F200066D004460D46012380F83C300C2A5AD84E
:103F3000DFE802F0075959591B5959593059595955
:103F400044000068FFF732FD2268936943F00803DC
:103F500093612268936923F0040393612268936953
:103F600029690B43936100203EE00068FFF79CFF46
:103F70002268936943F4006393612268936923F490
:103F80008063936122689369296943EA01239361FD
:103F9000002029E00068FFF741FD2268D36943F063
:103FA0000803D3612268D36923F00403D361226834
:103FB000D36929690B43D361002015E00068FFF73E
:103FC00065FD2268D36943F40063D3612268D36935
:103FD00023F48063D3612268D369296943EA01230A
:103FE000D361002000E00120002384F83C3038BD7C
:103FF0000220FCE710B4846824F47F4C42EA0322D8
:104000000A4342EA0C0282605DF8044B704790F864
:104010003C30012B78D010B50446012380F83C30A9
:10402000022380F83D300268936823F47F4323F035
:10403000770393600B68602B4CD023D8402B54D06F
:1040400011D8202B03D00AD80BB1102B05D119465B
:104050002068FFF76AFD002028E0012026E0302BD1
:10406000F5D0012022E0502B0AD1CA6849680068C7
:10407000FFF734FD50212068FFF757FD002015E0C1
:10408000012013E0B3F5805F3AD0B3F5005F14D0A0
:10409000702B37D1CB684A6889680068FFF7AAFFA0
:1040A0002268936843F0770393600020012384F82B
:1040B0003D30002384F83C3010BDCB684A688968E5
:1040C0000068FFF797FF2268936843F4804393608A
:1040D0000020EBE7CA6849680068FFF712FD60211D
:1040E0002068FFF722FD0020E0E7CA684968006801
:1040F000FFF7F4FC40212068FFF717FD0020D5E70B
:104100000020D3E70120D1E70220704701F01F0112
:104110004FF0010C0CFA01FC036A23EA0C03036262
:10412000036A8A40134303627047000010B50446D7
:104130000846002947D194F83E30013B18BF0123BF
:10414000002B40F0A080002853D1022384F83E3099
:104150002268D36843F00203D3600122014620683D
:10416000FFF7D4FF23684B4A934203D002F58062E5
:10417000934203D15A6C42F400425A642368454A80
:10418000934275D0B3F1804F72D0A2F57C42934236
:104190006ED002F5806293426AD002F5806293424B
:1041A00066D002F57842934262D002F57052934293
:1041B0005ED0A2F5943293425AD01A6842F00102BE
:1041C0001A6000205EE0042907D008290BD094F87B
:1041D0004130013B18BF0123B2E794F83F30013B67
:1041E00018BF0123ACE794F84030013B18BF01230E
:1041F000A6E7042824D008282BD0022384F84130D5
:104200000C2842D801A353F820F000BF5141000808
:104210008B4200088B4200088B420008474200088E
:104220008B4200088B4200088B420008594200086C
:104230008B4200088B4200088B4200086542000850
:10424000022384F83F302268D36843F00403D3602C
:1042500083E7022384F840302268D36843F00803E0
:10426000D3607AE72268D36843F01003D36074E721
:104270009A6802F00702062A09D01A6842F0010281
:104280001A60002010BD0120FCE70120FAE70020A1
:10429000F8E700BF0000014038B505460C460C2980
:1042A00063D8DFE801F0076262622E626262346204
:1042B00062623A000268D36823F00203D3600022EE
:1042C00021462868FFF722FF2B68294A93422AD00B
:1042D00002F58062934226D02B68196A41F21112CE
:1042E000114208D1196A40F24442114203D11A68BE
:1042F00022F001021A602CBB012385F83E30002019
:1043000034E00268D36823F00403D360D7E702687F
:10431000D36823F00803D360D1E70268D36823F0A1
:104320001003D360CBE7196A41F211121142D3D1C5
:10433000196A40F244421142CED15A6C22F4004232
:104340005A64C9E7042C06D0082C09D0012385F84B
:10435000413000200AE0012385F83F30002005E0CD
:10436000012385F84030002000E0012038BD00BF67
:104370000000014090F83C20012A3DD010B40346D3
:10438000012280F83C20022280F83D20026850681B
:10439000946820F0700C086840EA0C0050601A68BD
:1043A000164882421AD0B2F1804F17D0A0F57C4057
:1043B000824213D000F5806082420FD000F5806009
:1043C00082420BD000F57840824207D000F5705051
:1043D000824203D0A0F59430824204D124F08004BC
:1043E000496821439160012283F83D20002083F831
:1043F0003C005DF8044B704702207047000001400C
:104400007047704730B589B0044600230193214BB3
:104410001A6C42F020021A641B6C03F02003019313
:10442000019B02A903A8FEF783FF069BCBB9FEF709
:104430005FFF0346184AA2FB03239B0C013B17486E
:10444000174A026040F2E732C26043600023036112
:1044500083608361FFF7D0FC054630B1284609B080
:1044600030BDFEF745FF4300E4E70C48FFF766FB6D
:1044700005460028F2D13720FDF7B8FF0F2C01D9EF
:104480000125EBE7002221463720FDF79FFF054B72
:104490001C60E3E70038024083DE1B43EC8C002005
:1044A00000140040B0000020026802F10C0353E841
:1044B000003F23F490730C3242E800310029F3D11D
:1044C000026802F1140353E8003F23F001031432A1
:1044D00042E800310029F3D1036B012B05D02023E2
:1044E00080F84230002303637047026802F10C0336
:1044F00053E8003F23F010030C3242E8003100295A
:10450000F3D1ECE790F84130212B01D00220704725
:104510008368B3F5805F17D0036A5A1C02621A7869
:1045200003685A60C38C9BB2013B9BB2C3844BB9F6
:104530000268D36823F08003D3600268D36843F035
:104540004003D360002070470369002BE4D1036A65
:104550001B880268C3F308035360036A02330362D3
:10456000E0E7000010B504460268136923F44053E5
:10457000C1680B431361836802691A4343691A4394
:10458000C3691A430168CB6823F4164323F00C0374
:104590001343CB600268536923F4407381690B4372
:1045A00053610368314A934206D002F58062934218
:1045B00002D0FEF79DFE01E0FEF7AAFEE369B3F527
:1045C000004F29D00021031849411B1841F1000177
:1045D000C90041EA5371DB00181863684FEA83028F
:1045E0004FEA937341F10001FBF7D2FD204AA2FB91
:1045F00000314909642303FB11031B013233A2FB81
:1046000003235B0903F0F00202EB011203F00F0336
:10461000216813448B6010BD0023021843EB030193
:10462000121841F10001C90041EA5271D20010187C
:1046300041F10001626892185B41FBF7A9FD0C4A49
:10464000A2FB00314909642303FB1103DB00323371
:10465000A2FB03235B095A0002F4F87202EB011279
:1046600003F00703216813448B60D4E70010014076
:104670001F85EB512DE9F04383B005460E461746E2
:104680009946DDF828802B681C6836EA04040CBFC4
:1046900001240024BC4228D1B8F1FF3FF3D0FDF73C
:1046A000ABFCA0EB0900404523D8B8F1000F22D0A5
:1046B0002B68DA6812F0040FE5D0802EE3D0402E8C
:1046C000E1D01A6812F0080FDDD0002401941A68B6
:1046D00001925B680193019B2846FFF7E5FE0823E2
:1046E0006B6485F84040012000E0002003B0BDE885
:1046F000F0830320FAE70320F8E760B310B504461F
:1047000090F8413013B3242384F841302268D368F1
:1047100023F40053D3602046FFF724FF2268136977
:1047200023F4904313612268536923F02A035361F1
:104730002268D36843F40053D360002060642023D0
:1047400084F8413084F84230606310BD80F8403016
:1047500001F064FCD7E7012070472DE9F04182B0F9
:104760001E4690F84130202B56D104460D46904607
:10477000002955D00AB901204FE0002343642123CA
:1047800080F84130FDF738FC0746A4F82480A4F8EF
:104790002680A368B3F5805F02D04FF0000814E0D4
:1047A00023692BB34FF000080FE0202384F8413039
:1047B000032032E038F8023B2268C3F30803536059
:1047C000E28C92B2013A92B2E284E38C9BB293B152
:1047D00000963B46002280212046FFF74BFF002831
:1047E000E3D1002DE6D015F8012B23685A60E7E7E6
:1047F000A8460025E9E700963B46002240212046D6
:10480000FFF738FF18B9202384F8413005E0202352
:1048100084F84130032000E0022002B0BDE8F081BE
:104820000120FAE7704708B50168CA6822F0400223
:10483000CA60202280F84120FFF7F4FF002008BD65
:104840007047704708B5806B0023C385FFF7F9FFF9
:1048500008BD90F84230222B69D18368B3F5805FA0
:104860004FD0826AB3F5805F04D0002B56D1036924
:10487000002B53D103685B681370836A0133836232
:10488000C38D9BB2013B9BB2C385002B51D100B5B8
:1048900083B00268D36823F02003D3600268D36832
:1048A00023F48073D3600268536923F001035361DA
:1048B000202380F8423000234363036B012B33D164
:1048C00000230363026802F10C0353E8003F23F066
:1048D00010030C3242E800310029F3D103681A6852
:1048E00012F0100F06D0002201921A6801925B6844
:1048F0000193019B818D01F052FB002003B05DF814
:1049000004FB0269002AACD1826A03685B68C3F3C6
:1049100008031380836A02338362B1E703685B682C
:1049200003F07F031370A8E7FFF78AFFE5E7022093
:10493000704700207047000010B582B0044602683E
:104940001368D068516913F00F0F09D113F0200FCD
:104950000CD010F0200F09D02046FFF77AFF16E0A8
:1049600011F0010115D110F4907F12D1216B0129B2
:1049700079D013F0800F03D010F0800F40F0218128
:1049800013F0400F03D010F0400F40F01E8102B032
:1049900010BD13F0010F06D010F4807F03D0626CBD
:1049A00042F00102626413F0040F04D019B1626C8A
:1049B00042F00202626413F0020F04D019B1626C7B
:1049C00042F00402626413F0080F07D010F0200FC9
:1049D00000D119B1626C42F008026264626C002A74
:1049E000D5D013F0200F02D010F0200F29D123686A
:1049F0005B6903F04003626C12F0080F00D163B3EF
:104A00002046FFF751FD23685B6913F0400F20D06B
:104A1000226802F1140353E8003F23F040031432EC
:104A200042E800310029F3D1E36B73B1694A1A659A
:104A3000E06BFDF738FE0028A9D0E06B036D9847C6
:104A4000A5E72046FFF705FFD1E72046FFF7F9FE6F
:104A50009DE72046FFF7F5FE99E72046FFF7F1FEB8
:104A60000023636493E713F0100F82D010F0100F4F
:104A70003FF47FAF002301931368019353680193C0
:104A8000019B536913F0400F5FD0E26B13685B68C2
:104A90009BB2002B4AD0A18D994247D9E385D369B7
:104AA000B3F5807F37D0226802F10C0353E8003F52
:104AB00023F480730C3242E800310029F3D12268DC
:104AC00002F1140353E8003F23F00103143242E8DB
:104AD00000310029F3D1226802F1140353E8003FAA
:104AE00023F04003143242E800310029F3D120239F
:104AF00084F8423000232363226802F10C0353E858
:104B0000003F23F010030C3242E800310029F3D1BA
:104B1000E06BFDF77FFD02236363A18DE38D9BB204
:104B2000C91A89B2204601F03AFA30E7A18D9942BC
:104B30007FF42DAFD369B3F5807F7FF428AF0223D4
:104B40006363204601F02BFA21E7A18DE38D9BB230
:104B5000C91A89B2E38D9BB2002B3FF418AF00292C
:104B60003FF415AF226802F10C0353E8003F23F431
:104B700090730C3242E800300028F3D1226802F131
:104B8000140353E8003F23F00103143242E80030DD
:104B90000028F3D1202384F84230002323632268C5
:104BA00002F10C0353E8003F23F010030C3242E8FB
:104BB00000300028F3D102236363204601F0EFF9AF
:104BC000E5E62046FFF79EFCE1E62046FFF72BFED8
:104BD000DDE600BF4548000881628285C28500236A
:104BE0004364222380F84230036923B10268D3680A
:104BF00043F48073D3600268536943F00103536147
:104C00000268D36843F02003D3600020704790F817
:104C10004230202B29D110B582B0044639B312B9E5
:104C2000012002B010BD0123036300234363FFF79B
:104C3000D3FF0028F5D1236B012B01D00120F0E731
:104C40000023019323681A6801925B680193019B1A
:104C5000226802F10C0353E8003F43F010030C32CA
:104C600042E800310029F3D1DBE702207047012040
:104C7000D7E7FEE7FEE7FEE7FEE7FEE77047000046
:104C800008B50248FDF722FD08BD00BF94080020CA
:104C900010B5044C2046FEF798FF2046FCF776FB43
:104CA00010BD00BF8092002008B50248FFF744FE07
:104CB00008BD00BF2C96002008B50248FEF785FF0E
:104CC00008BD00BF3892002008B50248FEF77DFFFE
:104CD00008BD00BFEC8C002008B50248FDF7F6FCCB
:104CE00008BD00BF3001002008B50248FDF7EEFC0A
:104CF00008BD00BFC494002008B50248FDF7E6FCDB
:104D000008BD00BF8495002008B50248FDF7DEFC11
:104D100008BD00BF6494002008B50248FDF7D6FC2A
:104D200008BD00BF2495002008B50248FFF704FE27
:104D300008BD00BFE495002070B50C46164600255E
:104D400006E0AFF30080214601F8010B01350C4667
:104D5000B542F6DB304670BD4FF0FF3070474FF480
:104D600000534B60002070470120704700207047BF
:104D700010B503460C4A0D490D48006840B10C4877
:104D800000680344521A934206D8094A136010BDC2
:104D90000748084C0460F2E701F09CFC0C23036018
:104DA0004FF0FF30F3E700BF0000022000040000D6
:104DB000348D0020C0970020034AD2F8883043F495
:104DC0007003C2F88830704700ED00E0084B1B68A4
:104DD0001B6823B9074B4FF0FF321A607047044B32
:104DE0001B68DB68DB685A68024B1A60704700BFBB
:104DF000A88D0020408D00202DE9F04780460D460B
:104E000017469946089EDDF824A00A9C9200A52129
:104E1000206B01F011FC236B07F18042013A03EB98
:104E2000820727F00707A5B34FF0000CBCF10F0F66
:104E300009D815F80C3004EB0C0282F8343013B1A9
:104E40000CF1010CF2E7002384F84330372E00D92F
:104E50003726E662E66400252565201DFCF725F867
:104E600004F11800FCF721F82461C6F13806A661A8
:104E70006462656584F858504A4641463846FCF7F6
:104E8000DDFA2060BAF1000F01D0CAF80040BDE899
:104E9000F087002384F83430D8E7000038B50024C8
:104EA00007E004EB840293000E481844FBF7F2FF7E
:104EB0000134372CF5D90C4D2846FBF7EBFF0B4C92
:104EC0002046FBF7E7FF0A48FBF7E4FF0948FBF73A
:104ED000E1FF0948FBF7DEFF084B1D60084B1C6033
:104EE00038BD00BFD48D0020C08D0020AC8D0020C7
:104EF000908D00207C8D0020648D0020A88D0020E6
:104F0000A48D002010B50446FCF7C4FA224A1368A9
:104F100001331360214B1B685BB1214B1B686BB9DC
:104F20001E4B1B68DA6AE36A9A4207D81B4B1C6067
:104F300004E01A4B1C601368012B29D0194A13682E
:104F4000013313606364E06A174B1B68984201D910
:104F5000154B186000EB8000211D144B03EB800003
:104F6000FBF7A6FFFCF7B8FA0D4B1B687BB10B4BA8
:104F70001B68DA6AE36A9A4209D24FF0E0234FF0E5
:104F80008052C3F8042DBFF34F8FBFF36F8F10BD56
:104F9000FFF784FFD2E700BF608D0020349200202D
:104FA000548D0020448D0020588D0020D48D002089
:104FB00010B5044690F8593063B1012B11D0022B83
:104FC0000ED04FF0500383F31188BFF36F8FBFF300
:104FD0004F8FFEE7006BFBF7D9FD2046FBF7D6FDB0
:104FE00010BDFBF7D3FDFBE70F4B1B68D3B110B52A
:104FF000FCF750FA0D4BDB68DC68201DFBF77CFFEB
:105000000B4A1368013B1360074A1368013B1360A6
:10501000FCF762FA2046FFF7CBFF034B1B68002B1F
:10502000E6D110BD704700BF788D00207C8D002038
:10503000608D002008B5FFF7D7FF074B1B68012BD9
:10504000F9D94FF0E0234FF08052C3F8042DBFF39D
:105050004F8FBFF36F8FEEE7D48D002070B50446FD
:105060000D46174B1E68174B18680430FBF744FFBA
:10507000B4F1FF3F0DD03444124B1B685C60A64274
:1050800010D9114B18680F4B19680431FBF71BFF3F
:1050900070BD002DEFD00B4B196804310B48FBF7A6
:1050A00007FFF5E70A4B1868064B19680431FBF750
:1050B0000AFF084B1B68A342EAD9064B1C60E7E7CE
:1050C0005C8D002034920020A48D0020648D00208F
:1050D000A88D0020408D002030B587B00B9C7CB19E
:1050E0000C9DB5B15C250495049D5C2D1AD04FF044
:1050F000500383F31188BFF36F8FBFF34F8FFEE729
:105100004FF0500383F31188BFF36F8FBFF34F8FBE
:10511000FEE74FF0500383F31188BFF36F8FBFF3A7
:105120004F8FFEE7049D0C9D2C63022485F85940A7
:1051300000240394029505AC01940A9C0094FFF7A7
:105140005BFE0C98FFF7DEFE059807B030BD2DE939
:10515000F04385B00746884614461E469000FBF78C
:1051600093FC08B381465C20FBF78EFC0546A8B192
:10517000C0F83090002380F85930039302900D9BC3
:1051800001930C9B00933346224641463846FFF775
:1051900033FE2846FFF7B6FE012007E04846FBF73E
:1051A000F5FC4FF0FF3001E04FF0FF3005B0BDE8F7
:1051B000F083000010B588B000240594069407AA77
:1051C00006A905A8FBF790F9059B0293069B01939E
:1051D00000942346079A17491748FFF77DFF174B9E
:1051E0001860C0B100F08EFC012815D14FF05003BB
:1051F00083F31188BFF36F8FBFF34F8F104B4FF0C6
:10520000FF321A600F4B01221A600F4B00221A6006
:10521000FCF7DAF903E00020B0F1FF3F01D008B05D
:1052200010BD4FF0500383F31188BFF36F8FBFF3AE
:105230004F8FFEE76C6F0008355000083C8D002052
:10524000408D0020548D00205C8D0020024A1368A0
:1052500001331360704700BF388D0020014B186880
:10526000704700BF5C8D0020F8B53A4B1B68002BDF
:1052700069D1394B1D6801351D60C5B9374B1B68B5
:105280001B6843B14FF0500383F31188BFF36F8F56
:10529000BFF34F8FFEE7314A1168314B1868106039
:1052A0001960304A136801331360FFF78FFD2E4BEE
:1052B0001B68AB423DD900272C4B1B68DB6A03EB14
:1052C00083039A002A4B9B58012B00D90127294BB5
:1052D0001B68002B3CD001273AE001271F4B1B68BD
:1052E0001B6843B31D4B1B68DB68DC6863689D4229
:1052F00026D3261D3046FBF7FFFDA36A1BB104F140
:105300001800FBF7F9FDE36A1B4A1268934201D9C2
:10531000194A136003EB83039A0031461448104482
:10532000FBF7C6FDE26A114B1B68DB6A9A42D4D2D6
:10533000D4E70027D2E70C4B4FF0FF321A60BBE7EF
:10534000094A1360B8E70D4A136801331360002758
:105350003846F8BD388D00205C8D0020A88D0020D7
:10536000A48D0020488D0020408D00203492002024
:10537000D48D00204C8D0020588D0020508D0020B1
:1053800038B5354B1B6843B94FF0500383F3118890
:10539000BFF36F8FBFF34F8FFEE7FCF77BF82E4B09
:1053A0001A68013A1A601B68002B4FD12B4B1B68FF
:1053B0000BB900244BE00024294B1B681BB3284B7E
:1053C000DB68DC6804F11800FBF796FD251D284614
:1053D000FBF792FDE06A234B1B68984201D9214BF1
:1053E000186000EB800029461F4B03EB8000FBF7A1
:1053F0005FFDE26A1D4B1B68DB6A9A42DCD31C4BE3
:1054000001221A60D8E70CB1FFF7E0FC194B1C68C9
:1054100084B9174B1C68D4B14FF0E0234FF0805291
:10542000C3F8042DBFF34F8FBFF36F8F01240EE03D
:10543000013C07D0FFF718FF0028F9D00C4B0122E0
:105440001A60F5E70B4B00221A60E2E70024FCF734
:1054500043F8204638BD00BF388D0020608D002005
:10546000908D0020588D0020D48D00203492002093
:105470004C8D0020508D002010B5A8B10446104B73
:105480001B6843B14FF0500383F31188BFF36F8F54
:10549000BFF34F8FFEE7FFF7D9FE00212046FFF74D
:1054A000DDFDFFF76DFF48B94FF0E0234FF080526C
:1054B000C3F8042DBFF34F8FBFF36F8F10BD00BF34
:1054C000388D0020204B1B681BB1204B01221A6035
:1054D00070471E4B00221A601D4B1B6803EB8301B3
:1054E0008A001C498A585AB90BB1013BF6E74FF0C4
:1054F000500383F31188BFF36F8FBFF34F8FFEE725
:10550000084603EB83018A000244516849685160F0
:1055100003EB830C4FEA8C020832024491420BD019
:1055200003EB830291000B4A0A445268D1680A4A8D
:105530001160074A13607047486862469100054A47
:105540000A445060ECE700BF388D00204C8D0020ED
:10555000588D0020D48D00203492002058B110B511
:105560000C46094A11681831FBF7ADFC01212046B1
:10557000FFF774FD10BD4FF0500383F31188BFF3A4
:105580006F8FBFF34F8FFEE73492002038B570B1B4
:105590000D4614460A4A11681831FBF789FC0CB114
:1055A0004FF0FF3521462846FFF758FD38BD4FF034
:1055B000500383F31188BFF36F8FBFF34F8FFEE764
:1055C0003492002038B5C368DC6824B304F11805B0
:1055D0002846FBF791FC184B1B682BBB251D284662
:1055E000FBF78AFCE06A154B1B68984201D9134B04
:1055F000186000EB80002946114B03EB8000FBF79D
:1056000057FCE26A0F4B1B68DB6A9A4211D90120F2
:105610000D4B186038BD4FF0500383F31188BFF372
:105620006F8FBFF34F8FFEE729460848FBF740FC1A
:10563000E7E70020EEE700BF388D0020588D0020FE
:10564000D48D0020349200204C8D0020908D0020BD
:10565000034B1B680360034B1B684360704700BF2C
:10566000488D00205C8D0020E0B170B50C460546E9
:1056700009B3FBF70FFF1C4B19686B68C81A226847
:10568000B2F1FF3F28D0DFF864C0DCF800C02E681C
:10569000664501D08B4224D9824215D8002323606D
:1056A00001241AE04FF0500383F31188BFF36F8F8A
:1056B000BFF34F8FFEE74FF0500383F31188BFF322
:1056C0006F8FBFF34F8FFEE75B1A134423602846AA
:1056D000FFF7BEFF002400E00024FBF7FDFE20469C
:1056E00070BD0124F9E700BF5C8D0020488D0020CB
:1056F000014B01221A6070474C8D0020054B1B683E
:1057000033B1054B1B680BB1002070470220704776
:1057100001207047548D0020388D002000283BD098
:1057200038B504461E4B1B68834208D04FF0500327
:1057300083F31188BFF36F8FBFF34F8FFEE7036DC5
:1057400043B94FF0500383F31188BFF36F8FBFF35A
:105750004F8FFEE7013B0365C16AC26C91421DD0C9
:105760000BB1002038BD051D2846FBF7C5FBE06CDA
:10577000E062C0F13803A3610A4B1B68984201D96B
:10578000084B186000EB80002946074B03EB8000B4
:10579000FBF78EFB0120E5E7002070470020E1E7E2
:1057A00034920020588D0020D48D002000B587B0A1
:1057B00000230293039304930593009301931648E7
:1057C0004FF0804202605322426083607C22C260BC
:1057D000036180238361FEF70FFB98B94FF4805378
:1057E000029302A90C48FEF712FC70B92023009323
:1057F0000023019369460848FEF7BCFD40B907B095
:105800005DF804FBFBF798FBE8E7FBF795FBEDE79A
:10581000FBF792FBF3E700BFC892002000B587B00A
:105820000023029303930493059300930193154877
:10583000154A0260A722426083606322C26003614E
:10584000436180238361FEF7D7FA90B94FF4805308
:10585000029302A90B48FEF7DAFB68B90023009314
:10586000019369460748FEF785FD40B907B05DF82A
:1058700004FBFBF761FBE9E7FBF75EFBEEE7FBF7F9
:105880005BFBF3E7389200200004014000B585B0CF
:105890000368B3F1804F08D01E4A934212D01E4ACB
:1058A000934223D005B05DF804FB002301931B4B0A
:1058B0001A6C42F001021A641B6C03F0010301939D
:1058C000019BEFE700220292144B196C41F0020198
:1058D00019641B6C03F002030293029B05211D2037
:1058E000FCF774FD1D20FCF781FDDBE7002203922D
:1058F0000A4B596C41F0020159645B6C03F00203DE
:105900000393039B05212C20FCF760FD2C20FCF762
:105910006DFDC7E70004004000040140003802406C
:1059200000B587B00023019302930393049305937A
:1059300002680E4B9A4202D007B05DF804FB0023C8
:1059400000930B4B1A6B42F002021A631B6B03F0BD
:1059500002030093009B10230193022302930593FB
:1059600001A90448FCF7A0FFE6E700BF00040040DF
:10597000003802400004024000B58FB000230A93B3
:105980000B930C930D930893099301930293039344
:1059900004930593069307932248234A02605322F7
:1059A0004260836040F2E732C2600361802383611A
:1059B000FEF722FA30BB4FF480530A930AA9194824
:1059C000FEF725FB08BB1748FEF742FA00BB002391
:1059D0000893099308A91348FEF7CCFCD8B96023B3
:1059E00001934FF4FA73029300220392059201A9E6
:1059F0000C48FEF791FA88B90A48FFF791FF0FB0FB
:105A00005DF804FBFBF798FAD5E7FBF795FADAE7C0
:105A1000FBF792FADBE7FBF78FFAE0E7FBF78CFA8C
:105A2000EAE700BF8092002000040040064B1A689D
:105A300013682BB90123036023B9D3681868704732
:105A40000023F8E7002070471094002008B541605B
:105A5000006191420CD8D21A83699A4201D3012085
:105A600008BD011D094B1868FBF72DFA0020F7E768
:105A70009A4201D2994206D2011D054B1868FBF7E4
:105A800022FA0020ECE70120EAE700BF0C94002096
:105A90001094002030B583B0FBF7FCFC114B1B6861
:105AA0001BB1FBF719FD03B030BD0F4D2846FBF7C6
:105AB000F1F90E4C2046FBF7EDF90D4B1D600D4B37
:105AC0001C60002300930C4B0C4A10210A20FBF7AA
:105AD00028FF044B18600028E3D00949FCF746F979
