:020000040800F2
:1000000000000220419D00085F870008618700080A
:100010006387000865870008678700080000000004
:100020000000000000000000000000006130000837
:10003000698700080000000001310008451B000826
:10004000919D0008919D0008919D0008919D0008D8
:10005000919D0008919D0008919D0008919D0008C8
:10006000919D0008919D0008919D0008919D0008B8
:10007000919D0008919D0008919D0008919D0008A8
:100080006D870008919D0008919D0008919D0008D2
:10009000919D0008919D0008919D0008919D000888
:1000A000919D0008919D0008919D0008919D000878
:1000B000919D00087D870008919D0008919D000892
:1000C000919D0008919D0008919D0008919D000858
:1000D000919D00088D870008919D0008919D000862
:1000E000919D0008919D0008919D0008919D000838
:1000F0009D870008919D0008919D0008919D000832
:10010000919D0008919D0008919D0008919D000817
:10011000919D0008919D0008919D0008AD87000801
:10012000BD870008CD870008DD870008919D000885
:10013000919D0008919D0008919D0008919D0008E7
:10014000919D0008919D0008919D0008919D0008D7
:10015000919D0008ED870008FD8700080D880008C4
:10016000919D0008919D0008919D0008919D0008B7
:10017000919D0008919D0008919D000800000000DD
:08018000919D0008919D00080B
:1001900010F8012B11F8013B012A28BF9A42F7D031
:1001A000D01A7047000000000000000000000000AE
:1001B00001F0FF01102A2BDB10F0070F08D010F818
:1001C000013B013A8B422DD010F0070F42B3F6D11C
:1001D000F0B441EA012141EA014122F007047FF035
:1001E00000070023F0E80256083C85EA010586EA8C
:1001F000010685FA47F5A3FA87F586FA47F6A5FAC8
:1002000087F68EB9EED1F0BC01F0FF0102F00702D3
:1002100032B110F8013B013A83EA010313B1F8D17E
:100220000020704701387047002D06BF354603385F
:10023000073815F0010F07D1013015F4807F02BF98
:10024000013015F4C03F0130F0BC0138704700BFE9
:10025000034613F8012B002AFBD1181A0138704706
:1002600081F0004102E000BF83F0004330B54FEA67
:1002700041044FEA430594EA050F08BF90EA020FD4
:100280001FBF54EA000C55EA020C7FEA645C7FEA67
:10029000655C00F0E2804FEA5454D4EB5555B8BF8A
:1002A0006D420CDD2C4480EA020281EA030382EAFB
:1002B000000083EA010180EA020281EA0303362D8D
:1002C00088BF30BD11F0004F4FEA01314FF4801C60
:1002D0004CEA113102D0404261EB410113F0004F72
:1002E0004FEA03334CEA133302D0524263EB430329
:1002F00094EA050F00F0A780A4F10104D5F1200EC7
:100300000DDB02FA0EFC22FA05F2801841F1000121
:1003100003FA0EF2801843FA05F359410EE0A5F1F5
:1003200020050EF1200E012A03FA0EFC28BF4CF026
:10033000020C43FA05F3C01851EBE37101F00045DC
:1003400007D54FF0000EDCF1000C7EEB00006EEBE9
:100350000101B1F5801F1BD3B1F5001F0CD3490873
:100360005FEA30004FEA3C0C04F101044FEA4452CA
:1003700012F5800F80F09A80BCF1004F08BF5FEA51
:10038000500C50F1000041EB045141EA050130BD31
:100390005FEA4C0C404141EB0101013C28BFB1F543
:1003A000801FE9D291F0000F04BF01460020B1FA8E
:1003B00081F308BF2033A3F10B03B3F120020CDA61
:1003C0000C3208DD02F1140CC2F10C0201FA0CF03F
:1003D00021FA02F10CE002F11402D8BFC2F1200CA4
:1003E00001FA02F120FA0CFCDCBF41EA0C0190405A
:1003F000E41AA2BF01EB0451294330BD6FEA0404A3
:100400001F3C1CDA0C340EDC04F11404C4F120028D
:1004100020FA04F001FA02F340EA030021FA04F39F
:1004200045EA030130BDC4F10C04C4F1200220FAF6
:1004300002F001FA04F340EA0300294630BD21FA34
:1004400004F0294630BD94F0000F83F4801306BFFA
:1004500081F480110134013D4EE77FEA645C18BFEE
:100460007FEA655C29D094EA050F08BF90EA020F85
:1004700005D054EA000C04BF1946104630BD91EA7D
:10048000030F1EBF0021002030BD5FEA545C05D180
:100490004000494128BF41F0004130BD14F58004BF
:1004A0003CBF01F5801130BD01F0004545F0FE4133
:1004B00041F470014FF0000030BD7FEA645C1ABF68
:1004C000194610467FEA655C1CBF0B46024650EA9F
:1004D000013406BF52EA033591EA030F41F40021CB
:1004E00030BD00BF90F0000F04BF0021704730B551
:1004F0004FF4806404F132044FF000054FF0000126
:1005000050E700BF90F0000F04BF0021704730B5E6
:100510004FF4806404F1320410F0004548BF4042BB
:100520004FF000013EE700BF42004FEAE2014FEA10
:1005300031014FEA02701FBF12F07F4393F07F4FEB
:1005400081F06051704732F07F4208BF704793F0EE
:100550007F4F04BF41F40021704730B54FF4607401
:1005600001F0004521F000411CE700BF50EA010204
:1005700008BF704730B54FF000050AE050EA0102AD
:1005800008BF704730B511F0004502D5404261EB1D
:1005900041014FF4806404F132045FEA915C3FF45E
:1005A000D8AE4FF003025FEADC0C18BF03325FEAFB
:1005B000DC0C18BF033202EBDC02C2F1200300FAAC
:1005C00003FC20FA02F001FA03FE40EA0E0021FAD1
:1005D00002F11444BDE600BF70B54FF0FF0C4CF4BF
:1005E000E06C1CEA11541DBF1CEA135594EA0C0F71
:1005F00095EA0C0F00F0DEF82C4481EA030621EAAC
:100600004C5123EA4C5350EA013518BF52EA0335E6
:1006100041F4801143F4801338D0A0FB02CE4FF098
:100620000005E1FB02E506F00042E0FB03E54FF0C8
:100630000006E1FB03569CF0000F18BF4EF0010EC0
:10064000A4F1FF04B6F5007F64F5407404D25FEABC
:100650004E0E6D4146EB060642EAC62141EA55516F
:100660004FEAC52040EA5E504FEACE2EB4F1FD0CB1
:1006700088BFBCF5E06F1ED8BEF1004F08BF5FEA2F
:10068000500E50F1000041EB045170BD06F00046E1
:1006900046EA010140EA020081EA0301B4EB5C048E
:1006A000C2BFD4EB0C0541EA045170BD41F4801186
:1006B0004FF0000E013C00F3AB8014F1360FDEBFAB
:1006C000002001F0004170BDC4F10004203C35DA87
:1006D0000C341BDC04F11404C4F1200500FA05F30A
:1006E00020FA04F001FA05F240EA020001F00042AB
:1006F00021F0004110EBD37021FA04F642EB060121
:100700005EEA430E08BF20EAD37070BDC4F10C044A
:10071000C4F1200500FA04F320FA05F001FA04F20E
:1007200040EA020001F0004110EBD37041F10001FA
:100730005EEA430E08BF20EAD37070BDC4F1200505
:1007400000FA05F24EEA020E20FA04F301FA05F26D
:1007500043EA020321FA04F001F0004121FA04F215
:1007600020EA020000EBD3705EEA430E08BF20EAE5
:10077000D37070BD94F0000F0FD101F0004640001F
:1007800041EB010111F4801F08BF013CF7D041EAA1
:10079000060195F0000F18BF704703F000465200A5
:1007A00043EB030313F4801F08BF013DF7D043EA76
:1007B0000603704794EA0C0F0CEA135518BF95EA2C
:1007C0000C0F0CD050EA410618BF52EA4306D1D1B3
:1007D00081EA030101F000414FF0000070BD50EAD2
:1007E000410606BF1046194652EA430619D094EA5C
:1007F0000C0F02D150EA013613D195EA0C0F05D146
:1008000052EA03361CBF104619460AD181EA030199
:1008100001F0004141F0FE4141F470014FF0000051
:1008200070BD41F0FE4141F4780170BD70B54FF0EC
:10083000FF0C4CF4E06C1CEA11541DBF1CEA13556C
:1008400094EA0C0F95EA0C0F00F0A7F8A4EB05044E
:1008500081EA030E52EA03354FEA013100F0888045
:100860004FEA03334FF0805545EA131343EA12630E
:100870004FEA022245EA111545EA10654FEA0026C3
:100880000EF000419D4208BF964244F1FD0404F57C
:10089000407402D25B084FEA3202B61A65EB0305D8
:1008A0005B084FEA32024FF480104FF4002CB6EB95
:1008B000020E75EB030E22BFB61A754640EA0C0015
:1008C0005B084FEA3202B6EB020E75EB030E22BF55
:1008D000B61A754640EA5C005B084FEA3202B6EB96
:1008E000020E75EB030E22BFB61A754640EA9C0055
:1008F0005B084FEA3202B6EB020E75EB030E22BF25
:10090000B61A754640EADC0055EA060E18D04FEAE2
:10091000051545EA16754FEA06164FEAC30343EA82
:1009200052734FEAC2025FEA1C1CC0D111F4801F4F
:100930000BD141EA00014FF000004FF0004CB6E748
:1009400011F4801F04BF01430020B4F1FD0C88BFE7
:10095000BCF5E06F3FF6AFAEB5EB030C04BFB6EBF2
:10096000020C5FEA500C50F1000041EB045170BDE5
:100970000EF0004E4EEA113114EB5C04C2BFD4EB12
:100980000C0541EA045170BD41F480114FF0000E96
:10099000013C90E645EA060E8DE60CEA135594EA12
:1009A0000C0F08BF95EA0C0F3FF43BAF94EA0C0F15
:1009B0000AD150EA01347FF434AF95EA0C0F7FF48A
:1009C00025AF104619462CE795EA0C0F06D152EADE
:1009D00003353FF4FDAE1046194622E750EA4106C2
:1009E00018BF52EA43067FF4C5AE50EA41047FF4D3
:1009F0000DAF52EA43057FF4EBAE12E74FF0FF3C38
:100A000006E000BF4FF0010C02E000BF4FF0010C08
:100A10004DF804CD4FEA410C7FEA6C5C4FEA430C81
:100A200018BF7FEA6C5C1BD001B050EA410C0CBFD0
:100A300052EA430C91EA030F02BF90EA020F002032
:100A4000704710F1000F91EA030F58BF994208BF99
:100A500090422CBFD8176FEAE37040F00100704756
:100A60004FEA410C7FEA6C5C02D150EA013C07D1AD
:100A70004FEA430C7FEA6C5CD6D152EA033CD3D0F8
:100A80005DF8040B704700BF8446104662468C46F2
:100A90001946634600E000BF01B5FFF7B7FF002825
:100AA00048BF10F1000F01BD4DF808EDFFF7F4FF4E
:100AB0000CBF012000205DF808FB00BF4DF808EDD9
:100AC000FFF7EAFF34BF012000205DF808FB00BFFC
:100AD0004DF808EDFFF7E0FF94BF012000205DF81E
:100AE00008FB00BF4DF808EDFFF7CEFF94BF0120D3
:100AF00000205DF808FB00BF4DF808EDFFF7C4FFCC
:100B000034BF012000205DF808FB00BF4FEA410C14
:100B10007FEA6C5C02D150EA013C0AD14FEA430CF7
:100B20007FEA6C5C02D152EA033C02D14FF0000034
:100B300070474FF0010070474FEA410212F5001272
:100B400015D211D56FF47873B3EB625212D94FEA14
:100B5000C12343F0004343EA505311F0004F23FAFE
:100B600002F018BF404270474FF00000704750EA53
:100B7000013005D111F0004008BF6FF00040704710
:100B80004FF00000704700BF53B94AB9002908BFB1
:100B900000281CBF4FF0FF314FF0FF3000F00CB8C1
:100BA000ADF1080C6DE904CE0CF0CCFCDDF804E0EE
:100BB000DDE9022304B07047704700BF10B5054C53
:100BC000237833B9044B13B10448AFF300800123F9
:100BD000237010BDDC010020000000003CD800089C
:100BE00008B5034B1BB103490348AFF3008008BDB0
:100BF00000000000E00100203CD800080123136041
:100C0000037890F900C0BCF1000F75DA03F0E00C36
:100C1000BCF1C00F0BD003F0F00CBCF1E00F19D009
:100C200003F0F80CBCF1F00F37D000207047012919
:100C300065D9417801F0C000802862D19B0103F49E
:100C4000F86301F03F010B437F2B5CD90223136053
:100C500001207047022958D9417801F0C00CBCF13D
:100C6000800F54D1807800F0C00CBCF1800F50D1BF
:100C70001B039BB2890101F47C610B4300F03F0030
:100C80000343B3F5006F46D3A3F55843B3F5006FA4
:100C900043D3032313600120704703293FD94178D0
:100CA00001F0C00CBCF1800F3BD100B590F802C040
:100CB0000CF0C00EBEF1800F35D1C07800F0C00E30
:100CC000BEF1800F32D19B0403F4E013090301F459
:100CD0007C310B434FEA8C1101F47C610B4300F033
:100CE0003F000343B3F5803F22D3B3F5881F21D2E1
:100CF00004231360012017E04FF0FF3070470020FD
:100D00007047002070470020704700207047002087
:100D10007047002070470020704700207047002077
:100D200070470020704700205DF804FB0020FBE7BF
:100D30000020F9E70020F7E7012313600378802BF8
:100D400013D97F33DBB27D2B12D8012912D9417818
:100D5000A1F14003DBB23E2B03D981F080017E2953
:100D60000AD802231360012070474FF0FF3070470C
:100D7000002070470020704700207047037803F17F
:100D80005002D2B2272A04D842785F32D2B25D2A0A
:100D900014D903F12802D2B21F2A04D842785F3254
:100DA000D2B25D2A0CD903F17F02D2B21F2A09D92F
:100DB0005633DBB2542B07D902207047032070470B
:100DC000032070470120704701207047032901D09C
:100DD00001207047037803F0F002E02A01D00120DF
:100DE00070471B039BB24278920102F47C6213436A
:100DF000827802F03F021343A3F59C42B2F5A44F60
:100E00000AD3A3F55052B2F5CE5F07D3A3F54053F2
:100E10003F2B05D9012070470320704702207047FF
:100E20000220704700E0806828B103888B42FAD81E
:100E300043888B42F7D37047014BD882002070471C
:100E4000FC090020014B988200207047FC0900201B
:100E500041EA002070470346002004E0013003F11E
:100E6000020C013063461A7842B1884206DA03F177
:100E7000010C12F0800FF1D10A2AF2D17047012043
:100E80007047802070474020704708B5FFF7F9FF92
:100E900008BD08B5FFF7F7FF08BD000038B50D4BDA
:100EA0002E221A700C4C002525806580FFF7E9FF83
:100EB0000138A080FFF7E7FF0138E080A582E582D6
:100EC000064B236101236372237703F071FF2846E9
:100ED00038BD00BFF8090020FC09002064D80008D4
:100EE0000346034A10691A460BB1014B1A61704759
:100EF000FC090020002800F0BB802DE9F04F89B0EC
:100F00000546FFF7A5F90746002800F0B480002346
:100F10000293039304930593069307931C46994603
:100F20009846BC4264D205EB040A2B57002B04DB25
:100F3000079B013307930134F3E7012300930193E7
:100F40003E1B6A4631465046FFF758FE834601AACB
:100F500031465046FFF7F0FEBBF1010F0ED00128DD
:100F60002ED0BBF1000F3BD1002834D1059B0133BB
:100F70000593069B013306930134D2E7012807D07D
:100F8000029B0133029308F10408009B1C44C8E74C
:100F9000049B01330493009E31465046FFF716FF31
:100FA00083465046FFF7EAFED8448144032E01D021
:100FB0003444B6E7019B022BFAD108F10208F7E7A7
:100FC000BBF1010F0CD0039B0133039309F104091A
:100FD000019B1C44A5E7059B013305930134A0E761
:100FE00020B9069B0133069301349AE7013498E750
:100FF000029A03995018049BC0183DD0002A03DDC3
:10100000069D059CA5423ADC002903DD059D069C52
:10101000A54236DC002B08DD3AB931B9C84532DCCF
:1010200001DB012028E0022026E0002A17DD00294C
:1010300015DD1D4C84FB0034C317C3EB64039A42D7
:1010400001DD994221DCB2EB410F20DCB1EB420F14
:101050001FDCC84501DD01200EE002200CE0002A63
:1010600019DC002919DCC84519DC1ADB012003E072
:101070004FF0FF307047002009B0BDE8F08F01202D
:10108000FAE70220F8E70120F6E70320F4E7012061
:10109000F2E70220F0E70120EEE70220ECE7012072
:1010A000EAE70220E8E700BF6766666608B5FFF773
:1010B00021FF08BD2DE9F84305460E461746089C5A
:1010C00092F8008003F00703013B062B05D8DFE808
:1010D00003F00C1925313D495500B9465FE04C4BF2
:1010E0001A7F013A18BF012260E0681C80B2B1B2D9
:1010F00018F0400F60D0464B1A7F03F0F3FE013C1E
:1011000000F08480A81C80B2B1B218F0200F59D032
:101110003F4B1A7F03F0E6FE013C77D0E81C80B21B
:10112000B1B218F0100F53D0394B1A7F03F0DAFE2A
:10113000013C6BD0281D80B2B1B218F0080F4DD021
:10114000334B1A7F03F0CEFE013C5FD0681D80B2A6
:10115000B1B218F0040F47D02D4B1A7F03F0C2FE36
:10116000013C53D0A81D80B2B1B218F0020F41D09B
:10117000274B1A7F03F0B6FE013C47D0E81D80B232
:10118000B1B218F0010F3BD0214B1A7F03F0AAFE39
:10119000013C3BD0083507F1010997F80180A8B25E
:1011A000B1B218F0800F9AD0194B1A7F03F09AFE53
:1011B000013C2BD04F4698E7154B1A7F013A18BFD8
:1011C00001229AE7124B1A7F013A18BF0122A1E7C8
:1011D0000F4B1A7F013A18BF0122A7E70C4B1A7F69
:1011E000013A18BF0122ADE7094B1A7F013A18BF37
:1011F0000122B3E7064B1A7F013A18BF0122B9E773
:10120000034B1A7F013A18BF0122BFE7BDE8F883FC
:10121000FC0900202DE9F04F83B08146884617462F
:101220001E46DDF830B00D9DDDF838A0002409E041
:10123000009753462A4604EB08014846FFF73AFF59
:101240005D440134B442F3DB03B0BDE8F08F00002D
:1012500070B584B0099D01EB030C0CF1FF3C8418C0
:10126000013C1F4EB6F90260A6EB010EBEF1000F65
:1012700007DDA3EB0E03002B2EDD089901FB0E55B5
:101280003146174EB6F90660ACEB060CBCF1000F08
:1012900003DDA3EB0C03002B1EDD114EB6F9046039
:1012A000A41B002C00DD121B0D4CB4F900C08445BA
:1012B00014DDACEB000CA2EB0C0205EBEC052CF002
:1012C000070420440CF00704002A05DD0294019570
:1012D000089C0094FFF79EFF04B070BD0024F3E764
:1012E000FC0900202DE9F04182B004461F4B1D6926
:1012F0000146A869FFF796FD00B3D0F80480038883
:10130000E41A08EBC406B178184F18F834202B7D86
:10131000706801900091B7F91610B7F91400FFF743
:1013200097FF3A69537D117D8B420AD80F4B9A8AF9
:1013300070781969897D00FB01229A8202B0BDE8AC
:10134000F0813D46B7F9140080B2FF8A18F83420C6
:101350002C7F3B4402443944013C18BF01240094D3
:101360009BB292B289B203F099FEDFE7FC0900203C
:1013700038B50446084B1D690146A869FFF752FDC0
:1013800040B142680388E41A12F83400AB7D03FBD5
:1013900000F038BD0020FCE7FC09002001230B8091
:1013A000704708B58069FFF73DFD003818BF012080
:1013B00008BD0000014B1B69587D7047FC090020E7
:1013C00008B5024B1B695B68984708BDFC09002003
:1013D0002DE9F04118B10C46054600260BE0002629
:1013E0003046BDE8F0810235023C3978FFF730FD28
:1013F000FFF7E6FF064428780028F1D0002CEFDB49
:101400006F1C04F1FF3810F0800FECD1FFF7D8FF0C
:10141000064444463D46EEE708B5FFF7CBFF024AD7
:10142000D38A0344D38208BDFC09002008B50A28EA
:1014300006D00D2803D0044B1B691B68984708BDD4
:10144000FFF7EAFFFBE700BFFC090020F8B50646FE
:101450000C4606E00236023C2978FFF7F9FCFFF75C
:10146000E5FF671E0AD4354615F8010B10F0800F12
:10147000F0D1FFF7DBFF3C462E46F2E7F8BD08B59A
:10148000FFF7E4FF08BD00000D4BB3F91A3003F07D
:101490000C03082B0DD00C2B06D0042B0ED1084BBF
:1014A0001B69187D01387047054B1B69187D400882
:1014B0007047034B1B69187D400870470020704738
:1014C000FC09002038B50D46FFF7BCFC0446284651
:1014D000FFF7B2FC2043C0B238BD10B582B0002483
:1014E00000949BB292B289B280B203F0D7FD02B0F1
:1014F00010BD10B500210846FFF7E4FFFFF7C5FC5B
:101500000446FFF7C6FC0346224600210846FFF7C3
:10151000E4FF10BD70B50446002505E02046FFF746
:10152000AEFC0444054431464E1E0029F6D128463F
:1015300070BD08B5FFF78FFC08BD08B5FFF748FF81
:1015400008BD000000B583B084468E466B46106827
:10155000516803C3BDF90020064B9A82BDF90220F1
:10156000DA826A4671466046FFF789FF03B05DF88C
:1015700004FB00BFFC090020024BB3F91A2058837A
:1015800010467047FC09002008B503F0DDFB08BDDC
:1015900000B583B0844608461146BCF80430DCF838
:1015A000082001920093BCF80230BCF80020FFF73D
:1015B0004FFE03B05DF804FB08B5FFF7E9FF08BD77
:1015C0002DE9F04F85B08246002874D0FEF740FE2A
:1015D0000290B0F5807F71D8394B1B695A6A03922B
:1015E000D3F820B04FF00008364B01930DE003F024
:1015F000E002C02A1CD003F0F002E02A1BD003F066
:10160000F803F02B1AD008F10108029B98454ED23E
:101610000AEB080300931AF808301AF90820002A88
:10162000E5DB019A02F8013B08F101080192ECE7C1
:101630004FF0020904E04FF0030901E04FF0040904
:10164000C844029B984532D8039B5E1E002502E0E9
:101650004B450ED9661EB54223DC731B03EBD373D7
:1016600005EB63040BEBC4073B794B45F0D2651CDB
:10167000F1E74A460099384609F0CAFA002803DB28
:10168000002803DD661EE6E7651CE4E7FA79791DAC
:10169000019C204609F06BFBFB7922461A4401921B
:1016A000B3E7019B3F2203F8012B0193ADE7002331
:1016B000019A1370034805B0BDE8F08F0020FAE7E7
:1016C000FC090020F80500202DE9F04F87B0064600
:1016D000002800F0DB80FEF7BBFD0446B0F5007F7C
:1016E00000F2D7806C4B1B695A6A03921B6A029303
:1016F00000256A4B009319E0012304930593671BAF
:1017000004AA39465846FFF779FA804605AA3946B1
:101710005846FFF711FBB8F1010F16D0012816D07B
:10172000009B3F2203F8012B01350093A54280F076
:10173000A98006EB050B725D7357002BDCDB009B69
:1017400003F8012B01350093F0E701280ED1B8F121
:10175000010F50D09BF8002000990B4603F8022B94
:10176000721952784A7002350093DFE7049B0193A7
:10177000039B03F1FF394FF0000804E0019A934204
:1017800014D907F1FF39C8452DDCA9EB080707EB91
:10179000D77708EB6707029B03EBC70A9AF8043078
:1017A000019A9342EAD207F10108ECE7019A5946FF
:1017B000504609F02DFA002804DB002805DD07F16A
:1017C000FF39E0E707F10108DDE79AF807200AF1A1
:1017D0000501009F384609F0CAFA9AF807303A46E0
:1017E0001A44009204E0009B3F2203F8012B00936F
:1017F000019B1D449AE7012892D1049B0193039B0E
:1018000003F1FF394FF0000804E0019A934214D924
:1018100007F1FF39C8452DDCA9EB080707EBD7779F
:1018200008EB6707029B03EBC70A9AF80430019A9A
:101830009342EAD207F10108ECE7019A5946504673
:1018400009F0E6F9002804DB002805DD07F1FF397F
:10185000E0E707F10108DDE79AF807200AF1050142
:10186000009F384609F083FA9AF807303A461A443E
:10187000009204E0009B3F2203F8012B0093019BA0
:101880001D4453E70023009A1370044807B0BDE8D5
:10189000F08F0020FAE700BFFC090020F8010020CB
:1018A000002800F09C802DE9F04F85B00446FFF73A
:1018B00081FD01904A4DB5F914B0FFF7E5FDEB8AC3
:1018C0001FFA80FAA3EB0A03EB822046FFF7EEFB38
:1018D000012804D0032807D0002C42D17CE0204608
:1018E000FFF76EFE0446F7E72046FFF7EDFE0446DD
:1018F000F2E700EBD0725210394FBB8A9B1A1AB232
:10190000BA82ADF8082085B215FA83F39BB2013B89
:10191000ADF80C30B7F91630ADF80A30BDF80490C8
:1019200019FA83F39BB2013BADF80E3002AA31469F
:101930002046FFF707FEBDF90A80A7F8168031465A
:101940002046FFF7E7FD2318225C0A2A22D00D2A41
:1019500020D0BDF808201544214A95821A788AB310
:101960005C1C237873B347F6FF712046FFF7E1FD57
:10197000064601462046FFF7E0FD194BB3F91A3041
:1019800003F00303012B03D0022BB2D00022B3E7F4
:101990000246B1E7124AB2F91A2002F00302013AF4
:1019A000012A0BD90E4A002191821A780A2AD5D130
:1019B00019FA88F80A4AA2F81680CFE7084AA2F86E
:1019C00014B0F2E7064BDA8A9244A3F816A0B3F9F2
:1019D0001A2022F003025A8305B0BDE8F08F704749
:1019E000FC09002008B5034B9982DA82FFF758FF03
:1019F00008BD00BFFC090020F8B505460E46174695
:101A0000084B588B40F0020000B2FFF7B5FD0446CA
:101A10003A4631462846FFF7E5FF2046FFF7ACFD82
:101A2000F8BD00BFFC09002000B585B0002300937D
:101A30000193029303931648164A02604FF48032D2
:101A40004260836003610122027680F820304FF00B
:101A50008051C1624FF0C0618162C360C26180F891
:101A60003020426103F022FC60B90123009301930E
:101A7000072302936946064803F044FC28B905B0E1
:101A80005DF804FB01F00CF9EFE701F009F9F6E766
:101A90007C0A00200020014030B589B00023039368
:101AA0000493059306930793026803F1804303F5BB
:101AB00090339A4201D009B030BD0446002501950B
:101AC00003F58C335A6C42F480725A645A6C02F4F7
:101AD00080720192019A02951A6B42F001021A6318
:101AE0001B6B03F001030293029B02230393032366
:101AF000049303A9104803F091FF1048104B0360B2
:101B000045608560C5604FF4806303614FF40063F6
:101B100043614FF4005383614FF48073C3610562E6
:101B2000456203F0CBFD18B9044BA3639C63C2E785
:101B300001F0B6F8F8E700BF000002401C0A0020E0
:101B40001064024008B54FF0E0231B6907F058FB12
:101B5000012800D108BD01F005FBFBE7EFF3058389
:101B60002BB9064B186828B901221A6070476FF02C
:101B7000050070474FF0FF30704700BF7C11002018
:101B8000EFF3058373B90A4B1B68012B0DD110B518
:101B90000024084BDC77064B02221A6007F08CF811
:101BA000204610BD6FF0050070474FF0FF307047C2
:101BB0007C11002000ED00E0F0B587B00024059412
:101BC000EFF3058404BBF8B1002A34D0156893699B
:101BD0002BB11E46013B372B02D9002015E01826F9
:101BE000536813F0010F3FD1546984B14FEA940C4C
:101BF00093682BB1D7685B2F02D9176907B184B9F5
:101C000043B14FF0FF330BB3059807B0F0BD4FF071
:101C1000800CEDE7D368A3B91369ABB14FF0FF3384
:101C2000F1E70293019700960B466246294606F0BB
:101C3000D5FF0590E8E71546002318264FF0800CE5
:101C4000E1E74FF0FF33DEE70023DCE705AB01936C
:101C500000960B461FFA8CF2294606F0FAFF01287F
:101C6000D2D000230593CFE70020CEE708B5EFF3ED
:101C7000058333B908B9002008BD07F07FF90020BB
:101C8000FAE76FF00500F7E710B582B01C46EFF3F6
:101C90000583C3B118B329B33CBB0023019301AA48
:101CA00002F0D9F8012823D1019850B14FF0E02378
:101CB0004FF08052C3F8042DBFF34F8FBFF36F8FE7
:101CC000002002B010BDB0B1C1B10023224601F026
:101CD000FEFF012815D0B4B16FF00100F1E76FF0FD
:101CE0000300EEE76FF00300EBE76FF00300E8E7B7
:101CF0006FF00200E5E76FF00300E2E76FF003002A
:101D0000DFE70020DDE76FF00200DAE7034B036056
:101D1000034B0B6080231360704700BF201100202D
:101D2000200F0020034B0360034B0B604FF48073C4
:101D300013607047C40E0020C40A002000B583B0B1
:101D40000023009301930C480C4B036003F00CFC40
:101D500058B924230093002201926946064803F0F3
:101D600015FC28B903B05DF804FB00F099FFF0E71B
:101D700000F096FFF6E700BFE0110020007400407D
:101D800030B589B00023039304930593069307931A
:101D90000268224B9A4201D009B030BD04460025AA
:101DA000019503F5E2331A6C42F000521A641A6C82
:101DB00002F000520192019A02951A6B42F0010260
:101DC0001A631B6B03F001030293029B102303931E
:101DD0000323049303A9124803F020FE1148124B79
:101DE00003604FF06063436040238360C5604FF43D
:101DF000806303614FF4006343614FF400538361D8
:101E0000C5610562456203F059FC18B9054BA36032
:101E10009C63C1E700F044FFF8E700BF0074004096
:101E20000000024080110020886002400A4B1B78AD
:101E300083B9094B01221A70084AD2F8FC3043F0EA
:101E40008073C2F8FC30064B1A6842F001021A6037
:101E500000225A60704700BFF411002000ED00E03E
:101E6000001000E0074B1B68074AA2FB03239B0CF2
:101E700003FB00F0054B5A68044B5B689B1A8342D6
:101E8000FAD370471000002083DE1B43001000E0EF
:101E9000F0B5054601204FF0000C1CE002EB80037A
:101EA00001EB0C0E1B0108332B44D3F80670D3F85A
:101EB0000A60D3F80E40D3F8123041F80C70CEF817
:101EC0000460CEF80840CEF80C300CF1100C013252
:101ED000022AE3DD0130082801DC0022F8E7F0BD2A
:101EE00000B5D0F84EE2D0F852C2D0F85622D0F861
:101EF0005A32C1F800E0C1F804C08A60CB60D0F863
:101F00005EE2D0F862C2D0F86622D0F86A32C1F838
:101F100010E0C1F814C08A61CB61D0F86EE2D0F84D
:101F200072C2D0F87622D0F87A32C1F820E0C1F837
:101F300024C08A62CB62D0F88EE2D0F892C2D0F888
:101F40009622D0F89A32C1F830E0C1F834C08A63E2
:101F5000CB63D0F89EE2D0F8A2C2D0F8A622D0F887
:101F6000AA32C1F840E0C1F844C08A64CB64D0F81A
:101F7000AEE2D0F8B2C2D0F8B622D0F8BA32C1F888
:101F800050E0C1F854C08A65CB65D0F8CEE2D0F8F5
:101F9000D2C2D0F8D622D0F8DA32C1F860E0C1F867
:101FA00064C08A66CB66D0F8DEE2D0F8E2C2D0F830
:101FB000E622D0F8EA32C1F870E0C1F874C08A674E
:101FC000CB67D0F8EEE2D0F8F2C2D0F8F622D0F823
:101FD000FA32C1F880E0C1F884C0C1F88820C1F8A5
:101FE0008C30D0F80EE3D0F812C3D0F81623D0F816
:101FF0001A33C1F890E0C1F894C0C1F89820C1F834
:102000009C305DF804FB00B5D0F81EE3D0F822C385
:10201000D0F82623D0F82A33C1F800E0C1F804C074
:102020008A60CB60D0F82EE3D0F832C3D0F83623E4
:10203000D0F83A33C1F810E0C1F814C08A61CB611E
:10204000D0F84EE3D0F852C3D0F85623D0F85A3324
:10205000C1F820E0C1F824C08A62CB62D0F85EE308
:10206000D0F862C3D0F86623D0F86A33C1F830E004
:10207000C1F834C08A63CB63D0F86EE3D0F872C382
:10208000D0F87623D0F87A33C1F840E0C1F844C0E4
:102090008A64CB64D0F88EE3D0F892C3D0F896234C
:1020A000D0F89A33C1F850E0C1F854C08A65CB65C6
:1020B000D0F89EE3D0F8A2C3D0F8A623D0F8AA3374
:1020C000C1F860E0C1F864C08A66CB66D0F8AEE3C0
:1020D000D0F8B2C3D0F8B623D0F8BA33C1F870E064
:1020E000C1F874C08A67CB67D0F8CEE3D0F8D2C30A
:1020F000D0F8D623D0F8DA33C1F880E0C1F884C034
:10210000C1F88820C1F88C30D0F8DEE3D0F8E2C303
:10211000D0F8E623D0F8EA33C1F890E0C1F894C0D3
:10212000C1F89820C1F89C305DF804FB08B5FFF7B2
:10213000E0F90848FEF7D4FE142240210648FFF7D4
:102140005BFC302240210548FFF756FCFFF71CFAE4
:1021500008BD00BF64D80008183D0108303D0108E3
:1021600008B5FEF79BFE0348FEF7BAFEFFF7DEFF59
:1021700008BD00BF64D80008002800F0BE802DE92B
:10218000F04FADF5477D0446FFF7B3F95B48FEF726
:10219000A7FE237B012B55D0022B00F0A680584BC5
:1021A0002268BEAD0092574A2021284608F0F6FB6F
:1021B000002211462846FFF715FC6368002B00F04B
:1021C00096805148FEF78CFE6368504A20212846CD
:1021D00008F0E4FB0E2240212846FFF70DFC36AD47
:1021E00029462046FFF77CFE0AA84FF05009A0F8C8
:1021F00000904FF01008A0F802800A27878001267F
:10220000C68085600025C56020221821FFF7D4F91B
:102210000DF5BC7A51462046FFF7F5FE0EA8A0F852
:102220000090A0F802808780C680C0F808A0C56032
:1022300030221821FFF7C0F9FFF7A6F90DF5477D09
:10224000BDE8F08F627B002AA6D05EAD294620460D
:10225000FFF71EFE02A8302303804023438006239D
:1022600083800126C68085600025C5602A462946F0
:10227000FFF7A2F90DF1380B59462046FFF730FE63
:1022800036AF39462046FFF7BEFE06A84FF0500A8B
:10229000A0F800A04FF01009A0F802904FF00A0833
:1022A000A0F80480C680C0F808B0C5602A46322174
:1022B000FFF782F90AA8A0F800A0A0F80290A0F801
:1022C0000480C6808760C56012223221FFF774F94E
:1022D000BEAD237B0E4A2021284608F05FFB382242
:1022E00068212846FFF77EFBA6E70A4B58E7242221
:1022F00040210948FFF780FB9EE7704764D800083B
:102300004C3D0108583D010888DE0008643D010885
:10231000543D0108443D01086C3D010830B589B0C9
:102320000446FFF7E6F80C48FEF7DAFD44B924222C
:1023300040210A48FFF760FBFFF726F909B030BDDE
:102340002346074A2021684608F028FB1422402132
:102350006846FFF751FBEAE764D80008843D0108AE
:10236000783D010810B582B000240094224B1A6B0E
:1023700042F480021A631A6B02F480020092009AFF
:1023800001941A6B42F400121A631B6B03F40013DE
:102390000193019B22460521102003F0D1F8102063
:1023A00003F0DEF822460521382003F0C9F8382072
:1023B00003F0D6F822460521392003F0C1F8392070
:1023C00003F0CEF8224605213A2003F0B9F83A206E
:1023D00003F0C6F822460521452003F0B1F8452058
:1023E00003F0BEF822460521462003F0A9F8462056
:1023F00003F0B6F802B010BD0038024030B338B573
:1024000004460288BAB1124B1B8812FA83F3B3F563
:10241000007F11D80E4D2888A11C0E4B13FA80F0B6
:1024200008F0A5FC22882B8812FA83F39BB22B803C
:10243000094B01221A7038BD054D00232B80811CE9
:10244000044808F094FC23882B80F1E7704700BF14
:102450000E120020101400200D12002070B5ADF5F2
:10246000836D984C9849204607F0B8FA00229749A6
:10247000204607F0EBFA204607F0CEFA204607F098
:102480002DFB934808F082FA00F086FC914808F092
:102490007DFAFFF765FE904808F078FA01F00EFA31
:1024A0008E4808F073FA14E000F0ECFD8C4E34888E
:1024B000A4B28C4D22468C49284608F058FC0023D3
:1024C00033808A4A137000F0FFFD2146284601F050
:1024D0002BFA864B1B78002BE6D102F033FE844B9F
:1024E0001B68C31AC72B40F2B180804B1B78002BAE
:1024F00040F0AC807E4B18607E4B1B78002B00F0C8
:10250000A180684602F07AF9002839D1009C7A4B04
:102510001B68A3422ED0794B00221A7002F012FEE3
:10252000774B1860694602A800F04EFCC0B9724BA8
:102530001C6002AC0299734808F0C0F9039919B9FC
:1025400002A8FFF719FE81E06F4808F0B7F9A1680B
:102550006E4808F0B3F9217B6D4808F0AFF9EFE75A
:102560002146684808F0AAF92046FFF7D7FE00F098
:1025700021FC6BE0614B00221A7002F000F965E06B
:1025800000F018FC0520FFF771FB01A802F036F9F6
:10259000002839D1594B00221A70019C564B1B68F8
:1025A000A3422ED002F0CEFD554B1860514B0122B4
:1025B0001A7001A902A800F007FCC0B94E4B1C60BC
:1025C00002AC02994F4808F079F9039919B902A8A9
:1025D000FFF7D2FD3AE04C4808F070F9A1684B488B
:1025E00008F06CF9217B4A4808F068F9EFE72146CA
:1025F000444808F063F92046FFF790FE00F0DAFB4C
:1026000024E002F0BCF821E03C4A13780133DBB24D
:102610001370042B1AD9134600221A7002F092FD8F
:10262000374B1B68C31A41F2873293420ED90023FD
:10263000304A1370304A1360364808F0A7F9FFF7A4
:1026400075FD03E001A802F0D9F818B10A20FFF7E0
:102650000DFB3EE701A90C68264B01221A70274B9F
:1026600000221A7002A800F0AFFBE0B9224B1C60F8
:1026700002F068FD224B186002AC0299214808F074
:102680001DF9039919B902A8FFF776FDDEE71E4888
:1026900008F014F9A1681D4808F010F9217B1C48C6
:1026A00008F00CF9EFE702F04DFD154B18602146DC
:1026B000144808F003F92046FFF730FE00F07AFBDB
:1026C000C4E700BF1016002074EB0020FD230008B3
:1026D000983D0108C83D0108E43D0108003E01089D
:1026E0000E12002010120020101400200D120020E5
:1026F000041200200C1200200812002000120020FA
:10270000FC110020303E01083C3E0108483E010813
:10271000543E0108603E010808B5044A00210448FF
:10272000FFF74AFA034B186008BD00BF8C3F010851
:102730005D240008F81100202DE9F04F8DB007ADA1
:1027400000240794089409940A940B9401945A4B1A
:102750001A6B42F010021A631A6B02F01002019217
:10276000019A02941A6B42F004021A631A6B02F087
:1027700004020292029A03941A6B42F080021A63D6
:102780001A6B02F080020392039A04941A6B42F0CF
:1027900001021A631A6B02F001020492049A059472
:1027A0001A6B42F002021A631A6B02F002020592DF
:1027B000059A06941A6B42F008021A631B6B03F029
:1027C00008030693069BDFF8F8B02246012158461D
:1027D00003F0BBFADFF8ECA022461021504603F0CC
:1027E000B4FA364F01224FF4FE41384603F0ADFAF9
:1027F000224648F20101384603F0A7FADFF8C88004
:1028000022464FF40441404603F09FFADFF8BC90A3
:1028100022464FF41071484603F097FA1E2307939F
:102820000894012609962946384603F0F7F86023F4
:1028300007930894022309932946384603F0EEF8DB
:102840000796089609940A942946584603F0E6F834
:1028500010230793089609940A942946504603F0DA
:10286000DDF84FF601730793089609940A942946F8
:10287000384603F0D3F84FF40443079308960994BD
:102880000A942946404603F0C9F84FF400530793D1
:10289000089409942946404603F0C0F84FF4107399
:1028A0000793089609940A942946484603F0B6F817
:1028B0000DB0BDE8F08F00BF0038024000100240AC
:1028C000000002400008024000040240000C0240E8
:1028D000124A12F0070F1ED0D11D21F00701C1F5D9
:1028E000404313440A460E480260002141601344ED
:1028F000083B23F007030B48036059601960991ADD
:1029000051601360084B1960084B1960084B4FF079
:1029100000421A6070474FF44043E4E74818002033
:10292000401800203C1800203418002038180020DF
:1029300028180020164B1A461B688342FBD35168A7
:1029400002EB010C844509D0416800EB010C6345A2
:1029500009D00360904219D010607047406801446C
:1029600051601046F0E710B40A4C2468A3420BD023
:102970005B681944416013681B680360904200D093
:1029800010605DF8044B70470460F7E7704700BFC4
:10299000401800203C18002038B5044606F0D8F94D
:1029A000384B1B68B3B1384B1B681C4250D1002C0C
:1029B00050D004F1080214F0070F02D022F00702F1
:1029C0000832002A55D0314B1B68934253D330490B
:1029D0000C6804E0FFF77CFFE5E721461C466368CE
:1029E000934202D22368002BF7D1264B1B68A342E7
:1029F00043D00D68083523680B6063689B1A102B61
:102A000010D9A01810F0070F08D04FF0500383F32F
:102A10001188BFF36F8FBFF34F8FFEE74360626093
:102A2000FFF788FF626819490B689B1A0B60194908
:102A300009688B4201D217490B60134B1B68134383
:102A4000636000232360144A13680133136002E0BB
:102A5000002500E0002506F015FA15F0070F0ED04E
:102A60004FF0500383F31188BFF36F8FBFF34F8F85
:102A7000FEE70025EFE70025EDE70025EBE7284618
:102A800038BD00BF3C18002028180020381800204E
:102A9000401800203418002030180020002834D0BE
:102AA00038B50446A0F1080550F8043C174A1268EE
:102AB000134208D14FF0500383F31188BFF36F8F97
:102AC000BFF34F8FFEE750F8081C41B14FF05003A1
:102AD00083F31188BFF36F8FBFF34F8FFEE723EAB5
:102AE000020340F8043C06F033F954F8041C084A89
:102AF00013680B4413602846FFF71CFF054A136850
:102B00000133136006F0BEF938BD70472818002065
:102B1000381800202C18002008B50B480B4B036018
:102B20000B4B436000238360C3604FF4804202611B
:102B300043618361C361036203F098FB00B908BD80
:102B400000F0AEF8FBE700BF48D80020005400407A
:102B5000801A060030B589B00023039304930593CF
:102B6000069307930268144B9A4201D009B030BD16
:102B700000250195114C236B43F002032363236B63
:102B800003F002030193019BC023039312230493D8
:102B9000032306930423079303A9094802F03EFF89
:102BA0000295236C43F400132364236C03F4001395
:102BB0000293029BDAE700BF005400400038024055
:102BC0000004024002680A4B9A4200D0704710B5D8
:102BD000084A136C23F400131364074C4021204669
:102BE00003F012F88021204603F00EF810BD00BF5C
:102BF00000540040003802400004024000F1080385
:102C000043604FF0FF328260C360036100230360C2
:102C1000704700230361704743684B609A688A607D
:102C2000516099600861036801330360704730B4F4
:102C30000D68B5F1FF3F11D000F108031C465B6839
:102C40001A68AA42FAD963684B6099608C60616027
:102C5000086103680133036030BC70470469F2E720
:102C60000369416882688A60416851605A6882429B
:102C700006D0002202611A68013A1A60186870478B
:102C800082685A60F5E7000008B50268034B9A4273
:102C900000D008BD02F04AFAFBE700BF0014004074
:102CA00072B6FEE710B594B008AC30220021204681
:102CB00007F0BEFF00230393049305930693079345
:102CC0000193214A116C41F080511164126C02F0A1
:102CD00080520192019A02931C4B1A6842F480427E
:102CE0001A601B6803F480430293029B0523089338
:102CF0004FF48033099301230A9302230E934FF478
:102D000080020F9204221092A8221192129307239C
:102D10001393204603F0F0FD90B90F230393022391
:102D20000493002305934FF4A05306934FF480536C
:102D30000793052103A804F049F818B914B010BD91
:102D4000FFF7AEFFFFF7ACFF003802400070004015
:102D500008B502F0D1F9FFF7A5FFFFF7EDFCFFF78B
:102D600001FBFEF761FEFEF7E9FFFFF7D5FE01F07C
:102D7000F3FD01F0ABFE06F09BFA06F07FFB06F0D8
:102D8000D9FE06F0BDFE06F0CBFAFEF7E7FEFFF730
:102D9000C3FCFEF7F5FEFEE708B501F0CBFD4120D0
:102DA00001F054FB01F044FB014B00221A7008BDF6
:102DB0009CD8002008B501F0B9FA412001F046FB8B
:102DC00001F036FB08BD00002DE9F04F89B0034645
:102DD0006F4A92E803000590ADF81810002B00F040
:102DE000D4809A464FF482620021184607F020FFF3
:102DF00000244FF0FF3302939846FF23019303E032
:102E00004FF0FF3302930134022C25DC01F0B7FCB4
:102E10000220FEF72BFF07A801F0F0FC019000282C
:102E2000EED107AB05AA0321602001F0DFFB019082
:102E300060B90AF11E02012101F0BBFC019010B340
:102E40006FF0020302934FF00008DCE76FF001031C
:102E500002934FF0FF38D6E7002303939946039B74
:102E6000BBB1079BCAF80030DAF82230CAF8043048
:102E7000DAF82630CAF808309AF82A308AF80C3086
:102E80000024274660E0012303934FF00008994691
:102E9000E5E701F074FCFFF78DFF029F68E0002E6C
:102EA00003DD039F4FF0FF3302934FF0FF380136ED
:102EB0004FF00009012E34DCB9F1000F01D0019B65
:102EC00063B101F05CFC0220FEF7D0FE07A801F020
:102ED00095FC01900028E2D14FF0FF38A0450AD0C0
:102EE000A100033107AB05AAC9B2602001F07EFB47
:102EF000019088B9A0464FEA0B12083252440632BC
:102F0000E9B2E0B201F055FC019040B1002ECEDCF8
:102F10000220FEF7ABFECAE74FF0FF38C7E74FF0DD
:102F2000010987B90120FEF7A1FE0135032D0ADC56
:102F30004FB905EB840B032DF7D03E46BAE73D466B
:102F4000F4E73D46F2E701340F2C0ADC4FB99AF85A
:102F50000C30012BF3D0002CF3DD082CF3DD3D46C3
:102F6000E4E74FB99AF80C30012B0BD001F007FCC5
:102F7000384609B0BDE8F08F01F001FCFFF71AFFF9
:102F8000029FF5E78AF80D30F0E74FF0FF37EFE7E3
:102F90007C3E0108014B01221A7070479DD8002029
:102FA000014B00221A7070479DD8002082B0002388
:102FB00001930D4B1B68B3F1FF3F08D04FF0500356
:102FC00083F31188BFF36F8FBFF34F8FFEE74FF08E
:102FD000500383F31188BFF36F8FBFF34F8F019BB3
:102FE000002BFCD002B070470000002008480068A9
:102FF000006880F308884FF0000080F3148862B600
:1030000061B6BFF34F8FBFF36F8F00DF00BF0000CB
:1030100008ED00E0DFF80C00016841F47001016088
:103020007047000088ED00E04FF0807340F8043CEA
:1030300021F0010140F8081C054B40F80C3C40F819
:10304000202C6FF0020340F8243C4438704700BF46
:10305000AD2F00080000000000000000000000008C
:10306000074B19680868B0E8F04F80F30988BFF390
:103070006F8F4FF0000080F311887047AFF300802E
:103080007CE700204FF0500383F31188BFF36F8F6C
:10309000BFF34F8F0B4A136801331360012B00D02D
:1030A00070474FF0E023D3F8043D13F0FF0FF7D043
:1030B0004FF0500383F31188BFF36F8FBFF34F8F2F
:1030C000FEE700BF00000020094B1B6843B94FF02A
:1030D000500383F31188BFF36F8FBFF34F8FFEE769
:1030E000013B034A13600BB983F31188704700BF9B
:1030F00000000020000000000000000000000000B0
:10310000EFF30980BFF36F8F154B1A681EF0100F95
:1031100008BF20ED108A20E9F04F10602DE909006A
:103120004FF0500080F31188BFF34F8FBFF36F8FC4
:1031300005F04AFF4FF0000080F3118809BC1968C0
:103140000868B0E8F04F1EF0100F08BFB0EC108A0E
:1031500080F30988BFF36F8F704700BFAFF3008023
:103160007CE7002008B54FF0500383F31188BFF3CC
:103170006F8FBFF34F8F05F0F9FD28B14FF0E023BB
:103180004FF08052C3F8042D002383F3118808BD4B
:103190004FF0E022002313619361054B1B68054942
:1031A000A1FB03139B09013B536107231361704784
:1031B00010000020D34D62104FF0E023D3F8002D13
:1031C0003D4B9A421CD04FF0E023D3F8002D3B4BEF
:1031D0009A421ED030B583B0394B1A78D2B20192E0
:1031E000FF221A701B78DBB28DF803309DF8033094
:1031F00003F05003334A1370334B07221A601BE06D
:103200004FF0500383F31188BFF36F8FBFF34F8FDD
:10321000FEE74FF0500383F31188BFF36F8FBFF3C6
:103220004F8FFEE7284A1368013B13609DF8033077
:103230005B00DBB28DF803309DF8033013F0800F94
:10324000F0D1214B1B68032B08D04FF0500383F3C0
:103250001188BFF36F8FBFF34F8FFEE71B021A4A2F
:10326000136003F4E0631360019BDBB2144A137034
:103270004FF0E024D4F8203D43F47003C4F8203D1F
:10328000D4F8203D43F07043C4F8203DFFF780FFA1
:1032900000250E4B1D60FFF7BDFED4F8343F43F010
:1032A0004043C4F8343FFFF7A1FE05F08DFEFFF761
:1032B0007DFE284603B030BD71C20F4170C20F4180
:1032C00000E400E0A4D80020A0D8002000000020E6
:1032D000EFF305830F2B0ED9114A9A5C114B1B7823
:1032E0009A4208D24FF0500383F31188BFF36F8FD7
:1032F000BFF34F8FFEE74FF0E023D3F80C3D03F40C
:10330000E063094A1268934208D94FF0500383F3EF
:103310001188BFF36F8FBFF34F8FFEE7704700BF79
:10332000F0E300E0A4D80020A0D8002010B4844628
:1033300000200DE0402C18D9373CE4B2602B17D99F
:10334000573BDBB243EA04130B540CF1020C01307F
:103350009CF80040A4B19CF801308BB190420FDA88
:10336000602CE7D9573CE4B2E8E7303CE4B2E5E74B
:10337000402B02D9373BDBB2E4E7303BDBB2E1E77D
:103380005DF8044B704700002DE9F04186B004461B
:103390002C2107F055FC18B10646031B072B05DC52
:1033A000474807F0F3FA06B0BDE8F0810422694609
:1033B0002046FFF7BBFF9DF800209DF801301B045D
:1033C00043EA02639DF8022043EA02239DF80320AA
:1033D00043EA0205741C0A220021204606F04AFD39
:1033E00006462C21204607F02BFC044600283AD044
:1033F00001340A220021204606F03CFD07462C211C
:10340000204607F01DFC002831D04478303CE4B25F
:10341000022C00D9002405A801F0F0F958BBDDF812
:1034200014800DB1A8452AD105AB264A032160209E
:1034300001F0DCF848BB0022019202920392049250
:10344000CDF80480029603978DF8104013460D2B9B
:1034500021D803F11801694411F8141C0A4492B2EE
:1034600001339BB2F3E7164807F090FA9BE7144844
:1034700007F08CFA97E7144807F088FA93E71348A7
:1034800007F084FA01F07BF98DE7114807F07EFA26
:1034900001F075F987E7ADF8122001AA012100209B
:1034A00001F097F928B90B4807F070FA01F067F9B5
:1034B00079E7094807F06AFA01F061F973E700BF9C
:1034C000843E010804000020903E01089C3E010853
:1034D000B03E0108CC3E0108BC3E0108F0B587B003
:1034E00005A801F08BF988B905AB3E4A032160209D
:1034F00001F07CF870B901AA002001905060906042
:10350000D060012101F065F9012523E0364807F07C
:103510003DFA65E0354807F039FA01F030F95FE02F
:10352000ECB2A100033105AB2E4AC9B2602001F014
:103530005DF801AE32460021204601F04AF93246DC
:103540000121204601F045F932460221204601F0D2
:1035500040F90135082DE3DD09270AE0002616E0D1
:1035600001AAE1B2284601F034F90134B442F7DD92
:1035700001370C2F0DDCFDB2A900033105AB194A50
:10358000C9B2602001F032F80C2FE7D002260024E7
:10359000ECE70C270AE0012605E001AAE1B2284683
:1035A00001F017F90134B442F7DD01370F2F10DCB9
:1035B000FDB2A900033105AB0A4AC9B2602001F08F
:1035C00015F80C2F14BF002401240F2FE3D002267E
:1035D000E9E7074807F0DAF901F0D1F8FFF7EAFB6D
:1035E00007B0F0BD04000020903E0108B03E010885
:1035F000CC3E010870B582B001A801F0FFF808B90F
:10360000002504E04C4807F0C1F993E00135172D7F
:103610001EDC4A4B83FB0523A3EBE5735E1C03EB27
:103620004303EC1AF6B2B100033101AB444AC9B20C
:10363000602000F0DBFF0028E8D1424A02EB0512CF
:10364000E1B2304601F0C5F80520FEF70FFBDDE7DB
:1036500000241AE0082C21DCA61F0B2101E02646DD
:103660000921CDB2890001AB354A0331602000F059
:10367000BDFF48B9344A02EB0412F1B2284601F00A
:10368000A8F80520FEF7F2FA0134092C09DC022C17
:10369000E5DD052CDEDCE61E0A21E2E700260C2132
:1036A000DFE700241AE0661C0C2103E0072C1EDC77
:1036B000661F0E21CDB2890001AB214A0331602083
:1036C00000F094FF48B9214A02EB0412F1B22846F7
:1036D00001F07FF80520FEF7C9FA0134092C0ADC55
:1036E000012CE0DD042CE1DCA61E0D21E2E7A4F1B3
:1036F00008060F21DEE7164807F048F94FF4C072BC
:103700000021104807F094FAA024224600210E4818
:1037100007F08EFA224600210C4807F089FA0023B0
:103720000C4A13700C4A13700C4A137001F027F8FE
:10373000FFF740FB02B070BD903E0108565555554D
:1037400004000020E8D9002048D90020A8D8002093
:10375000D03E0108A7D80020A6D80020A5D8002078
:1037600010B5ADF5826D00216846FFF72DFB98B9C5
:1037700000990B4807F0A2F801990A4807F09EF853
:103780000299094807F09AF89DF80C10074807F0CD
:1037900095F80DF5826D10BD054807F0F7F8F8E7CC
:1037A000303E01083C3E0108483E0108543E0108F5
:1037B000903E010810B58EB00446FCF749FD032881
:1037C00029D9204610F8014B04AB0DAA2F4907F068
:1037D0001BF9012824DD102269460DEB0200FFF7DA
:1037E000A5FD102820D1442C39D04E2C24D0412CBA
:1037F00048D10D9B172B1BD8254C04EB03149DE8D7
:103800000F0084E80F00234A137801331370224815
:1038100007F0BCF802E0214807F0B8F80EB010BD80
:103820001E4807F0B3F8F9E71D4807F0AFF8F5E7D1
:103830001C4807F0ABF8F1E70D9B092B0BD81A4C8D
:1038400004EB03149DE80F0084E80F00174A137877
:1038500001331370DBE7134807F098F8DEE70D9BA0
:10386000092B0BD8124C04EB03149DE80F0084E8DD
:103870000F00104A137801331370C8E7094807F0A6
:1038800085F8CBE70C4807F081F8C7E7F03E010860
:10389000E8D90020A7D80020CC3E0108E03E01086E
:1038A000FC3E0108083F010848D90020A6D80020A6
:1038B000A8D80020A5D80020183F010838B500245A
:1038C000104B1C80104B1C704FF4007221460F48A7
:1038D00007F0AEF94FF4C07221460D4807F0A8F981
:1038E000A0252A4621460B4807F0A2F92A46214680
:1038F000094807F09DF9094B1C70094B1C70094BD6
:103900001C7038BD6ADB002068DB00206CDB002007
:10391000E8D9002048D90020A8D80020A7D8002046
:10392000A6D80020A5D80020F8B506460D460024EC
:1039300002E0BAB90134A4B2AC4268D2384B1A885A
:10394000B2F5FF7F63D8335D0A2BF2D00D2BF0D098
:103950001F2B01D8092BEDD1501C3149088031496A
:103960008B54E7E72F4F0023BB542F4B01221A70D3
:10397000FFF710FB06222D49384607F06EF950B3C9
:1039800006222B49274807F068F9002831D0294939
:103990002448FCF7FDFB80B327492248FCF7F8FBDD
:1039A00070B3042225491F4807F057F958B1042283
:1039B00023491C4807F051F928B10422214919482C
:1039C00007F04BF918B9174B9B793A2B1BD01E48BF
:1039D00006F0DCFF02E0B81DFFF7D6FCFFF7E0FAC7
:1039E0000120FEF743F900230F4A13700C4A13809D
:1039F000A0E71648FFF772FDF0E7FFF7B1FEEDE72D
:103A0000FFF7F8FDEAE71248FFF7D4FEE6E7044BBC
:103A10001B88B3F5FF7F02D9014B00221A80F8BD45
:103A20006ADB00206CDB002068DB0020283F0108F7
:103A3000303F0108383F0108403F01084C3F010872
:103A4000543F01085C3F0108643F010872DB00201D
:103A50006FDB002010B50446FFF714FBA26BE36B8D
:103A60009A4204D00024FFF72FFB204610BD01240A
:103A7000F9E710B50446FFF705FBA36B23B9012452
:103A8000FFF722FB204610BD0024F9E770B504467D
:103A90001546866B026C5AB903681BB100200136CB
:103AA000A66370BD806805F0BBFB0023A360F6E74A
:103AB0006DB9406807F05BF96368226C134463607A
:103AC000A268934219D3236863602846E7E7C06879
:103AD00007F04DF9E368226C51429B1AE3602268BB
:103AE000934202D2A3680B44E360022D01D0002070
:103AF000D5E726B1013E0020D1E72846CFE70020D8
:103B0000CDE70346026C6AB110B50846D968114486
:103B1000D9609C68A14201D31968D960D96807F0BF
:103B200026F910BD704738B50546FFF7ABFA95F892
:103B3000454064B201E0013C64B2002C0ADD6B6ACE
:103B400043B105F1240005F0BFFA0028F3D005F0D9
:103B500051FBF0E7FF2385F84530FFF7B5FAFFF793
:103B600091FA95F8444064B201E0013C64B2002C43
:103B70000ADD2B6943B105F1100005F0A5FA002814
:103B8000F3D005F037FBF0E7FF2385F84430FFF76B
:103B90009BFA38BD38B5E0B10D460446FFF772FA1E
:103BA0002368E26B216C01FB0230A0600020A0635F
:103BB0006360013A02FB0133E360FF2384F8443081
:103BC00084F84530FDB9236963B9FFF77DFA012018
:103BD00038BD4FF0500383F31188BFF36F8FBFF3ED
:103BE0004F8FFEE704F1100005F06EFA0028ECD0CC
:103BF0004FF0E0234FF08052C3F8042DBFF34F8FF6
:103C0000BFF36F8FE1E704F11000FEF7F7FF04F157
:103C10002400FEF7F3FFD8E738B51D46049C0B4699
:103C200049B92460E063236401212046FFF7B2FF15
:103C300084F84C5038BD2260F4E740B94FF050038F
:103C400083F31188BFF36F8FBFF34F8FFEE710B57B
:103C500084B01C46844653B192B189B94FF05003E9
:103C600083F31188BFF36F8FBFF34F8FFEE74FF0E1
:103C7000500383F31188BFF36F8FBFF34F8FFEE7BD
:103C80006AB150230393039B502B13D04FF0500382
:103C900083F31188BFF36F8FBFF34F8FFEE70029C7
:103CA000EFD04FF0500383F31188BFF36F8FBFF352
:103CB0004F8FFEE7039B012384F8463000949DF864
:103CC00018306046FFF7A8FF204604B010BDF0B5DD
:103CD00085B0019288B10F461D460446B1B1022D50
:103CE00020D1E36B012B1DD04FF0500383F31188DB
:103CF000BFF36F8FBFF34F8FFEE74FF0500383F397
:103D00001188BFF36F8FBFF34F8FFEE7036C002B5B
:103D1000E5D04FF0500383F31188BFF36F8FBFF3EB
:103D20004F8FFEE705F06CFA064658B9019B002B51
:103D300048D04FF0500383F31188BFF36F8FBFF368
:103D40004F8FFEE700263DE02A4639462046FFF722
:103D50009DFE636A7BB948B14FF0E0234FF080527B
:103D6000C3F8042DBFF34F8FBFF36F8FFFF7ACF98C
:103D7000012005B0F0BD04F1240005F0A5F90028EC
:103D8000F4D04FF0E0234FF08052C3F8042DBFF37E
:103D90004F8FBFF36F8FE9E7FFF796F90020E8E751
:103DA00002A805F0D7F9012619E0002384F8443071
:103DB00021E0002384F8453023E02046FFF7B3FEDE
:103DC00005F060F8FFF75EF9A26BE36B9A42BBD394
:103DD000022DB9D0019B002BDED0002EE0D0FFF7E2
:103DE00073F904F0B5FFFFF74DF994F8442052B28F
:103DF000B2F1FF3FD9D094F8452052B2B2F1FF3F63
:103E0000D7D0FFF761F901A902A805F0AFF9D8B939
:103E10002046FFF71FFE0028CFD0019904F11000C3
:103E200005F01EF92046FFF77EFE05F02BF800286E
:103E3000C8D14FF0E0234FF08052C3F8042DBFF3F8
:103E40004F8FBFF36F8FBDE72046FFF76CFE05F085
:103E500019F800208DE72DE9F84390B10F4616467A
:103E60001C460546B1B1022C20D1EB6B012B1DD0B5
:103E70004FF0500383F31188BFF36F8FBFF34F8F61
:103E8000FEE74FF0500383F31188BFF36F8FBFF34A
:103E90004F8FFEE7036C002BE5D04FF0500383F308
:103EA0001188BFF36F8FBFF34F8FFEE7FFF710FA54
:103EB000EFF311884FF0500383F31188BFF36F8F36
:103EC000BFF34F8FAA6BEB6B9A4206D3022C04D040
:103ED000002088F31188BDE8F88395F845904FFAE3
:103EE00089F9AB6B224639462846FFF7CFFDB9F179
:103EF000FF3F06D009F101035BB285F84530012090
:103F0000E7E76B6A0BB90120E3E705F1240005F050
:103F1000DBF818B126B101203060DAE70120D8E7DC
:103F20000120D6E7F0B585B0019290B10F46044666
:103F3000C1B105F065F9064600BB019B002B5ED0C0
:103F40004FF0500383F31188BFF36F8FBFF34F8F90
:103F5000FEE74FF0500383F31188BFF36F8FBFF379
:103F60004F8FFEE7036C002BE3D04FF0500383F339
:103F70001188BFF36F8FBFF34F8FFEE700263EE03F
:103F800039462046FFF7BDFD013DA563236923B9EE
:103F9000FFF79AF8012005B0F0BD04F1100005F01C
:103FA00093F80028F4D04FF0E0234FF08052C3F88C
:103FB000042DBFF34F8FBFF36F8FE9E7FFF784F84E
:103FC0000020E8E702A805F0C5F8012621E000235B
:103FD00084F8443029E0002384F845302BE0204663
:103FE000FFF7A1FD04F04EFF09E02046FFF79BFD1F
:103FF00004F048FF2046FFF73CFD00283FD1FFF7C3
:1040000041F8A56B002DBBD1019B002BD6D0002E13
:10401000D8D0FFF759F804F09BFEFFF733F894F877
:1040200044305BB2B3F1FF3FD1D094F845305BB27E
:10403000B3F1FF3FCFD0FFF747F801A902A805F081
:1040400095F80028D1D12046FFF713FD0028C6D0EF
:10405000019904F1240005F003F82046FFF763FD01
:1040600004F010FF0028CAD14FF0E0234FF0805237
:10407000C3F8042DBFF34F8FBFF36F8FBFE700204E
:1040800089E700000023072B0CD8074A52F8332099
:104090000AB10133F7E7044A42F8331002EBC302D6
:1040A00050607047704700BF6CDD002070B504465B
:1040B0000D461646FEF7E6FF94F844305BB2B3F1C6
:1040C000FF3F0DD094F845305BB2B3F1FF3F0BD00A
:1040D000FEF7FAFFA36B5BB12046FFF724FD70BD2E
:1040E000002384F84430EDE7002384F84530EFE7FF
:1040F0003246294604F1240004F0CAFFECE7000030
:104100000C4B1B68ABB170B505460E461B68002012
:104110009847084C23689B68680000F07E00984729
:1041200023689B683046984723681B68012098479E
:1041300070BD7047ACDD002038B50E4B1B68BBB1BD
:1041400004461B68002098470A4D2B689B68600056
:1041500000F07E0040F0800098472B689B680020AC
:10416000984704462B681B6801209847204638BDB5
:104170000024FBE7ACDD002038B504460D46FFF710
:10418000DBFF40EA0501C9B22046FFF7B9FF38BDA1
:1041900038B505460C46FFF7CFFFE44364B200EAAA
:1041A0000401C9B22846FFF7ABFF38BDF8B5074692
:1041B0000D46164604210520FFF7EAFF00210120E5
:1041C000FFF79EFF80210A20FFF7D6FF002405E0BD
:1041D000395D0920FFF794FF0134E4B2AC42F7D314
:1041E00003210120FFF78CFFFF240520FFF7A4FF28
:1041F000631E13F0FF0402D010F0040FF5D022204C
:10420000FFF79AFF30702120FFF796FF7070F8BD1E
:104210002DE9F04707468A46154699460C2817D0DF
:104220000E2819D110264FF0120848F08001022004
:10423000FFF766FF80210420FFF7AAFF002101207D
:10424000FFF75EFF80210A20FFF796FF00240CE0B5
:1042500030264FF07708E8E70026B046E5E71AF881
:1042600004100920FFF74CFF0134A542F7D8394666
:104270000120FFF745FF0C2F1ED04FF4FA650420F4
:10428000FFF75AFF0446013D04D010F0010F01D1A1
:104290000642F4D080210D20FFF77AFF8DB94FF050
:1042A000FF0880210C20FFF767FF00210120FFF7A6
:1042B00027FF4046BDE8F08780210D20FFF75CFF17
:1042C000DBE70620FFF738FF10F01B0F2BD108EAC1
:1042D000040818F0010801D04FF0FE080C2FE0D1BF
:1042E0000A20FFF729FF05460C20FFF725FF10F0F5
:1042F000070009D06B1E00EBC300089B18603DB19E
:10430000122D06D9122504E0EB00089A1360F6E797
:1043100001250024A542C4D90920FFF70DFF09F8A3
:1043200004000134F6E74FF0FF08BAE710B51D4C62
:1043300023685B680120984723681B690A20984717
:1043400023685B680020984723681B690A20984708
:1043500023685B680120984723681B6914209847ED
:104360000F210120FFF7CCFE23681B690A20984724
:104370003D211120FFF7C4FE1E212D20FFF7C0FEB6
:1043800000212C20FFF7BCFE8D212A20FFF7B8FE6C
:104390003E212B20FFF7B4FE40211520FFF7B0FE91
:1043A00010BD00BFACDD002000283ED010B51F4C72
:1043B000206043680120984723681B690A209847BA
:1043C00023685B680020984723681B690A20984788
:1043D00023685B680120984723681B69142098476D
:1043E0000220FFF7A9FE80281AD0FFF79FFF3D218A
:1043F0001120FFF785FE1E212D20FFF781FE0021F1
:104400002C20FFF77DFE8D212A20FFF779FE3E212B
:104410002B20FFF775FE40211520FFF771FE10BD20
:1044200023681B6914209847DFE77047ACDD002044
:1044300008B51420FFF780FE10F0030F00D008BD70
:1044400003211420FFF798FEF9E70000412800D06F
:10445000704708B508210846FFF79AFE3D21112054
:10446000FFF74EFE86211720FFF74AFE7F21262008
:10447000FFF746FE1E212D20FFF742FE00212C20D3
:10448000FFF73EFE8D212A20FFF73AFE3E212B202A
:10449000FFF736FE40211520FFF732FE034B1B6865
:1044A0001B690A209847FFF7C3FF08BDACDD002059
:1044B00030B589B004460D4608210846FFF768FE6E
:1044C00007210D20FFF71CFE03211420FFF754FEE7
:1044D0008DF8084002A907AB00930B4601220C207F
:1044E000FFF796FE58B9079B102B01D0FF2007E07D
:1044F0009DF808302B709DF809306B7000E0FF20AC
:1045000009B030BD30B589B0044608210846FFF730
:104510003FFE00210D20FFF7F3FD80210E20FFF765
:1045200037FE93238DF8083020238DF8093002A937
:1045300007AB00930B4602220C20FFF769FE0546ED
:10454000D0B180210E20FFF717FE284609B030BDFC
:1045500003F12001694411F8181CE1544A40D2B219
:104560000133DBB2032BF3D920336B4413F8183C2F
:104570009342E6D0FF25E4E702460346F2E710B592
:1045800088B093238DF8083070238DF8093000230C
:104590008DF80E300CE0C25C03F12201694401F891
:1045A000182C9DF80E104A408DF80E200133DBB216
:1045B000032BF0D902AC0DF10F0207212046FFF7C3
:1045C000F5FD08210846FFF7E3FD07AB00932346FE
:1045D000092221460C20FFF71BFE20B9079B182B50
:1045E00002D0FF2000E0FF2008B010BD10B588B059
:1045F0008DF808008DF80910002108E012F801C0BC
:1046000001F12200684400F818CC0131C9B2052933
:10461000F4D9002207E0985C02F12801694401F80E
:10462000180C0132D2B2032AF5D902A907AB0093C4
:104630000B460C220E20FFF7EBFD044618B1FF24B9
:10464000204608B010BD0820FFF776FD10F0080FD7
:10465000F6D1FF24F4E70000F0B589B006460F4616
:1046600000240EE003F12001694411F8181CF954EC
:104670000133DBB20F2BF5D92AE00346FAE7013408
:10468000E4B2012C23D830238DF808308DF809606E
:1046900002AD0DF10A0202212846FFF787FD07ABA4
:1046A00000932B46042229460C20FFF7B1FD024659
:1046B00010B9079B902BE0D0074B1B68002BDED076
:1046C000002CDCD1DB684FF47A709847D7E7FF22E3
:1046D000104609B0F0BD00BFACDD002030B589B098
:1046E0000C46A0238DF808308DF8090002AD0DF1BD
:1046F0000A0202212846FFF759FD07AB00932B461B
:10470000042229460C20FFF783FD88BB0346079A45
:10471000042A2FD19DF8082002F00F020A2A09D09E
:10472000FF2028E0E05C03F120026A4402F8180C44
:104730000133DBB20F2BF5D902AC06AA10212046BB
:10474000FFF734FD07AB00932346122221460C20CD
:10475000FFF75EFD88B9079B042B01D0FF200AE01C
:104760009DF8083003F00F030A2B04D0FF2002E06D
:10477000FF2000E0FF2009B030BDFF20FBE730B58F
:1047800089B050238DF8083000258DF8095002AC0F
:104790000DF10A0202212046FFF708FD07AB009346
:1047A0002346042221460C20FFF732FD284609B09B
:1047B00030BD0F2809D808B5032908D801EB8000BF
:1047C0001146C0B2FFF748FF08BDFF207047FF2029
:1047D000FAE70F280CD808B50B461146032B09D869
:1047E00000B94BB103EB8000C0B2FFF777FF08BD03
:1047F000FF207047FF20FAE7FF20F8E710B582B0EE
:10480000044601A95220FFF753FE034610B1184693
:1048100002B010BD2046FFF775FE03460028F6D112
:104820002046FFF7ACFE0346F1E7000008B530B1C3
:1048300001224FF40041054801F087FA08BD00222B
:104840004FF40041014801F080FAF7E7000402400C
:1048500008B530B101224FF40041054801F075FA66
:1048600008BD00224FF40041014801F06EFAF7E75D
:104870000010024010B5044604F0C2FC022803D028
:10488000204600F065FC10BD2046FDF7EFF9FAE781
:1048900070B50446FEF7F6FB0725002620E001224E
:1048A0001146214801F051FA0120FDF7DBFA0122FF
:1048B0004FF400711D4801F048FA0120FDF7D2FACB
:1048C0007600F6B24FF40051194801F037FA01288A
:1048D0001AD00120FDF7C6FA6400E4B2013D6DB2C2
:1048E000002D14DB00224FF40071104801F02DFA66
:1048F0000120FDF7B7FA14F0800FD0D1002201217A
:10490000094801F022FACFE746F00106E1E700226C
:104910004FF40071054801F018FA0120FDF7A2FAE2
:10492000FEF7D2FB304670BD00000240000C024092
:104930000004024008B5FDF779FA00224FF48061C7
:10494000034801F002FA0348FFF72EFD08BD00BF3F
:1049500000040240B03F010830B597B00024119424
:10496000129413941494159410942822214606A8A6
:1049700006F05EF94148424B036044607F23836048
:10498000FF23C36004614461846102F00FFC0028CE
:1049900067D10021394802F0D2FD45F25003984218
:1049A0005DD000238DF844308DF845308DF84630C9
:1049B00014931593012211A9304802F051FC0028EC
:1049C00052D101228DF840208DF841208DF84220EF
:1049D00000238DF8433010A9284802F0A1FC0028DC
:1049E00045D100238DF818308DF819308DF81A3024
:1049F000079309930A930B930C930D9301228DF85F
:104A000038204FF480730F9306A91C4802F0D6FC9F
:104A100080BB01A9002401944C608C60CC600C61C7
:104A20000C238DF80430154D2246284602F018FC60
:104A3000009406238DF800308DF8013014238DF892
:104A400002301A238DF8033022466946284602F0C8
:104A500067FC45F250022146284602F06BFD17B074
:104A600030BDFEF71DF994E7FEF71AF9A9E7FEF746
:104A700017F9B6E7FEF714F9CBE700BFB0DD002069
:104A80000028004000B585B00023009301930293F5
:104A9000039302680B4B9A4202D005B05DF804FB09
:104AA000022300934FF480730393684602F082FA66
:104AB00020B9054B0122C3F83C2EEEE7FEF7F0F8D3
:104AC000F7E700BF002800400000474208B50D4846
:104AD0000D4B03604FF48273436000238360C36017
:104AE000036143614FF400728261C36103624362F8
:104AF00083620A23C36202F027FD00B908BDFEF7F6
:104B0000CFF8FBE7D0DD00200030014000B589B0D0
:104B10000023039304930593069307930268154BB0
:104B20009A4202D009B05DF804FB0021019103F51F
:104B300084335A6C42F480525A645A6C02F48052A4
:104B40000192019A02911A6B42F001021A631B6BE7
:104B500003F001030293029BE023039302230493D7
:104B6000032306930523079303A9034800F056FF88
:104B7000D8E700BF003001400000024000B587B018
:104B80008DF8170064230293012301930DF117029E
:104B9000009240227821034801F060FC07B05DF8E4
:104BA00004FB00BF48D8002000B587B08DF817007F
:104BB00064230293012301930DF117020092002256
:104BC0007821034801F04AFC07B05DF804FB00BF00
:104BD00048D8002000B585B06423029301230193D7
:104BE000009040227821034801F0E8FC05B05DF810
:104BF00004FB00BF48D80020F0B585B007460E463C
:104C0000154600240BE0104801F00EFC0120FDF7D2
:104C10002DF8FDF781FF0120FDF728F80134022C63
:104C20000DDC642302930195009601233A46782116
:104C3000054801F013FC0028E5D1002001E04FF009
:104C4000FF3005B0F0BD00BF48D8002030B583B0BC
:104C50001420FDF70BF8AE20FFF7A6FF0A20FDF7A2
:104C600005F8B020FFF7A0FF0020FFF79DFF102000
:104C7000FFF79AFFA520FFF781FF0220FCF7F6FF60
:104C80005A20FFF77BFF0520FCF7F0FFB020FFF76D
:104C90008BFF0020FFF788FF1020FFF785FF022021
:104CA000FCF7E4FF0DF10700FFF794FF18B10024B3
:104CB000204603B030BD04460220FCF7D7FF0DF1BB
:104CC0000600FFF787FF05460028F1D10220FCF718
:104CD000CDFF0DF10500FFF77DFF044648B99DF8B3
:104CE0000630A52BE4D19DF805305A2BE0D10124E4
:104CF000DEE72C46DCE7000008B53220FCF7B6FF03
:104D0000FFF7A4FF18B1044B02221A7008BD024B32
:104D100001221A70FAE700BF2EDE002000B583B032
:104D20000B468DF8070001220DF107011846FFF729
:104D300063FF03B05DF804FB08B513460A4601465D
:104D40001846FFF759FF08BD38B5104B1D78022DE6
:104D500000D00025002416E0A4F150000021C0B2CC
:104D6000FFF7DCFF00212846FFF7D8FF00211020C5
:104D7000FFF7D4FF40228021054800EBC410FFF765
:104D8000DBFF0134E4B2072CE6D938BD2EDE00206B
:104D900030DE002008B530B900214FF480620348AE
:104DA00005F046FF08BDFF21F7E700BF30DE002019
:104DB00030B583B000F0C6F9632840F38B806420DF
:104DC000FCF754FFA0258DF80450C0248DF8054051
:104DD000FFF792FF0021AE20FFF7A0FF0A20FCF7AB
:104DE00045FF0021D520FFF799FF0021F020FFF7B4
:104DF00095FF0021A820FFF791FF00213F20FFF73A
:104E00008DFF0021D320FFF789FF00210846FFF71F
:104E100085FF00214020FFF781FF00212846FFF792
:104E20007DFF00212046FFF779FF00218120FFF759
:104E300075FF0021C820FFF771FF0021A420FFF7B4
:104E40006DFF0021A620FFF769FF00212020FFF75A
:104E500065FF00210220FFF761FF0021DA20FFF744
:104E60005DFF00211220FFF759FF0021D920FFF735
:104E700055FF0021F120FFF751FF0021DB20FFF754
:104E80004DFF00212020FFF749FF00218D20FFF773
:104E900045FF00211420FFF741FF0021AD20FFF75F
:104EA0003DFF00218B20FFF739FF00213320FFF762
:104EB00035FF0020FFF76EFFFFF746FF0021AF2010
:104EC000FFF72CFF064B00225A801A8001225A71EC
:104ED00003B030BDC0F16400FCF7C8FE6FE700BF4F
:104EE00028DE00207F2831D83F292FD8184B1B7887
:104EF00033B1184B1B7F013B18BF01239A4225D0C9
:104F000010B4154B1B7913B1B2FA82F25209012A7F
:104F10000FD0CB0800EBC310104C225C01F007014E
:104F200001238B40DB435BB2134023545DF8044BF9
:104F30007047CA0800EBC2120848835C01F00704FE
:104F40000121A1400B43DBB28354EFE7704700BF60
:104F50002FDE0020FC09002028DE002030DE0020AB
:104F60002DE9F04F83B004460E46174699469DF84A
:104F700030807F2800D97F247F2F00D97F273F2EC4
:104F800000D93F26B9F13F0F01D94FF03F09BC428C
:104F90001FD2A7EB040A0FFA8AFA4E451ED2A9EBDC
:104FA000060B0FFA8BFBBC421DD201224E451DD2CF
:104FB0000121DA451DDD0AEBDA756D10BAF1000F3B
:104FC0001DD0BBF1000F33D00092CDF8049089467C
:104FD00044E0A4EB070A0FFA8AFADEE7A6EB090B16
:104FE0000FFA8BFBDFE74FF0FF32DFE74FF0FF31C7
:104FF000DFE70BEBDB756D106D422DB2DEE74E4542
:1050000002D84B46B1461E46BC4200D827460FFA8E
:1050100089F90AE01FFA89F9424649463846FFF7FE
:1050200061FF09F101090FFA89F9B145F2DD30E0BC
:105030004E4500D8B146BC4202D83B4627461C46E6
:105040003FB207E0BFB2424649463846FFF74AFF43
:1050500001373FB2A742F5DD1BE01D46424631460F
:105060002046FFF73FFFBC4210D0CAF100039D422B
:1050700012DDA5EB0B031BB2009A1444A4B25D45EC
:10508000EBDA53441BB24E44B6B2E6E7019B9E42B4
:10509000EBD103B0BDE8F08F2B46F0E72DE9F043EC
:1050A00083B09DF828907F2823D805460F46904668
:1050B0001E463F291DD883187F2B03DDC0F18008D1
:1050C0001FFA88F8BB193F2B02DDC7F14006B6B2C4
:1050D00000240CE0E11989B208EB0502CDF800903C
:1050E0000B4692B22846FFF73BFF0134E4B2B442CC
:1050F000F0D903B0BDE8F08308B50B4B1A6842F451
:1051000000721A601A6842F480621A601A6842F4E7
:1051100080721A60032000F001FA0F2002F06CFE8A
:1051200001F0C8FB002008BD003C0240034A1168A2
:10513000034B1B780B441360704700BF30E2002024
:105140000A000020014B1868704700BF30E20020C1
:1051500038B50446FFF7F6FF0546B4F1FF3F02D02D
:10516000044B1B781C44FFF7EDFF401BA042FAD311
:1051700038BD00BF0A0000204A4B5A6822F4403272
:105180005A605A6841680A435A600268536823F4B7
:105190008073536002685368016943EA01235360D6
:1051A0000268536823F04073536002685368816853
:1051B0000B4353600268936823F4006393600268B2
:1051C0009368C1680B439360826A374B9A4257D009
:1051D0000268936823F07063936002689368816A41
:1051E0000B4393600268936823F040539360026816
:1051F0009368C16A0B4393600268936823F00203CB
:10520000936002689368017E43EA4103936090F8DB
:105210002030002B3FD00268536843F40063536092
:105220000268536823F46043536001684B68426A24
:10523000013A43EA42334B600268D36A23F47003B5
:10524000D3620168CB6AC269013A43EA0253CB6276
:105250000268936823F4007393600268936890F87F
:10526000301043EA412393600268936823F480631B
:10527000936002689368416943EA812393607047B1
:105280000268936823F0706393600268936823F068
:1052900040539360B0E70268536823F4006353609F
:1052A000CAE700BF002301400100000F38B310B56A
:1052B0000446036C43B1236C13F0100F0BD0012094
:1052C000002384F83C3010BDFCF7E6FB0023636448
:1052D00084F83C30EFE7236C23F4885323F0020377
:1052E00043F0020323642046FFF746FF002060647A
:1052F000236C23F0030343F001032364E0E7012060
:105300007047000030B482B00022019290F83C2037
:10531000012A00F0B6800346012280F83C200A688A
:10532000092A40D90468E06892B202EB42021E3AB0
:105330004FF0070C0CFA02F220EA0202E2601C684D
:10534000E0680A8802EB42021E3A8D6805FA02F212
:105350000243E2604A68062A3CD81C68606B02EB94
:105360008202053A4FF01F0C0CFA02F220EA020208
:1053700062631C68606B4A6802EB8202053AB1F80E
:1053800000C00CFA02F20243626318683E4A90427F
:1053900050D018683C4A904255D0002083F83C0019
:1053A00002B030BC70470468206992B202EB42023E
:1053B0004FF0070C0CFA02F220EA020222611C688C
:1053C00020690A8802EB42028D6805FA02F2024364
:1053D0002261BFE70C2A16D81D68286B02EB8202F7
:1053E000233A1F2404FA02F220EA02022A631D680B
:1053F000286B4A6802EB8202233A0C8804FA02F214
:1054000002432A63C1E71D68E86A02EB8202413A5F
:105410001F2404FA02F220EA0202EA621D68E86A26
:105420004A6802EB8202413A0C8804FA02F2024313
:10543000EA62AAE70A68122AABD11448426842F429
:1054400080024260A5E70A68103A012AA5D80F48F1
:10545000426842F4000242600A68102A9DD10C4A58
:1054600012680C49A1FB0212920C02EB820252005C
:10547000019202E0019A013A0192019A002AF9D1BF
:105480008BE702208CE700BF002001400023014091
:105490001000002083DE1B43002807DB00F01F0202
:1054A000400901239340024A42F82030704700BF70
:1054B00000E100E0002808DB0901C9B200F160400A
:1054C00000F5614080F80013704700F00F000901FB
:1054D000C9B2014B1954704714ED00E000B500F05B
:1054E0000700C0F1070CBCF1040F28BF4FF0040CFB
:1054F000031D062B0FD9C31E4FF0FF3E0EFA0CF012
:1055000021EA000199400EFA03FE22EA0E0241EA66
:1055100002005DF804FB0023EEE70000074AD368B1
:1055200023F4E0631B041B0C000200F4E06003435F
:1055300043F0BF6343F40033D360704700ED00E0F5
:1055400010B50446054BD868C0F30220FFF7C6FF2C
:1055500001462046FFF7AEFF10BD00BF00ED00E0A2
:1055600008B5FFF799FF08BD70B110B5044603797F
:1055700033B102232371002020610123237110BD68
:105580004371FCF7FDFBF4E70120704748B3844604
:1055900049B34379012B28D010B54FF0010E80F8A4
:1055A00005E0022303710468206802F0100240F64F
:1055B000FE73934020EA03000B6849680B43934055
:1055C00003432360DCF800000368C02101FA02F203
:1055D00023EA020303608CF804E000208CF8050045
:1055E00010BD012070470120704702207047000065
:1055F00010B40368D9B210390A4AA2FB0142120959
:10560000094CA25CC2655F2907D96FF30903043313
:105610008365806D5DF8044B70476FF30903836504
:10562000F7E700BFABAAAAAAC43F0108836A826950
:1056300092B9012B0AD0022B02D00BB10020704787
:10564000C36A13F0807F28D100207047C36AB3F18A
:10565000C07F24D000207047B2F5005F09D0022B34
:1056600025D9032B25D1C36A13F0807F23D10020D5
:105670007047032B03D8DFE803F01404140A00205A
:105680007047C36A13F0807F0DD100207047C36A52
:10569000B3F1C07F09D0002070470120704701207E
:1056A000704701207047012070470120704701209A
:1056B00070470020704701207047000070B5044615
:1056C000FFF740FD002C5BD00546022384F83530FF
:1056D000002384F834302268136823F00103136038
:1056E00023681A6812F0010F0AD0FFF72BFD431B45
:1056F000052BF5D920236365032084F8350070BDA0
:105700001A68204911406268A0680243E0680243B9
:105710002069024360690243A0690243E0690243D1
:10572000206A02430A43616A04291ED01A6026686F
:10573000756925F00705636A1D43042B07D1A36A29
:105740001D43E36A1BB12046FFF770FF90B97561F6
:105750002046FFF74DFFE26D3F239340836000201A
:105760006065012384F83530C9E7E16A206B0143A5
:105770000A43DBE740236365012084F83500BEE778
:105780000120BCE73F8010F070B50446866DFFF73E
:10579000D9FC94F83530022B06D0802363650023B2
:1057A00084F83430012070BD05462268136823F068
:1057B000160313602268536923F080035361236C3E
:1057C000E3B12268136823F00803136022681368AA
:1057D00023F00103136023681B6813F0010F11D03D
:1057E000FFF7B0FC431B052BF5D92023636503208D
:1057F00084F83500002384F83430D4E7A36C002B00
:10580000DFD1E3E7E26D3F239340B360012384F8E7
:105810003530002084F83400C5E790F83530022B8D
:1058200003D08023436501207047052380F835307D
:105830000268136823F00103136000207047000022
:10584000F0B583B0044600230193724B1D68724B80
:10585000A3FB0535AD0A876D3E68C26D08239340F2
:10586000334210D003681A6812F0040F0BD01A6884
:1058700022F004021A60C26D08239340BB60436D9E
:1058800043F001034365E26D01239340334209D0A5
:105890002268526912F0800F04D0BB60636D43F040
:1058A00002036365E26D04239340334209D022680A
:1058B000126812F0020F04D0BB60636D43F0040362
:1058C0006365E26D10239340334224D0226812684E
:1058D00012F0080F1FD0BB6023681A6812F4802FE3
:1058E0000DD01B6813F4002F04D1236C9BB120460C
:1058F000984710E0A36C73B1204698470BE01A68F4
:1059000012F4807F03D11A6822F008021A60236C17
:105910000BB120469847E26D20239340334254D088
:105920002268126812F0100F4FD0BB6094F8353027
:10593000052B0ED023681A6812F4802F33D01B6811
:1059400013F4002F2AD1636C002B3ED020469847D9
:105950003BE02268136823F0160313602268536942
:1059600023F080035361236CA3B12268136823F0F2
:1059700008031360E26D3F239340BB60012384F86A
:105980003530002384F83430236D002B3FD020467F
:1059900098473CE0A36C002BE7D1EBE7E36BA3B1A6
:1059A0002046984711E01A6812F4807F09D11A68DE
:1059B00022F010021A60012384F83530002384F8A5
:1059C0003430E36B0BB120469847636DFBB1636DD8
:1059D00013F0010F17D0052384F8353022681368BF
:1059E00023F001031360019B01330193AB4204D800
:1059F00023681B6813F0010FF5D1012384F83530BB
:105A0000002384F83430E36C0BB12046984703B090
:105A1000F0BD00BF10000020B5814E1B00230F2BEE
:105A200000F2E98070B582B065E085684FEA430E08
:105A3000032404FA0EF425EA0405CC6804FA0EF4F3
:105A40002C438460446824EA02044A68C2F30012CA
:105A50009A40224342605CE0DC08083450F824207D
:105A600003F00705AD004FF00F0E0EFA05FE22EA17
:105A70000E0E0A69AA4042EA0E0240F824205CE0B9
:105A8000072200E0002202FA0EF22A4302345A4DA5
:105A900045F82420594A94686FEA0C0224EA0C0560
:105AA0004E6816F4801F01D04CEA0405534CA560E3
:105AB000E46802EA04054E6816F4001F01D04CEABF
:105AC00004054E4CE560646802EA04054E6816F46D
:105AD000003F01D04CEA0405484C65602468224030
