:020000040800F2
:100000000000022015750008E5240008E724000818
:10001000E9240008EB240008ED240008000000009B
:100020000000000000000000000000000172000855
:10003000EF24000800000000A1720008976D00087E
:100040006575000865750008657500086575000828
:100050006575000865750008657500086575000818
:100060006575000865750008657500086575000808
:1000700065750008657500086575000865750008F8
:10008000F1240008657500086575000865750008AD
:1000900065750008657500086575000865750008D8
:1000A00065750008657500086575000865750008C8
:1000B000657500080125000865750008657500086C
:1000C00065750008657500086575000865750008A8
:1000D000657500081125000865750008657500083C
:1000E0006575000865750008657500086575000888
:1000F000212500086575000865750008657500080C
:100100006575000865750008657500086575000867
:1001100065750008657500086575000831250008DB
:100120004125000851250008612500086575000873
:100130006575000865750008657500086575000837
:100140006575000865750008657500086575000827
:1001500065750008712500088125000891250008B3
:100160006575000865750008657500086575000807
:1001700065750008657500086575000800000000D9
:080180006575000865750008B3
:10019000034613F8012B002AFBD1181A01387047C7
:1001A00001F0FF01102A2BDB10F0070F08D010F828
:1001B000013B013A8B422DD010F0070F42B3F6D12C
:1001C000F0B441EA012141EA014122F007047FF045
:1001D00000070023F0E80256083C85EA010586EA9C
:1001E000010685FA47F5A3FA87F586FA47F6A5FAD8
:1001F00087F68EB9EED1F0BC01F0FF0102F00702E4
:1002000032B110F8013B013A83EA010313B1F8D18E
:100210000020704701387047002D06BF354603386F
:10022000073815F0010F07D1013015F4807F02BFA8
:10023000013015F4C03F0130F0BC0138704700BFF9
:1002400053B94AB9002908BF00281CBF4FF0FF313D
:100250004FF0FF3000F00CB8ADF1080C6DE904CEA2
:1002600007F038FEDDF804E0DDE9022304B0704752
:10027000704700BF10B5054C237833B9044B13B158
:100280000448AFF300800123237010BD60000020FC
:1002900000000000CC81000808B5034B1BB10349E6
:1002A0000348AFF3008008BD000000006400002098
:1002B000CC81000800B587B08DF817006423029345
:1002C000012301930DF11702009240227821034887
:1002D00004F0BCFA07B05DF804FB00BFD00D0020AD
:1002E00000B587B08DF817006423029301230193B2
:1002F0000DF11702009200227821034804F0A6FABB
:1003000007B05DF804FB00BFD00D002000B585B03C
:100310006423029301230193009040227821034833
:1003200004F044FB05B05DF804FB00BFD00D0020D5
:1003300030B583B0142006F0C3FDAE20FFF7D0FF28
:100340000A2006F0BDFDB020FFF7CAFF0020FFF72E
:10035000C7FF1020FFF7C4FFA520FFF7ABFF022067
:1003600006F0AEFD5A20FFF7A5FF052006F0A8FD18
:10037000B020FFF7B5FF0020FFF7B2FF1020FFF716
:10038000AFFF022006F09CFD0DF10700FFF7BEFF56
:1003900018B10024204603B030BD0446022006F008
:1003A0008FFD0DF10600FFF7B1FF05460028F1D1E2
:1003B000022006F085FD0DF10500FFF7A7FF0446BA
:1003C00048B99DF80630A52BE4D19DF805305A2B8D
:1003D000E0D10124DEE72C46DCE7000008B532203E
:1003E00006F06EFDFFF7A4FF18B1044B02221A704D
:1003F00008BD024B01221A70FAE700BF82000020FC
:1004000000B587B00A468DF81700642302930123D4
:1004100001930DF1170100917821034804F016FAB9
:1004200007B05DF804FB00BFD00D002000B585B01B
:10043000642302930191009001237821024804F083
:1004400005FA05B05DF804FBD00D002038B5104B5F
:100450001D78022D00D00025002416E0A4F15000E4
:100460000021C0B2FFF7CCFF00212846FFF7C8FFEC
:1004700000211020FFF7C4FF40228021054800EB37
:10048000C410FFF7D3FF0134E4B2072CE6D938BD1E
:10049000820000208400002008B530B900214FF40C
:1004A0008062034807F092F808BDFF21F7E700BF1C
:1004B0008400002030B583B003F016FE632840F3BB
:1004C0008B80642006F0FCFCA0258DF80450C0242D
:1004D0008DF80540FFF782FF0021AE20FFF790FF67
:1004E0000A2006F0EDFC0021D520FFF789FF00214E
:1004F000F020FFF785FF0021A820FFF781FF0021F2
:100500003F20FFF77DFF0021D320FFF779FF002177
:100510000846FFF775FF00214020FFF771FF00211B
:100520002846FFF76DFF00212046FFF769FF0021F5
:100530008120FFF765FF0021C820FFF761FF002140
:10054000A420FFF75DFF0021A620FFF759FF00213F
:100550002020FFF755FF00210220FFF751FF002167
:10056000DA20FFF74DFF00211220FFF749FF00219D
:10057000D920FFF745FF0021F120FFF741FF0021BF
:10058000DB20FFF73DFF00212020FFF739FF00218E
:100590008D20FFF735FF00211420FFF731FF0021E8
:1005A000AD20FFF72DFF00218B20FFF729FF002151
:1005B0003320FFF725FF0020FFF76EFFFFF746FF10
:1005C0000021AF20FFF71CFF064B00225A801A8043
:1005D00001225A7103B030BDC0F1640006F070FC16
:1005E0006FE700BF7C0000207F2831D83F292FD83B
:1005F000184B1B7833B1184B1B7F013B18BF0123ED
:100600009A4225D010B4154B1B7913B1B2FA82F27D
:100610005209012A0FD0CB0800EBC310104C225C0A
:1006200001F0070101238B40DB435BB213402354ED
:100630005DF8044B7047CA0800EBC2120848835C9F
:1006400001F007040121A1400B43DBB28354EFE723
:10065000704700BF83000020880C00207C00002031
:10066000840000202DE9F04F83B004460E46174663
:1006700099469DF830807F2800D97F247F2F00D9AC
:100680007F273F2E00D93F26B9F13F0F01D94FF008
:100690003F09BC421FD2A7EB040A0FFA8AFA4E4563
:1006A0001ED2A9EB060B0FFA8BFBBC421DD2012216
:1006B0004E451DD20121DA451DDD0AEBDA756D10BC
:1006C000BAF1000F1DD0BBF1000F33D00092CDF86E
:1006D0000490894644E0A4EB070A0FFA8AFADEE7A1
:1006E000A6EB090B0FFA8BFBDFE74FF0FF32DFE7DA
:1006F0004FF0FF31DFE70BEBDB756D106D422DB274
:10070000DEE74E4502D84B46B1461E46BC4200D8F5
:1007100027460FFA89F90AE01FFA89F94246494645
:100720003846FFF761FF09F101090FFA89F9B14570
:10073000F2DD30E04E4500D8B146BC4202D83B461F
:1007400027461C463FB207E0BFB2424649463846FC
:10075000FFF74AFF01373FB2A742F5DD1BE01D4618
:10076000424631462046FFF73FFFBC4210D0CAF157
:1007700000039D4212DDA5EB0B031BB2009A14444B
:10078000A4B25D45EBDA53441BB24E44B6B2E6E781
:10079000019B9E42EBD103B0BDE8F08F2B46F0E702
:1007A0002DE9F04383B09DF828907F2823D8054693
:1007B0000F4690461E463F291DD883187F2B03DD28
:1007C000C0F180081FFA88F8BB193F2B02DDC7F182
:1007D0004006B6B200240CE0E11989B208EB05022C
:1007E000CDF800900B4692B22846FFF73BFF01344C
:1007F000E4B2B442F0D903B0BDE8F0830123136042
:10080000037890F900C0BCF1000F75DA03F0E00C3A
:10081000BCF1C00F0BD003F0F00CBCF1E00F19D00D
:1008200003F0F80CBCF1F00F37D00020704701291D
:1008300065D9417801F0C000802862D19B0103F4A2
:10084000F86301F03F010B437F2B5CD90223136057
:1008500001207047022958D9417801F0C00CBCF141
:10086000800F54D1807800F0C00CBCF1800F50D1C3
:100870001B039BB2890101F47C610B4300F03F0034
:100880000343B3F5006F46D3A3F55843B3F5006FA8
:1008900043D3032313600120704703293FD94178D4
:1008A00001F0C00CBCF1800F3BD100B590F802C044
:1008B0000CF0C00EBEF1800F35D1C07800F0C00E34
:1008C000BEF1800F32D19B0403F4E013090301F45D
:1008D0007C310B434FEA8C1101F47C610B4300F037
:1008E0003F000343B3F5803F22D3B3F5881F21D2E5
:1008F00004231360012017E04FF0FF307047002001
:10090000704700207047002070470020704700208B
:10091000704700207047002070470020704700207B
:1009200070470020704700205DF804FB0020FBE7C3
:100930000020F9E70020F7E7012313600378802BFC
:1009400013D97F33DBB27D2B12D8012912D941781C
:10095000A1F14003DBB23E2B03D981F080017E2957
:100960000AD802231360012070474FF0FF30704710
:10097000002070470020704700207047037803F183
:100980005002D2B2272A04D842785F32D2B25D2A0E
:1009900014D903F12802D2B21F2A04D842785F3258
:1009A000D2B25D2A0CD903F17F02D2B21F2A09D933
:1009B0005633DBB2542B07D902207047032070470F
:1009C000032070470120704701207047032901D0A0
:1009D00001207047037803F0F002E02A01D00120E3
:1009E00070471B039BB24278920102F47C6213436E
:1009F000827802F03F021343A3F59C42B2F5A44F64
:100A00000AD3A3F55052B2F5CE5F07D3A3F54053F6
:100A10003F2B05D901207047032070470220704703
:100A20000220704700E0806828B103888B42FAD822
:100A300043888B42F7D37047014BD8820020704720
:100A4000880C0020014B988200207047880C002001
:100A500041EA002070470346002004E0013003F122
:100A6000020C013063461A7842B1884206DA03F17B
:100A7000010C12F0800FF1D10A2AF2D17047012047
:100A80007047802070474020704708B5FFF7F9FF96
:100A900008BD08B5FFF7F7FF08BD000038B50D4BDE
:100AA0002E221A700C4C002525806580FFF7E9FF87
:100AB0000138A080FFF7E7FF0138E080A582E582DA
:100AC000064B2361012363722377FFF7F3FC28466B
:100AD00038BD00BF840C0020880C0020E481000891
:100AE0000346034A10691A460BB1014B1A6170475D
:100AF000880C0020002800F0BB802DE9F04F89B061
:100B00000546FFF745FB0746002800F0B4800023A8
:100B10000293039304930593069307931C46994607
:100B20009846BC4264D205EB040A2B57002B04DB29
:100B3000079B013307930134F3E7012300930193EB
:100B40003E1B6A4631465046FFF758FE834601AACF
:100B500031465046FFF7F0FEBBF1010F0ED00128E1
:100B60002ED0BBF1000F3BD1002834D1059B0133BF
:100B70000593069B013306930134D2E7012807D081
:100B8000029B0133029308F10408009B1C44C8E750
:100B9000049B01330493009E31465046FFF716FF35
:100BA00083465046FFF7EAFED8448144032E01D025
:100BB0003444B6E7019B022BFAD108F10208F7E7AB
:100BC000BBF1010F0CD0039B0133039309F104091E
:100BD000019B1C44A5E7059B013305930134A0E765
:100BE00020B9069B0133069301349AE7013498E754
:100BF000029A03995018049BC0183DD0002A03DDC7
:100C0000069D059CA5423ADC002903DD059D069C56
:100C1000A54236DC002B08DD3AB931B9C84532DCD3
:100C200001DB012028E0022026E0002A17DD002950
:100C300015DD1D4C84FB0034C317C3EB64039A42DB
:100C400001DD994221DCB2EB410F20DCB1EB420F18
:100C50001FDCC84501DD01200EE002200CE0002A67
:100C600019DC002919DCC84519DC1ADB012003E076
:100C70004FF0FF307047002009B0BDE8F08F012031
:100C8000FAE70220F8E70120F6E70320F4E7012065
:100C9000F2E70220F0E70120EEE70220ECE7012076
:100CA000EAE70220E8E700BF6766666608B5FFF777
:100CB00021FF08BD2DE9F84305460E461746089C5E
:100CC00092F8008003F00703013B062B05D8DFE80C
:100CD00003F00C1925313D495500B9465FE04C4BF6
:100CE0001A7F013A18BF012260E0681C80B2B1B2DD
:100CF00018F0400F60D0464B1A7FFFF775FC013C9F
:100D000000F08480A81C80B2B1B218F0200F59D036
:100D10003F4B1A7FFFF768FC013C77D0E81C80B29C
:100D2000B1B218F0100F53D0394B1A7FFFF75CFCAB
:100D3000013C6BD0281D80B2B1B218F0080F4DD025
:100D4000334B1A7FFFF750FC013C5FD0681D80B227
:100D5000B1B218F0040F47D02D4B1A7FFFF744FCB7
:100D6000013C53D0A81D80B2B1B218F0020F41D09F
:100D7000274B1A7FFFF738FC013C47D0E81D80B2B3
:100D8000B1B218F0010F3BD0214B1A7FFFF72CFCBA
:100D9000013C3BD0083507F1010997F80180A8B262
:100DA000B1B218F0800F9AD0194B1A7FFFF71CFCD4
:100DB000013C2BD04F4698E7154B1A7F013A18BFDC
:100DC00001229AE7124B1A7F013A18BF0122A1E7CC
:100DD0000F4B1A7F013A18BF0122A7E70C4B1A7F6D
:100DE000013A18BF0122ADE7094B1A7F013A18BF3B
:100DF0000122B3E7064B1A7F013A18BF0122B9E777
:100E0000034B1A7F013A18BF0122BFE7BDE8F88300
:100E1000880C00202DE9F04F83B0814688461746A4
:100E20001E46DDF830B00D9DDDF838A0002409E045
:100E3000009753462A4604EB08014846FFF73AFF5D
:100E40005D440134B442F3DB03B0BDE8F08F000031
:100E500070B584B0099D01EB030C0CF1FF3C8418C4
:100E6000013C1F4EB6F90260A6EB010EBEF1000F69
:100E700007DDA3EB0E03002B2EDD089901FB0E55B9
:100E80003146174EB6F90660ACEB060CBCF1000F0C
:100E900003DDA3EB0C03002B1EDD114EB6F904603D
:100EA000A41B002C00DD121B0D4CB4F900C08445BE
:100EB00014DDACEB000CA2EB0C0205EBEC052CF006
:100EC000070420440CF00704002A05DD0294019574
:100ED000089C0094FFF79EFF04B070BD0024F3E768
:100EE000880C00202DE9F04182B004461F4B1D699B
:100EF0000146A869FFF796FD00B3D0F80480038887
:100F0000E41A08EBC406B178184F18F834202B7D8A
:100F1000706801900091B7F91610B7F91400FFF747
:100F200097FF3A69537D117D8B420AD80F4B9A8AFD
:100F300070781969897D00FB01229A8202B0BDE8B0
:100F4000F0813D46B7F9140080B2FF8A18F83420CA
:100F50002C7F3B4402443944013C18BF01240094D7
:100F60009BB292B289B2FFF71BFCDFE7880C00202E
:100F700038B50446084B1D690146A869FFF752FDC4
:100F800040B142680388E41A12F83400AB7D03FBD9
:100F900000F038BD0020FCE7880C002001230B8006
:100FA000704708B58069FFF73DFD003818BF012084
:100FB00008BD0000014B1B69587D7047880C00205C
:100FC00008B5024B1B695B68984708BD880C002078
:100FD0002DE9F04118B10C46054600260BE000262D
:100FE0003046BDE8F0810235023C3978FFF730FD2C
:100FF000FFF7E6FF064428780028F1D0002CEFDB4D
:101000006F1C04F1FF3810F0800FECD1FFF7D8FF10
:10101000064444463D46EEE708B5FFF7CBFF024ADB
:10102000D38A0344D38208BD880C002008B50A285F
:1010300006D00D2803D0044B1B691B68984708BDD8
:10104000FFF7EAFFFBE700BF880C0020F8B5064673
:101050000C4606E00236023C2978FFF7F9FCFFF760
:10106000E5FF671E0AD4354615F8010B10F0800F16
:10107000F0D1FFF7DBFF3C462E46F2E7F8BD08B59E
:10108000FFF7E4FF08BD00000D4BB3F91A3003F081
:101090000C03082B0DD00C2B06D0042B0ED1084BC3
:1010A0001B69187D01387047054B1B69187D400886
:1010B0007047034B1B69187D40087047002070473C
:1010C000880C002038B50D46FFF7BCFC04462846C6
:1010D000FFF7B2FC2043C0B238BD10B582B0002487
:1010E00000949BB292B289B280B2FFF759FB02B072
:1010F00010BD10B500210846FFF7E4FFFFF7C5FC5F
:101100000446FFF7C6FC0346224600210846FFF7C7
:10111000E4FF10BD70B50446002505E02046FFF74A
:10112000AEFC0444054431464E1E0029F6D1284643
:1011300070BD08B5FFF78FFC08BD08B5FFF748FF85
:1011400008BD000000B583B084468E466B4610682B
:10115000516803C3BDF90020064B9A82BDF90220F5
:10116000DA826A4671466046FFF789FF03B05DF890
:1011700004FB00BF880C00202DE9F04F85B08246AB
:10118000002874D0FFF704F80290B0F5807F71D882
:10119000394B1B695A6A0392D3F820B04FF000080C
:1011A000364B01930DE003F0E002C02A1CD003F09F
:1011B000F002E02A1BD003F0F803F02B1AD008F15C
:1011C0000108029B98454ED20AEB080300931AF8D7
:1011D00008301AF90820002AE5DB019A02F8013BE1
:1011E00008F101080192ECE74FF0020904E04FF02A
:1011F000030901E04FF00409C844029B984532D826
:10120000039B5E1E002502E04B450ED9661EB542CB
:1012100023DC731B03EBD37305EB63040BEBC407F5
:101220003B794B45F0D2651CF1E74A4600993846B8
:1012300006F0BCF9002803DB002803DD661EE6E7A4
:10124000651CE4E7FA79791D019C204606F0F2F965
:10125000FB7922461A440192B3E7019B3F2203F82F
:10126000012B0193ADE70023019A1370034805B0E9
:10127000BDE8F08F0020FAE7880C002084080020E9
:101280002DE9F04F87B00646002800F0DB80FEF71E
:101290007FFF0446B0F5007F00F2D7806C4B1B69DE
:1012A0005A6A03921B6A029300256A4B009319E065
:1012B000012304930593671B04AA39465846FFF798
:1012C0009DFA804605AA39465846FFF735FBB8F126
:1012D000010F16D0012816D0009B3F2203F8012BE6
:1012E00001350093A54280F0A98006EB050B725DE5
:1012F0007357002BDCDB009B03F8012B01350093B7
:10130000F0E701280ED1B8F1010F50D09BF8002072
:1013100000990B4603F8022B721952784A70023575
:101320000093DFE7049B0193039B03F1FF394FF028
:10133000000804E0019A934214D907F1FF39C84527
:101340002DDCA9EB080707EBD77708EB6707029BB3
:1013500003EBC70A9AF80430019A9342EAD207F1E4
:101360000108ECE7019A5946504606F01FF900289B
:1013700004DB002805DD07F1FF39E0E707F101088C
:10138000DDE79AF807200AF10501009F384606F0CC
:1013900051F99AF807303A461A44009204E0009B4B
:1013A0003F2203F8012B0093019B1D449AE701287B
:1013B00092D1049B0193039B03F1FF394FF0000886
:1013C00004E0019A934214D907F1FF39C8452DDC96
:1013D000A9EB080707EBD77708EB6707029B03EB3E
:1013E000C70A9AF80430019A9342EAD207F1010839
:1013F000ECE7019A5946504606F0D8F8002804DB7D
:10140000002805DD07F1FF39E0E707F10108DDE716
:101410009AF807200AF10501009F384606F00AF9FC
:101420009AF807303A461A44009204E0009B3F22A3
:1014300003F8012B0093019B1D4453E70023009AFE
:101440001370044807B0BDE8F08F0020FAE700BF32
:10145000880C002084040020002800F09C802DE9E6
:10146000F04F85B00446FFF7A5FD01904A4DB5F950
:1014700014B0FFF709FEEB8A1FFA80FAA3EB0A0308
:10148000EB822046FFF712FC012804D0032807D086
:10149000002C42D17CE02046FFF76EFE0446F7E7C1
:1014A0002046FFF7EDFE0446F2E700EBD072521043
:1014B000394FBB8A9B1A1AB2BA82ADF8082085B29E
:1014C00015FA83F39BB2013BADF80C30B7F9163037
:1014D000ADF80A30BDF8049019FA83F39BB2013BD2
:1014E000ADF80E3002AA31462046FFF72BFEBDF9BB
:1014F0000A80A7F8168031462046FFF70BFE231816
:10150000225C0A2A22D00D2A20D0BDF808201544DA
:10151000214A95821A788AB35C1C237873B347F604
:10152000FF712046FFF705FE064601462046FFF7FD
:1015300004FE194BB3F91A3003F00303012B03D057
:10154000022BB2D00022B3E70246B1E7124AB2F949
:101550001A2002F00302013A012A0BD90E4A002197
:1015600091821A780A2AD5D119FA88F80A4AA2F87B
:101570001680CFE7084AA2F814B0F2E7064BDA8AE1
:101580009244A3F816A0B3F91A2022F003025A835A
:1015900005B0BDE8F08F7047880C002008B5034BFC
:1015A0009982DA82FFF758FF08BD00BF880C00203F
:1015B00008B50021044803F0DDFD45F25003C01AD0
:1015C00018BF012008BD00BF240E002008B545F259
:1015D00050020021014803F0C8FD08BD240E002080
:1015E00000B583B09446002201920A4BA3FB00E3AE
:1015F000DB094FF4FA6E0EFB13008DF807008DF82F
:1016000005108DF806C001A9034803F057FC03B08C
:101610005DF804FBD34D6210240E002000B587B0A6
:101620008C4601A9002301934B608B60CB600B615A
:101630008DF804008DF805C08DF806201A46034881
:1016400003F0DCFB07B05DF804FB00BF240E0020B4
:1016500010B50446C27881780088FFF7C1FF00B159
:1016600010BDE279A1796079FFF7D8FFF8E70000B3
:1016700010B4022901D8013880B200EB90030E4C5F
:10168000A4FB0040C0F34F141B1BC0F3CF10034456
:1016900001390A48415C0B441A440948A0FB023056
:1016A000131A00EB53008008C0EBC000101AC0B240
:1016B0005DF8044B704700BF1F85EB510888000898
:1016C0002549922470B586B0064601A900220192F0
:1016D0004A608A60CA600A610092184803F001FDFE
:1016E00018B10125284606B070BD0022694613488E
:1016F00003F01DFD0546F0B99DF8030000F5FA6002
:101700000F4C20809DF80110A1709DF80220E2701E
:101710009DF8043063719DF80530A3719DF8063083
:10172000E371FFF7A5FF2071002EDBD0234603CB2A
:1017300030607160D6E70125D4E700BF240E002099
:10174000A80C002008B50268034B9A4200D008BDDF
:1017500002F0BEFCFBE700BF0014004072B6FEE7DB
:1017600010B594B008AC30220021204605F02EFFC1
:101770000023039304930593069307930193214A4F
:10178000116C41F080511164126C02F08052019290
:10179000019A02931C4B1A6842F480421A601B683B
:1017A00003F480430293029B052308934FF4803394
:1017B000099301230A9302230E934FF480020F92A0
:1017C00004221092A8221192129307231393204609
:1017D00001F0E2FC90B90F2303930223049300234A
:1017E00005934FF4A05306934FF4805307930521BC
:1017F00003A801F03BFF18B914B010BDFFF7AEFF0E
:10180000FFF7ACFF003802400070004008B502F05E
:1018100045FCFFF7A5FF00F01DF800F067FA00F0A7
:101820005FF900F0EBF900F0ADFA00F001FB00F019
:10183000A1FB00F0F7FB00F0DBFC00F04DFD00F039
:1018400031FD00F027FC05F0B3FA00F039F905F09E
:10185000C1FAFEE72DE9F04F8DB007AD00240794E3
:10186000089409940A940B9401945A4B1A6B42F011
:1018700010021A631A6B02F010020192019A02948C
:101880001A6B42F004021A631A6B02F0040202920D
:10189000029A03941A6B42F080021A631A6B02F0E8
:1018A00080020392039A04941A6B42F001021A63B5
:1018B0001A6B02F001020492049A05941A6B42F02A
:1018C00002021A631A6B02F002020592059A06944C
:1018D0001A6B42F008021A631B6B03F008030693AD
:1018E000069BDFF8F8B022460121584602F052F973
:1018F000DFF8ECA022461021504602F04BF9364F9B
:1019000001224FF4FE41384602F044F9224648F2E3
:101910000101384602F03EF9DFF8C89022464FF444
:101920002441484602F036F9DFF8BC8022464021C7
:10193000404602F02FF91E230793089401260996CA
:101940002946384602F030F86023079308940223B2
:1019500009932946384602F027F807960896099415
:101960000A942946584602F01FF810230793089658
:1019700009940A942946504602F016F84FF601736E
:101980000793089609940A942946384602F00CF801
:101990004FF424430793089609940A94294648462D
:1019A00002F002F84FF4007307934FF48813089382
:1019B00009942946404601F0F7FF40230793089613
:1019C00009940A942946404601F0EEFF0DB0BDE8A7
:1019D000F08F00BF003802400010024000000240BB
:1019E0000008024000040240000C024000B58DB027
:1019F000FFF754F82C48FFF773F8FFF7D9FD0028DC
:101A00003CD108A8FFF75EFEFFF773FB9DF823307B
:101A10009DF8241002AC254A52F82120019200932F
:101A20009DF82230BDF820202149204605F09CFD7C
:101A3000002211461F48FFF7B1FD0A22002120466F
:101A4000FFF7ACFD9DF8273000939DF826309DF8F8
:101A500025201949204605F087FD18220021174846
:101A6000FFF79CFD222200212046FFF797FDFEF79D
:101A7000EDFC4FF47A7005F023FAC2E70AA80023C0
:101A80000A93436040F2EA73ADF8283006238DF8DC
:101A90002A3013238DF82B300C238DF82D30FFF7CF
:101AA000D7FDFFF793FDACE7E481000888880008C4
:101AB000148800082888000830880008408800083A
:101AC00008B5044A0021044805F0A0F9034B18604A
:101AD00008BD00BFA4880008ED190008B00C002064
:101AE00000B585B000230093019302930393164839
:101AF000164A02604FF48032426083600361012223
:101B0000027680F820304FF08051C1624FF0C06102
:101B10008162C360C26180F83020426101F046FA00
:101B200060B9012300930193072302936946064895
:101B300001F068FA28B905B05DF804FBFFF70EFE66
:101B4000EFE7FFF70BFEF6E7140D00200020014041
:101B500030B589B00023039304930593069307934C
:101B6000026803F1804303F590339A4201D009B033
:101B700030BD04460025019503F58C335A6C42F4C0
:101B800080725A645A6C02F480720192019A029532
:101B90001A6B42F001021A631B6B03F001030293FC
:101BA000029B022303930323049303A9104801F02B
:101BB000FBFE1048104B036045608560C5604FF424
:101BC000806303614FF4006343614FF4005383610A
:101BD0004FF48073C3610562456202F047F818B99B
:101BE000044BA3639C63C2E7FFF7B8FDF8E700BFAF
:101BF00000000240B40C00201064024000B583B025
:101C00000023009301930C480C4B036002F072FA1E
:101C100058B924230093002201926946064802F035
:101C20007BFA28B903B05DF804FBFFF797FDF0E7F6
:101C3000FFF794FDF6E700BFBC0D002000740040E4
:101C400030B589B00023039304930593069307935B
:101C50000268224B9A4201D009B030BD04460025EB
:101C6000019503F5E2331A6C42F000521A641A6CC3
:101C700002F000520192019A02951A6B42F00102A1
:101C80001A631B6B03F001030293029B102303935F
:101C90000323049303A9124801F086FE1148124B56
:101CA00003604FF06063436040238360C5604FF47E
:101CB000806303614FF4006343614FF40053836119
:101CC000C5610562456201F0D1FF18B9054BA360FB
:101CD0009C63C1E7FFF742FDF8E700BF00740040D6
:101CE000000002405C0D00208860024010B582B008
:101CF00000240094224B1A6B42F480021A631A6B80
:101D000002F480020092009A01941A6B42F40012CD
:101D10001A631B6B03F400130193019B22460521F8
:101D2000102002F0A7F9102002F0B4F92246052194
:101D3000382002F09FF9382002F0ACF92246052144
:101D4000392002F097F9392002F0A4F92246052142
:101D50003A2002F08FF93A2002F09CF92246052140
:101D6000452002F087F9452002F094F9224605212A
:101D7000462002F07FF9462002F08CF902B010BD37
:101D80000038024008B50B480B4B03600B4B436017
:101D900000238360C3604FF480420261436183612A
:101DA000C361036202F074FC00B908BDFFF7D6FC02
:101DB000FBE700BFD00D002000540040801A060051
:101DC00030B589B0002303930493059306930793DA
:101DD0000268144B9A4201D009B030BD002501952C
:101DE000114C236B43F002032363236B03F00203C4
:101DF0000193019BC02303931223049303230693AF
:101E00000423079303A9094801F0CEFD0295236C32
:101E100043F400132364236C03F400130293029B26
:101E2000DAE700BF005400400038024000040240DE
:101E300010B592B000240B940C940D940E940F9452
:101E40000A9428222146684605F0C0FB3548364BE7
:101E5000036044607F238360FF23C36004614461A7
:101E6000846102F071FF20B9FFF7A2FB20B912B024
:101E700010BDFFF773FCF7E7FFF7A8FB00238DF811
:101E80002C308DF82D308DF82E300E930F930122CB
:101E90000BA9244802F0B2FF00283AD101228DF8A4
:101EA00028208DF829208DF82A2000238DF82B304A
:101EB0000AA91C4803F002F870BB00238DF800301B
:101EC0008DF801308DF8023001930393049305934C
:101ED0000693079301228DF820204FF48073099315
:101EE0006946104803F038F8C8B910A800231093C9
:101EF000436040F2EA73ADF8403006238DF842307B
:101F000013238DF843300C238DF84530FFF7A0FBE9
:101F1000ADE7FFF723FCC1E7FFF720FCCDE7FFF7B4
:101F20001DFCE2E7240E00200028004000B585B02B
:101F30000023009301930293039302680B4B9A4290
:101F400002D005B05DF804FB022300934FF48073C8
:101F50000393684601F07EFC20B9054B0122C3F8CB
:101F60003C2EEEE7FFF7FAFBF7E700BF0028004042
:101F70000000474208B50D480D4B03604FF48273D3
:101F8000436000238360C360036143614FF40072C8
:101F90008261C3610362436283620A23C36203F006
:101FA000EEF800B908BDFFF7D9FBFBE7440E0020AF
:101FB0000030014000B589B00023039304930593DA
:101FC000069307930268154B9A4202D009B05DF858
:101FD00004FB0021019103F584335A6C42F48052D2
:101FE0005A645A6C02F480520192019A02911A6B5F
:101FF00042F001021A631B6B03F001030293029B80
:10200000E0230393022304930323069305230793FA
:1020100003A9034801F0C8FCD8E700BF0030014025
:102020000000024000B587B000230293039304939D
:1020300005930093019316484FF0804202605322AB
:10204000426083607C22C26003618023836100F070
:1020500041FD98B94FF48053029302A90C4800F057
:1020600044FE70B920230093002301936946084879
:1020700000F0BAFE40B907B05DF804FBFFF76EFB55
:10208000E8E7FFF76BFBEDE7FFF768FBF3E700BF5F
:102090002C0F002000B587B0002302930393049314
:1020A0000593009301931548154A0260A7224260E8
:1020B00083606322C260036143618023836100F017
:1020C00009FD90B94FF48053029302A90B4800F028
:1020D0000CFE68B90023009301936946074800F09D
:1020E00083FE40B907B05DF804FBFFF737FBE9E773
:1020F000FFF734FBEEE7FFF731FBF3E79C0E002020
:102100000004014000B585B00368B3F1804F08D0EA
:102110001E4A934212D01E4A934223D005B05DF866
:1021200004FB002301931B4B1A6C42F001021A645A
:102130001B6C03F001030193019BEFE70022029265
:10214000144B196C41F0020119641B6C03F002037B
:102150000293029B05211D2001F08CFF1D2001F040
:1021600099FFDBE7002203920A4B596C41F0020110
:1021700059645B6C03F002030393039B05212C203D
:1021800001F078FF2C2001F085FFC7E70004004034
:10219000000401400038024000B587B000230193DD
:1021A000029303930493059302680E4B9A4202D064
:1021B00007B05DF804FB002300930B4B1A6B42F051
:1021C00002021A631B6B03F002030093009B1023AF
:1021D000019302230293059301A9044801F0E4FB53
:1021E000E6E700BF0004004000380240000402405F
:1021F00000B58FB000230A930B930C930D930893B3
:102200000993019302930393049305930693079311
:102210002248234A026053224260836040F2E73240
:10222000C26003618023836100F054FC30BB4FF433
:1022300080530A930AA9194800F057FD08BB1748B4
:1022400000F074FC00BB00230893099308A913480D
:1022500000F0CAFDD8B9602301934FF4FA730293DA
:1022600000220392059201A90C4800F0C3FC88B932
:102270000A48FFF791FF0FB05DF804FBFFF76EFA15
:10228000D5E7FFF76BFADAE7FFF768FADBE7FFF766
:1022900065FAE0E7FFF762FAEAE700BFE40E002024
:1022A0000004004008B50A480A4B03604FF4E133CC
:1022B000436000238360C36003610C224261836139
:1022C000C36103F0A1F800B908BDFFF747FAFBE7C7
:1022D0003C1100200010014008B50A480A4B036079
:1022E0004FF4E133436000238360C36003610C2239
:1022F00042618361C36103F087F800B908BDFFF74D
:102300002DFAFBE7F41000200014014030B58BB02B
:1023100004460023059306930793089309930368E3
:10232000634A934204D0634A934261D00BB030BDFC
:1023300000250195604B5A6C42F010025A645A6CA9
:1023400002F010020192019A02951A6B42F001020A
:102350001A631B6B03F001030293029B4FF4C063EB
:10236000059302230693032308930723099305A9E2
:10237000524801F019FB5248524B03604FF0006382
:1023800043608560C5604FF480630361456185618A
:10239000C5610562456201F069FC18BB484BE36307
:1023A0009C634948494B03604FF0006343604023FE
:1023B00083600023C3604FF48062026143618361E4
:1023C000C3610362436201F051FC70B93E4BA363E9
:1023D0009C6300220521252001F04CFE252001F000
:1023E00059FEA3E7FFF7BAF9D8E7FFF7B7F9EDE72A
:1023F00000250395304B5A6C42F020025A645A6C07
:1024000002F020020392039A04951A6B42F0040230
:102410001A631B6B03F004030493049BC02305930E
:1024200002230693032308930823099305A9284848
:1024300001F0BAFA2748284B03604FF0206343604D
:102440008560C5604FF48063036145618561C56146
:102450000562456201F00AFC18BB1E4BE3639C63F6
:102460001E481F4B03604FF020634360402383608E
:102470000023C3604FF48062026143618361C361E2
:102480000362436201F0F2FB70B9144BA3639C63D7
:1024900000220521472001F0EDFD472001F0FAFD63
:1024A00044E7FFF75BF9D8E7FFF758F9EDE700BF1E
:1024B00000100140001401400038024000000240BA
:1024C000941000204064024034100020B8640240A0
:1024D00000080240D40F002028640240740F00203E
:1024E000A0640240FEE7FEE7FEE7FEE7FEE7704776
:1024F00008B5024801F07CFC08BD00BF5C0D00205F
:1025000008B5024800F0CFF908BD00BFE40E002076
:1025100008B5024803F032F808BD00BF3C110020A6
:1025200008B5024800F0BFF908BD00BF9C0E0020AE
:1025300008B5024800F0B7F908BD00BF84110020BB
:1025400008B5024801F054FC08BD00BFB40C0020DF
:1025500008B5024801F04CFC08BD00BFD40F0020B4
:1025600008B5024801F044FC08BD00BF94100020EB
:1025700008B5024801F03CFC08BD00BF740F002004
:1025800008B5024801F034FC08BD00BF341000203B
:1025900008B5024802F0F2FF08BD00BFF4100020A9
:1025A00000B583B0002200920D4B596C41F480417C
:1025B0005964596C01F48041009100990192196CA1
:1025C00041F0805119641B6C03F080530193019B0F
:1025D0000F216FF0010001F04DFD03B05DF804FB29
:1025E0000038024030B589B0044600230193214BE6
:1025F0001A6C42F020021A641B6C03F02003019352
:10260000019B02A903A801F007F9069BCBB901F0D1
:10261000E3F80346184AA2FB03239B0C013B17482F
:10262000174A026040F2E732C26043600023036150
:102630008360836100F04EFA054630B1284609B048
:1026400030BD01F0C9F84300E4E70C4800F0E4F8BD
:1026500005460028F2D1372001F01CFD0F2C01D9CE
:102660000125EBE700222146372001F003FD054B51
:102670001C60E3E70038024083DE1B438411002026
:10268000001400400400002030B4036A026A22F003
:10269000010202624268846924F0730C0C6844EA07
:1026A0000C0423F0020C8B6843EA0C03114DA84282
:1026B00003D005F58065A84205D123F00803CD6855
:1026C0002B4323F004030B4DA84203D005F580658E
:1026D000A84207D122F440724D6945EA020C8A698A
:1026E00042EA0C02426084614A684263036230BC81
:1026F000704700BF0000014030B4036A026A22F450
:10270000807202624268C46924F0730C0C6844EA67
:102710000C0523F400738C6843EA0423114CA04297
:1027200003D004F58064A04206D123F40063CC6892
:1027300043EA042323F480630A4CA04203D004F547
:102740008064A04207D122F440524C6942EA04124C
:102750008C6942EA04124260C5614A68C26303623E
:1027600030BC70470000014030B4036A026A22F4B2
:10277000805202624468C26922F4E6420D6842EA6D
:10278000052223F400538D6843EA0533094DA8421E
:1027900003D005F58065A84204D124F480444D6936
:1027A00044EA85144460C2614A680264036230BC32
:1027B000704700BF0000014010B4036A046A24F0AF
:1027C00001040462846924F0F00C4CEA021223F044
:1027D0000A030B43826103625DF8044B704710B437
:1027E000036A046A24F010040462846924F4704CBF
:1027F0004CEA023223F0A00343EA01138261036230
:102800005DF8044B7047836823F070030B4343F07B
:10281000070383607047000090F83D30012B37D1EB
:10282000022380F83D300268D36843F00103D3608F
:102830000368194A934220D0B3F1804F1DD0A2F50E
:102840007C42934219D002F58062934215D002F582
:102850008062934211D002F5784293420DD002F586
:102860007052934209D0A2F59432934205D01A686F
:1028700042F001021A60002070479A6802F00702D5
:10288000062A07D01A6842F001021A600020704739
:1028900001207047002070470000014070477047DA
:1028A00070477047704770B504460368DE681D695D
:1028B00015F0020F10D016F0020F0DD06FF00202CB
:1028C0001A610123037703689B6913F0030F5ED03D
:1028D000FFF7E6FF0023237715F0040F12D016F060
:1028E000040F0FD023686FF004021A6102232377CC
:1028F00023689B6913F4407F4FD02046FFF7D0FF39
:102900000023237715F0080F12D016F0080F0FD010
:1029100023686FF008021A61042323772368DB69B8
:1029200013F0030F40D02046FFF7BAFF00232377B0
:1029300015F0100F12D016F0100F0FD023686FF0A3
:1029400010021A61082323772368DB6913F4407FA0
:1029500031D02046FFF7A4FF0023237715F0010FA5
:1029600002D016F0010F2DD115F0800F02D016F015
:10297000800F2FD115F0400F02D016F0400F31D14B
:1029800015F0200F02D016F0200F33D170BDFFF7E5
:1029900086FF2046FFF785FF9CE72046FFF77FFF75
:1029A0002046FFF77EFFABE72046FFF778FF204683
:1029B000FFF777FFBAE72046FFF771FF2046FFF7E2
:1029C00070FFC9E723686FF001021A612046FEF725
:1029D000B9FEC9E723686FF080021A61204600F053
:1029E0004AFAC7E723686FF040021A612046FFF7F2
:1029F00059FFC5E723686FF020021A61204600F0F6
:102A000039FAC3E70368324A904212D0B0F1804FDE
:102A10000FD0A2F57C4290420BD002F5806290422A
:102A200007D002F58062904203D002F578429042CE
:102A300003D123F070034A681343254A90422AD0F9
:102A4000B0F1804F27D0A2F57C42904223D002F50E
:102A5000806290421FD002F5806290421BD002F546
:102A60007842904217D002F57052904213D002F58E
:102A7000806290420FD002F5806290420BD0A2F5A6
:102A80009832904207D002F58062904203D002F55E
:102A90008062904203D123F44073CA68134323F049
:102AA00080034A6913438A68C2620A688262084ADC
:102AB000904203D002F58062904201D10A6902631C
:102AC000026842F004020260012242610360704722
:102AD0000000014040B310B5044690F83D30F3B11A
:102AE000022384F83D30214651F8040BFFF78AFF9A
:102AF000012384F8463084F83E3084F83F3084F86F
:102B0000403084F8413084F8423084F8433084F80F
:102B1000443084F8453084F83D30002010BD80F802
:102B20003C30FFF7EFFADBE70120704740B310B508
:102B3000044690F83D30F3B1022384F83D3021463D
:102B400051F8040BFFF75EFF012384F8463084F848
:102B50003E3084F83F3084F8403084F8413084F8C7
:102B6000423084F8433084F8443084F8453084F8A7
:102B70003D30002010BD80F83C30FFF78FFEDBE7D2
:102B80000120704730B4036A026A22F01002026228
:102B90004468826922F4E6420D6842EA052223F085
:102BA00020038D6843EA0513114DA84203D005F5B3
:102BB0008065A84206D123F08003CD6843EA05135F
:102BC00023F040030A4DA84203D005F58065A842D2
:102BD00007D124F440644D6944EA85048D6944EAD0
:102BE0008504446082614A688263036230BC704736
:102BF0000000014038B590F83C30012B66D0044607
:102C00000D46012380F83C300C2A5AD8DFE802F048
:102C1000075959591B595959305959594400006895
:102C2000FFF732FD2268936943F00803936122683D
:102C3000936923F0040393612268936929690B4324
:102C4000936100203EE00068FFF79CFF22689369D3
:102C500043F4006393612268936923F48063936172
:102C600022689369296943EA01239361002029E0DE
:102C70000068FFF741FD2268D36943F00803D36180
:102C80002268D36923F00403D3612268D3692969D8
:102C90000B43D361002015E00068FFF765FD226853
:102CA000D36943F40063D3612268D36923F480635A
:102CB000D3612268D369296943EA0123D3610020E3
:102CC00000E00120002384F83C3038BD0220FCE7FE
:102CD00010B4846824F47F4C42EA03220A4342EA97
:102CE0000C0282605DF8044B704790F83C30012B79
:102CF00078D010B50446012380F83C30022380F8D8
:102D00003D300268936823F47F4323F07703936098
:102D10000B68602B4CD023D8402B54D011D8202BDB
:102D200003D00AD80BB1102B05D119462068FFF744
:102D30006AFD002028E0012026E0302BF5D001209C
:102D400022E0502B0AD1CA6849680068FFF734FDB9
:102D500050212068FFF757FD002015E0012013E007
:102D6000B3F5805F3AD0B3F5005F14D0702B37D144
:102D7000CB684A6889680068FFF7AAFF22689368F1
:102D800043F0770393600020012384F83D30002353
:102D900084F83C3010BDCB684A6889680068FFF74A
:102DA00097FF2268936843F4804393600020EBE729
:102DB000CA6849680068FFF712FD60212068FFF7C4
:102DC00022FD0020E0E7CA6849680068FFF7F4FCCC
:102DD00040212068FFF717FD0020D5E70020D3E74A
:102DE0000120D1E70220704790F83C20012A3DD015
:102DF00010B40346012280F83C20022280F83D20D6
:102E000002685068946820F0700C086840EA0C0072
:102E100050601A68164882421AD0B2F1804F17D01B
:102E2000A0F57C40824213D000F5806082420FD032
:102E300000F5806082420BD000F57840824207D0D6
:102E400000F57050824203D0A0F59430824204D144
:102E500024F08004496821439160012283F83D20D9
:102E6000002083F83C005DF8044B70470220704757
:102E700000000140704770474A4B5A6822F44032C4
:102E80005A605A6841680A435A600268536823F4DA
:102E90008073536002685368016943EA01235360F9
:102EA0000268536823F04073536002685368816876
:102EB0000B4353600268936823F4006393600268D5
:102EC0009368C1680B439360826A374B9A4257D02C
:102ED0000268936823F07063936002689368816A64
:102EE0000B4393600268936823F040539360026839
:102EF0009368C16A0B4393600268936823F00203EE
:102F0000936002689368017E43EA4103936090F8FE
:102F10002030002B3FD00268536843F400635360B5
:102F20000268536823F46043536001684B68426A47
:102F3000013A43EA42334B600268D36A23F47003D8
:102F4000D3620168CB6AC269013A43EA0253CB6299
:102F50000268936823F4007393600268936890F8A2
:102F6000301043EA412393600268936823F480633E
:102F7000936002689368416943EA812393607047D4
:102F80000268936823F0706393600268936823F08B
:102F900040539360B0E70268536823F400635360C2
:102FA000CAE700BF002301400100000F38B310B58D
:102FB0000446036C43B1236C13F0100F0BD00120B7
:102FC000002384F83C3010BDFEF7C2FD002363648B
:102FD00084F83C30EFE7236C23F4885323F002039A
:102FE00043F0020323642046FFF746FF002060649D
:102FF000236C23F0030343F001032364E0E7012083
:103000007047000030B482B00022019290F83C205A
:10301000012A00F0B6800346012280F83C200A68AD
:10302000092A40D90468E06892B202EB42021E3AD3
:103030004FF0070C0CFA02F220EA0202E2601C6870
:10304000E0680A8802EB42021E3A8D6805FA02F235
:103050000243E2604A68062A3CD81C68606B02EBB7
:103060008202053A4FF01F0C0CFA02F220EA02022B
:1030700062631C68606B4A6802EB8202053AB1F831
:1030800000C00CFA02F20243626318683E4A9042A2
:1030900050D018683C4A904255D0002083F83C003C
:1030A00002B030BC70470468206992B202EB420261
:1030B0004FF0070C0CFA02F220EA020222611C68AF
:1030C00020690A8802EB42028D6805FA02F2024387
:1030D0002261BFE70C2A16D81D68286B02EB82021A
:1030E000233A1F2404FA02F220EA02022A631D682E
:1030F000286B4A6802EB8202233A0C8804FA02F237
:1031000002432A63C1E71D68E86A02EB8202413A82
:103110001F2404FA02F220EA0202EA621D68E86A49
:103120004A6802EB8202413A0C8804FA02F2024336
:10313000EA62AAE70A68122AABD11448426842F44C
:1031400080024260A5E70A68103A012AA5D80F4814
:10315000426842F4000242600A68102A9DD10C4A7B
:1031600012680C49A1FB0212920C02EB820252007F
:10317000019202E0019A013A0192019A002AF9D1E2
:103180008BE702208CE700BF0020014000230140B4
:103190000800002083DE1B43002800F0E08170B5AA
:1031A00082B00446036813F0010F3BD09F4B9B682D
:1031B00003F00C03042B2CD09C4B9B6803F00C03F6
:1031C000082B21D06368B3F5803F4FD0B3F5A02F13
:1031D00052D0964B1A6822F480321A601A6822F490
:1031E00080221A606368002B50D000F07DFF0546F6
:1031F0008E4B1B6813F4003F14D100F075FF401B89
:103200006428F5D90320B1E1884B5B6813F4800F83
:10321000D8D0864B1B6813F4003F03D06368002BA3
:1032200000F09F81236813F0020F54D07F4B9B68FE
:1032300013F00C0F3ED07D4B9B6803F00C03082B62
:1032400033D0E368002B68D0794B01221A6000F07C
:103250004BFF0546754B1B6813F0020F54D100F06D
:1032600043FF401B0228F5D903207FE16F4A136812
:1032700043F480331360B5E76C4B1A6842F4802244
:103280001A601A6842F480321A60ABE700F02CFF33
:103290000546664B1B6813F4003FC3D000F024FFC3
:1032A000401B6428F5D9032060E1604B5B6813F490
:1032B000800FC6D15D4B1B6813F0020F03D0E3688B
:1032C000012B40F05081594A136823F0F80321691B
:1032D00043EAC1031360236813F0080F42D0636907
:1032E0006BB3534B0122C3F8802E00F0FDFE054660
:1032F0004E4B5B6F13F0020F34D100F0F5FE401B14
:103300000228F5D9032031E1484A136823F0F80375
:10331000216943EAC1031360DDE7454B00221A60CF
:1033200000F0E2FE0546414B1B6813F0020FD2D0BD
:1033300000F0DAFE401B0228F5D9032016E13C4BD1
:103340000022C3F8802E00F0CFFE0546374B5B6F9E
:1033500013F0020F06D000F0C7FE401B0228F5D97B
:10336000032003E1236813F0040F77D02F4B1B6C6D
:1033700013F0805F33D1002301932C4B1A6C42F081
:1033800080521A641B6C03F080530193019B01254A
:10339000284B1B6813F4807F23D0A368012B34D003
:1033A000052B38D0214B1A6F22F001021A671A6FD1
:1033B00022F004021A67A368002B3DD000F094FEAF
:1033C00006461A4B1B6F13F0020F46D100F08CFE1D
:1033D000801B41F288339842F3D90320C6E00025D0
:1033E000D6E7144A136843F48073136000F07CFE40
:1033F0000646104B1B6813F4807FCED100F074FE9C
:10340000801B0228F5D90320B0E0084A136F43F06F
:1034100001031367CFE7054B1A6F42F004021A67E6
:103420001A6F42F001021A67C5E700BF0038024078
:10343000000047420070004000F056FE0646524B26
:103440001B6F13F0020F08D000F04EFE801B41F2FC
:1034500088339842F3D9032088E0EDB9A369002BA3
:1034600000F08380484A926802F00C02082A51D08A
:10347000022B17D0454B00221A6600F035FE044699
:10348000414B1B6813F0007F42D000F02DFE001B63
:103490000228F5D9032069E03B4A136C23F08053DE
:1034A0001364DBE7394B00221A6600F01DFE054667
:1034B000354B1B6813F0007F06D000F015FE401B53
:1034C0000228F5D9032051E0E369226A1343626AB6
:1034D00043EA8213A26A5208013A43EA0243E26ACB
:1034E00043EA0263284A5360284B01221A6600F01F
:1034F000FBFD0446244B1B6813F0007F06D100F04F
:10350000F3FD001B0228F5D903202FE000202DE059
:1035100000202BE0012B2BD01B4B5B6803F48001B8
:10352000E269914226D103F03F02216A8A4223D107
:10353000616A47F6C0721A40B2EB811F1ED103F4D4
:103540004031A26A5208013AB1EB024F18D103F0A0
:103550007063E26AB3EB026F14D1002006E0012031
:103560007047012002E0012000E0002002B070BDA1
:103570000120FBE70120F9E70120F7E70120F5E74B
:103580000120F3E70120F1E7003802400000474244
:1035900008B5334B9B6803F00C03042B5BD0082B5E
:1035A0005BD12F4B5A6802F03F025B6813F4800F27
:1035B0002CD02B4B5868C0F388104FEA401CBCEB52
:1035C000000C6EEB0E0E4FEA8E1343EA9C634FEA3B
:1035D0008C11B1EB0C0163EB0E03DB0043EA51737A
:1035E000C90011EB000C43F10003590200234FEA1C
:1035F0004C2041EADC51FCF723FE194B5B68C3F316
:10360000014301335B00B0FBF3F008BD144B586875
:10361000C0F388104FEA401CBCEB000C6EEB0E0EA2
:103620004FEA8E1343EA9C634FEA8C11B1EB0C0115
:1036300063EB0E03DB0043EA5173C90011EB000C8E
:1036400043F10003990200234FEA8C2041EA9C5188
:10365000FCF7F6FDD1E70348D7E70348D5E700BFFD
:103660000038024000127A000024F400002800F024
:103670009B8070B50D4604464F4B1B6803F0070353
:103680008B4208D2CBB24C4A1370136803F0070385
:103690008B4240F08B80236813F0020F17D013F099
:1036A000040F04D0454A936843F4E05393602368C1
:1036B00013F0080F04D0414A936843F460439360C9
:1036C0003E4A936823F0F003A1680B43936023689C
:1036D00013F0010F32D06368012B21D09A1E012A0A
:1036E00025D9364A126812F0020F61D033498A6830
:1036F00022F0030213438B6000F0F6FC06462F4BCA
:103700009B6803F00C036268B3EB820F16D000F0E5
:10371000EBFC801B41F288339842F0D9032042E051
:10372000264A126812F4003FE0D101203BE0234A10
:10373000126812F0007FD9D1012034E01E4B1B68C3
:1037400003F00703AB4207D9EAB21B4B1A701B68A0
:1037500003F00703AB422DD1236813F0040F06D00A
:10376000164A936823F4E053E1680B43936023689F
:1037700013F0080F07D0114A936823F460432169BE
:1037800043EAC1039360FFF703FF0C4B9B68C3F34D
:1037900003130B4AD35CD8400A4B18600A4B1868D5
:1037A000FEF720FF002070BD012070470120FAE7DE
:1037B0000120F8E70120F6E7003C02400038024013
:1037C000D88800080800002004000020014B186879
:1037D000704700BF0800002008B5FFF7F7FF044B53
:1037E0009B68C3F38223034AD35CD84008BD00BF63
:1037F00000380240D088000808B5FFF7E7FF044B07
:103800009B68C3F34233034AD35CD84008BD00BF72
:1038100000380240D08800080F2303600B4B9A68E1
:1038200002F0030242609A6802F0F00282609A6835
:1038300002F4E052C2609B68DB0803F4E0530361CA
:10384000034B1B6803F007030B607047003802400E
:10385000003C024030B583B00446036813F0050F06
:1038600006D1236813F0020F2ED1002003B030BD23
:103870004A4B00229A6600F037FC0546484B1B680D
:1038800013F0006F06D000F02FFC431B022BF5D97C
:103890000320EBE76268A3681B0743EA8213404AF0
:1038A000C2F884303D4B01229A6600F01DFC0546AB
:1038B0003B4B1B6813F0006FD3D100F015FC431B8A
:1038C000022BF5D90320D1E700230193344B1A6C66
:1038D00042F080521A641B6C03F080530193019BE9
:1038E000304A136843F48073136000F0FDFB054613
:1038F0002C4B1B6813F4807F06D100F0F5FB431BB3
:10390000022BF5D90320B1E7254B1B6F13F440734D
:1039100014D0E26802F440729A420FD0204B1A6F22
:1039200022F440721D490120C1F8400E0020C1F868
:10393000400E1A671B6F13F0010F13D1E36803F4F5
:103940004072B2F5407F1ED0154A936823F4F813F5
:10395000936013490B6FE268C2F30B0213430B67CA
:10396000002083E700F0C0FB05460D4B1B6F13F0F2
:10397000020FE3D100F0B8FB401B41F288339842BC
:10398000F3D9032072E706498A6822F4F81223F07B
:10399000704323F4407313438B60DAE7000047421F
:1039A000003802400070004000230F2B00F2E98035
:1039B00070B582B065E085684FEA430E032404FACF
:1039C0000EF425EA0405CC6804FA0EF42C43846056
:1039D000446824EA02044A68C2F300129A4022436F
:1039E00042605CE0DC08083450F8242003F007054E
:1039F000AD004FF00F0E0EFA05FE22EA0E0E0A6918
:103A0000AA4042EA0E0240F824205CE0072200E0CF
:103A1000002202FA0EF22A4302345A4D45F82420BD
:103A2000594A94686FEA0C0224EA0C054E6816F4B1
:103A3000801F01D04CEA0405534CA560E46802EAFB
:103A400004054E6816F4001F01D04CEA04054E4CE4
:103A5000E560646802EA04054E6816F4003F01D090
:103A60004CEA0405484C6560246822404D6815F412
:103A7000803F01D04CEA0402434C226001330F2BFB
:103A80007DD801229A400C6804EA020C32EA040450
:103A9000F4D14C6804F00304013C012C8BD94A6832
:103AA00002F00302032A09D0C4685D000322AA4081
:103AB00024EA02048A68AA402243C2604A6802F0EB
:103AC0000302022A8ED004684FEA430E032202FA50
:103AD0000EF224EA02044A6802F0030202FA0EF22D
:103AE000224302604A6812F4403FC7D0002201928C
:103AF000264A546C44F480445464526C02F480426C
:103B00000192019A9C08A51C1E4A52F8255003F008
:103B1000030E4FEA8E0E0F2202FA0EF225EA02057C
:103B20001B4A90423FF474AF02F5806290421AD073
:103B300002F58062904218D002F58062904216D061
:103B400002F58062904214D002F58062904212D059
:103B500002F58062904210D002F5806290423FF4FC
:103B600055AF082255E7012253E7022251E703220D
:103B70004FE704224DE705224BE7062249E702B052
:103B800070BD704700380140003C014000380240E1
:103B9000000002400AB181617047090481617047E9
:103BA00010B40368D9B210390A4AA2FB01421209C3
:103BB000094CA25CC2655F2907D96FF3090304337E
:103BC0008365806D5DF8044B70476FF3090383656F
:103BD000F7E700BFABAAAAAAC8880008836A82696F
:103BE00092B9012B0AD0022B02D00BB100207047F2
:103BF000C36A13F0807F28D100207047C36AB3F1F5
:103C0000C07F24D000207047B2F5005F09D0022B9E
:103C100025D9032B25D1C36A13F0807F23D100203F
:103C20007047032B03D8DFE803F01404140A0020C4
:103C30007047C36A13F0807F0DD100207047C36ABC
:103C4000B3F1C07F09D000207047012070470120E8
:103C50007047012070470120704701207047012004
:103C600070470020704701207047000070B504467F
:103C700000F03AFA002C5BD00546022384F8353078
:103C8000002384F834302268136823F001031360A2
:103C900023681A6812F0010F0AD000F025FA431BBE
:103CA000052BF5D920236365032084F8350070BD0A
:103CB0001A68204911406268A0680243E068024324
:103CC0002069024360690243A0690243E06902433C
:103CD000206A02430A43616A04291ED01A602668DA
:103CE000756925F00705636A1D43042B07D1A36A94
:103CF0001D43E36A1BB12046FFF770FF90B9756161
:103D00002046FFF74DFFE26D3F2393408360002084
:103D10006065012384F83530C9E7E16A206B01430F
:103D20000A43DBE740236365012084F83500BEE7E2
:103D30000120BCE73F8010F070B50446866D00F0AE
:103D4000D3F994F83530022B06D080236365002325
:103D500084F83430012070BD05462268136823F0D2
:103D6000160313602268536923F080035361236CA8
:103D7000E3B12268136823F0080313602268136814
:103D800023F00103136023681B6813F0010F11D0A7
:103D900000F0AAF9431B052BF5D920236365032006
:103DA00084F83500002384F83430D4E7A36C002B6A
:103DB000DFD1E3E7E26D3F239340B360012384F852
:103DC0003530002084F83400C5E790F83530022BF8
:103DD00003D08023436501207047052380F83530E8
:103DE0000268136823F0010313600020704700008D
:103DF000F0B583B0044600230193724B1D68724BEB
:103E0000A3FB0535AD0A876D3E68C26D082393405C
:103E1000334210D003681A6812F0040F0BD01A68EE
:103E200022F004021A60C26D08239340BB60436D08
:103E300043F001034365E26D01239340334209D00F
:103E40002268526912F0800F04D0BB60636D43F0AA
:103E500002036365E26D04239340334209D0226874
:103E6000126812F0020F04D0BB60636D43F00403CC
:103E70006365E26D10239340334224D022681268B8
:103E800012F0080F1FD0BB6023681A6812F4802F4D
:103E90000DD01B6813F4002F04D1236C9BB1204676
:103EA000984710E0A36C73B1204698470BE01A685E
:103EB00012F4807F03D11A6822F008021A60236C82
:103EC0000BB120469847E26D20239340334254D0F3
:103ED0002268126812F0100F4FD0BB6094F8353092
:103EE000052B0ED023681A6812F4802F33D01B687C
:103EF00013F4002F2AD1636C002B3ED02046984744
:103F00003BE02268136823F01603136022685369AC
:103F100023F080035361236CA3B12268136823F05C
:103F200008031360E26D3F239340BB60012384F8D4
:103F30003530002384F83430236D002B3FD02046E9
:103F400098473CE0A36C002BE7D1EBE7E36BA3B110
:103F50002046984711E01A6812F4807F09D11A6848
:103F600022F010021A60012384F83530002384F80F
:103F70003430E36B0BB120469847636DFBB1636D42
:103F800013F0010F17D0052384F835302268136829
:103F900023F001031360019B01330193AB4204D86A
:103FA00023681B6813F0010FF5D1012384F8353025
:103FB000002384F83430E36C0BB12046984703B0FB
:103FC000F0BD00BF08000020B5814E1B002807DBB4
:103FD00000F01F02400901239340024A42F82030BA
:103FE000704700BF00E100E0002808DB0901C9B20A
:103FF00000F1604000F5614080F80013704700F068
:104000000F000901C9B2014B1954704714ED00E0CB
:1040100000B500F00700C0F1070CBCF1040F28BF89
:104020004FF0040C031D062B0FD9C31E4FF0FF3EAB
:104030000EFA0CF021EA000199400EFA03FE22EA82
:104040000E0241EA02005DF804FB0023EEE70000E7
:10405000074AD36823F4E0631B041B0C000200F43E
:10406000E060034343F0BF6343F40033D360704721
:1040700000ED00E010B50446054BD868C0F30220FF
:10408000FFF7C6FF01462046FFF7AEFF10BD00BF99
:1040900000ED00E008B5FFF799FF08BD08B50B4B30
:1040A0001A6842F400721A601A6842F480621A6058
:1040B0001A6842F480721A600320FFF7C9FF0F20CC
:1040C000FEF790FAFEF76CFA002008BD003C0240B3
:1040D000034A1168034B1B780B441360704700BF01
:1040E000CC11002000000020014B1868704700BF71
:1040F000CC11002070B110B50446037933B102230E
:104100002371002020610123237110BD4371FDF74D
:1041100097FDF4E70120704748B3844649B34379DB
:10412000012B28D010B54FF0010E80F805E00223D6
:1041300003710468206802F0100240F6FE73934099
:1041400020EA03000B6849680B4393400343236054
:10415000DCF800000368C02101FA02F223EA02033E
:1041600003608CF804E000208CF8050010BD0120ED
:104170007047012070470220704703685A6912F4A3
:10418000806F01D1002070476FF480625A61002374
:104190000363202280F83D2080F83E30026C42F01C
:1041A0000402026480F83C30012070472DE9F041A0
:1041B00006460C46174698463BE0FFF795FF069BE0
:1041C000C01A404502D8B8F1000F32D1012D18D0E5
:1041D00033689B6924EA03039BB2B3FA83F35B0958
:1041E0009F4226D100233363202286F83D2086F8A3
:1041F0003E30326C42F02002326486F83C300120BE
:1042000027E033685B6924EA03039BB2B3FA83F3C4
:104210005B09E5E733685B6924EA030C1FFA8CFC51
:10422000BCFA8CFC4FEA5C1C674511D1B8F1FF3F2A
:10423000C3D1C4F30745012DECD033689B6924EA50
:10424000030C1FFA8CFCBCFA8CFC4FEA5C1CEBE7FD
:104250000020BDE8F0812DE9F84305460E46904662
:10426000994653E01A6842F400721A602B686FF4A2
:1042700080625A6100232B63202285F83D2085F857
:104280003E302A6C42F004022A6485F83C3001205A
:104290004AE0FFF729FFA0EB0900404502D8B8F13A
:1042A000000F33D1012F17D02B689B6926EA030337
:1042B0009BB2003B18BF012343B300232B63202292
:1042C00085F83D2085F83E302A6C42F020022A64B1
:1042D00085F83C30012027E02B685B6926EA030360
:1042E0009BB2003B18BF0123E6E72B689C6926EAD6
:1042F0000404A4B2003C18BF0124A4B12B685A697D
:1043000012F4806FAED1B8F1FF3FC2D1C6F30747B8
:10431000012FEAD12B685C6926EA0404A4B2003CB0
:1043200018BF0124E9E70020BDE8F88370B5044612
:104330000D46164623685B6913F0800F21D1204695
:10434000FFF71BFFF8B9B5F1FF3FF3D0FFF7CCFE45
:10435000801BA84201D8002DECD123685B6913F0C3
:10436000800FE7D100232363202284F83D2084F8C6
:104370003E30226C42F02002226484F83C3001205E
:1043800000E0002070BD0120FCE700002DE9F043B3
:1043900085B004460D4691461F46DDF830800D9EDF
:1043A0000368196841F48071196000964346002241
:1043B0004FF00111FFF7FAFE60B9236805F0FE0522
:1043C0001D613346424626492046FFF744FF68B147
:1043D000012008E023681B6813F4807F02D04FF4AB
:1043E00000732364032005B0BDE8F083002303932A
:1043F00023685A6903929B690393039B32464146A3
:104400002046FFF793FF30B9012F0FD123685FFAE1
:1044100089F61E61E7E7236C042B01D00120E2E757
:104420002268136843F400731360F7E723684FEAC8
:1044300019221A61324641462046FFF777FF20B91C
:1044400023685FFA89F61E61CDE7236C042B01D047
:104450000120C8E72268136843F400731360F7E78C
:10446000020001002DE9F04784B004460D461646CF
:1044700099460C9FDDF834800268136843F480632A
:1044800013600368196841F480711960CDF80080E9
:104490003B4600224FF00111FFF788FE70B95FFA2A
:1044A00085FA236805F0FE051D6143463A464149F9
:1044B0002046FFF7D0FE68B1012008E023681B68A2
:1044C00013F4807F02D04FF400732364032004B000
:1044D000BDE8F0870023039323685A6903929B6920
:1044E0000393039B424639462046FFF71FFF80B9DE
:1044F000B9F1010F18D12368F6B21E614246394660
:104500002046FFF713FF68B3236C042B24D001204F
:10451000DDE7236C042B01D00120D8E72268136863
:1045200043F400731360F7E72368320A1A614246C6
:1045300039462046FFF7FAFE18B92368F6B21E6125
:10454000DCE7236C042B01D00120C0E7226813684C
:1045500043F400731360F7E72268136843F40073B1
:104560001360D4E72268136843F480731360CDF8B6
:1045700000803B4600224FF001112046FFF716FE57
:1045800068B922684AF00103136143463A46094973
:104590002046FFF760FE002899D0012097E72368A6
:1045A0001B6813F4807F02D04FF400732364032050
:1045B0008DE700BF0200010070B504460D461646A7
:1045C00023685B6913F0040F21D12046FFF7D5FD66
:1045D000F8B9B5F1FF3FF3D0FFF786FD801BA84285
:1045E00001D8002DECD123685B6913F0040FE7D1EB
:1045F00000232363202284F83D2084F83E30226C7F
:1046000042F02002226484F83C30012000E00020C7
:1046100070BD0120FCE770B504460D46164614E057
:104620006FF010025A6100232363202284F83D209A
:1046300084F83E30226C226484F83C30012025E06E
:1046400023685B6913F0400F10D02368586910F09D
:10465000400F1AD1586910F0100FE1D1FFF744FD57
:10466000801BA842ECD8002DEFD1E9E7002323639B
:10467000202284F83D2084F83E30226C42F0200253
:10468000226484F83C30012000E0002070BD00006E
:10469000002800F0CC8070B5044690F83D30002B27
:1046A00077D0242384F83D302268136823F0010377
:1046B00013602268136843F4004313602268136890
:1046C00023F400431360FFF787F862685A4B9A425D
:1046D00064D85A4B98428CBF00230123002B40F032
:1046E000A8805749A1FB00318B0C25686A6822F02D
:1046F0003F0242EA91426A6021680A6A22F03F0260
:1047000066684D4DAE424FD8013313430B622168AA
:10471000CA6922F44F4222F0FF026568464B9D426F
:104720004CD8431E6D00B3FBF5F3013340F6FC702B
:10473000034278D0C3F30B031A43CA6121680B68A4
:1047400023F0C003E269206A024313430B6021682F
:104750008B6823F4034323F0FF032269E0680243DC
:1047600013438B602168CB6823F0FF036269A06963
:1047700002431343CB602268136843F001031360C4
:1047800000202064202384F83D30206384F83E001C
:1047900070BD80F83C30FDF713FB82E7294B98424F
:1047A0008CBF0023012399E74FF4967505FB03F3B3
:1047B000254DA5FB03539B090133A6E7A668BEB9A7
:1047C000431E05EB450CB3FBFCF30133C3F30B03B2
:1047D000B3FA83F35B0943BBC6B9431E05EB45053A
:1047E000B3FBF5F30133C3F30B0343F40043A3E737
:1047F000431E05EB850C0CEB8C0CB3FBFCF3013377
:10480000C3F30B03B3FA83F35B09E4E7431E05EB41
:10481000850505EB8505B3FBF5F30133C3F30B0306
:1048200043F4404388E7042386E7012384E701201B
:1048300070470120ACE700BFA08601007F841E0006
:1048400083DE1B43FF083D00D34D62102DE9F0438A
:1048500083B004460F46904699460C9EFFF744FCF1
:1048600094F83D20202A03D0022003B0BDE8F08355
:1048700005460090192301224A492046FFF796FC7D
:10488000002840F0898094F83C30012B00F08680AD
:10489000012384F83C3023681A6812F0010F03D119
:1048A0001A6842F001021A602268136823F4006358
:1048B0001360212384F83D30402384F83E300023E8
:1048C00023640A9B6362BDF82C306385638D238566
:1048D000354BE362019500964B46424639462046E9
:1048E000FFF754FD00285BD1238D002B35D02A46DD
:1048F00031462046FFF71AFD20BB626A2368127812
:104900001A61626A531C6362218D013989B2218563
:10491000638D9BB2013B9BB263852368586910F09D
:10492000040FE1D00029DFD052781A61636A0133A5
:104930006362238D013B2385638D9BB2013B9BB258
:104940006385D1E7236C042B01D001208DE7226819
:10495000136843F400731360F7E72A463146204694
:10496000FFF72AFE50B1236C042B01D001207CE715
:104970002268136843F400731360F7E72268136832
:1049800043F400731360202384F83D30002384F83F
:104990003E3084F83C3068E7022066E7022064E796
:1049A000012062E7020010000000FFFF2DE9F04344
:1049B00087B004460F4690469946109EFFF794FB39
:1049C00094F83D20202A04D00227384607B0BDE8DD
:1049D000F083054600901923012289492046FFF7FC
:1049E000E5FB002840F04E8194F83C30012B00F0AC
:1049F0004B81012384F83C3023681A6812F0010FC0
:104A000003D11A6842F001021A602268136823F485
:104A100000631360222384F83D30402384F83E3045
:104A2000002323640E9B6362BDF83C306385638D75
:104A30002385744BE362019500964B464246394606
:104A40002046FFF70FFD0746002840F01F81238D09
:104A50005BB9029323685A6902929A690292029A98
:104A60001A6842F400721A6075E0012B0AD0022B1A
:104A70001AD00023059323685A6905929B69059310
:104A8000059B68E02268136823F4806313600023A9
:104A9000039323685A6903929A690392039A1A68E6
:104AA00042F400721A6056E02268136823F48063AF
:104AB00013602268136843F40063136000230493B7
:104AC00023685A6904929B690493049B43E02A4635
:104AD00031462046FFF79FFD002840F0D98023682B
:104AE0001A69636A1A70636A01336362238D013B3A
:104AF0002385638D9BB2013B9BB263852BE00095C0
:104B00003346002240492046FFF750FB002840F082
:104B1000C1802268136843F40073136023681A6924
:104B2000636A1A70626A531C6362238D013B23859A
:104B3000638D9BB2013B9BB2638523681B695370F5
:104B4000636A01336362238D013B2385638D9BB2CE
:104B5000013B9BB26385238D002B00F08A80032BE1
:104B600054D8012BB3D0022BC9D000953346002274
:104B700025492046FFF71AFB002840F08D80226867
:104B8000136823F48063136023681A69636A1A70D8
:104B9000636A01336362238D013B2385638D9BB27E
:104BA000013B9BB26385009533460022164920469F
:104BB000FFF7FCFA002871D12268136843F40073F0
:104BC000136023681A69636A1A70626A531C63620D
:104BD000238D013B2385638D9BB2013B9BB2638593
:104BE00023681B695370636A01336362238D013B41
:104BF0002385638D9BB2013B9BB26385ABE700BF0E
:104C0000020010000000FFFF040001002A463146A8
:104C10002046FFF700FD002842D123681A69636A25
:104C20001A70636A01336362228D013A92B222855F
:104C3000638D9BB2013B9BB263852368596911F078
:104C4000040F88D0032A0FD023681A69636A1A7088
:104C5000636A01336362238D013B2385638D9BB2BD
:104C6000013B9BB2638576E71A6822F480621A6082
:104C7000EAE7202384F83D30002384F83E3084F8AE
:104C80003C30A2E60227A0E602279EE601279CE62A
:104C900001279AE6012798E6012796E6012794E680
:104CA000012792E638B5044603680A4ADA60FFF73E
:104CB0001BFA05462368DB6813F0200F07D1FFF7C6
:104CC00013FA401BB0F57A7FF4D9032000E00020EE
:104CD00038BD00BF5F7F010070B50368DA6812F06D
:104CE000400F02D00025284670BD0446DA6842F025
:104CF0008002DA60FFF7F8F9064600252368DB68D2
:104D000013F0400FEFD1002DEDD1FFF7EDF9831B2C
:104D1000B3F57A7FF2D9042363770125EEE70268C1
:104D2000D36823F08003D36003689B6813F0200FDF
:104D300001D00020704710B50446FFF7B3FF10B153
:104D400004236377012010BD00284AD010B5044623
:104D5000437F53B1022363772368DA6812F0100FA0
:104D600007D000200123637710BD0377FDF7DEF83D
:104D7000F0E7CA225A62236853225A622046FFF79C
:104D8000ABFF28B12368FF225A620028ECD1E9E783
:104D90002268936823F4E00323F0400393602168C2
:104DA0008A686368206903436069034313438B6027
:104DB0002368E2681A6122681369A16843EA014323
:104DC00013612046FFF7ABFF0028DBD12268136C8C
:104DD00023F4802313642268136CA1690B431364CA
:104DE000D0E701207047002302E001330A38C0B247
:104DF0000928FAD81B01DBB218437047037F012B47
:104E00005AD070B504460E46012303770223437738
:104E100032BB03689B6813F0400F01D10023CB70B5
:104E20003078FFF7E0FF05047078FFF7DCFF45EA14
:104E30000025B078FFF7D7FF0543F37845EA83559F
:104E40002368CA225A62236853225A622046FFF717
:104E500043FFB8B12368FF225A620023237770BD55
:104E600003689B6813F0400F01D10023CB703378A7
:104E700075782D0245EA0345B3781D43F37845EA7A
:104E80008355DDE7236805F07F3525F0FE451D607D
:104E90002268936823F48023936021688B68F2680A
:104EA0003069024313438B602046FFF738FF002828
:104EB000D0D101236377CDE702207047037F012B18
:104EC00048D070B504460E4601230377022343778A
:104ED000CAB1CB784D782D0245EA03458B781D4346
:104EE0000B7845EA43352368CA225A622368532265
:104EF0005A622046FFF7F0FEF0B12368FF225A62A3
:104F00000023237770BD4B7813F0100F03D003F00C
:104F1000EF030A334B70F078FFF765FF05047078F4
:104F2000FFF761FF45EA0025B078FFF75CFF054316
:104F3000337845EA4335D6E7236825F07F4525F0E9
:104F4000C0055D602046FFF7EAFE0028D5D10123A9
:104F50006377D2E702207047F8B5037F012B00F09A
:104F6000B58004460E460123037702234377002AC7
:104F700053D103689B6813F0400F01D10023CB701D
:104F80003078FFF730FF05047078FFF72CFF45EA13
:104F90000025B078FFF727FF0543F37845EA8355EE
:104FA00096F82000FFF71FFF45EA0065F3691D43EF
:104FB00073691D437768B3691F432368CA225A6225
:104FC000236853225A62736AB3F5807F3FD0226808
:104FD000936823F4007393602268936823F400536A
:104FE00093602268D368DBB263F42073D360FFF769
:104FF0007BF806462368DA6812F0020F56D1FFF7F5
:1050000073F8801BB0F57A7FF4D92368FF225A62C7
:10501000032060770023237757E003689B6813F031
:10502000400F01D10023CB70337875782D0245EA0B
:105030000345B3781D43F37845EA835596F820304D
:1050400045EA0365F3691D4373691D43B2E72268AE
:10505000936823F4807393602268936823F48053E9
:1050600093602268D368DBB263F4C073D360FFF748
:105070003BF806462368DA6812F0010F0DD1FFF7FE
:1050800033F8801BB0F57A7FF4D92368FF225A6287
:10509000032060770023237717E0DD6123685F64D6
:1050A0002268936843F48073936007E01D6223686D
:1050B0009F642268936843F4007393602368FF221F
:1050C0005A620123637700202077F8BD0220FCE7B5
:1050D000030903EB830300F00F0000EB4300C0B2B1
:1050E000704770B503689B6A4B6003681B69C3F324
:1050F0000E038B6003681B68C3F305400870C3F39D
:1051000006264E7003F07F058D70C3F38053CB707D
:105110005AB90C46FFF7DCFF20703046FFF7D8FF86
:1051200060702846FFF7D4FFA070002070BD70B5F6
:1051300003685B68C3F30740C870C3F304264E706E
:1051400003F03F058D70C3F342330B705AB90C4620
:10515000FFF7BEFFE0703046FFF7BAFF60702846E9
:10516000FFF7B6FFA070002070BD0368503343F80E
:10517000212070470368503353F8210070470028FE
:105180005AD010B50446436A33B94368B3F5827FF9
:1051900005D00023C36102E00023036143610023C3
:1051A000A36294F85130002B40D0022384F8513090
:1051B0002268136823F040031360636803F482736A
:1051C000A26802F404421343E26802F4006213434B
:1051D000226902F002021343626902F001021343E2
:1051E000A26902F400721343E26902F03802134329
:1051F000226A02F080021343A26A02F4005221687C
:1052000013430B60638B03F00403626A02F0100225
:10521000216813434B602268D36923F40063D36190
:1052200000206065012384F8513010BD84F85030AF
:105230002046FCF7BFFEB8E701207047026802F184
:105240000C0353E8003F23F490730C3242E8003122
:105250000029F3D1026802F1140353E8003F23F060
:105260000103143242E800310029F3D1036B012B12
:1052700005D0202380F84230002303637047026882
:1052800002F10C0353E8003F23F010030C3242E814
:1052900000310029F3D1ECE790F84130212B01D007
:1052A000022070478368B3F5805F17D0036A5A1CE9
:1052B00002621A7803685A60C38C9BB2013B9BB2AE
:1052C000C3844BB90268D36823F08003D3600268BB
:1052D000D36843F04003D360002070470369002B7C
:1052E000E4D1036A1B880268C3F308035360036AAE
:1052F00002330362E0E7000010B504460268136958
:1053000023F44053C1680B431361836802691A4355
:1053100043691A43C3691A430168CB6823F41643EF
:1053200023F00C031343CB600268536923F44073EA
:1053300081690B4353610368314A934206D002F5F9
:105340008062934202D0FEF747FA01E0FEF754FA7A
:10535000E369B3F5004F29D00021031849411B1818
:1053600041F10001C90041EA5371DB00181863687C
:105370004FEA83024FEA937341F10001FAF760FFAD
:10538000204AA2FB00314909642303FB11031B01DE
:105390003233A2FB03235B0903F0F00202EB01129C
:1053A00003F00F03216813448B6010BD0023021823
:1053B00043EB0301121841F10001C90041EA5271A7
:1053C000D200101841F10001626892185B41FAF7AF
:1053D00037FF0C4AA2FB00314909642303FB110388
:1053E000DB003233A2FB03235B095A0002F4F8729C
:1053F00002EB011203F00703216813448B60D4E72A
:10540000001001401F85EB5160B310B5044690F8C1
:10541000413013B3242384F841302268D36823F445
:105420000053D3602046FFF767FF2268136923F417
:10543000904313612268536923F02A035361226861
:10544000D36843F40053D36000206064202384F8C1
:10545000413084F84230606310BD80F84030FCF782
:1054600055FFD7E701207047704708B50168CA6843
:1054700022F04002CA60202280F84120FFF7F4FFAA
:10548000002008BD7047704708B5806B0023C385B6
:10549000FFF7F9FF08BD704790F84230222B69D121
:1054A0008368B3F5805F4FD0826AB3F5805F04D024
:1054B000002B56D10369002B53D103685B6813702E
:1054C000836A01338362C38D9BB2013B9BB2C38568
:1054D000002B51D100B583B00268D36823F02003BC
:1054E000D3600268D36823F48073D3600268536981
:1054F00023F001035361202380F8423000234363EB
:10550000036B012B33D100230363026802F10C0308
:1055100053E8003F23F010030C3242E80031002929
:10552000F3D103681A6812F0100F06D0002201921E
:105530001A6801925B680193019B818DFFF7ABFFB5
:10554000002003B05DF804FB0269002AACD1826A36
:1055500003685B68C3F308031380836A02338362C2
:10556000B1E703685B6803F07F031370A8E7FFF7F8
:1055700089FFE5E7022070470020704710B582B030
:10558000044602681368D068516913F00F0F09D1FF
:1055900013F0200F0CD010F0200F09D02046FFF799
:1055A0007BFF16E011F0010115D110F4907F12D1AC
:1055B000216B012979D013F0800F03D010F0800FF8
:1055C00040F0218113F0400F03D010F0400F40F065
:1055D0001E8102B010BD13F0010F06D010F4807FC1
:1055E00003D0626C42F00102626413F0040F04D035
:1055F00019B1626C42F00202626413F0020F04D02F
:1056000019B1626C42F00402626413F0080F07D013
:1056100010F0200F00D119B1626C42F008026264F0
:10562000626C002AD5D013F0200F02D010F0200FAA
:1056300029D123685B6903F04003626C12F0080F04
:1056400000D163B32046FFF7F9FD23685B6913F0CF
:10565000400F20D0226802F1140353E8003F23F0EA
:105660004003143242E800310029F3D1E36B73B1F7
:10567000694A1A65E06BFEF7A8FB0028A9D0E06B29
:10568000036D9847A5E72046FFF706FFD1E72046C0
:10569000FFF7F9FE9DE72046FFF7F5FE99E7204664
:1056A000FFF7F1FE0023636493E713F0100F82D03D
:1056B00010F0100F3FF47FAF0023019313680193A4
:1056C00053680193019B536913F0400F5FD0E26B65
:1056D00013685B689BB2002B4AD0A18D994247D9D1
:1056E000E385D369B3F5807F37D0226802F10C03DC
:1056F00053E8003F23F480730C3242E80031002964
:10570000F3D1226802F1140353E8003F23F00103B0
:10571000143242E800310029F3D1226802F1140367
:1057200053E8003F23F04003143242E800310029DF
:10573000F3D1202384F8423000232363226802F14E
:105740000C0353E8003F23F010030C3242E8003111
:105750000029F3D1E06BFEF7EFFA02236363A18D1A
:10576000E38D9BB2C91A89B22046FFF794FE30E759
:10577000A18D99427FF42DAFD369B3F5807F7FF47B
:1057800028AF022363632046FFF785FE21E7A18D42
:10579000E38D9BB2C91A89B2E38D9BB2002B3FF413
:1057A00018AF00293FF415AF226802F10C0353E84B
:1057B000003F23F490730C3242E800300028F3D10C
:1057C000226802F1140353E8003F23F0010314326E
:1057D00042E800300028F3D1202384F8423000232F
:1057E0002363226802F10C0353E8003F23F0100307
:1057F0000C3242E800300028F3D1022363632046D4
:10580000FFF749FEE5E62046FFF746FDE1E62046C4
:10581000FFF72BFEDDE600BF89540008034AD2F8EB
:10582000883043F47003C2F88830704700ED00E020
:1058300000F1080343604FF0FF328260C3600361F0
:1058400000230360704700230361704743684B6087
:105850009A688A6051609960086103680133036047
:10586000704730B40D68B5F1FF3F11D000F1080367
:105870001C465B681A68AA42FAD963684B60996053
:105880008C606160086103680133036030BC70475D
:105890000469F2E70369416882688A60416851607F
:1058A0005A68824206D0002202611A68013A1A60E0
:1058B0001868704782685A60F5E710B5044601F031
:1058C000B1FCA26BE36B9A4204D0002401F0CCFC43
:1058D000204610BD0124F9E710B5044601F0A2FCF2
:1058E000A36B23B9012401F0BFFC204610BD0024A6
:1058F000F9E770B504461546866B026C5AB9036821
:105900001BB100200136A66370BD806800F0D2FF95
:105910000023A360F6E76DB9406801F08BFE636871
:10592000226C13446360A268934219D323686360B6
:105930002846E7E7C06801F07DFEE368226C51422B
:105940009B1AE3602268934202D2A3680B44E3608F
:10595000022D01D00020D5E726B1013E0020D1E77D
:105960002846CFE70020CDE70346026C6AB110B5A8
:105970000846D9681144D9609C68A14201D31968CE
:10598000D960D96801F056FE10BD704738B505469C
:1059900001F048FC95F8454064B201E0013C64B276
:1059A000002C0ADD6B6A43B105F1240000F0D6FE3D
:1059B0000028F3D000F068FFF0E7FF2385F84530BA
:1059C00001F052FC01F02EFC95F8444064B201E075
:1059D000013C64B2002C0ADD2B6943B105F11000D3
:1059E00000F0BCFE0028F3D000F04EFFF0E7FF23EC
:1059F00085F8443001F038FC38BD38B5E0B10D46CB
:105A0000044601F00FFC2368E26B216C01FB0230BD
:105A1000A0600020A0636360013A02FB0133E360F1
:105A2000FF2384F8443084F84530FDB9236963B915
:105A300001F01AFC012038BD4FF0500383F31188A8
:105A4000BFF36F8FBFF34F8FFEE704F1100000F03C
:105A500085FE0028ECD04FF0E0234FF08052C3F8D1
:105A6000042DBFF34F8FBFF36F8FE1E704F11000F8
:105A7000FFF7DEFE04F12400FFF7DAFED8E738B5C1
:105A80001D46049C0B4649B92460E0632364012150
:105A90002046FFF7B2FF84F84C5038BD2260F4E78F
:105AA00040B94FF0500383F31188BFF36F8FBFF3FA
:105AB0004F8FFEE710B584B01C46844653B192B1B7
:105AC00089B94FF0500383F31188BFF36F8FBFF391
:105AD0004F8FFEE74FF0500383F31188BFF36F8FB2
