:020000040800F2
:1000000000000220B55B0008E9470008EB47000844
:10001000ED470008EF470008F14700080000000026
:10002000000000000000000000000000D1110008E6
:10003000F3470008000000007112000821030008C7
:10004000055C0008055C0008055C0008055C00080C
:10005000055C0008055C0008055C0008055C0008FC
:10006000055C0008055C0008055C0008055C0008EC
:10007000055C0008055C0008055C0008055C0008DC
:10008000F5470008055C0008055C0008055C0008F1
:10009000055C0008055C0008055C0008055C0008BC
:1000A000055C0008055C0008055C0008055C0008AC
:1000B000055C000805480008055C0008055C0008B0
:1000C000055C0008055C0008055C0008055C00088C
:1000D000055C00081D480008055C0008055C000878
:1000E000055C0008055C0008055C0008055C00086C
:1000F0002D480008055C0008055C0008055C000848
:10010000055C0008055C0008055C0008055C00084B
:10011000055C0008055C0008055C00083D48000817
:100120004D4800085D4800086D480008055C00085F
:10013000055C0008055C0008055C0008055C00081B
:10014000055C0008055C0008055C0008055C00080B
:10015000055C00087D4800088D4800089D4800089F
:10016000055C0008055C0008055C0008055C0008EB
:10017000055C0008055C0008055C00080000000044
:08018000055C0008055C0008A5
:1001900053B94AB9002908BF00281CBF4FF0FF31EE
:1001A0004FF0FF3000F00CB8ADF1080C6DE904CE53
:1001B00005F064FDDDF804E0DDE9022304B07047DA
:1001C000704700BF10B5054C237833B9044B13B109
:1001D0000448AFF300800123237010BDB800002055
:1001E00000000000745F000808B5034B1BB1034911
:1001F0000348AFF3008008BD00000000BC000020F1
:10020000745F000800B585B000230093019302934A
:1002100003931648164A02604FF4803242608360AE
:1002200003610122027680F820304FF08051C162D4
:100230004FF0C0618162C360C26180F830204261CA
:1002400001F02AFE60B90123009301930723029372
:100250006946064801F04CFE28B905B05DF804FB7C
:1002600000F01AFDEFE700F017FDF6E7340100207B
:100270000020014030B589B0002303930493059317
:1002800006930793026803F1804303F590339A4283
:1002900001D009B030BD04460025019503F58C332B
:1002A0005A6C42F480725A645A6C02F48072019261
:1002B000019A02951A6B42F001021A631B6B03F05C
:1002C00001030293029B022303930323049303A9D4
:1002D000104802F099F91048104B036045608560A2
:1002E000C5604FF4806303614FF4006343614FF4D2
:1002F000005383614FF48073C3610562456201F06E
:10030000D3FF18B9044BA3639C63C2E700F0C4FC9D
:10031000F8E700BF00000240D40000201064024053
:1003200008B54FF0E0231B6904F062FF012800D1FB
:1003300008BD00F0CFFFFBE7EFF305832BB9064BB9
:10034000186828B901221A6070476FF005007047DD
:100350004FF0FF30704700BF34080020EFF30583F3
:1003600073B90A4B1B68012B0DD110B50024084B43
:10037000DC77064B02221A6004F096FC204610BD82
:100380006FF0050070474FF0FF30704734080020D1
:1003900000ED00E0F0B587B000240594EFF305848C
:1003A00004BBF8B1002A34D0156893692BB11E46FE
:1003B000013B372B02D9002015E01826536813F0B3
:1003C000010F3FD1546984B14FEA940C93682BB16B
:1003D000D7685B2F02D9176907B184B943B14FF0D1
:1003E000FF330BB3059807B0F0BD4FF0800CEDE77D
:1003F000D368A3B91369ABB14FF0FF33F1E70293B0
:10040000019700960B466246294604F0DFFB0590F3
:10041000E8E71546002318264FF0800CE1E74FF07F
:10042000FF33DEE70023DCE705AB019300960B46C4
:100430001FFA8CF2294604F004FC0128D2D00023D4
:100440000593CFE70020CEE708B5EFF3058333B976
:1004500008B9002008BD04F089FD0020FAE76FF01C
:100460000500F7E7034B0360034B0B608023136029
:10047000704700BFD8070020D8050020034B036059
:10048000034B0B604FF48073136070477C050020B2
:100490007C01002000B583B00023009301930C4839
:1004A0000C4B036001F056FE58B924230093002240
:1004B00001926946064801F05FFE28B903B05DF875
:1004C00004FB00F0E9FBF0E700F0E6FBF6E700BF15
:1004D000980800200074004030B589B000230393D1
:1004E00004930593069307930268224B9A4201D026
:1004F00009B030BD04460025019503F5E2331A6CBE
:1005000042F000521A641A6C02F000520192019AF1
:1005100002951A6B42F001021A631B6B03F0010390
:100520000293029B102303930323049303A912480D
:1005300002F06AF81148124B03604FF060634360A9
:1005400040238360C5604FF4806303614FF4006310
:1005500043614FF400538361C5610562456201F058
:10056000A3FE18B9054BA3609C63C1E700F094FBA0
:10057000F8E700BF00740040000002403808002087
:100580008860024010B582B000240094224B1A6BA0
:1005900042F480021A631A6B02F480020092009AFD
:1005A00001941A6B42F400121A631B6B03F40013DC
:1005B0000193019B22460521102001F0B7FD102078
:1005C00001F0C4FD22460521382001F0AFFD38209E
:1005D00001F0BCFD22460521392001F0A7FD39209C
:1005E00001F0B4FD224605213A2001F09FFD3A209A
:1005F00001F0ACFD22460521452001F097FD452084
:1006000001F0A4FD22460521462001F08FFD462081
:1006100001F09CFD02B010BD003802402DE9F04F02
:1006200085B00021454800F0B3FB322000F006FC05
:100630005A222A21424800F0C9FB052000F0F8FBAD
:1006400000F0CCFB04E000F0F3FC0A20FFF7FCFE16
:1006500000F0FCFB0128F6D000273E464FF0010ACF
:10066000D146D046D3462FE0009B002B4ED1C82167
:10067000012000F0F1FB49E0019B002B49D1C8218A
:10068000022000F0E9FB44E0029B002B44D1C8218A
:10069000032000F0E1FB3FE0039B002B3FD1C8218A
:1006A000042000F0D9FB3AE00FB9012C40D014200F
:1006B000FFF7CAFE27462E46DDF80CA0DDF80890AD
:1006C000DDF80480DDF800B01E4C0221204602F067
:1006D00091F800900421204602F08CF80190082146
:1006E000204602F087F802901021204602F082F89E
:1006F00003902021204602F07DF805464021204647
:1007000002F078F80446BBF1010FADD0B8F1010F4B
:10071000B2D0B9F1010FB7D0BAF1010FBCD0002EA1
:10072000C2D1012DC0D1C821052000F095FBBBE747
:10073000C821062000F090FBB9E700BFA48F00207D
:10074000000000200010024008B5044A00210448BF
:10075000FFF720FE034B186008BD00BFB05F000824
:100760001D060008AC0800202DE9F04F8DB007AD44
:1007700000240794089409940A940B9401945A4B0A
:100780001A6B42F010021A631A6B02F01002019207
:10079000019A02941A6B42F004021A631A6B02F077
:1007A00004020292029A03941A6B42F080021A63C6
:1007B0001A6B02F080020392039A04941A6B42F0BF
:1007C00001021A631A6B02F001020492049A059462
:1007D0001A6B42F002021A631A6B02F002020592CF
:1007E000059A06941A6B42F008021A631B6B03F019
:1007F00008030693069BDFF8F8B02246012158460D
:1008000001F0FFFFDFF8ECA022461021504601F076
:10081000F8FF364F01224FF4FE41384601F0F1FF58
:10082000224648F20101384601F0EBFFDFF8C8909C
:1008300022464FF42441484601F0E3FFDFF8BC8034
:1008400022464021404601F0DCFF1E230793089416
:10085000012609962946384601F0D6FE6023079303
:100860000894022309932946384601F0CDFE0796E5
:10087000089609940A942946584601F0C5FE1023AB
:100880000793089609940A942946504601F0BCFE45
:100890004FF601730793089609940A94294638463F
:1008A00001F0B2FE4FF424430793089609940A948A
:1008B0002946484601F0A8FE4FF4007307934FF411
:1008C0008813089309942946404601F09DFE402371
:1008D0000793089609940A942946404601F094FE2D
:1008E0000DB0BDE8F08F00BF00380240001002409C
:1008F000000002400008024000040240000C0240D8
:10090000124A12F0070F1ED0D11D21F00701C1F5C8
:10091000004313440A460E4802600021416013441C
:10092000083B23F007030B48036059601960991ACC
:1009300051601360084B1960084B1960084B4FF069
:1009400000421A6070474FF40043E4E7D0080020EB
:10095000C8080020C4080020BC080020C0080020EF
:10096000B0080020164B1A461B688342FBD351681F
:1009700002EB010C844509D0416800EB010C634592
:1009800009D00360904219D010607047406801445C
:1009900051601046F0E710B40A4C2468A3420BD013
:1009A0005B681944416013681B680360904200D083
:1009B00010605DF8044B70470460F7E7704700BFB4
:1009C000C8080020C408002038B5044604F0B8F96F
:1009D000384B1B68B3B1384B1B681C4250D1002CFC
:1009E00050D004F1080214F0070F02D022F00702E1
:1009F0000832002A55D0314B1B68934253D33049FB
:100A00000C6804E0FFF77CFFE5E721461C466368BD
:100A1000934202D22368002BF7D1264B1B68A342D6
:100A200043D00D68083523680B6063689B1A102B50
:100A300010D9A01810F0070F08D04FF0500383F31F
:100A40001188BFF36F8FBFF34F8FFEE74360626083
:100A5000FFF788FF626819490B689B1A0B601949F8
:100A600009688B4201D217490B60134B1B68134373
:100A7000636000232360144A13680133136002E0AB
:100A8000002500E0002504F0F5F915F0070F0ED061
:100A90004FF0500383F31188BFF36F8FBFF34F8F75
:100AA000FEE70025EFE70025EDE70025EBE7284608
:100AB00038BD00BFC4080020B0080020C0080020D6
:100AC000C8080020BC080020B8080020002834D046
:100AD00038B50446A0F1080550F8043C174A1268DE
:100AE000134208D14FF0500383F31188BFF36F8F87
:100AF000BFF34F8FFEE750F8081C41B14FF0500391
:100B000083F31188BFF36F8FBFF34F8FFEE723EAA4
:100B1000020340F8043C04F013F954F8041C084A9A
:100B200013680B4413602846FFF71CFF054A13683F
:100B30000133136004F09EF938BD7047B0080020FF
:100B4000C0080020B408002008B50B480B4B036018
:100B50000B4B436000238360C3604FF4804202610B
:100B600043618361C361036201F052FE00B908BDB5
:100B700000F092F8FBE700BFD0880020005400404E
:100B8000801A060030B589B00023039304930593BF
:100B9000069307930268144B9A4201D009B030BD06
:100BA00000250195114C236B43F002032363236B53
:100BB00003F002030193019BC023039312230493C8
:100BC000032306930423079303A9094801F01CFD9E
:100BD0000295236C43F400132364236C03F4001385
:100BE0000293029BDAE700BF005400400038024045
:100BF0000004024000F1080343604FF0FF328260BE
:100C0000C3600361002303607047002303617047E2
:100C100043684B609A688A60516099600861036814
:100C200001330360704730B40D68B5F1FF3F11D058
:100C300000F108031C465B681A68AA42FAD9636887
:100C40004B6099608C6061600861036801330360E8
:100C500030BC70470469F2E70369416882688A60C2
:100C6000416851605A68824206D0002202611A68C7
:100C7000013A1A601868704782685A60F5E7000008
:100C800008B50268034B9A4200D008BD01F058F83D
:100C9000FBE700BF0014004072B6FEE710B594B049
:100CA00008AC30220021204604F0ADFF002303935E
:100CB00004930593069307930193214A116C41F025
:100CC00080511164126C02F080520192019A0293D9
:100CD0001C4B1A6842F480421A601B6803F480437C
:100CE0000293029B052308934FF480330993012359
:100CF0000A9302230E934FF480020F920422109263
:100D0000A8221192129307231393204601F080FE2C
:100D100090B90F23039302230493002305934FF408
:100D2000A05306934FF480530793052103A802F0C4
:100D3000D9F818B914B010BDFFF7AEFFFFF7ACFF3C
:100D4000003802400070004008B500F0DFFFFFF7F8
:100D5000A5FFFFF709FDFFF715FCFFF753FAFFF7B3
:100D600099FBFFF7F1FE00F0EFFE00F077FF04F0D3
:100D700097FA04F07BFB04F017FE04F0FBFD04F08F
:100D8000C7FAFFF7D9FAFFF7DFFCFFF7E7FAFEE74C
:100D90000D4B1860596000221A72012159720A2104
:100DA0009972DA72DA601A745A745A8259619A61C5
:100DB000DA615A21198459845A621A850268D36803
:100DC00043F00103D360704724890020024B58622E
:100DD00019855A841A847047248900200B4B1B7C88
:100DE000022B0ED063B9094B5B694BB1074B5B6AB1
:100DF00033B1064B00225A829A61DA6101221A74D9
:100E00007047024B01221A74704700BF24890020EA
:100E100010B5064C6168206803F0EEF800232372D9
:100E2000E3606382A361E361237410BD2489002021
:100E3000014B5861704700BF24890020642800D905
:100E40006420014B9872704724890020014B187C64
:100E5000704700BF2489002010B52DED028B82B0B1
:100E60000191C3085B0007EE903AB8EEE78AF7EE0F
:100E7000007AB4EEE78AF1EE10FA65D400F00704C8
:100E8000654B1C725968186803F0B6F8002C57D0EF
:100E9000614BDB7A2344DAB25BB2072B57DD073AAA
:100EA00053B238EE088A5D4A02EB830393ED007A71
:100EB00027EE087ADFED5A7AC7EE876AF7EE007AF6
:100EC00076EEE76A544A10680168FCEEE67A17EE9F
:100ED000903A9BB2CB62C3605168002940D1937AAB
:100EE000504AA2FB03429C1A02EB54029209652469
:100EF00004FB1233DBB207EE903AF8EEE77A67EEC6
:100F0000A67A9FED496AC7EE866A0368FCEEE66A38
:100F1000C3ED0D6AFCEEC87A17EE903A3E4A537262
:100F2000DDED017AF8EEE77A67EE877ADFED3F6A6A
:100F300087EEA67ABCEEC77A82ED037A02F0A6FFAE
:100F400002B0BDEC028B10BDB0EE678A96E7002BB5
:100F5000A9DC073253B2F6EE007A28EE278AA2E720
:100F600004291ED0082939D02B4B9B7A2D4AA2FB8D
:100F700003429C1A02EB54029209652404FB1233CB
:100F8000DBB207EE903AF8EEE77A67EEA67A9FEDCD
:100F9000266AC7EE866A0368FCEEE66AC3ED106A4D
:100FA000B8E71D4B9B7A1F4AA2FB03429C1A02EB37
:100FB00054029209652404FB1233DBB207EE903A27
:100FC000F8EEE77A67EEA67A9FED176AC7EE866AB3
:100FD0000368FCEEE66AC3ED0E6A9BE70E4B9B7A54
:100FE000104AA2FB03429C1A02EB540292096524A8
:100FF00004FB1233DBB207EE903AF8EEE77A67EEC5
:10100000A67A9FED096AC7EE866A0368FCEEE66A77
:10101000C3ED0F6A7EE700BF24890020D45F00087B
:101020000024744957866F440000C84200007A4487
:101030002B4B1B7C012B05D1294B5B6A13B1284B31
:101040005B6903B9704770B500F086FE0546244B16
:10105000DB6943B9224B5A694FF47A7101FB0202F2
:10106000DA6100225A821E4BDB69AB4232D91C4B3B
:101070009B69AB422DD81A4B5A8A1B8D9A4205D3D5
:10108000174B5B7C4BB3164B00225A82144E726A8C
:10109000738A591C718252F82300124BA3FB002360
:1010A0005A09718CC3F34F1401FB04F4338CB4FB65
:1010B000F3F4642303FB1200A4B204EBC4010A4B53
:1010C00083FB0131C1F38F01C0B2FFF7C5FE254498
:1010D000B56170BDFFF79CFEFBE7FFF799FEF8E7EF
:1010E000248900201F85EB516766666608B50B4BA7
:1010F0001B681BB102681B689A4200D008BD074BF1
:10110000DB6833B1054A127A1AB1013B034AD36056
:10111000F4E7024B596802F06FFFEFE724890020E3
:1011200082B0002301930D4B1B68B3F1FF3F08D041
:101130004FF0500383F31188BFF36F8FBFF34F8FCE
:10114000FEE74FF0500383F31188BFF36F8FBFF3B7
:101150004F8F019B002BFCD002B07047A8000020ED
:1011600008480068006880F308884FF0000080F3AA
:10117000148862B661B6BFF34F8FBFF36F8F00DF85
:1011800000BF000008ED00E0DFF80C00016841F44A
:10119000700101607047000088ED00E04FF080733F
:1011A00040F8043C21F0010140F8081C054B40F8D0
:1011B0000C3C40F8202C6FF0020340F8243C4438EB
:1011C000704700BF2111000800000000000000006F
:1011D000074B19680868B0E8F04F80F30988BFF33F
:1011E0006F8F4FF0000080F311887047AFF30080DD
:1011F000588F00204FF0500383F31188BFF36F8F97
:10120000BFF34F8F0B4A136801331360012B00D0DB
:1012100070474FF0E023D3F8043D13F0FF0FF7D0F1
:101220004FF0500383F31188BFF36F8FBFF34F8FDD
:10123000FEE700BFA8000020094B1B6843B94FF030
:10124000500383F31188BFF36F8FBFF34F8FFEE717
:10125000013B034A13600BB983F31188704700BF49
:10126000A8000020000000000000000000000000B6
:10127000EFF30980BFF36F8F154B1A681EF0100F44
:1012800008BF20ED108A20E9F04F10602DE9090019
:101290004FF0500080F31188BFF34F8FBFF36F8F73
:1012A00003F08AFE4FF0000080F3118809BC196832
:1012B0000868B0E8F04F1EF0100F08BFB0EC108ABD
:1012C00080F30988BFF36F8F704700BFAFF30080D2
:1012D000588F002008B54FF0500383F31188BFF3F7
:1012E0006F8FBFF34F8F03F039FD28B14FF0E0232C
:1012F0004FF08052C3F8042D002383F3118808BDFA
:101300004FF0E022002313619361054B1B680549F0
:10131000A1FB03139B09013B536107231361704732
:10132000B4000020D34D62104FF0E023D3F8002D1D
:101330003D4B9A421CD04FF0E023D3F8002D3B4B9D
:101340009A421ED030B583B0394B1A78D2B201928E
:10135000FF221A701B78DBB28DF803309DF8033042
:1013600003F05003334A1370334B07221A601BE01B
:101370004FF0500383F31188BFF36F8FBFF34F8F8C
:10138000FEE74FF0500383F31188BFF36F8FBFF375
:101390004F8FFEE7284A1368013B13609DF8033026
:1013A0005B00DBB28DF803309DF8033013F0800F43
:1013B000F0D1214B1B68032B08D04FF0500383F36F
:1013C0001188BFF36F8FBFF34F8FFEE71B021A4ADE
:1013D000136003F4E0631360019BDBB2144A1370E3
:1013E0004FF0E024D4F8203D43F47003C4F8203DCE
:1013F000D4F8203D43F07043C4F8203DFFF780FF50
:1014000000250E4B1D60FFF7BFFED4F8343F43F0BC
:101410004043C4F8343FFFF7A3FE03F0CDFDFFF7D0
:101420007FFE284603B030BD71C20F4170C20F412C
:1014300000E400E05489002050890020A80000202A
:10144000EFF305830F2B0ED9114A9A5C114B1B78D1
:101450009A4208D24FF0500383F31188BFF36F8F85
:10146000BFF34F8FFEE74FF0E023D3F80C3D03F4BA
:10147000E063094A1268934208D94FF0500383F39E
:101480001188BFF36F8FBFF34F8FFEE7704700BF28
:10149000F0E300E0548900205089002010B5044694
:1014A000FFF7A8FEA26BE36B9A4204D00024FFF77B
:1014B000C3FE204610BD0124F9E710B50446FFF72E
:1014C00099FEA36B23B90124FFF7B6FE204610BD99
:1014D0000024F9E770B504461546866B026C5AB9CC
:1014E00003681BB100200136A66370BD806803F05D
:1014F0008FFE0023A360F6E76DB9406804F0B0FBEF
:101500006368226C13446360A268934219D3236812
:1015100063602846E7E7C06804F0A2FBE368226C3A
:1015200051429B1AE3602268934202D2A3680B44A3
:10153000E360022D01D00020D5E726B1013E002056
:10154000D1E72846CFE70020CDE70346026C6AB119
:1015500010B50846D9681144D9609C68A14201D3EE
:101560001968D960D96804F07BFB10BD704738B5A5
:101570000546FFF73FFE95F8454064B201E0013CA7
:1015800064B2002C0ADD6B6A43B105F1240003F05C
:1015900093FD0028F3D003F025FEF0E7FF2385F844
:1015A0004530FFF749FEFFF725FE95F8444064B249
:1015B00001E0013C64B2002C0ADD2B6943B105F166
:1015C000100003F079FD0028F3D003F00BFEF0E7E4
:1015D000FF2385F84430FFF72FFE38BD38B5E0B162
:1015E0000D460446FFF706FE2368E26B216C01FB03
:1015F0000230A0600020A0636360013A02FB013367
:10160000E360FF2384F8443084F84530FDB9236952
:1016100063B9FFF711FE012038BD4FF0500383F38B
:101620001188BFF36F8FBFF34F8FFEE704F11000F7
:1016300003F042FD0028ECD04FF0E0234FF0805241
:10164000C3F8042DBFF34F8FBFF36F8FE1E704F1B1
:101650001000FFF7CFFA04F12400FFF7CBFAD8E728
:1016600038B51D46049C0B4649B92460E0632364E9
:1016700001212046FFF7B2FF84F84C5038BD2260AC
:10168000F4E740B94FF0500383F31188BFF36F8F35
:10169000BFF34F8FFEE710B584B01C46844653B1AC
:1016A00092B189B94FF0500383F31188BFF36F8F64
:1016B000BFF34F8FFEE74FF0500383F31188BFF362
:1016C0006F8FBFF34F8FFEE76AB150230393039BE5
:1016D000502B13D04FF0500383F31188BFF36F8F5B
:1016E000BFF34F8FFEE70029EFD04FF0500383F395
:1016F0001188BFF36F8FBFF34F8FFEE7039B01236A
:1017000084F8463000949DF818306046FFF7A8FF33
:10171000204604B010BDF0B585B0019288B10F46E7
:101720001D460446B1B1022D20D1E36B012B1DD023
:101730004FF0500383F31188BFF36F8FBFF34F8FC8
:10174000FEE74FF0500383F31188BFF36F8FBFF3B1
:101750004F8FFEE7036C002BE5D04FF0500383F36F
:101760001188BFF36F8FBFF34F8FFEE703F040FD8B
:10177000064658B9019B002B48D04FF0500383F325
:101780001188BFF36F8FBFF34F8FFEE700263DE058
:101790002A4639462046FFF79DFE636A7BB948B169
:1017A0004FF0E0234FF08052C3F8042DBFF34F8F6A
:1017B000BFF36F8FFFF740FD012005B0F0BD04F1CE
:1017C000240003F079FC0028F4D04FF0E0234FF020
:1017D0008052C3F8042DBFF34F8FBFF36F8FE9E73B
:1017E000FFF72AFD0020E8E702A803F0ABFC012682
:1017F00019E0002384F8443021E0002384F84530C8
:1018000023E02046FFF7B3FE03F034FBFFF7F2FCC2
:10181000A26BE36B9A42BBD3022DB9D0019B002B84
:10182000DED0002EE0D0FFF707FD03F089FAFFF7C6
:10183000E1FC94F8442052B2B2F1FF3FD9D094F8C1
:10184000452052B2B2F1FF3FD7D0FFF7F5FC01A916
:1018500002A803F083FCD8B92046FFF71FFE00283A
:10186000CFD0019904F1100003F0F2FB2046FFF7FE
:101870007EFE03F0FFFA0028C8D14FF0E0234FF0BE
:101880008052C3F8042DBFF34F8FBFF36F8FBDE7B6
:101890002046FFF76CFE03F0EDFA00208DE72DE9FE
:1018A000F84390B10F4616461C460546B1B1022CCE
:1018B00020D1EB6B012B1DD04FF0500383F3118827
:1018C000BFF36F8FBFF34F8FFEE74FF0500383F3EB
:1018D0001188BFF36F8FBFF34F8FFEE7036C002BB0
:1018E000E5D04FF0500383F31188BFF36F8FBFF340
:1018F0004F8FFEE7FFF7A4FDEFF311884FF0500381
:1019000083F31188BFF36F8FBFF34F8FAA6BEB6B1D
:101910009A4206D3022C04D0002088F31188BDE837
:10192000F88395F845904FFA89F9AB6B2246394612
:101930002846FFF7CFFDB9F1FF3F06D009F10103BB
:101940005BB285F845300120E7E76B6A0BB90120EF
:10195000E3E705F1240003F0AFFB18B126B1012045
:101960003060DAE70120D8E70120D6E7F0B585B08E
:10197000019290B10F460446C1B103F039FC06460E
:1019800000BB019B002B5ED04FF0500383F3118806
:10199000BFF36F8FBFF34F8FFEE74FF0500383F31A
:1019A0001188BFF36F8FBFF34F8FFEE7036C002BDF
:1019B000E3D04FF0500383F31188BFF36F8FBFF371
:1019C0004F8FFEE700263EE039462046FFF7BDFD7B
:1019D000013DA563236923B9FFF72EFC012005B063
:1019E000F0BD04F1100003F067FB0028F4D04FF0C5
:1019F000E0234FF08052C3F8042DBFF34F8FBFF3A5
:101A00006F8FE9E7FFF718FC0020E8E702A803F072
:101A100099FB012621E0002384F8443029E00023CB
:101A200084F845302BE02046FFF7A1FD03F022FAB1
:101A300009E02046FFF79BFD03F01CFA2046FFF764
:101A40003CFD00283FD1FFF7D5FBA56B002DBBD196
:101A5000019B002BD6D0002ED8D0FFF7EDFB03F072
:101A60006FF9FFF7C7FB94F844305BB2B3F1FF3F67
:101A7000D1D094F845305BB2B3F1FF3FCFD0FFF740
:101A8000DBFB01A902A803F069FB0028D1D12046A5
:101A9000FFF713FD0028C6D0019904F1240003F0DC
:101AA000D7FA2046FFF763FD03F0E4F90028CAD116
:101AB0004FF0E0234FF08052C3F8042DBFF34F8F57
:101AC000BFF36F8FBFE7002089E700000023072BDB
:101AD0000CD8074A52F833200AB10133F7E7044A19
:101AE00042F8331002EBC30250607047704700BFEA
:101AF0005889002070B504460D461646FFF77AFB5C
:101B000094F844305BB2B3F1FF3F0DD094F8453008
:101B10005BB2B3F1FF3F0BD0FFF78EFBA36B5BB162
:101B20002046FFF724FD70BD002384F84430EDE724
:101B3000002384F84530EFE73246294604F12400BB
:101B400003F09EFAECE7000010B590B000240B946F
:101B50000C940D940E940F940A9428222146684602
:101B600004F051F829482A4B036044607F238360C6
:101B7000FF23C36004614461846101F0A3FB00287A
:101B800037D100238DF82C308DF82D308DF82E3084
:101B90000E930F9301220BA91C4801F0EDFB58BBDB
:101BA00001228DF828208DF829208DF82A20002385
:101BB0008DF82B300AA9154801F03EFCF8B9002336
:101BC0008DF800308DF801308DF8023001930393C9
:101BD000049305930693079301228DF820204FF478
:101BE000807309936946094801F074FC50B910B03C
:101BF00010BDFFF751F8C4E7FFF74EF8D0E7FFF745
:101C00004BF8DCE7FFF748F8F1E700BF98890020C0
:101C10000028004000B585B0002300930193029393
:101C2000039302680B4B9A4202D005B05DF804FBA7
:101C3000022300934FF480730393684601F046FA41
:101C400020B9054B0122C3F83C2EEEE7FFF724F83C
:101C5000F7E700BF002800400000474208B50D48E4
:101C60000D4B03604FF48273436000238360C360B5
:101C7000036143614FF400728261C3610362436296
:101C800083620A23C36201F0E1FC00B908BDFFF7DB
:101C900003F8FBE7B88900200030014000B589B0A7
:101CA0000023039304930593069307930268154B4F
:101CB0009A4202D009B05DF804FB0021019103F5BE
:101CC00084335A6C42F480525A645A6C02F4805243
:101CD0000192019A02911A6B42F001021A631B6B86
:101CE00003F001030293029BE02303930223049376
:101CF000032306930523079303A9034800F084FCFC
:101D0000D8E700BF003001400000024008B50B4B8F
:101D10001A6842F400721A601A6842F480621A600B
:101D20001A6842F480721A60032000F0EDF90F2067
:101D300002F018FA00F04AFE002008BD003C024004
:101D4000034A1168034B1B780B441360704700BFB4
:101D5000108A0020AC000020014B1868704700BFBB
:101D6000108A00204A4B5A6822F440325A605A685E
:101D700041680A435A600268536823F480735360D1
:101D800002685368016943EA01235360026853689B
:101D900023F0407353600268536881680B435360BB
:101DA0000268936823F40063936002689368C168D3
:101DB0000B439360826A374B9A4257D0026893680C
:101DC00023F07063936002689368816A0B439360A9
:101DD0000268936823F04053936002689368C16A75
:101DE0000B4393600268936823F0020393600268D8
:101DF0009368017E43EA4103936090F82030002B02
:101E00003FD00268536843F400635360026853682C
:101E100023F46043536001684B68426A013A43EA25
:101E200042334B600268D36A23F47003D3620168C3
:101E3000CB6AC269013A43EA0253CB6202689368F3
:101E400023F4007393600268936890F8301043EABB
:101E5000412393600268936823F48063936002686F
:101E60009368416943EA81239360704702689368ED
:101E700023F0706393600268936823F0405393608B
:101E8000B0E70268536823F400635360CAE700BFF9
:101E9000002301400100000F38B310B50446036C65
:101EA00043B1236C13F0100F0BD00120002384F8F2
:101EB0003C3010BDFEF7DEF90023636484F83C304B
:101EC000EFE7236C23F4885323F0020343F002036B
:101ED00023642046FFF746FF00206064236C23F054
:101EE000030343F001032364E0E70120704700008F
:101EF00030B482B00022019290F83C20012A00F018
:101F0000B6800346012280F83C200A68092A40D99D
:101F10000468E06892B202EB42021E3A4FF0070CEE
:101F20000CFA02F220EA0202E2601C68E0680A8809
:101F300002EB42021E3A8D6805FA02F20243E260A9
:101F40004A68062A3CD81C68606B02EB8202053A9C
:101F50004FF01F0C0CFA02F220EA020262631C68C6
:101F6000606B4A6802EB8202053AB1F800C00CFAD5
:101F700002F20243626318683E4A904250D01868E9
:101F80003C4A904255D0002083F83C0002B030BC5F
:101F900070470468206992B202EB42024FF0070CCE
:101FA0000CFA02F220EA020222611C6820690A8807
:101FB00002EB42028D6805FA02F202432261BFE79A
:101FC0000C2A16D81D68286B02EB8202233A1F24C4
:101FD00004FA02F220EA02022A631D68286B4A68AA
:101FE00002EB8202233A0C8804FA02F202432A63CB
:101FF000C1E71D68E86A02EB8202413A1F2404FA35
:1020000002F220EA0202EA621D68E86A4A6802EB0C
:102010008202413A0C8804FA02F20243EA62AAE719
:102020000A68122AABD11448426842F48002426026
:10203000A5E70A68103A012AA5D80F48426842F479
:10204000000242600A68102A9DD10C4A12680C49AD
:10205000A1FB0212920C02EB82025200019202E0FA
:10206000019A013A0192019A002AF9D18BE70220E4
:102070008CE700BF0020014000230140B400002095
:1020800083DE1B43002807DB00F01F024009012309
:102090009340024A42F82030704700BF00E100E060
:1020A000002808DB0901C9B200F1604000F5614079
:1020B00080F80013704700F00F000901C9B2014B0E
:1020C0001954704714ED00E000B500F00700C0F1AE
:1020D000070CBCF1040F28BF4FF0040C031D062BA6
:1020E0000FD9C31E4FF0FF3E0EFA0CF021EA00019B
:1020F00099400EFA03FE22EA0E0241EA02005DF860
:1021000004FB0023EEE70000074AD36823F4E063F2
:102110001B041B0C000200F4E060034343F0BF63A8
:1021200043F40033D360704700ED00E010B504467F
:10213000054BD868C0F30220FFF7C6FF01462046D2
:10214000FFF7AEFF10BD00BF00ED00E008B5FFF7E0
:1021500099FF08BD70B110B50446037933B102236D
:102160002371002020610123237110BD4371FEF70C
:10217000B3F9F4E70120704748B3844649B3437983
:10218000012B28D010B54FF0010E80F805E0022396
:1021900003710468206802F0100240F6FE73934059
:1021A00020EA03000B6849680B4393400343236014
:1021B000DCF800000368C02101FA02F223EA0203FE
:1021C00003608CF804E000208CF8050010BD0120AD
:1021D00070470120704702207047000010B4036868
:1021E000D9B210390A4AA2FB01421209094CA25C79
:1021F000C2655F2907D96FF3090304338365806DD6
:102200005DF8044B70476FF309038365F7E700BF80
:10221000ABAAAAAAF45F0008836A826992B9012B6B
:102220000AD0022B02D00BB100207047C36A13F012
:10223000807F28D100207047C36AB3F1C07F24D0CB
:1022400000207047B2F5005F09D0022B25D9032B7F
:1022500025D1C36A13F0807F23D100207047032B60
:1022600003D8DFE803F01404140A00207047C36A9F
:1022700013F0807F0DD100207047C36AB3F1C07F97
:1022800009D00020704701207047012070470120CD
:1022900070470120704701207047012070470020DF
:1022A000704701207047000070B50446FFF754FDE9
:1022B000002C5BD00546022384F83530002384F8D7
:1022C00034302268136823F00103136023681A680E
:1022D00012F0010F0AD0FFF73FFD431B052BF5D984
:1022E00020236365032084F8350070BD1A682049F7
:1022F00011406268A0680243E0680243206902431B
:1023000060690243A0690243E0690243206A024314
:102310000A43616A04291ED01A602668756925F08F
:102320000705636A1D43042B07D1A36A1D43E36AB3
:102330001BB12046FFF770FF90B975612046FFF78B
:102340004DFFE26D3F2393408360002060650123D1
:1023500084F83530C9E7E16A206B01430A43DBE7C3
:1023600040236365012084F83500BEE70120BCE707
:102370003F8010F070B50446866DFFF7EDFC94F8D1
:102380003530022B06D080236365002384F8343077
:10239000012070BD05462268136823F01603136000
:1023A0002268536923F080035361236CE3B12268F0
:1023B000136823F0080313602268136823F00103F5
:1023C000136023681B6813F0010F11D0FFF7C4FCE2
:1023D000431B052BF5D920236365032084F83500C2
:1023E000002384F83430D4E7A36C002BDFD1E3E77B
:1023F000E26D3F239340B360012384F83530002021
:1024000084F83400C5E790F83530022B03D08023E0
:10241000436501207047052380F835300268136852
:1024200023F001031360002070470000F0B583B073
:10243000044600230193724B1D68724BA3FB0535C4
:10244000AD0A876D3E68C26D08239340334210D0B9
:1024500003681A6812F0040F0BD01A6822F0040205
:102460001A60C26D08239340BB60436D43F00103C3
:102470004365E26D01239340334209D022685269DB
:1024800012F0800F04D0BB60636D43F002036365FC
:10249000E26D04239340334209D02268126812F09F
:1024A000020F04D0BB60636D43F004036365E26D0B
:1024B00010239340334224D02268126812F0080F90
:1024C0001FD0BB6023681A6812F4802F0DD01B68E0
:1024D00013F4002F04D1236C9BB12046984710E0E1
:1024E000A36C73B1204698470BE01A6812F4807F02
:1024F00003D11A6822F008021A60236C0BB120463F
:102500009847E26D20239340334254D022681268EA
:1025100012F0100F4FD0BB6094F83530052B0ED061
:1025200023681A6812F4802F33D01B6813F4002F2D
:102530002AD1636C002B3ED0204698473BE02268AE
:10254000136823F0160313602268536923F0800395
:102550005361236CA3B12268136823F0080313604E
:10256000E26D3F239340BB60012384F835300023A4
:1025700084F83430236D002B3FD0204698473CE050
:10258000A36C002BE7D1EBE7E36BA3B120469847A0
:1025900011E01A6812F4807F09D11A6822F0100243
:1025A0001A60012384F83530002384F83430E36B5B
:1025B0000BB120469847636DFBB1636D13F0010FBB
:1025C00017D0052384F835302268136823F00103FF
:1025D0001360019B01330193AB4204D823681B684D
:1025E00013F0010FF5D1012384F83530002384F86E
:1025F0003430E36C0BB12046984703B0F0BD00BF08
:10260000B4000020B5814E1B00230F2B00F2E9809F
:1026100070B582B065E085684FEA430E032404FA82
:102620000EF425EA0405CC6804FA0EF42C43846009
:10263000446824EA02044A68C2F300129A40224322
:1026400042605CE0DC08083450F8242003F0070501
:10265000AD004FF00F0E0EFA05FE22EA0E0E0A69CB
:10266000AA4042EA0E0240F824205CE0072200E083
:10267000002202FA0EF22A4302345A4D45F8242071
:10268000594A94686FEA0C0224EA0C054E6816F465
:10269000801F01D04CEA0405534CA560E46802EAAF
:1026A00004054E6816F4001F01D04CEA04054E4C98
:1026B000E560646802EA04054E6816F4003F01D044
:1026C0004CEA0405484C6560246822404D6815F4C6
:1026D000803F01D04CEA0402434C226001330F2BAF
:1026E0007DD801229A400C6804EA020C32EA040404
:1026F000F4D14C6804F00304013C012C8BD94A68E6
:1027000002F00302032A09D0C4685D000322AA4034
:1027100024EA02048A68AA402243C2604A6802F09E
:102720000302022A8ED004684FEA430E032202FA03
:102730000EF224EA02044A6802F0030202FA0EF2E0
:10274000224302604A6812F4403FC7D0002201923F
:10275000264A546C44F480445464526C02F480421F
:102760000192019A9C08A51C1E4A52F8255003F0BC
:10277000030E4FEA8E0E0F2202FA0EF225EA020530
:102780001B4A90423FF474AF02F5806290421AD027
:1027900002F58062904218D002F58062904216D015
:1027A00002F58062904214D002F58062904212D00D
:1027B00002F58062904210D002F5806290423FF4B0
:1027C00055AF082255E7012253E7022251E70322C1
:1027D0004FE704224DE705224BE7062249E702B006
:1027E00070BD704700380140003C01400038024095
:1027F000000002400369194201D001207047002007
:1028000070470AB181617047090481617047000017
:10281000002800F0CC8070B5044690F83D30002BC5
:1028200077D0242384F83D302268136823F0010315
:1028300013602268136843F400431360226813682E
:1028400023F40043136000F003FC62685A4B9A4281
:1028500064D85A4B98428CBF00230123002B40F0D0
:10286000A8805749A1FB00318B0C25686A6822F0CB
:102870003F0242EA91426A6021680A6A22F03F02FE
:1028800066684D4DAE424FD8013313430B62216849
:10289000CA6922F44F4222F0FF026568464B9D420E
:1028A0004CD8431E6D00B3FBF5F3013340F6FC70CA
:1028B000034278D0C3F30B031A43CA6121680B6843
:1028C00023F0C003E269206A024313430B602168CE
:1028D0008B6823F4034323F0FF032269E06802437B
:1028E00013438B602168CB6823F0FF036269A06902
:1028F00002431343CB602268136843F00103136063
:1029000000202064202384F83D30206384F83E00BA
:1029100070BD80F83C30FEF735F982E7294B9842CC
:102920008CBF0023012399E74FF4967505FB03F351
:10293000254DA5FB03539B090133A6E7A668BEB945
:10294000431E05EB450CB3FBFCF30133C3F30B0350
:10295000B3FA83F35B0943BBC6B9431E05EB4505D8
:10296000B3FBF5F30133C3F30B0343F40043A3E7D5
:10297000431E05EB850C0CEB8C0CB3FBFCF3013315
:10298000C3F30B03B3FA83F35B09E4E7431E05EBE0
:10299000850505EB8505B3FBF5F30133C3F30B03A5
:1029A00043F4404388E7042386E7012384E70120BA
:1029B00070470120ACE700BFA08601007F841E00A5
:1029C00083DE1B43FF083D00D34D621000B583B08A
:1029D000002200920D4B596C41F480415964596CAE
:1029E00001F48041009100990192196C41F08051ED
:1029F00019641B6C03F080530193019B0F216FF04E
:102A00000100FFF793FB03B05DF804FB00380240C0
:102A1000002800F0E08170B582B00446036813F02E
:102A2000010F3BD09F4B9B6803F00C03042B2CD071
:102A30009C4B9B6803F00C03082B21D06368B3F513
:102A4000803F4FD0B3F5A02F52D0964B1A6822F496
:102A500080321A601A6822F480221A606368002BA0
:102A600050D0FFF779F905468E4B1B6813F4003FF1
:102A700014D1FFF771F9401B6428F5D90320B1E1A7
:102A8000884B5B6813F4800FD8D0864B1B6813F417
:102A9000003F03D06368002B00F09F81236813F090
:102AA000020F54D07F4B9B6813F00C0F3ED07D4B30
:102AB0009B6803F00C03082B33D0E368002B68D02D
:102AC000794B01221A60FFF747F90546754B1B68E1
:102AD00013F0020F54D1FFF73FF9401B0228F5D93C
:102AE00003207FE16F4A136843F480331360B5E736
:102AF0006C4B1A6842F480221A601A6842F48032E1
:102B00001A60ABE7FFF728F90546664B1B6813F41C
:102B1000003FC3D0FFF720F9401B6428F5D90320FC
:102B200060E1604B5B6813F4800FC6D15D4B1B689E
:102B300013F0020F03D0E368012B40F05081594A93
:102B4000136823F0F803216943EAC1031360236883
:102B500013F0080F42D063696BB3534B0122C3F8E3
:102B6000802EFFF7F9F805464E4B5B6F13F0020F0E
:102B700034D1FFF7F1F8401B0228F5D9032031E1E9
:102B8000484A136823F0F803216943EAC10313603C
:102B9000DDE7454B00221A60FFF7DEF80546414BA2
:102BA0001B6813F0020FD2D0FFF7D6F8401B0228A3
:102BB000F5D9032016E13C4B0022C3F8802EFFF725
:102BC000CBF80546374B5B6F13F0020F06D0FFF7CB
:102BD000C3F8401B0228F5D9032003E1236813F052
:102BE000040F77D02F4B1B6C13F0805F33D1002381
:102BF00001932C4B1A6C42F080521A641B6C03F048
:102C000080530193019B0125284B1B6813F4807F9F
:102C100023D0A368012B34D0052B38D0214B1A6F59
:102C200022F001021A671A6F22F004021A67A368E1
:102C3000002B3DD0FFF790F806461A4B1B6F13F0A0
:102C4000020F46D1FFF788F8801B41F28833984283
:102C5000F3D90320C6E00025D6E7144A136843F4ED
:102C600080731360FFF778F80646104B1B6813F467
:102C7000807FCED1FFF770F8801B0228F5D90320A2
:102C8000B0E0084A136F43F001031367CFE7054B29
:102C90001A6F42F004021A671A6F42F001021A67B3
:102CA000C5E700BF00380240000047420070004006
:102CB000FFF752F80646524B1B6F13F0020F08D075
:102CC000FFF74AF8801B41F288339842F3D903207A
:102CD00088E0EDB9A369002B00F08380484A926830
:102CE00002F00C02082A51D0022B17D0454B0022CB
:102CF0001A66FFF731F80446414B1B6813F0007F5A
:102D000042D0FFF729F8001B0228F5D9032069E01B
:102D10003B4A136C23F080531364DBE7394B0022EA
:102D20001A66FFF719F80546354B1B6813F0007F4C
:102D300006D0FFF711F8401B0228F5D9032051E017
:102D4000E369226A1343626A43EA8213A26A520861
:102D5000013A43EA0243E26A43EA0263284A5360C3
:102D6000284B01221A66FEF7F7FF0446244B1B6826
:102D700013F0007F06D1FEF7EFFF001B0228F5D904
:102D800003202FE000202DE000202BE0012B2BD092
:102D90001B4B5B6803F48001E269914226D103F08A
:102DA0003F02216A8A4223D1616A47F6C0721A4003
:102DB000B2EB811F1ED103F44031A26A5208013ADE
:102DC000B1EB024F18D103F07063E26AB3EB026F0C
:102DD00014D1002006E001207047012002E001200C
:102DE00000E0002002B070BD0120FBE70120F9E700
:102DF0000120F7E70120F5E70120F3E70120F1E7E3
:102E0000003802400000474208B5334B9B6803F08E
:102E10000C03042B5BD0082B5BD12F4B5A6802F0BC
:102E20003F025B6813F4800F2CD02B4B5868C0F323
:102E300088104FEA401CBCEB000C6EEB0E0E4FEA04
:102E40008E1343EA9C634FEA8C11B1EB0C0163EBE8
:102E50000E03DB0043EA5173C90011EB000C43F190
:102E60000003590200234FEA4C2041EADC51FDF7F0
:102E70008FF9194B5B68C3F3014301335B00B0FB6F
:102E8000F3F008BD144B5868C0F388104FEA401C9B
:102E9000BCEB000C6EEB0E0E4FEA8E1343EA9C6304
:102EA0004FEA8C11B1EB0C0163EB0E03DB0043EA3C
:102EB0005173C90011EB000C43F100039902002388
:102EC0004FEA8C2041EA9C51FDF762F9D1E70348B3
:102ED000D7E70348D5E700BF0038024000127A0068
:102EE0000024F400002800F09B8070B50D460446D5
:102EF0004F4B1B6803F007038B4208D2CBB24C4AFE
:102F00001370136803F007038B4240F08B80236833
:102F100013F0020F17D013F0040F04D0454A936842
:102F200043F4E0539360236813F0080F04D0414A40
:102F3000936843F4604393603E4A936823F0F00340
:102F4000A1680B439360236813F0010F32D06368CC
:102F5000012B21D09A1E012A25D9364A126812F077
:102F6000020F61D033498A6822F0030213438B6059
:102F7000FEF7F2FE06462F4B9B6803F00C036268D7
:102F8000B3EB820F16D0FEF7E7FE801B41F28833C9
:102F90009842F0D9032042E0264A126812F4003F1A
:102FA000E0D101203BE0234A126812F0007FD9D122
:102FB000012034E01E4B1B6803F00703AB4207D926
:102FC000EAB21B4B1A701B6803F00703AB422DD10A
:102FD000236813F0040F06D0164A936823F4E053D5
:102FE000E1680B439360236813F0080F07D0114A80
:102FF000936823F46043216943EAC1039360FFF7B8
:1030000003FF0C4B9B68C3F303130B4AD35CD840FC
:103010000A4B18600A4B186801F0A4F8002070BD34
:10302000012070470120FAE70120F8E70120F6E7C8
:10303000003C02400038024004600008B400002058
:10304000B0000020014B1868704700BFB40000209A
:1030500008B5FFF7F7FF044B9B68C3F38223034ACD
:10306000D35CD84008BD00BF00380240FC5F0008B8
:1030700008B5FFF7E7FF044B9B68C3F34233034AED
:10308000D35CD84008BD00BF00380240FC5F000898
:103090000F2303600B4B9A6802F0030242609A68A8
:1030A00002F0F00282609A6802F4E052C2609B680B
:1030B000DB0803F4E0530361034B1B6803F00703D1
:1030C0000B60704700380240003C024030B583B0CE
:1030D0000446036813F0050F06D1236813F0020FAE
:1030E0002ED1002003B030BD4A4B00229A66FEF775
:1030F00033FE0546484B1B6813F0006F06D0FEF701
:103100002BFE431B022BF5D90320EBE76268A36873
:103110001B0743EA8213404AC2F884303D4B012228
:103120009A66FEF719FE05463B4B1B6813F0006FCD
:10313000D3D1FEF711FE431B022BF5D90320D1E7B3
:1031400000230193344B1A6C42F080521A641B6CBA
:1031500003F080530193019B304A136843F480735A
:103160001360FEF7F9FD05462C4B1B6813F4807FB6
:1031700006D1FEF7F1FD431B022BF5D90320B1E781
:10318000254B1B6F13F4407314D0E26802F44072B5
:103190009A420FD0204B1A6F22F440721D49012031
:1031A000C1F8400E0020C1F8400E1A671B6F13F0E3
:1031B000010F13D1E36803F44072B2F5407F1ED0D3
:1031C000154A936823F4F813936013490B6FE26870
:1031D000C2F30B0213430B67002083E7FEF7BCFD2D
:1031E00005460D4B1B6F13F0020FE3D1FEF7B4FD44
:1031F000401B41F288339842F3D9032072E7064915
:103200008A6822F4F81223F0704323F440731343C6
:103210008B60DAE70000474200380240007000404F
:1032200038B5044603680A4ADA60FEF795FD05469C
:103230002368DB6813F0200F07D1FEF78DFD401BDC
:10324000B0F57A7FF4D9032000E0002038BD00BF3C
:103250005F7F010070B50368DA6812F0400F02D09A
:103260000025284670BD0446DA6842F08002DA6024
:10327000FEF772FD064600252368DB6813F0400F59
:10328000EFD1002DEDD1FEF767FD831BB3F57A7FFB
:10329000F2D9042363770125EEE70268D36823F0AF
:1032A0008003D36003689B6813F0200F01D00020D7
:1032B000704710B50446FFF7B3FF10B104236377DE
:1032C000012010BD00284AD010B50446437F53B1F9
:1032D000022363772368DA6812F0100F07D000200A
:1032E0000123637710BD0377FEF794FCF0E7CA2251
:1032F0005A62236853225A622046FFF7ABFF28B177
:103300002368FF225A620028ECD1E9E7226893681B
:1033100023F4E00323F04003936021688A68636824
:10332000206903436069034313438B602368E268A9
:103330001A6122681369A16843EA014313612046B8
:10334000FFF7ABFF0028DBD12268136C23F4802346
:1033500013642268136CA1690B431364D0E7012046
:103360007047002302E001330A38C0B20928FAD8B6
:103370001B01DBB218437047037F012B5AD070B595
:1033800004460E46012303770223437732BB0368CA
:103390009B6813F0400F01D10023CB703078FFF70A
:1033A000E0FF05047078FFF7DCFF45EA0025B07800
:1033B000FFF7D7FF0543F37845EA83552368CA2210
:1033C0005A62236853225A622046FFF743FFB8B17E
:1033D0002368FF225A620023237770BD03689B682D
:1033E00013F0400F01D10023CB70337875782D0294
:1033F00045EA0345B3781D43F37845EA8355DDE795
:10340000236805F07F3525F0FE451D60226893682E
:1034100023F48023936021688B68F268306902434B
:1034200013438B602046FFF738FF0028D0D10123DB
:103430006377CDE702207047037F012B48D070B53A
:1034400004460E460123037702234377CAB1CB78A3
:103450004D782D0245EA03458B781D430B7845EAEC
:1034600043352368CA225A62236853225A6220468F
:10347000FFF7F0FEF0B12368FF225A6200232377A2
:1034800070BD4B7813F0100F03D003F0EF030A3335
:103490004B70F078FFF765FF05047078FFF761FF68
:1034A00045EA0025B078FFF75CFF0543337845EA2D
:1034B0004335D6E7236825F07F4525F0C0055D60DC
:1034C0002046FFF7EAFE0028D5D101236377D2E733
:1034D00002207047F8B5037F012B00F0B580044649
:1034E0000E460123037702234377002A53D1036852
:1034F0009B6813F0400F01D10023CB703078FFF7A9
:1035000030FF05047078FFF72CFF45EA0025B078FE
:10351000FFF727FF0543F37845EA835596F8200027
:10352000FFF71FFF45EA0065F3691D4373691D43FB
:103530007768B3691F432368CA225A6223685322FB
:103540005A62736AB3F5807F3FD02268936823F490
:10355000007393602268936823F400539360226899
:10356000D368DBB263F42073D360FEF7F5FB064645
:103570002368DA6812F0020F56D1FEF7EDFB801BCC
:10358000B0F57A7FF4D92368FF225A62032060776E
:103590000023237757E003689B6813F0400F01D1A5
:1035A0000023CB70337875782D0245EA0345B37854
:1035B0001D43F37845EA835596F8203045EA0365C4
:1035C000F3691D4373691D43B2E72268936823F4CE
:1035D000807393602268936823F480539360226819
:1035E000D368DBB263F4C073D360FEF7B5FB064665
:1035F0002368DA6812F0010F0DD1FEF7ADFB801BD6
:10360000B0F57A7FF4D92368FF225A6203206077ED
:103610000023237717E0DD6123685F6422689368E5
:1036200043F48073936007E01D6223689F642268FF
:10363000936843F4007393602368FF225A62012366
:10364000637700202077F8BD0220FCE700285AD0DD
:1036500010B50446436A33B94368B3F5827F05D099
:103660000023C36102E00023036143610023A362DE
:1036700094F85130002B40D0022384F85130226856
:10368000136823F040031360636803F48273A26835
:1036900002F404421343E26802F400621343226915
:1036A00002F002021343626902F001021343A269AD
:1036B00002F400721343E26902F038021343226AF3
:1036C00002F080021343A26A02F4005221681343FD
:1036D0000B60638B03F00403626A02F0100221683E
:1036E00013434B602268D36923F40063D361002045
:1036F0006065012384F8513010BD84F850302046B5
:10370000FEF7CCFAB8E701207047000030B4036A36
:10371000026A22F0010202624268846924F0730C9A
:103720000C6844EA0C0423F0020C8B6843EA0C0397
:10373000114DA84203D005F58065A84205D123F0BC
:103740000803CD682B4323F004030B4DA84203D09C
:1037500005F58065A84207D122F440724D6945EA1B
:10376000020C8A6942EA0C02426084614A68426340
:10377000036230BC704700BF0000014030B4036AF0
:10378000026A22F4807202624268C46924F0730CF7
:103790000C6844EA0C0523F400738C6843EA0423A4
:1037A000114CA04203D004F58064A04206D123F45A
:1037B0000063CC6843EA042323F480630A4CA042EC
:1037C00003D004F58064A04207D122F440524C6932
:1037D00042EA04128C6942EA04124260C5614A68F6
:1037E000C263036230BC70470000014030B4036A1A
:1037F000026A22F4805202624468C26922F4E642FC
:103800000D6842EA052223F400538D6843EA05332C
:10381000094DA84203D005F58065A84204D124F4DF
:1038200080444D6944EA85144460C2614A68026478
:10383000036230BC704700BF0000014010B4036A4F
:10384000046A24F001040462846924F0F00C4CEA58
:10385000021223F00A030B43826103625DF8044BFA
:10386000704710B4036A046A24F010040462846987
:1038700024F4704C4CEA023223F0A00343EA011313
:10388000826103625DF8044B7047836823F0700324
:103890000B4343F0070383607047000090F83D300E
:1038A000012B37D1022380F83D300268D36843F002
:1038B0000103D3600368194A934220D0B3F1804FCB
:1038C0001DD0A2F57C42934219D002F5806293424A
:1038D00015D002F58062934211D002F578429342EE
:1038E0000DD002F57052934209D0A2F59432934262
:1038F00005D01A6842F001021A60002070479A68E9
:1039000002F00702062A07D01A6842F001021A6084
:1039100000207047012070470020704700000140E0
:103920007047704770477047704770B5044603682A
:10393000DE681D6915F0020F10D016F0020F0DD0D1
:103940006FF002021A610123037703689B6913F089
:10395000030F5ED0FFF7E6FF0023237715F0040F77
:1039600012D016F0040F0FD023686FF004021A6112
:103970000223237723689B6913F4407F4FD02046AE
:10398000FFF7D0FF0023237715F0080F12D016F0B1
:10399000080F0FD023686FF008021A610423237701
:1039A0002368DB6913F0030F40D02046FFF7BAFF0E
:1039B0000023237715F0100F12D016F0100F0FD040
:1039C00023686FF010021A61082323772368DB69EC
:1039D00013F4407F31D02046FFF7A4FF0023237764
:1039E00015F0010F02D016F0010F2DD115F0800F48
:1039F00002D016F0800F2FD115F0400F02D016F034
:103A0000400F31D115F0200F02D016F0200F33D126
:103A100070BDFFF786FF2046FFF785FF9CE7204635
:103A2000FFF77FFF2046FFF77EFFABE72046FFF75B
:103A300078FF2046FFF777FFBAE72046FFF771FFD0
:103A40002046FFF770FFC9E723686FF001021A6193
:103A50002046FDF715F9C9E723686FF080021A6167
:103A6000204600F07EFBC7E723686FF040021A6132
:103A70002046FFF759FFC5E723686FF020021A615F
:103A8000204600F06DFBC3E70368324A904212D033
:103A9000B0F1804F0FD0A2F57C4290420BD002F5DE
:103AA0008062904207D002F58062904203D002F516
:103AB0007842904203D123F070034A681343254AA9
:103AC00090422AD0B0F1804F27D0A2F57C4290429C
:103AD00023D002F5806290421FD002F580629042AE
:103AE0001BD002F57842904217D002F570529042F6
:103AF00013D002F5806290420FD002F580629042AE
:103B00000BD0A2F59832904207D002F58062904225
:103B100003D002F58062904203D123F44073CA6857
:103B2000134323F080034A6913438A68C2620A6818
:103B30008262084A904203D002F58062904201D12D
:103B40000A690263026842F00402026001224261D3
:103B5000036070470000014040B310B5044690F880
:103B60003D30F3B1022384F83D30214651F8040B77
:103B7000FFF78AFF012384F8463084F83E3084F84A
:103B80003F3084F8403084F8413084F8423084F883
:103B9000433084F8443084F8453084F83D300020C8
:103BA00010BD80F83C3001F0EBFBDBE701207047F3
:103BB00040B310B5044690F83D30F3B1022384F8C9
:103BC0003D30214651F8040BFFF75EFF012384F8D6
:103BD000463084F83E3084F83F3084F8403084F832
:103BE000413084F8423084F8433084F8443084F81B
:103BF000453084F83D30002010BD80F83C30FFF7A0
:103C00008FFEDBE70120704730B4036A026A22F0BE
:103C1000100202624468826922F4E6420D6842EAB8
:103C2000052223F020038D6843EA0513114DA842B5
:103C300003D005F58065A84206D123F08003CD6846
:103C400043EA051323F040030A4DA84203D005F5CB
:103C50008065A84207D124F440644D6944EA850494
:103C60008D6944EA8504446082614A688263036224
:103C700030BC70470000014038B590F83C30012B53
:103C800066D004460D46012380F83C300C2A5AD8F1
:103C9000DFE802F0075959591B59595930595959F8
:103CA00044000068FFF732FD2268936943F008037F
:103CB00093612268936923F00403936122689369F6
:103CC00029690B43936100203EE00068FFF79CFFE9
:103CD0002268936943F4006393612268936923F433
:103CE0008063936122689369296943EA01239361A0
:103CF000002029E00068FFF741FD2268D36943F006
:103D00000803D3612268D36923F00403D3612268D6
:103D1000D36929690B43D361002015E00068FFF7E0
:103D200065FD2268D36943F40063D3612268D369D7
:103D300023F48063D3612268D369296943EA0123AC
:103D4000D361002000E00120002384F83C3038BD1E
:103D50000220FCE710B4846824F47F4C42EA03227A
:103D60000A4342EA0C0282605DF8044B704790F807
:103D70003C30012B78D010B50446012380F83C304C
:103D8000022380F83D300268936823F47F4323F0D8
:103D9000770393600B68602B4CD023D8402B54D012
:103DA00011D8202B03D00AD80BB1102B05D11946FE
:103DB0002068FFF76AFD002028E0012026E0302B74
:103DC000F5D0012022E0502B0AD1CA68496800686A
:103DD000FFF734FD50212068FFF757FD002015E064
:103DE000012013E0B3F5805F3AD0B3F5005F14D043
:103DF000702B37D1CB684A6889680068FFF7AAFF43
:103E00002268936843F0770393600020012384F8CD
:103E10003D30002384F83C3010BDCB684A68896887
:103E20000068FFF797FF2268936843F4804393602C
:103E30000020EBE7CA6849680068FFF712FD6021BF
:103E40002068FFF722FD0020E0E7CA6849680068A3
:103E5000FFF7F4FC40212068FFF717FD0020D5E7AD
:103E60000020D3E70120D1E70220704701F01F01B5
:103E70004FF0010C0CFA01FC036A23EA0C03036205
:103E8000036A8A40134303627047000010B504467A
:103E90000846002947D194F83E30013B18BF012362
:103EA000002B40F0A080002853D1022384F83E303C
:103EB0002268D36843F00203D360012201462068E0
:103EC000FFF7D4FF23684B4A934203D002F5806288
:103ED000934203D15A6C42F400425A642368454A23
:103EE000934275D0B3F1804F72D0A2F57C429342D9
:103EF0006ED002F5806293426AD002F580629342EE
:103F000066D002F57842934262D002F57052934235
:103F10005ED0A2F5943293425AD01A6842F0010260
:103F20001A6000205EE0042907D008290BD094F81D
:103F30004130013B18BF0123B2E794F83F30013B09
:103F400018BF0123ACE794F84030013B18BF0123B0
:103F5000A6E7042824D008282BD0022384F8413077
:103F60000C2842D801A353F820F000BFB13E00084E
:103F7000EB3F0008EB3F0008EB3F0008A73F0008BD
:103F8000EB3F0008EB3F0008EB3F0008B93F00089B
:103F9000EB3F0008EB3F0008EB3F0008C53F00087F
:103FA000022384F83F302268D36843F00403D360CF
:103FB00083E7022384F840302268D36843F0080383
:103FC000D3607AE72268D36843F01003D36074E7C4
:103FD0009A6802F00702062A09D01A6842F0010224
:103FE0001A60002010BD0120FCE70120FAE7002044
:103FF000F8E700BF0000014038B505460C460C2923
:1040000063D8DFE801F0076262622E6262623462A6
:1040100062623A000268D36823F00203D360002290
:1040200021462868FFF722FF2B68294A93422AD0AD
:1040300002F58062934226D02B68196A41F2111270
:10404000114208D1196A40F24442114203D11A6860
:1040500022F001021A602CBB012385F83E300020BB
:1040600034E00268D36823F00403D360D7E7026822
:10407000D36823F00803D360D1E70268D36823F044
:104080001003D360CBE7196A41F211121142D3D168
:10409000196A40F244421142CED15A6C22F40042D5
:1040A0005A64C9E7042C06D0082C09D0012385F8EE
:1040B000413000200AE0012385F83F30002005E070
:1040C000012385F84030002000E0012038BD00BF0A
:1040D0000000014090F83C20012A3DD010B4034676
:1040E000012280F83C20022280F83D2002685068BE
:1040F000946820F0700C086840EA0C0050601A6860
:10410000164882421AD0B2F1804F17D0A0F57C40F9
:10411000824213D000F5806082420FD000F58060AB
:1041200082420BD000F57840824207D000F57050F3
:10413000824203D0A0F59430824204D124F080045E
:10414000496821439160012283F83D20002083F8D3
:104150003C005DF8044B70470220704700000140AE
:104160007047704730B589B0044600230193214B56
:104170001A6C42F020021A641B6C03F020030193B6
:10418000019B02A903A8FEF783FF069BCBB9FEF7AC
:104190005FFF0346184AA2FB03239B0C013B174811
:1041A000174A026040F2E732C260436000230361B5
:1041B00083608361FFF7D0FC054630B1284609B023
:1041C00030BDFEF745FF4300E4E70C48FFF766FB10
:1041D00005460028F2D13720FDF7B8FF0F2C01D992
:1041E0000125EBE7002221463720FDF79FFF054B15
:1041F0001C60E3E70038024083DE1B43148A002082
:1042000000140040B0000020026802F10C0353E8E3
:10421000003F23F490730C3242E800310029F3D1BF
:10422000026802F1140353E8003F23F00103143243
:1042300042E800310029F3D1036B012B05D0202384
:1042400080F84230002303637047026802F10C03D8
:1042500053E8003F23F010030C3242E800310029FC
:10426000F3D1ECE790F84130212B01D002207047C8
:104270008368B3F5805F17D0036A5A1C02621A780C
:1042800003685A60C38C9BB2013B9BB2C3844BB999
:104290000268D36823F08003D3600268D36843F0D8
:1042A0004003D360002070470369002BE4D1036A08
:1042B0001B880268C3F308035360036A0233036276
:1042C000E0E7000010B504460268136923F4405388
:1042D000C1680B431361836802691A4343691A4337
:1042E000C3691A430168CB6823F4164323F00C0317
:1042F0001343CB600268536923F4407381690B4315
:1043000053610368314A934206D002F580629342BA
:1043100002D0FEF79DFE01E0FEF7AAFEE369B3F5C9
:10432000004F29D00021031849411B1841F1000119
:10433000C90041EA5371DB00181863684FEA830231
:104340004FEA937341F10001FBF722FF204AA2FBE1
:1043500000314909642303FB11031B013233A2FB23
:1043600003235B0903F0F00202EB011203F00F03D9
:10437000216813448B6010BD0023021843EB030136
:10438000121841F10001C90041EA5271D20010181F
:1043900041F10001626892185B41FBF7F9FE0C4A9B
:1043A000A2FB00314909642303FB1103DB00323314
:1043B000A2FB03235B095A0002F4F87202EB01121C
:1043C00003F00703216813448B60D4E70010014019
:1043D0001F85EB5160B310B5044690F8413013B31C
:1043E000242384F841302268D36823F40053D36037
:1043F0002046FFF767FF2268136923F49043136197
:104400002268536923F02A0353612268D36843F476
:104410000053D36000206064202384F8413084F886
:104420004230606310BD80F8403001F0D7FAD7E722
:1044300001207047704708B50168CA6822F0400241
:10444000CA60202280F84120FFF7F4FF002008BD59
:104450007047704708B5806B0023C385FFF7F9FFED
:1044600008BD704790F84230222B69D18368B3F5BC
:10447000805F4FD0826AB3F5805F04D0002B56D1A5
:104480000369002B53D103685B681370836A01339F
:104490008362C38D9BB2013B9BB2C385002B51D17C
:1044A00000B583B00268D36823F02003D3600268AC
:1044B000D36823F48073D3600268536923F0010347
:1044C0005361202380F8423000234363036B012BA8
:1044D00033D100230363026802F10C0353E8003F69
:1044E00023F010030C3242E800310029F3D10368B5
:1044F0001A6812F0100F06D0002201921A68019279
:104500005B680193019B818DFFF7ABFF002003B037
:104510005DF804FB0269002AACD1826A03685B681B
:10452000C3F308031380836A02338362B1E703682D
:104530005B6803F07F031370A8E7FFF789FFE5E7E7
:10454000022070470020704710B582B00446026810
:104550001368D068516913F00F0F09D113F0200FC1
:104560000CD010F0200F09D02046FFF77BFF16E09B
:1045700011F0010115D110F4907F12D1216B0129A6
:1045800079D013F0800F03D010F0800F40F021811C
:1045900013F0400F03D010F0400F40F01E8102B026
:1045A00010BD13F0010F06D010F4807F03D0626CB1
:1045B00042F00102626413F0040F04D019B1626C7E
:1045C00042F00202626413F0020F04D019B1626C6F
:1045D00042F00402626413F0080F07D010F0200FBD
:1045E00000D119B1626C42F008026264626C002A68
:1045F000D5D013F0200F02D010F0200F29D123685E
:104600005B6903F04003626C12F0080F00D163B3E2
:104610002046FFF7F9FD23685B6913F0400F20D0B7
:10462000226802F1140353E8003F23F040031432E0
:1046300042E800310029F3D1E36B73B1694A1A658E
:10464000E06BFDF7E0FE0028A9D0E06B036D984712
:10465000A5E72046FFF706FFD1E72046FFF7F9FE62
:104660009DE72046FFF7F5FE99E72046FFF7F1FEAC
:104670000023636493E713F0100F82D010F0100F43
:104680003FF47FAF002301931368019353680193B4
:10469000019B536913F0400F5FD0E26B13685B68B6
:1046A0009BB2002B4AD0A18D994247D9E385D369AB
:1046B000B3F5807F37D0226802F10C0353E8003F46
:1046C00023F480730C3242E800310029F3D12268D0
:1046D00002F1140353E8003F23F00103143242E8CF
:1046E00000310029F3D1226802F1140353E8003F9E
:1046F00023F04003143242E800310029F3D1202393
:1047000084F8423000232363226802F10C0353E84B
:10471000003F23F010030C3242E800310029F3D1AE
:10472000E06BFDF727FE02236363A18DE38D9BB24F
:10473000C91A89B22046FFF794FE30E7A18D99424D
:104740007FF42DAFD369B3F5807F7FF428AF0223C8
:1047500063632046FFF785FE21E7A18DE38D9BB2C1
:10476000C91A89B2E38D9BB2002B3FF418AF002920
:104770003FF415AF226802F10C0353E8003F23F425
:1047800090730C3242E800300028F3D1226802F125
:10479000140353E8003F23F00103143242E80030D1
:1047A0000028F3D1202384F84230002323632268B9
:1047B00002F10C0353E8003F23F010030C3242E8EF
:1047C00000300028F3D1022363632046FFF749FE3F
:1047D000E5E62046FFF746FDE1E62046FFF72BFE23
:1047E000DDE600BF55440008FEE7FEE7FEE7FEE712
:1047F000FEE7704708B50248FDF718FE08BD00BF88
:104800003808002010B5044C2046FFF78EF82046EB
:10481000FCF76CFC10BD00BFA48F002008B5024857
:10482000FFF792FE08BD00BF2893002008B502489C
:10483000FFF77BF808BD00BF5C8F002008B5024879
:10484000FFF773F808BD00BF148A002008B50248BE
:10485000FDF7ECFD08BD00BFD400002008B50248FC
:10486000FDF7E4FD08BD00BFC091002008B5024877
:10487000FDF7DCFD08BD00BF8092002008B50248AE
:10488000FDF7D4FD08BD00BF6091002008B50248C7
:10489000FDF7CCFD08BD00BF2092002008B50248FE
:1048A000FFF752FE08BD00BFE0920020034AD2F895
:1048B000883043F47003C2F88830704700ED00E0A0
:1048C000084B1B681B6823B9074B4FF0FF321A6077
:1048D0007047044B1B68DB68DB685A68024B1A6040
:1048E000704700BFCC8A0020648A00202DE9F04781
:1048F00080460D4617469946089EDDF824A00A9C7E
:104900009200A521206B01F07EF9236B07F1804214
:10491000013A03EB820727F00707A5B34FF0000C1D
:10492000BCF10F0F09D815F80C3004EB0C0282F81B
:10493000343013B10CF1010CF2E7002384F843305A
:10494000372E00D93726E662E66400252565201D4E
:10495000FCF75BF904F11800FCF757F92461C6F184
:104960003806A6616462656584F858504A46414637
:104970003846FCF713FC2060BAF1000F01D0CAF8EA
:104980000040BDE8F087002384F83430D8E7000009
:1049900038B5002407E004EB840293000E48184465
:1049A000FCF728F90134372CF5D90C4D2846FCF7D3
:1049B00021F90B4C2046FCF71DF90A48FCF71AF9BF
:1049C0000948FCF717F90948FCF714F9084B1D6072
:1049D000084B1C6038BD00BFF88A0020E48A002024
:1049E000D08A0020B48A0020A08A0020888A002073
:1049F000CC8A0020C88A002010B50446FCF7FAFBD8
:104A0000224A136801331360214B1B685BB1214BB1
:104A10001B686BB91E4B1B68DA6AE36A9A4207D8B7
:104A20001B4B1C6004E01A4B1C601368012B29D03F
:104A3000194A1368013313606364E06A174B1B68FB
:104A4000984201D9154B186000EB8000211D144BD2
:104A500003EB8000FCF7DCF8FCF7EEFB0D4B1B686A
:104A60007BB10B4B1B68DA6AE36A9A4209D24FF0BA
:104A7000E0234FF08052C3F8042DBFF34F8FBFF3F4
:104A80006F8F10BDFFF784FFD2E700BF848A00203C
:104A9000588F0020788A0020688A00207C8A0020B5
:104AA000F88A002010B5044690F8593063B1012B04
:104AB00011D0022B0ED04FF0500383F31188BFF3B7
:104AC0006F8FBFF34F8FFEE7006BFBF7FFFF2046B2
:104AD000FBF7FCFF10BDFBF7F9FFFBE70F4B1B6873
:104AE000D3B110B5FCF786FB0D4BDB68DC68201DED
:104AF000FCF7B2F80B4A1368013B1360074A1368CE
:104B0000013B1360FCF798FB2046FFF7CBFF034BFC
:104B10001B68002BE6D110BD704700BF9C8A0020A7
:104B2000A08A0020848A002008B5FFF7D7FF074B32
:104B30001B68012BF9D94FF0E0234FF08052C3F8E6
:104B4000042DBFF34F8FBFF36F8FEEE7F88A00207D
:104B500070B504460D46174B1E68174B1868043095
:104B6000FCF77AF8B4F1FF3F0DD03444124B1B68C8
:104B70005C60A64210D9114B18680F4B19680431BC
:104B8000FCF751F870BD002DEFD00B4B19680431C4
:104B90000B48FCF73DF8F5E70A4B1868064B196817
:104BA0000431FCF740F8084B1B68A342EAD9064BD6
:104BB0001C60E7E7808A0020588F0020C88A002008
:104BC000888A0020CC8A0020648A002030B587B013
:104BD0000B9C7CB10C9DB5B15C250495049D5C2DAE
:104BE0001AD04FF0500383F31188BFF36F8FBFF3D8
:104BF0004F8FFEE74FF0500383F31188BFF36F8FA1
:104C0000BFF34F8FFEE74FF0500383F31188BFF3DC
:104C10006F8FBFF34F8FFEE7049D0C9D2C63022422
:104C200085F8594000240394029505AC01940A9C30
:104C30000094FFF75BFE0C98FFF7DEFE059807B0C7
:104C400030BD2DE9F04385B00746884614461E4620
:104C50009000FBF7B9FE08B381465C20FBF7B4FE79
:104C60000546A8B1C0F83090002380F8593003936E
:104C700002900D9B01930C9B0093334622464146C4
:104C80003846FFF733FE2846FFF7B6FE012007E05F
:104C90004846FBF71BFF4FF0FF3001E04FF0FF30BD
:104CA00005B0BDE8F083000010B588B0002405947D
:104CB000069407AA06A905A8FBF7D4FB059B029357
:104CC000069B019300942346079A17491748FFF75C
:104CD0007DFF174B1860C0B100F08EFC012815D184
:104CE0004FF0500383F31188BFF36F8FBFF34F8FE3
:104CF000104B4FF0FF321A600F4B01221A600F4B1E
:104D000000221A60FCF710FB03E00020B0F1FF3F27
:104D100001D008B010BD4FF0500383F31188BFF3EA
:104D20006F8FBFF34F8FFEE7985F0008294B000895
:104D3000608A0020648A0020788A0020808A00200F
:104D4000024A136801331360704700BF5C8A002079
:104D5000014B1868704700BF808A0020F8B53A4BB5
:104D60001B68002B69D1394B1D6801351D60C5B921
:104D7000374B1B681B6843B14FF0500383F3118816
:104D8000BFF36F8FBFF34F8FFEE7314A1168314B8E
:104D9000186810601960304A136801331360FFF718
:104DA0008FFD2E4B1B68AB423DD900272C4B1B6857
:104DB000DB6A03EB83039A002A4B9B58012B00D933
:104DC0000127294B1B68002B3CD001273AE0012723
:104DD0001F4B1B681B6843B31D4B1B68DB68DC68FB
:104DE00063689D4226D3261D3046FBF735FFA36A34
:104DF0001BB104F11800FBF72FFFE36A1B4A12688E
:104E0000934201D9194A136003EB83039A00314698
:104E100014481044FBF7FCFEE26A114B1B68DB6A86
:104E20009A42D4D2D4E70027D2E70C4B4FF0FF329E
:104E30001A60BBE7094A1360B8E70D4A13680133EB
:104E4000136000273846F8BD5C8A0020808A002065
:104E5000CC8A0020C88A00206C8A0020648A002046
:104E6000588F0020F88A0020708A00207C8A002059
:104E7000748A002038B5354B1B6843B94FF0500396
:104E800083F31188BFF36F8FBFF34F8FFEE7FCF7FB
:104E9000B1F92E4B1A68013A1A601B68002B4FD1EA
:104EA0002B4B1B680BB900244BE00024294B1B68DB
:104EB0001BB3284BDB68DC6804F11800FBF7CCFE61
:104EC000251D2846FBF7C8FEE06A234B1B68984265
:104ED00001D9214B186000EB800029461F4B03EBE2
:104EE0008000FBF795FEE26A1D4B1B68DB6A9A4265
:104EF000DCD31C4B01221A60D8E70CB1FFF7E0FCB1
:104F0000194B1C6884B9174B1C68D4B14FF0E023CF
:104F10004FF08052C3F8042DBFF34F8FBFF36F8F54
:104F200001240EE0013C07D0FFF718FF0028F9D05C
:104F30000C4B01221A60F5E70B4B00221A60E2E7E6
:104F40000024FCF779F9204638BD00BF5C8A0020B8
:104F5000848A0020B48A00207C8A0020F88A0020FD
:104F6000588F0020708A0020748A002010B5A8B1E4
:104F70000446104B1B6843B14FF0500383F3118874
:104F8000BFF36F8FBFF34F8FFEE7FFF7D9FE00210E
:104F90002046FFF7DDFDFFF76DFF48B94FF0E02336
:104FA0004FF08052C3F8042DBFF34F8FBFF36F8FC4
:104FB00010BD00BF5C8A0020204B1B681BB1204B3A
:104FC00001221A6070471E4B00221A601D4B1B689D
:104FD00003EB83018A001C498A585AB90BB1013B83
:104FE000F6E74FF0500383F31188BFF36F8FBFF3E1
:104FF0004F8FFEE7084603EB83018A0002445168A5
:105000004968516003EB830C4FEA8C02083202447A
:1050100091420BD003EB830291000B4A0A44526881
:10502000D1680A4A1160074A1360704748686246AF
:105030009100054A0A445060ECE700BF5C8A0020FA
:10504000708A00207C8A0020F88A0020588F002077
:1050500058B110B50C46094A11681831FBF7E3FD49
:1050600001212046FFF774FD10BD4FF0500383F37C
:105070001188BFF36F8FBFF34F8FFEE7588F00206B
:1050800038B570B10D4614460A4A11681831FBF75D
:10509000BFFD0CB14FF0FF3521462846FFF758FD04
:1050A00038BD4FF0500383F31188BFF36F8FBFF308
:1050B0004F8FFEE7588F002038B5C368DC6824B3F3
:1050C00004F118052846FBF7C7FD184B1B682BBBDE
:1050D000251D2846FBF7C0FDE06A154B1B6898426A
:1050E00001D9134B186000EB80002946114B03EBEC
:1050F0008000FBF78DFDE26A0F4B1B68DB6A9A426A
:1051000011D901200D4B186038BD4FF0500383F3C7
:105110001188BFF36F8FBFF34F8FFEE72946084812
:10512000FBF776FDE7E70020EEE700BF5C8A002092
:105130007C8A0020F88A0020588F0020708A002086
:10514000B48A0020034B1B680360034B1B68436059
:10515000704700BF6C8A0020808A0020E0B170B5E3
:105160000C46054609B3FCF745F81C4B19686B68FB
:10517000C81A2268B2F1FF3F28D0DFF864C0DCF81B
:1051800000C02E68664501D08B4224D9824215D8D2
:105190000023236001241AE04FF0500383F31188A9
:1051A000BFF36F8FBFF34F8FFEE74FF0500383F3D2
:1051B0001188BFF36F8FBFF34F8FFEE75B1A134465
:1051C00023602846FFF7BEFF002400E00024FCF720
:1051D00033F8204670BD0124F9E700BF808A002023
:1051E0006C8A0020014B01221A607047708A0020EF
:1051F000054B1B6833B1054B1B680BB10020704792
:105200000220704701207047788A00205C8A0020C5
:1052100000283BD038B504461E4B1B68834208D09B
:105220004FF0500383F31188BFF36F8FBFF34F8F9D
:10523000FEE7036D43B94FF0500383F31188BFF3CA
:105240006F8FBFF34F8FFEE7013B0365C16AC26CEE
:1052500091421DD00BB1002038BD051D2846FBF73B
:10526000FBFCE06CE062C0F13803A3610A4B1B68F1
:10527000984201D9084B186000EB80002946074B83
:1052800003EB8000FBF7C4FC0120E5E7002070473A
:105290000020E1E7588F00207C8A0020F88A002057
:1052A00000B587B000230293039304930593009302
:1052B000019316484FF0804202605322426083609F
:1052C0007C22C260036180238361FEF745FC98B9AC
:1052D0004FF48053029302A90C48FEF748FD70B9C1
:1052E000202300930023019369460848FEF7F2FE4D
:1052F00040B907B05DF804FBFBF7CEFCE8E7FBF72D
:10530000CBFCEDE7FBF7C8FCF3E700BFEC8F002018
:1053100000B587B000230293039304930593009391
:1053200001931548154A0260A722426083606322F8
:10533000C2600361436180238361FEF70DFC90B975
:105340004FF48053029302A90B48FEF710FD68B991
:1053500000230093019369460748FEF7BBFE40B95E
:1053600007B05DF804FBFBF797FCE9E7FBF794FC5B
:10537000EEE7FBF791FCF3E75C8F002000040140AF
:1053800000B585B00368B3F1804F08D01E4A934240
:1053900012D01E4A934223D005B05DF804FB0023CF
:1053A00001931B4B1A6C42F001021A641B6C03F050
:1053B00001030193019BEFE700220292144B196C49
:1053C00041F0020119641B6C03F002030293029B7B
:1053D00005211D20FCF7AAFE1D20FCF7B7FEDBE728
:1053E000002203920A4B596C41F0020159645B6C34
:1053F00003F002030393039B05212C20FCF796FE88
:105400002C20FCF7A3FEC7E7000400400004014085
:105410000038024000B587B0002301930293039344
:105420000493059302680E4B9A4202D007B05DF8D0
:1054300004FB002300930B4B1A6B42F002021A6329
:105440001B6B03F002030093009B102301930223C4
:105450000293059301A90448FDF7D6F8E6E700BFDB
:1054600000040040003802400004024000B58FB044
:1054700000230A930B930C930D93089309930193C4
:105480000293039304930593069307932248234AB8
:10549000026053224260836040F2E732C2600361DF
:1054A00080238361FEF758FB30BB4FF480530A938F
:1054B0000AA91948FEF75BFC08BB1748FEF778FB02
:1054C00000BB00230893099308A91348FEF702FEC6
:1054D000D8B9602301934FF4FA7302930022039228
:1054E000059201A90C48FEF7C7FB88B90A48FFF7E7
:1054F00091FF0FB05DF804FBFBF7CEFBD5E7FBF7A0
:10550000CBFBDAE7FBF7C8FBDBE7FBF7C5FBE0E724
:10551000FBF7C2FBEAE700BFA48F002000040040B5
:10552000064B1A6813682BB90123036023B9D368AB
:10553000186870470023F8E7002070473491002076
:1055400008B54160006191420CD8D21A83699A4231
:1055500001D3012008BD011D094B1868FBF763FB4F
:105560000020F7E79A4201D2994206D2011D054B6D
:105570001868FBF758FB0020ECE70120EAE700BFC2
:10558000309100203491002030B583B0FBF732FE1B
:10559000114B1B681BB1FBF74FFE03B030BD0F4D25
:1055A0002846FBF727FB0E4C2046FBF723FB0D4B51
:1055B0001D600D4B1C60002300930C4B0C4A102106
:1055C0000A20FCF75EF8044B18600028E3D0094974
:1055D000FCF77CFADFE700BF2C9100204C91002003
:1055E0003891002034910020309100203490002028
:1055F00084900020A05F000810B588B0FFF7C4FFBA
:10560000124B1B68CBB100240594069407AA06A987
:1056100005A8FAF733FF059B0293069B019302232B
:1056200000932346079A0A490A48FFF7CFFA0A4B24
:10563000186010B1012008B010BD4FF0500383F383
:105640001188BFF36F8FBFF34F8FFEE72C910020BF
:10565000A85F00085D59000828910020B8B19C4659
:1056600003461848006858B300B585B00091019210
:10567000029305291CDCFFF7BBFD022810D0002394
:105680001A4669460F480068FCF745F815E04FF0E8
:10569000500383F31188BFF36F8FBFF34F8FFEE783
:1056A0000023069A694607480068FCF734F804E0CE
:1056B000002362466946FCF7F2F805B05DF804FB8A
:1056C000002070472C91002070B582B01B4B1B68E6
:1056D0001A6862B3DB681E68DC68251D2846FBF784
:1056E000BBFA236A2046984794F8283013F0040F39
:1056F000ECD0A36933449E4207D2636024612946FB
:105700000E4B1868FBF78FFAE0E7002100910B467B
:1057100032462046FFF7A2FF0028D7D14FF05003B2
:1057200083F31188BFF36F8FBFF34F8FFEE7044AF7
:10573000106802490860136002B070BD3491002007
:105740003091002038B50546FFF702FB0446074BB1
:105750001B68834205D800232B60044B1C60204645
:1057600038BDFFF7B1FF01232B60F6E7249100203D
:1057700070B582B006460D4617490968C968CC68FD
:10578000201DFBF769FA94F828C01CF0040F08D11B
:105790002CF0010C84F828C0236A2046984702B0F8
:1057A00070BDA16933462A4631442046FFF7C8FE42
:1057B0000028F1D0002100910B4632462046FFF729
:1057C0004DFF0028E8D14FF0500383F31188BFF359
:1057D0006F8FBFF34F8FFEE73491002070B582B01A
:1057E00006460C46FFF7ACFA01A8FFF7ABFF019B9A
:1057F00033BB0546E4B9B04213D22246711B124BAB
:105800001868FCF777F9FFF735FBD8B94FF0E023BC
:105810004FF08052C3F8042DBFF34F8FBFF36F8F4B
:1058200010E0FFF727FB29463046FFF7A1FF09E00C
:10583000064A126812680AB90124DEE71C46DCE752
:10584000FFF718FB02B070BD2C91002030910020B2
:1058500010B588B002E0049B002B0FDA002204A9E7
:105860003D4B1868FCF782F8002872D0049B002B8F
:10587000F1DA07990698059B9847ECE7069C63695F
:1058800013B1201DFBF7E8F903A8FFF75BFF024601
:10589000049B092BE2D8DFE803F00505052F364EFF
:1058A00005052F3694F8283043F0010384F828309A
:1058B000059BA16919442046FFF742FE0028CDD080
:1058C000236A2046984794F8283013F0040FC5D077
:1058D000A269002100910B46059802442046FFF77B
:1058E000BDFE0028BAD14FF0500383F31188BFF3F7
:1058F0006F8FBFF34F8FFEE794F8283023F001033A
:1059000084F82830AAE794F8283043F0010384F89B
:1059100028300599A16129B1034601442046FFF7CB
:105920000FFE9BE74FF0500383F31188BFF36F8F97
:10593000BFF34F8FFEE794F8283013F0020F04D026
:1059400023F0010384F8283088E72046FBF7BEF8EF
:1059500084E708B010BD00BF2C91002000B583B0D3
:1059600001A8FFF7DDFD0199FFF738FFFFF770FF92
:10597000F6E7000008B50A480A4B03604FF4E1332C
:10598000436000238360C36003610C224261836132
:10599000C361FEF71FFD00B908BDFBF77DF9FBE70A
:1059A000289300200010014008B50A480A4B036004
:1059B0004FF4E133436000238360C36003610C2232
:1059C00042618361C361FEF705FD00B908BDFBF7C5
:1059D00063F9FBE7E09200200014014030B58BB082
:1059E00004460023059306930793089309930368DD
:1059F000634A934204D0634A934261D00BB030BDF6
:105A000000250195604B5A6C42F010025A645A6CA2
:105A100002F010020192019A02951A6B42F0010203
:105A20001A631B6B03F001030293029B4FF4C063E4
:105A3000059302230693032308930723099305A9DB
:105A40005248FCF7E1FD5248524B03604FF00063AF
:105A500043608560C5604FF4806303614561856183
:105A6000C56105624562FCF71FFC18BB484BE36348
:105A70009C634948494B03604FF0006343604023F7
:105A800083600023C3604FF48062026143618361DD
:105A9000C36103624362FCF707FC70B93E4BA3632A
:105AA0009C63002205212520FCF740FB2520FCF704
:105AB0004DFBA3E7FBF7F0F8D8E7FBF7EDF8EDE7D0
:105AC00000250395304B5A6C42F020025A645A6C00
:105AD00002F020020392039A04951A6B42F004022A
